:02000004080AE8
:1000000000000A08A0500A080000060006000501CA
:0800100004027C050000000061
:040018002C420A0864
:10001C0009480A4908B5884205D0094A824202D0EB
:10002C00121A04F0B9F80748074A0021121A04F012
:10003C00BEF8064808BD00BF00000020EC4B0A08C3
:10004C008C0400208C040020D80A0020D80A002040
:10005C0070B502F011FD074B074C1E46E41AA408BC
:10006C000025A54204D056F8253098470135F8E70D
:10007C0070BD00BF884B0A08D44B0A0800F024B8A6
:10008C0008B500F04DF8BDE8084002F0B7BC01F02F
:10009C00EFBE01F0EDBE01F0F3BE01F0F1BE0000C9
:1000AC0008B5034A00210C2001F056FEFEE700BF04
:1000BC00C11A0A080078B0FA80F040097047012391
:1000CC00037070477047000008B502F0F1FD4FF463
:1000DC00165102F0CDFD01F039FB00F065F820B9A6
:1000EC0002F0E6FD094902F0A5FB0949094800F0B8
:1000FC00D1FF084800F0E9FE30B1BDE80840064ADF
:10010C000649044801F045B808BD00BF40420A0842
:10011C0057420A089004002065420A0871420A08F6
:10012C0008B50F4801F020FB4FF47A7002F014FC74
:10013C000C4801F05FFB4FF47A7002F00DFC0A489A
:10014C0001F09EFB4FF47A7002F006FC074801F0B8
:10015C00DDFBBDE808404FF47A7002F0FDBB00BF38
:10016C000000084200008642000020410000B0411F
:10017C0010B5084C01F026FC40F25B720649204693
:10018C00064B00F0BBFD2046BDE81040044A054973
:10019C0003F07EB89004002000000020D1000A0873
:1001AC008C040020C5110A0808B502F081FD02F08C
:1001BC0066FD20B1BDE80840014801F0B1BA08BDA8
:1001CC00E804002008B501F0FDFBBDE8084001483B
:1001DC0001F036B8E8040020F0B5447EBDF81450A8
:1001EC00022C08D0032C0FD0012C70D10489013CB7
:1001FC00A21A12B20CE04489013CA21A048912B270
:10020C00E41A611A09B262E04489E41A611A09B26B
:10021C00002A5BDBB0F90840944240F3908000293F
:10022C00BEBF5B181BB20021B0F90A00CC18844287
:10023C00C4BF431A1BB2002B40F38180C9B2C8085B
:10024C003F4F02EBC01211F00701DBB207EB0204C7
:10025C0017D0C1F10801C8B23A4983420E5C3FBFC6
:10026C00C3EB000EFF2141FA0EF10E40B95C012DDB
:10027C000CBF3143B1438342B95460D3181AC3B293
:10028C008034072B17D9012D0CBFFF2000201A46F4
:10029C0004F18001083AD2B2072A01F8800C01F16E
:1002AC008001F7D8A3F10802C2F3C402013204EBB7
:1002BC00C21403F00703002B41D0234A012DD25C5A
:1002CC0023780CBF134393432370F0BDF0BD002A79
:1002DC0035DBB0F90A40944231DD0029BCBFC918A6
:1002EC000BB2B0F90870B8BF0021CE18BE42C4BF23
:1002FC00631A1BB2002B22DDD01001EBC011104889
:10030C0002F007020144012000FA02F28542D2B247
:10031C0009D1013B1BB25C1C11D011F8010B10432D
:10032C0001F8010CF5E7D243D2B2013B1BB2581CC9
:10033C0005D011F8010B104001F8010CF5E7F0BDE8
:10034C00230000201B00002013000020F0B5447E89
:10035C00BDF81450022C08D0032C0FD0012C12D154
:10036C000489E41AA21A12B26DE00489013C611AE4
:10037C00448909B2E41AA21A12B204E04489013C7D
:10038C00611A09B25FE000295CDBB0F908408C42CD
:10039C0040F39180002ABCBFD21813B2B0F90A0006
:1003AC00B8BF0022D4188442C4BF831A1BB2002BDE
:1003BC0040F38180D4B2404EDAB2E30801EBC311B2
:1003CC0014F0070406EB010317D0C4F10804E0B2E3
:1003DC003A4C8242275C3FBFC2EB000EFF2444FA2A
:1003EC000EF42740745C012D0CBF3C43BC4382428D
:1003FC00745460D3101AC2B28033072A17D9012D56
:10040C000CBFFF240024114603F180000839C9B247
:10041C00072900F8804C00F18000F7D8A2F1080100
:10042C00C1F3C401013103EBC11302F00702002A2E
:10043C0041D02349012D895C1A780CBF0A438A43A9
:10044C001A70F0BDF0BD002935DBB0F90A408C42C2
:10045C0031DD002ABCBFD21813B2B0F90870B8BF96
:10046C000022D618BE42C4BFA31A1BB2002B22DD39
:10047C00C81002EBC012104801F007011044012211
:10048C0002FA01F19542C9B209D15A1E13B25C1C91
:10049C0011D010F8012B0A4300F8012CF5E7C943E1
:1004AC00C9B25A1E13B25A1C05D010F8012B0A40BF
:1004BC0000F8012CF5E7F0BD230000201B00002004
:1004CC0013000020704710B50446242102F0E5FE0D
:1004DC00204610BD10B422B11946054810BC01F0DD
:1004EC00DBBD0122C9B2C0B210BC02F054BE00BFC9
:1004FC00E4090020F8B50D1E064614461F463FDBE6
:10050C0000F0AEFB85423BDA002C39DB304600F0C4
:10051C00AAFB844234DA304600F0A0FB022827D133
:10052C003189708901390138491B001B0DB204B2A5
:10053C0006E0012804D13389013B1B1B2C461DB25C
:10054C00082094FBF0F0012F00B20E4B04F00702D0
:10055C0005EBC01104D197405A5C17435F54F8BDAA
:10056C00585C012707FA02F220EA02025A54F8BD3D
:10057C000328DED17389013B5B1B25461CB2DFE7E8
:10058C00F8BD00BF2300002038B504460D464022BC
:10059C00802100F077FA064B84F820502360FF236B
:1005AC00637784F82130E377A377204638BD00BF0A
:1005BC0084420A0838B590F91D30044601330D46C3
:1005CC0022D090F92100012180B202F0B8FD94F9FB
:1005DC001F00002180B202F0B2FD94F9210000212D
:1005EC0080B202F0ACFD94F91E1094F91D002B465C
:1005FC0094F82220FFF76EFF94F92100012180B2BC
:10060C00BDE8384002F09BBD02F022FE94F91B10AD
:10061C0002F086FC02F01CFE036800219B689847E0
:10062C0002F016FE036829469B68984702F010FEFC
:10063C00BDE8384002F07BBC38B50446217790F910
:10064C001D300D460133C27633D090F91F000121C5
:10065C0080B202F063FD94F92100012180B202F016
:10066C005DFD94F822305BB994F91D00012180B234
:10067C0002F054FD94F91E00012180B202F04EFDEF
:10068C0094F82230CBB194F92100012180B202F010
:10069C0056FD01214F4801F02CFC10214D4801F072
:1006AC00E7FC00214B4801F027FC4A4801F01CFCF8
:1006BC0003E002F0CDFD02F01DFC94F920000121B5
:1006CC0080B202F02BFD94F92000012180B202F0DF
:1006DC0036FD012002F040F994F92000002180B28F
:1006EC0002F02DFD0A2002F037F994F920000121C7
:1006FC0080B202F024FD2046AE21FFF75BFF2046BE
:10070C00D521FFF757FF20468021FFF753FF2046E6
:10071C00A821FFF74FFF20463F21FFF74BFF204654
:10072C00D321FFF747FF20460021FFF743FF204668
:10073C004021FFF73FFF8D212046FFF73BFF012DA6
:10074C000CBF102114212046FFF734FF2046202136
:10075C00FFF730FF20460021FFF72CFF2046A12198
:10076C00FFF728FF2046C821FFF724FF2046DA2197
:10077C00FFF720FF20461221FFF71CFF81212046A6
:10078C00FFF718FF012D0CBF9F21CF212046FFF74B
:10079C0011FFD9212046FFF70DFF012D0CBF22219F
:1007AC00F1212046FFF706FF2046DB21FFF702FF71
:1007BC0020464021FFF7FEFE2046A421FFF7FAFE5B
:1007CC002046A621FFF7F6FE2046BDE83840AF21B3
:1007DC00FFF7F0BEE40900202DE9F0410446212189
:1007EC00FFF7E8FE00212046FFF7E4FE7F212046BC
:1007FC00FFF7E0FE22212046FFF7DCFE0021204619
:10080C00FFF7D8FE07212046FFF7D4FE94F91D30E0
:10081C00DFF8AC8001332ED094F92100012180B295
:10082C0002F08DFC94F91F00012180B202F087FCCC
:10083C0094F92100002180B202F081FC012001F02A
:10084C0039F9002518F8053094F8222094F91E1077
:10085C0094F91D000135FFF73DFEB5F5806FF1D120
:10086C00012001F027F994F92100012180B2BDE8A3
:10087C00F04102F064BC002502F0EAFC94F91B1074
:10088C0002F04EFB02F0E4FC036840219B689847A1
:10089C00002602F0DDFCAF190368BFB29B6818F8A4
:1008AC00071001369847102EF3D1103502F0D0FC0A
:1008BC00ADB202F03CFBB5F5806FDDD1BDE8F08147
:1008CC00230000204FF480620021014803F06FBC2C
:1008DC002300002001F076B82DE9F04F1E4685B0BC
:1008EC00BDF9383015469A1A002AB8BF5242009208
:1008FC00721A002AB8BF524201920C46009A019912
:10090C0081468A42BDF83CA005DD32461E461346A0
:10091C0022462C461546B44205DD2A461D46134692
:10092C002246344616465A1B002AC4EB0608B8BFAA
:10093C0052421FFA88F803920FFA88F702229D425E
:10094C00B4BF01234FF0FF3397FBF2F70293B4428D
:10095C001FDC019A009B48469342D9F80030C8BF6F
:10096C002246D3F810B0C8BF29465346DCBF2A46EE
:10097C002146D847039BFF1ABBB21FB2002F05DAE2
:10098C00029A08EB030715442DB23FB2013424B28E
:10099C00DDE705B0BDE8F08F2DE9F347044691463D
:1009AC000D469846BDF82C600768BDF928A0009646
:1009BC00FF69B84723680AF1FF3200964A44DF69A1
:1009CC0029464346204612B2B847236800969F69D1
:1009DC004A46534629462046B847236808F1FF315A
:1009EC000A9629449D694A4653462046AC4609B2AC
:1009FC0002B0BDE8F047604737B5013BBDF8185071
:100A0C00134404681BB20093019564690B46A0471C
:100A1C0003B030BD37B5BDF8185004688DE824001C
:100A2C00013B0B4464691BB2A04703B030BD2DE9F8
:100A3C00F347054617460C46BDF92880BDF82C90A7
:100A4C0001EB030A54450BDA2B68CDF800909E6934
:100A5C00214643463A4628460134B04724B2F1E7D2
:100A6C0002B0BDE8F08713B5B0F90E20046801910F
:100A7C0000920022B0F90C30646A1146A04702B013
:100A8C0010BD7047018181814FF6FF7130B5074D64
:100A9C0000244281C28101224460056044760482B4
:100AAC0044820276C1828182827630BDBC420A08C1
:100ABC002DE9F04F8FB00691BDF8601004460791F8
:100ACC00BDF864109DF868800891B0F90C10069878
:100ADC0081427DDDB4F90E10914279DD062101FBD6
:100AEC000800002874DD02EBC800002870DD03EB61
:100AFC00830395B20C9305F108039BB20991002670
:100B0C000D932F46A946052E1FBF334B0C9A9B19EC
:100B1C0013F802A01FFA88F304930499BDF8183057
:100B2C00B2B201FB0231134409B20A911BB20FFAA3
:100B3C0088F108BF4FF0000A059503910B931AF04A
:100B4C00010F11D0B8F1010F236803D1D3F810B005
:100B5C00079B14E0079A0192039A0092D3F824B0F1
:100B6C0013460FFA89F218E0079B089A934217D0A4
:100B7C00B8F1010F236807D1D3F810B013463AB27D
:100B8C000B992046D8470BE0089A0192039A0092E1
:100B9C00D3F824B01346BDF914200A992046D8473F
:100BAC00049B049A9944059B013713449BB205930B
:100BBC000D9BBFB29F424FEA5A0A1FFA89F9BED168
:100BCC00099B0136013B13F0FF0376B2099398D1D0
:100BDC000FB0BDE8F08F00BFEC420A0830B50A290F
:100BEC0085B004460B4604D1027E438A03EBC20354
:100BFC0023E00D2924D0057EB0F91220B0F9101095
:100C0C000295C58A0195858A0095FFF751FF227ED2
:100C1C00238A91B201EB410003EB4003A07E1BB28F
:100C2C00238268B1B4F90C006FF0050505FB0202D4
:100C3C00934205DD638A03EBC103638200232382A5
:100C4C00012005B030BD018242827047002908BFE7
:100C5C00012101767047C18281827047407E7047C6
:100C6C00B0F90C007047B0F90E00704700F0AABE46
:100C7C0038B50B4B8469054603607CB16368013B56
:100C8C0063605BB9236820469B689847A368013B67
:100C9C00A3601BB923682046DB689847284638BDFB
:100CAC00B8480A0810B50446FFF7E2FF20461C219D
:100CBC0002F0F3FA204610BD38B51D46059B0446DC
:100CCC0003630023436302B1826419B104F1380059
:100CDC0001F062FD049BE0692365069BA4F84C506F
:100CEC00FF2BB8BFFF23A4F8543008B1FFF7D5F998
:100CFC00B4F85400FFF7CDF9E06138BD2DE9FF41A0
:100D0C000446174698460E46002501F031FCE56175
:100D1C000A4904F1380001F02CFDFF2302930F2344
:100D2C0000932046A564CDF804803B462A46314604
:100D3C00FFF7C2FF204604B0BDE8F081C1490A08A4
:100D4C0010B50446204601F0A7FA0028FAD0204638
:100D5C0001F057FAC0B210BD2DE9F0470546C46941
:100D6C008A46FFF7EDFF4FF0010846462070EB690D
:100D7C00002793F8009009F0F0092846FFF7E0FFF0
:100D8C00EB69741C985500F07F0303FB087703068E
:100D9C00A4B2BFB24FEAC81801D52646EDE7631ED0
:100DAC00B9F1300F8AF8003013D12846D5F81C80E1
:100DBC00FFF7C6FF08F804002846D5F81C80FFF79B
:100DCC00BFFFF41C0236B6B2A4B208F80600022328
:100DDC0000E000231B1B9EB2A3199BB29F420BD9B0
:100DEC002846FFF7ADFFB5F85430A34284BFEB693A
:100DFC0018550134A4B2EFE7B5F85400A0422CBF4B
:100E0C0020460020BDE8F087F7B507468E461E4603
:100E1C001D46002405F07F0302A9ED09214418BFEB
:100E2C0043F08003013401F8043CE4B2002DF1D10D
:100E3C00C4F10403D11802F803E0A54206DA01A8B4
:100E4C002B1B285C134458710135F6E7721C2244A5
:100E5C00384601F07DF9054600F034FE0134786225
:100E6C003444A8B2231A5842584103B0F0BD10B50F
:100E7C000446C369E0221A70C36900225A70C16922
:100E8C00022201F065F9204601F042FA00F01AFE48
:100E9C006062A06210BDF0B50D4602339BB26C1AB5
:100EAC0015F8016BA4B23EB1B0F854709F4203D94F
:100EBC005C1CD654A3B2F2E7191B0A44211202F8A7
:100ECC00021C02F8014C1846F0BD38B5054601F07D
:100EDC00E0FA002814BF0124002402D1284601F0B6
:100EEC0017FA204638BD00002DE9F04387B00446C0
:100EFC00894617461E46DDF83880FFF7E6FF0546A3
:100F0C00002840F0BD80A16C39B90346B4F84C20E0
:100F1C00A16B204601F04EFB09E0684601F048FE4B
:100F2C002B46B4F84C206946204601F00BFA0028F9
:100F3C0000F0A280012323849DF84C30042B15D1A2
:100F4C00524B18689A880090ADF804209B79E2699E
:100F5C0000988DF80630C2F80500531DBDF804103A
:100F6C009DF8062099809A710C2312E06A46484B32
:100F7C00D4F81CC0186859681B7A03C213706B46EE
:100F8C0003CBCCF80500CCF8091013788CF80D3095
:100F9C000E23B8F1000F0AD09DF840209DF83C10AC
:100FAC00520142F0060242EAC102D2B200E0022231
:100FBC009DF8481009B902F0FD022FB116B942F0A4
:100FCC00800201E042F0C002E169581CCA54226D53
:100FDC00E16912120A54E169206D9A1C885403339A
:100FEC00E26949462046FFF756FFB8F1000F0BD0D7
:100FFC000346E26941462046FFF74DFFE26903468E
:10100C0011992046FFF747FF67B10346E26939465D
:10101C002046FFF740FF2EB10346E26931462046D9
:10102C00FFF739FF431F9BB2E26910212046FFF7FF
:10103C00EBFE00F047FD4FF47A766062A06220462A
:10104C0001F02AF940B900F03DFDA36AC01A236DE6
:10105C0073439842F3D90FE069462046FFF77CFEB4
:10106C00042809D1E369DE7836B900F02BFD01259F
:10107C00A06284F82C6004E0204601F049F900E0FD
:10108C000025284607B0BDE8F08300BFE7470A08F3
:10109C00EE470A087FB5042305930123049300232C
:1010AC0003930293019300931A46FFF71DFF07B0B9
:1010BC005DF804FB2DE9F14F0D9E04468B469146DD
:1010CC009A469DF828809DF82C509DF83070FFF7BB
:1010DC00FCFE00284BD0B4F854200021E06903F04A
:1010EC0066F80523E26959462046FFF7D4FE6B1ECD
:1010FC00012B12D8238CE26901339BB223841B127F
:10110C001354411CE369228C89B2023080B25A54C8
:10111C001EB1238C5A1C22843380002291B2831876
:10112C008A459BB209D9B4F8546001329E4204D965
:10113C0019F80160E169CE54F0E7B8F1000F0CBF6B
:10114C00302131210FB141F00801022D02D141F0C3
:10115C00040103E0012D08BF41F002012046053BCC
:10116C00E2699BB201B0BDE8F04FFFF74DBE01B094
:10117C00BDE8F08F1FB5089C0394002402949DF8E1
:10118C001C4001949DF818400094FFF793FF04B0A5
:10119C0010BD7FB5054610460E46144603F038F8D0
:1011AC0000230293019300932246034631462846BE
:1011BC00FFF7E0FF04B070BD10B50446FFF785FEE5
:1011CC0010B12046FFF753FEE06908B1FEF765FF4A
:1011DC0004F1380001F086FA2046FFF749FD20465D
:1011EC0010BD00F0EFBB00007FB502461379084636
:1011FC00956833B13DB90C4904B0BDE8704001F0BD
:10120C0019BB0A4B00E00A4B167B0A4C0A49527B6D
:10121C00012E08BF2146029201910095074A002138
:10122C0001F047FB04B070BD15480A08C1490A0813
:10123C0004480A080D480A0811480A082B480A08ED
:10124C00FF22027442748274C27470472DE9F0411B
:10125C0090F91330054601330F4604D11648BDE80A
:10126C00F04100F019BF072600244FF0010895F952
:10127C001300002180B201F062FF95F9110008FA09
:10128C0006F1394080B201F05AFF95F913000121A3
:10129C0080B201F054FF95F91200640080B2E4B200
:1012AC0001F066FF08B144F0010416F1FF36DED2FE
:1012BC002046BDE8F08100BFE40900207FB590F91D
:1012CC001030044601330E46154611D101790068E1
:1012DC0001F022FE2068314603689B68984720681D
:1012EC00294603689B689847206801F020FE2FE090
:1012FC0090F9133001330FD1164B174A0093029219
:10130C0000230122694615488DF804308DF80C2015
:10131C008DF80D3000F01AFE94F91000002180B207
:10132C0001F00DFF06F07F012046FFF78FFF2946E5
:10133C002046FFF78BFF94F91000012180B201F0D9
:10134C00FEFE94F91330013302D1044800F0D7FDAE
:10135C0004B070BD00480A0820A10700E409002071
:10136C00F8B5044690F83C509DF8186061F3871569
:10137C0062F3020563F3C50590F840309DF81CE05C
:10138C0066F3471380F8403090F838309DF82070A1
:10139C006EF3C50367F3020380F83C5080F83830D5
:1013AC0006F00702F221FFF789FF94F83820204657
:1013BC00C2F3C20302F007019B0043EA411343EA64
:1013CC00D212F521FFF77AFF94F83C202046C2F3A5
:1013DC00C20302F007019B0043EA411343EA921255
:1013EC00F421BDE8F840FFF769BF000030B590F973
:1013FC00103085B0013304460D4616D101790068D2
:10140C0001F08AFD2068294603689B68984720688C
:10141C0001F08DFD01222179206801F07AFD206810
:10142C0003685B699847C5B230E090F9133001331B
:10143C000FD1184B184A00930292002301226946DF
:10144C0016488DF804308DF80C208DF80D3000F016
:10145C007DFD94F91000002180B201F070FE45F082
:10146C0080012046FFF7F2FE00212046FFF7EEFE3A
:10147C00054694F91000012180B201F060FE94F948
:10148C001330013302D1054800F039FD284605B070
:10149C0030BD00BF00480A0820A10700E409002065
:1014AC0030B590F9103085B0013304460D461DD18E
:1014BC000179006801F030FD2068294603689B68BB
:1014CC009847206801F033FD02222179206801F051
:1014DC0020FD206803685B6998470546206803680F
:1014EC005B69984740EA052085B237E090F91330E4
:1014FC0001330FD11B4B1C4A009302920023012293
:10150C0069461A488DF804308DF80C208DF80D3092
:10151C0000F01CFD94F91000002180B201F00FFEC8
:10152C0045F080012046FFF791FE00212046FFF791
:10153C008DFE002105462046FFF788FE40EA052077
:10154C0085B294F91000012180B201F0F8FD94F9F4
:10155C001330013302D1054800F0D1FC284605B008
:10156C0030BD00BF00480A0820A10700E409002094
:10157C0008B5FFF795FF40BA80B208BD38B5882191
:10158C000446FFF7F5FF8A21A0822046FFF7F0FF03
:10159C008C21E0822046FFF7EBFF8E212083204632
:1015AC00FFF7E6FF902160832046FFF7E1FF9221D1
:1015BC00A0832046FFF7DCFF9421E0832046FFF751
:1015CC00D7FF962120842046FFF7D2FF9821608414
:1015DC002046FFF7CDFF9A21A0842046FFF7C8FFD5
:1015EC009C21E0842046FFF7C3FF9E2120852046E6
:1015FC00FFF7BEFFA12160852046FFF7F7FEE12132
:10160C0084F82C002046FFF7B3FFE321E085204649
:10161C00FFF7ECFEE42184F830002046FFF7E6FEED
:10162C00E52105462046FFF7E1FE00F00F0040EAF9
:10163C0005106086E6212046FFF7D8FEE521054619
:10164C002046FFF7D3FE001140EA0510A086E721E3
:10165C002046FFF7CBFE84F8360038BD08B5F321E1
:10166C00FFF7C4FE00F0010008BD000030B50446D1
:10167C0090F9100085B0421C03D1206801F03AFCAF
:10168C0021E0012180B201F05AFD94F910000121F2
:10169C0080B201F043FD94F91300431C03D11F48A1
:1016AC0000F022FC0FE0012180B201F037FD94F92B
:1016BC001100012180B201F031FD94F912000021DA
:1016CC0080B201F02BFDD0212046FFF78FFE602861
:1016DC00A06020D12046B622E021FFF7EFFD4FF4A9
:1016EC00967001F039F92046FFF7B8FF054608B1AE
:1016FC006420F6E72046FFF741FF052300931A46C6
:10170C000321204602950195FFF72AFE642001F083
:10171C0023F9012000E0002005B030BDE4090020D1
:10172C00772310B50371044601F092FD206020462A
:10173C00FFF79CFF30B9762323712046BDE810409B
:10174C00FFF794BF10BD00F03DB9000010B5054C7B
:10175C003C2220460221FEF76FFF2046BDE81040D8
:10176C00FFF7B0B82C05002030B505461E4C85B0EF
:10177C002046FFF7A7F820460121FFF767FA102251
:10178C0020463221FFF75FFA1849204601F052F843
:10179C0020460221FFF75AFA204622222321FFF786
:1017AC0052FA02222946684601F007F800992046B1
:1017BC0001F040F8684600F095FF20460121FFF744
:1017CC004AFA20460221FFF741FA322220463C21F8
:1017DC00FFF739FA0649204601F02CF82046FEF7AF
:1017EC00FBFF05B030BD00BF2C05002049480A089E
:1017FC004F480A0830B505461E4C85B02046FFF709
:10180C0061F820460121FFF721FA102220462821F9
:10181C00FFF719FA1849204601F00CF8204602216E
:10182C00FFF714FA204622222321FFF70CFA02229A
:10183C002946684600F0C1FF0099204600F0FAFFE7
:10184C00684600F04FFF20460121FFF704FA2046BE
:10185C000221FFF7FBF9322220463C21FFF7F3F976
:10186C000649204600F0E6FF2046FEF7B5FF05B01E
:10187C0030BD00BF2C05002051480A085B480A08FF
:10188C0030B505461E4C85B02046FFF71BF82046A8
:10189C000121FFF7DBF9102220462821FFF7D3F9AD
:1018AC001849204600F0C6FF20460221FFF7CEF96A
:1018BC00204622222321FFF7C6F902222946684638
:1018CC0000F07BFF0099204600F0B4FF684600F062
:1018DC0009FF20460121FFF7BEF920460221FFF740
:1018EC00B5F9322220463021FFF7ADF906492046E2
:1018FC0000F0A0FF2046FEF76FFF05B030BD00BF23
:10190C002C0500205D480A0867480A0830B50546D2
:10191C001E4C85B02046FEF7D5FF20460121FFF76F
:10192C0095F9102220463221FFF78DF918492046EF
:10193C0000F080FF20460221FFF788F92046222282
:10194C002321FFF780F902222946684600F035FF73
:10195C000099204600F06EFF684600F0C3FE20465A
:10196C000121FFF778F920460121FFF76FF93622A4
:10197C0020462A21FFF767F90649204600F05AFF56
:10198C002046FEF729FF05B030BD00BF2C05002016
:10199C006B480A0871480A0810B5074C00F012F899
:1019AC0004212046FEF7F0FD2046BDE81040034A16
:1019BC00034901F06DBC00BF2C0500208C040020F5
:1019CC00D1040A0808B5024B1B681B68019308BDBB
:1019DC00B001060808B5024B1B689B68019308BD53
:1019EC00B001060808B5024B1B68DB68019308BD03
:1019FC00B001060808B5024B1B681B69019308BDB2
:101A0C00B001060808B5024B1B685B69019308BD61
:101A1C00B001060808B5024B1B681B68019308BD92
:101A2C00B401060808B5024B1B689B68019308BDFE
:101A3C00B401060808B5024B1B68DB68019308BDAE
:101A4C00B401060808B5024B1B681B69019308BD5D
:101A5C00B401060808B5024B1B685B69019308BD0D
:101A6C00B401060808B5024B1B68DB69019308BD7D
:101A7C00B401060808B5024B1B681B6A019308BD2C
:101A8C00B401060808B5024B1B685B6A019308BDDC
:101A9C00B401060808B5024B1B68DB6B019308BD4B
:101AAC00B401060808B5024B1B685B68019308BDBE
:101ABC009C01060808B5024B1B68DB68019308BD46
:101ACC009C01060808B5024B1B685B69019308BDB5
:101ADC009C01060808B5024B1B681B6B019308BDE3
:101AEC00D001060808B5024B1B689B6B019308BD1F
:101AFC00D001060808B5024B1B681B6C019308BD8E
:101B0C00D001060808B5024B1B689B69019308BD00
:101B1C00C401060808B5024B1B685B6A019308BD3B
:101B2C00C401060808B5024B1B689B6A019308BDEB
:101B3C00C401060808B5024B1B68DB6A019308BD9B
:101B4C00C401060808B5024B1B681B6B019308BD4A
:101B5C00C401060808B5024B1B685B6B019308BDFA
:101B6C00C401060808B5024B1B689B6B019308BDAA
:101B7C00C401060808B5024B1B681B6C019308BD19
:101B8C00C401060808B5024B1B68DB6C019308BD49
:101B9C00AC01060808B5024B1B685B6D019308BDD0
:101BAC00AC01060808B5024B1B689B6D019308BD80
:101BBC00AC01060808B5024B1B68DB6D019308BD30
:101BCC00AC01060808B5024B1B681B6E019308BDDF
:101BDC00AC01060808B5024B1B685B6E019308BD8F
:101BEC00AC01060808B5024B1B689B6E019308BD3F
:101BFC00AC01060808B5024B1B68DB6E019308BDEF
:101C0C00AC01060808B5024B1B681B6F019308BD9D
:101C1C00AC01060808B5024B1B685B6F019308BD4D
:101C2C00AC01060808B5034B1B68D3F88030019350
:101C3C0008BD0000AC01060808B5024B1B681B6808
:101C4C00019308BDBC01060808B5024B1B685B6814
:101C5C00019308BDBC01060808B5024B1B689B68C4
:101C6C00019308BDBC01060808B5024B1B68DB6874
:101C7C00019308BDBC01060808B5024B1B681B6923
:101C8C00019308BDBC01060808B5024B1B681B6A12
:101C9C00019308BDBC01060808B5024B1B681B6B01
:101CAC00019308BDBC01060808B5024B1B685B6CB0
:101CBC00019308BDBC01060808B5024B1B681B68E4
:101CCC00019308BDD801060808B5024B1B685B6878
:101CDC00019308BDD801060808B5024B1B681B69A7
:101CEC00019308BDD801060808B5024B1B685B6957
:101CFC00019308BDD801060808B5024B1B689B6907
:101D0C00019308BDD801060808B5024B1B68DB69B6
:101D1C00019308BDD801060808B5024B1B681B6A65
:101D2C00019308BDD801060808B5024B1B685B6A15
:101D3C00019308BDD801060808B5024B1B685B6C03
:101D4C00019308BDC001060808B5024B1B689B6CCB
:101D5C00019308BDC001060808B5024B1B685B6BFC
:101D6C00019308BDA801020808B5024B1B681B6D46
:101D7C00019308BDA801020808B5024B1B685B68FB
:101D8C00019308BDA401060808B5024B1B685B69EA
:101D9C00019308BDA401060808B5034B1B68D3F8D2
:101DAC009030019308BD0000A401060808B5034B50
:101DBC001B68D3F89C30019308BD0000A4010608F1
:101DCC0008B5024B1B685B68019308BDC801060887
:101DDC0008B5024B1B689B68019308BDC801060837
:101DEC0008B5024B1B68DB68019308BDC8010608E7
:101DFC0008B5024B1B681B69019308BDC801060896
:101E0C0008B5024B1B685B69019308BDC801060845
:101E1C0008B5024B1B689B69019308BDC8010608F5
:101E2C0008B5024B1B68DB69019308BDC8010608A5
:101E3C0008B5024B1B681B6A019308BDC801060854
:101E4C0008B5024B1B681B6B019308BDC801060843
:101E5C0008B5024B1B685B6B019308BDC8010608F3
:101E6C0008B5024B1B68DB6B019308BDCC0106085F
:101E7C0008B5024B1B681B68019308BDA00106083E
:101E8C0008B5024B1B685B68019308BDA0010608EE
:101E9C0008B5024B1B689B68019308BDA00106089E
:101EAC0008B5024B1B685B6A019308BDA0010608CC
:101EBC00704710B50446102101F0EFF9204610BD13
:101ECC0070B504460E46074B0025036040F80C5FC6
:101EDC00FFF700FE30462671FFF7C4FDA5602046D3
:101EEC0070BD00BF84480A084FF6FF710079FFF7F8
:101EFC0091BD0079FFF796BD0079FFF79BBDC068D7
:101F0C00FFF7F8BD054A0023995C814202D00133EA
:101F1C00082BF9D1581CC0B2704700BF8C480A0876
:101F2C00400830B5186000241868E5B2884206D91C
:101F3C000134082C02D040081860F5E70725024B45
:101F4C005B5D137030BD00BF8C480A082DE9F0436F
:101F5C0080468FB0C0680F46FFF7C4FD98F8044068
:101F6C001422002109A802F022F90B23204600229A
:101F7C0009A9ADF82430FFF785FD9DF82D404CB133
:101F8C009DF82C502DB90C9E9DF834909DF8354041
:101F9C0003E00024A146264601253B790DB1002B18
:101FAC0040D19D420BD1BA68B24208D18DF8209035
:101FBC008DF82140BDF82010BA89914232D023BB54
:101FCC008DF80F300DF10F0204ABB9680A98FFF7CA
:101FDC00A7FF3B7905B113BBAB4209D000213B7B7A
:101FEC0001917C7B9DF80F2098F80400009413E07D
:101FFC00BB68B342F2D38DF820908DF82140BDF828
:10200C002020BB899A42E9D109E000231A4698F8AE
:10201C000400019300930121FFF73CFD02E0049BB7
:10202C00B342DBD100200FB0BDE8F08370B504469D
:10203C0002FB01F588B006791422002103A802F0F6
:10204C00B6F80B2303A930460022ADF80C30FFF78D
:10205C0019FD02AB0DF1070229460498FFF760FF4A
:10206C0020799DF80710FFF7EDFC029808B070BDC1
:10207C0038B50446A56808464DB1FFF743FF012269
:10208C0025FA00F12046BDE83840FFF7CFBF207994
:10209C00BDE83840FFF7D6BC08B50079FFF7DAFC8D
:1020AC00C0B208BD0079FFF7E5BC00004FF6FF7227
:1020BC00034B0020187058809A80FFF75DBE00BF5C
:1020CC005005002010B5044602F0A2F80138231880
:1020DC002046984206D20278197800F8011B03F8C2
:1020EC000129F6E710BD70B50C46911E222920D8A7
:1020FC002546294610B9234430220EE0B0FBF2F6F7
:10210C0002FB1600C1B2092805F8011B94BF30313F
:10211C00573105F8011C3046EBE7994202D201F821
:10212C00012BFAE7002320460B70FFF7CBFF20466C
:10213C0070BD002070BD37B502AC036804F8011DFA
:10214C00DD6B012247F230532146A84703B030BD66
:10215C0010B40368DC6B47F23053A44610BC6047E4
:10216C0037B502AC036804F8011DDD6B214613463C
:10217C000122A84703B030BD70477047002070475C
:10218C0010B50446142101F088F8204610BDFDF767
:10219C0082BF10B5044603689B689847A368013B4F
:1021AC00A3602BB923682046BDE81040DB681847B4
:1021BC0010BD000070B5044606464D69044B8C35C5
:1021CC0044F8043B0FCD0FC42B683046237070BD10
:1021DC002C4A0A0810B543690446B3F88620B3F8B4
:1021EC0084309A4205D06269B2F88430134418796D
:1021FC0010BD03681B6998470028F4D14FF0FF30DD
:10220C0010BD10B543690446B3F88620B3F884308A
:10221C009A4208D06269B2F88430591CA2F8841032
:10222C001344187910BD03681B6998470028F1D135
:10223C004FF0FF3010BDF8B543691746B3F8862050
:10224C00B3F8843005469A420E4606D103681B69E2
:10225C00984710B94FF0FF3414E069693046B1F873
:10226C008430B1F886401944E41ABC4228BF3C467D
:10227C000431224601F090FF6A69B2F8843023449D
:10228C00A2F884302046F8BD42690023A2F88430BD
:10229C004269A2F88630704738B542690446B2F8F4
:1022AC0086301BB1B2F884209A420CD0206900F021
:1022BC00FBFE0368DB68984718B363691868FFF77F
:1022CC00C3FC18B91DE0FFF7DFFFEFE76069B0F85A
:1022DC0086107F2915D8051DC1F1800200232944E1
:1022EC000068FFF7C9FC00280BDD6369B3F8862092
:1022FC000AB9A3F884206269B2F886301844A2F8AF
:10230C0086006269B2F88630B2F88400181A38BDBB
:10231C0038B5436904461868FFF796FC18B1636931
:10232C001868FFF7B1FC6569FFF7B6FC28606069B7
:10233C00112200218C3001F03AFF2046BDE83840D4
:10234C00FFF7A2BF2DE9F0411F4603688AB0DB6A94
:10235C0006460C4615469847384600F0A5FE03681D
:10236C00DB689847002856D000972B46062201219F
:10237C000220D6F81480FFF76FFC2023C8F8000069
:10238C0000270293736903971B6801200193234B69
:10239C0002AA009322493B46FFF7E6FC73691868D2
:1023AC00FFF752FC002836D03046FFF76DFF0223B2
:1023BC00ADF808302B0A8DF80A30E3794FF4FA5057
:1023CC008DF80C30A3798DF80B508DF80D306379A6
:1023DC008DF80E3014F8043F8DF80F30FFF7ACFC7D
:1023EC0073690546102202A91868FFF73DFC804668
:1023FC002846FFF7A1FC0FCC75698C350FC52368F7
:10240C002B70B8F1000F05D033683046DB6A984763
:10241C00384600E001200AB0BDE8F08103490A0803
:10242C00FC480A0810B5436904461868FFF70CFC11
:10243C0008B9002010BD206900F036FE0368DB6887
:10244C0098470028F5D063691868FFF7F5FBB0FAD8
:10245C0080F0400910BD2DE9F3410025456004468C
:10246C000E4617469846FFF7DDFF60B1606901958F
:10247C00CDF800802B463A4631460068FFF714FC35
:10248C00002803DA01E04FF0FF30606002B0BDE8D5
:10249C00F08138B50446FFF7C5FF00BB6369B3F89C
:1024AC008610B3F88420914219D11868FFF7CCFB41
:1024BC0028B163691868FFF7BFFB012801D000251C
:1024CC000EE0236820461B699847002814BF01259D
:1024DC00002505D123682046DB6A984700E00125DA
:1024EC00284638BD08B5FFF79DFF003018BF012006
:1024FC0008BD10B5044600230160A0F88430A0F894
:10250C008630883000F006FB204610BD4FF47A72FE
:10251C0070B58260144A002343600260436183619A
:10252C000446A0200E46FDF7B2FD054610B131461B
:10253C00FFF7DFFF1420FDF7AAFD034628B10122A7
:10254C0042608260094A05610260A0696561A3610D
:10255C0028B14368013B43600BB9FFF71AFE2046D4
:10256C00FFF792FE204670BDB8480A089C480A083E
:10257C0010B50446FFF790FB01462046FFF7C6FF57
:10258C00204610BD10B504460068FFF75DFB10B186
:10259C002068FFF779FB204610BD10B50469204672
:1025AC00FFF7F0FF24B12046BDE81040FDF773BDE6
:1025BC0010BD00002DE9F0431F4603688FB0DB6AA5
:1025CC0006460D4690469847134800F020FD00B390
:1025DC0002A800F09FFA284601F01AFE002481B2EE
:1025EC0000943B4603AA2846FFF7AEFB80B933683C
:1025FC0009ADD3F82090094B03AC08930FCC0FC551
:10260C00236842462B7008A93B463046C84700E079
:10261C0020460FB0BDE8F083DC0900202C4A0A08E4
:10262C002DE9F14F80460D4617461E460022002329
:10263C004046294601F0A6FB20B12D23337005F14D
:10264C0000450136002301240A22D9B28F4202D957
:10265C0054430133F9E7204601F0BCF842462B46BF
:10266C0001F01EF982468B4601F0ECFB8046894650
:10267C0001F0E0F802460B465046594600F05CFF6C
:10268C000022174B01F092FB18B118F1010849F127
:10269C000009E51722462B464046494601F0BAFB95
:1026AC0001230A223146FFF71EFDAFB1304601F07F
:1026BC00AFFD2E2333540130064422462B464046B0
:1026CC00494601F0A7FB3B46104631460A2201B0B1
:1026DC00BDE8F04FFFF707BD01B0BDE8F08F00BFBC
:1026EC000000E03F10B504460068FFF7C9FB204628
:1026FC0010BD10B50446006808B1FFF7C1FB0023FC
:10270C002360A360636010BD38B504460D460068B5
:10271C000131FFF7BDFB10B184E82100012038BD69
:10272C0010B50368044613B143688B4207D22046A8
:10273C00FFF7EAFF20B1A3680BB9226813700120E0
:10274C0010BD70B50E46114604461546FFF7E8FF5E
:10275C0018B92046FFF7CDFF09E02A463146A5609F
:10276C00206801F019FD2268A3680021D15420468D
:10277C0070BD38B500230446036043608360037367
:10278C000D4639B1084601F043FD29460246204664
:10279C00FFF7D7FF204638BD38B505460C4641B18A
:1027AC00084601F035FD214602462846FFF7C9FFD1
:1027BC0001E0FFF79EFF284638BD30B504460023E4
:1027CC008BB00360436083600373D5B2084601F09D
:1027DC0013F801AB2A46FFF723FF01A92046FFF7A8
:1027EC00DBFF20460BB030BDF8B506460D468F1802
:1027FC000024BD420CD0336815F8011B9B68304691
:10280C009847002801DB0444F3E7002C08BF04467A
:10281C002046F8BD70B505460C46084649B101F096
:10282C00F7FC2B68024621462846BDE87040DB6861
:10283C00184770BD08B5FFF7EDFF08BD03689B682E
:10284C00184738B50D210546FFF7F8FF0A21044655
:10285C002846FFF7F3FF204438BD012A98BF0A220F
:10286C0030B50B468BB000218DF824100DF12304EC
:10287C00B3FBF2F505FB1233DBB2092B94BF3033FB
:10288C003733DBB2214604F801392B46002DEFD14A
:10289C00FFF7C0FF0BB030BD10B422B90368C9B24A
:1028AC009B6810BC1847D2B210BCFFF7D6BFFFF71D
:1028BC00F3BF0CB42DE9F04387B000AF07F1380437
:1028CC0054F8049B05460E4623464A461421381DEF
:1028DC003C60FFF7E5FA132805D8391D2846FFF7A9
:1028EC0099FF044613E000F1080323F00703E846C0
:1028FC00ADEB030D411C23464A4668463C60FFF78E
:10290C00CFFA69462846FFF785FF0446C5461EB137
:10291C002846FFF796FF044420461C37BD46BDE809
:10292C00F04302B0704700231A4619464068FFF77F
:10293C0067BA0000014A024B1A6070478D490A08B9
:10294C0058050020024B1A68024B1A60704700BFF2
:10295C00240400205C0500200021FFF715BA10B5F7
:10296C008368044613B1032201469847204610BDE4
:10297C0010B50446FFF7F3FF204610BD03480023B3
:10298C008360034A034900F083BC00BF600500204C
:10299C008C0400207D290A0808B5144B33B100F0D3
:1029AC0087F903681B699847002816DC104B33B174
:1029BC0000F03CFA03681B699847002810DC0D4BAB
:1029CC000BB1AFF300800C4B7BB100F0ADF9036899
:1029DC001B699847002806DC08BDAFF30080E5E7CB
:1029EC00AFF30080EBE7AFF3008008BD0000000000
:1029FC0000000000000000000000000008B5FFF718
:102A0C00CBFFFFF75FF8014B186008BD040A0020EC
:102A1C000248034A0349121A01F0BEBB00400240AF
:102A2C0004400240E84B0A0807B5002300931A46FD
:102A3C006FF07701FFF7BAF903B05DF804FB000003
:102A4C0007B543880A2B08D0502B09D1094B1B68BA
:102A5C003BB103B05DF804EB1847FFF7E5FF06E068
:102A6C00002300931A466FF07701FFF79FF903B02C
:102A7C005DF804FB7005002038B5104C104D236830
:102A8C00AB42104B0CBF012200221A7002D0FFF790
:102A9C00BFFF2560FFF706F8044601F091FB0A4BD7
:102AAC0013B12046AFF3008000210748FFF7D8F997
:102ABC00BDE8384000210548FFF76EB900400240E0
:102ACC001E1C279A74050020000000004D2A0A08DD
:102ADC00704710B50446182100F0DFFB204610BDEE
:102AEC00F8B50F4600F10806051D002416F8011D67
:102AFC000A223846FFF7DBFEAE42044407D0002C16
:102B0C00F4D02E213846FFF799FE0444EEE7204618
:102B1C00F8BD000010B50446044B112240F8043BEC
:102B2C00002101F044FB204610BD00BF2C4A0A08CE
:102B3C000346074A10B543F8042B01F1100251F873
:102B4C00044B914243F8044BF9D10A781A7010BD2A
:102B5C002C4A0A08024A416002600422027570473E
:102B6C002C4A0A0810B59DF8084044EA032343EAAE
:102B7C00024242EA016104234160037510BD00006A
:102B8C0037B5044D05609DF818500095FFF7EAFF26
:102B9C0003B030BD2C4A0A0837B50D788B784A78CB
:102BAC00C97800912946FFF7DDFF03B030BD000066
:102BBC0010B50446024B0360FFF7EEFF204610BD34
:102BCC002C4A0A0841747047704708B50021007CF4
:102BDC00FFF792F830EA200028BF4FF0FF3008BD15
:102BEC0008B50121007CFFF787F830EA200028BFE8
:102BFC004FF0FF3008BD08B5007CFFF775F820EAF0
:102C0C00E07008BD08B5007CFFF766F820EAE070BC
:102C1C0008BD007CFFF780B810B50446142100F005
:102C2C003CFB204610BD38B50446007C0D46FFF732
:102C3C005BF8002801DC607C28B12946207CFFF77A
:102C4C0063F820EAE07038BD10B5044600236360D9
:102C5C004FF47A73A360054B08462360012321745B
:102C6C0063741146FFF728F8204610BD404A0A0845
:102C7C000022007CFFF728B8007CFFF755B8FFF75F
:102C8C00FBBF000010B504461422002101F08FFA9E
:102C9C00054B20466360054BE36040F20113238132
:102CAC008123238210BD00BFFD0500207C05002080
:102CBC0030B50E4D87B001A8FFF7E4FF296811F07D
:102CCC00010410D12846FDF7F5F960B101AA21469F
:102CDC000748FFF7B9FF2846FDF7F1F9054A064901
:102CEC00034800F0D5FA024807B030BD7805002043
:102CFC00000700208C040020D52B0A0810B50446D0
:102D0C001422002101F053FA054B20466360054B59
:102D1C00E36040F2011323818123238210BD00BFA5
:102D2C00B00700201807002010B50E4C86B001A883
:102D3C00FFF7E4FF2368DB0710D42046FDF7BAF950
:102D4C0060B101AA01210848FFF77EFF2046FDF77C
:102D5C00B6F9064A0649044800F09AFA024806B049
:102D6C0010BD00BF140700209C0700208C0400201D
:102D7C00D52B0A0870474174704708B5007CFEF7E4
:102D8C00F9FE20EAE07008BD08B5007CFEF7CAFE2B
:102D9C0020EAE07008BD08B5007CFEF7D3FE30EAEF
:102DAC00200028BF4FF0FF3008BD08B5007CFEF7AF
:102DBC00C1FE30EA200028BF4FF0FF3008BD007C78
:102DCC00FEF7C8BE10B50446142100F066FA204682
:102DDC0010BD70B5457C04460E4625B9007CFEF747
:102DEC00C9FE002805DD3146207CBDE87040FEF7A9
:102DFC0091BE284670BD000010B504460846114629
:102E0C00002262604FF47A72A260054A207422603C
:102E1C00012262741A46FEF775FE204610BD00BFF3
:102E2C00704A0A08007CFEF79DBE000038B50C4DB8
:102E3C00296811F0010411D12846FDF73BF968B15E
:102E4C00084A2146084B0948FFF7D6FF2846FDF7EC
:102E5C0036F9074A0749054800F01AFA034838BD05
:102E6C004C09002050090020C8080020B40800209C
:102E7C008C040020812D0A087047F8B506461546CB
:102E8C000C468F18BC4206D0336814F8011B9B68A3
:102E9C0030469847F6E72846F8BD0022007CFEF73E
:102EAC0091BE0021007CFEF795BE0021007CFEF750
:102EBC0099BE0021007CFEF79DBE0021007CFEF730
:102ECC00A1BE10B50446142100F0E7F9204610BD50
:102EDC0010B5044608464FF47A73A360044B0021E6
:102EEC00207461602360FEF79DFE204610BD00BF7C
:102EFC00A04A0A0800231A461946007CFEF742BE77
:102F0C0013B50024007C0094FEF744FEC0B202B05E
:102F1C0010BD0123FFF7F4BF0022007CFEF742BE78
:102F2C00C9B2FFF7F9BF0022007CFEF743BE0121B6
:102F3C00FFF7F9BF0021007CFEF76CBE00221146A2
:102F4C004068FEF755BFF0B5164689B011220F4602
:102F5C000446002103A801F02AF9304601F058F983
:102F6C000025009581B27B6803AA3046FEF7ECFE83
:102F7C0020B129462046FFF7EDFD03E003A92046CA
:102F8C00FFF7D6FD204609B0F0BD0022114640687F
:102F9C00FEF74EBF002211464068FEF759BF0022D3
:102FAC004068FEF74DBF002281F001014068FEF73A
:102FBC0037BF00231A4619464068FEF729BF002286
:102FCC0011464068FEF704BF002202214068FEF75C
:102FDC0007BF00231A464068FEF7F2BE024B0422DC
:102FEC005A60024A1A607047D4090020C84A0A087D
:102FFC0000231A464068FEF7E3BE00220221406817
:10300C00FEF7EEBE002211464068FEF7E1BE00223C
:10301C0011464068FEF7ECBE00231A46194640687C
:10302C00FEF7EEBE00231A4619464068FEF7F0BEC6
:10303C00002281F001014068FEF7F2BE00224068D8
:10304C00FEF7FEBE002211464068FEF701BF0022CB
:10305C0011464068FEF7ECBE70B516468EB00446BD
:10306C0008A8FFF757FD1122002103A801F09FF8D3
:10307C00304601F0CDF800250A4B009581B25B6813
:10308C0003AA3046FEF760FE20B129462046FFF722
:10309C0061FD03E003A92046FFF74AFD20460EB070
:1030AC0070BD00BFD4090020034B044A04280CBF98
:1030BC0010461846704700BFDC090020D4090020D8
:1030CC00024B034A1A6000225A607047DC09002048
:1030DC00FC4A0A0810B504460F48FEF7E3FF28B176
:1030EC00A4F10D03022B01D8002010BD00F0B0F8A4
:1030FC00FFF720FF08B1012CF6D9FFF797FEFFF779
:10310C0091FE18B1A4F11203012BEDD9172C8CBF31
:10311C000020012010BD00BFE4090020172838B59D
:10312C0004460D460AD8FF2908D0FFF7D3FF28B173
:10313C0029462046BDE83840FEF74CBC38BD38B5B2
:10314C0004460D46FEF74EFCFF2810D0062804D886
:10315C004D2323FA00F0C30709D42046FFF7BAFF2A
:10316C0028B129462046BDE83840FEF743BC38BD9F
:10317C0010B50446FEF736FC0438C0B2012808D955
:10318C002046FFF7A7FF20B12046BDE81040FEF710
:10319C0039BC002010BD2DE9F04190461E46074673
:1031AC000D460724B8F1000F04D1C4F1070146FA0B
:1031BC0001F101E046FA04F101F001013846FFF794
:1031CC00BEFF01212846FFF7BAFF00212846FFF772
:1031DC00B6FF14F1FF34E5D2BDE8F08170B50C4CAC
:1031EC000C4E0D4D00212046FEF76AFE20460B4C7E
:1031FC003246294600F04CF801212046FEF760FECD
:10320C00324629462046BDE8704000F041B800BF68
:10321C00E40900208C040020BD1E0A08F4090020DB
:10322C0013B5084C00231A46194600932046FFF7A5
:10323C00A7FC2046044A054902B0BDE8104000F046
:10324C0027B800BF080A00208C040020DD2A0A08D9
:10325C0038B50B4D296811F001040FD12846FCF745
:10326C0029FF58B121460748FFF732FE2846FCF7E4
:10327C0026FF054A0549034800F00AF8014838BD05
:10328C00200A0020240A00208C040020852E0A0825
:10329C000B460146184600F071BFFCF7FCBE00005F
:1032AC00184B1A68D1075CBF01221A60164B1A68BA
:1032BC00D2075CBF01221A60144B1A68D0075CBF9E
:1032CC0001221A60124B1A68D1075CBF01221A60E6
:1032DC00104B1A68D2075CBF01221A600E4B1A6899
:1032EC00D0075CBF01221A600C4B1A68D1075CBF77
:1032FC0001221A600A4B1A68D2075CBF01221A60BD
:10330C00704700BF540A0020500A00204C0A0020CD
:10331C00480A0020440A0020400A00203C0A0020F1
:10332C00380A0020244B1A68D0075CBF01221A60AF
:10333C00224B1A68D1075CBF01221A60204B1A6815
:10334C00D2075CBF01221A601E4B1A68D0075CBF03
:10335C0001221A601C4B1A68D1075CBF01221A604B
:10336C001A4B1A68D2075CBF01221A60184B1A68F4
:10337C00D0075CBF01221A60164B1A68D1075CBFDC
:10338C0001221A60144B1A68D2075CBF01221A6022
:10339C00124B1A68D0075CBF01221A60104B1A68D6
:1033AC00D1075CBF01221A600E4B1A68D2075CBFB2
:1033BC0001221A60704700BF840A0020800A002096
:1033CC007C0A0020780A0020740A0020700A002071
:1033DC006C0A0020680A0020640A0020600A0020A1
:1033EC005C0A0020580A0020244B1A68D0075CBFE6
:1033FC0001221A60224B1A68D1075CBF01221A60A5
:10340C00204B1A68D2075CBF01221A601E4B1A6847
:10341C00D0075CBF01221A601C4B1A68D1075CBF35
:10342C0001221A601A4B1A68D2075CBF01221A607B
:10343C00184B1A68D0075CBF01221A60164B1A6829
:10344C00D1075CBF01221A60144B1A68D2075CBF0B
:10345C0001221A60124B1A68D0075CBF01221A6055
:10346C00104B1A68D1075CBF01221A600E4B1A6808
:10347C00D2075CBF01221A60704700BFB40A00205B
:10348C00B00A0020AC0A0020A80A0020A40A0020E0
:10349C00A00A00209C0A0020980A0020940A002010
:1034AC00900A00208C0A0020880A0020184B1A6809
:1034BC00D1075CBF01221A60164B1A68D2075CBF99
:1034CC0001221A60144B1A68D0075CBF01221A60E3
:1034DC00124B1A68D1075CBF01221A60104B1A6894
:1034EC00D2075CBF01221A600E4B1A68D0075CBF72
:1034FC0001221A600C4B1A68D1075CBF01221A60BA
:10350C000A4B1A68D2075CBF01221A60704700BFD1
:10351C00D40A0020D00A0020CC0A0020C80A0020BF
:10352C00C40A0020C00A0020BC0A0020B80A0020EF
:10353C0081F0004102E000BF83F0004330B54FEA58
:10354C0041044FEA430594EA050F08BF90EA020FC5
:10355C001FBF54EA000C55EA020C7FEA645C7FEA58
:10356C00655C00F0E2804FEA5454D4EB5555B8BF7B
:10357C006D420CDD2C4480EA020281EA030382EAEC
:10358C00000083EA010180EA020281EA0303362D7E
:10359C0088BF30BD11F0004F4FEA01314FF4801C51
:1035AC004CEA113102D0404261EB410113F0004F63
:1035BC004FEA03334CEA133302D0524263EB43031A
:1035CC0094EA050F00F0A780A4F10104D5F1200EB8
:1035DC000DDB02FA0EFC22FA05F2801841F1000113
:1035EC0003FA0EF2801843FA05F359410EE0A5F1E7
:1035FC0020050EF1200E012A03FA0EFC28BF4CF018
:10360C00020C43FA05F3C01851EBE37101F00045CD
:10361C0007D54FF0000EDCF1000C7EEB00006EEBDA
:10362C000101B1F5801F1BD3B1F5001F0CD3490864
:10363C005FEA30004FEA3C0C04F101044FEA4452BB
:10364C0012F5800F80F09A80BCF1004F08BF5FEA42
:10365C00500C50F1000041EB045141EA050130BD22
:10366C005FEA4C0C404141EB010111F4801FA4F1C5
:10367C000104E9D191F0000F04BF01460020B1FA1A
:10368C0081F308BF2033A3F10B03B3F120020CDA52
:10369C000C3208DD02F1140CC2F10C0201FA0CF030
:1036AC0021FA02F10CE002F11402D8BFC2F1200C95
:1036BC0001FA02F120FA0CFCDCBF41EA0C0190404B
:1036CC00E41AA2BF01EB0451294330BD6FEA040494
:1036DC001F3C1CDA0C340EDC04F11404C4F120027F
:1036EC0020FA04F001FA02F340EA030021FA04F391
:1036FC0045EA030130BDC4F10C04C4F1200220FAE8
:10370C0002F001FA04F340EA0300294630BD21FA25
:10371C0004F0294630BD94F0000F83F4801306BFEB
:10372C0081F480110134013D4EE77FEA645C18BFDF
:10373C007FEA655C29D094EA050F08BF90EA020F76
:10374C0005D054EA000C04BF1946104630BD91EA6E
:10375C00030F1EBF0021002030BD5FEA545C05D171
:10376C004000494128BF41F0004130BD14F58004B0
:10377C003CBF01F5801130BD01F0004545F0FE4124
:10378C0041F470014FF0000030BD7FEA645C1ABF59
:10379C00194610467FEA655C1CBF0B46024650EA90
:1037AC00013406BF52EA033591EA030F41F40021BC
:1037BC0030BD00BF90F0000F04BF0021704730B542
:1037CC004FF4806404F132044FF000054FF0000117
:1037DC0050E700BF90F0000F04BF0021704730B5D8
:1037EC004FF4806404F1320410F0004548BF4042AD
:1037FC004FF000013EE700BF42004FEAE2014FEA02
:10380C0031014FEA02701FBF12F07F4393F07F4FDC
:10381C0081F06051704792F0000F14BF93F07F4F0E
:10382C00704730B54FF4607401F0004521F0004151
:10383C0020E700BF50EA010208BF704730B54FF0D7
:10384C0000050AE050EA010208BF704730B511F0DC
:10385C00004502D5404261EB41014FF4806404F114
:10386C0032045FEA915C3FF4DCAE4FF003025FEA96
:10387C00DC0C18BF03325FEADC0C18BF033202EB1E
:10388C00DC02C2F1200300FA03FC20FA02F001FA78
:10389C0003FE40EA0E0021FA02F11444C1E600BF17
:1038AC0070B54FF0FF0C4CF4E06C1CEA11541DBFCA
:1038BC001CEA135594EA0C0F95EA0C0F00F0DEF895
:1038CC002C4481EA030621EA4C5123EA4C5350EA7A
:1038DC00013518BF52EA033541F4801143F48013CB
:1038EC0038D0A0FB02CE4FF00005E1FB02E506F05C
:1038FC000042E0FB03E54FF00006E1FB03569CF0B1
:10390C00000F18BF4EF0010EA4F1FF04B6F5007FB6
:10391C0064F5407404D25FEA4E0E6D4146EB060628
:10392C0042EAC62141EA55514FEAC52040EA5E50B1
:10393C004FEACE2EB4F1FD0C88BFBCF5E06F1ED85B
:10394C00BEF1004F08BF5FEA500E50F1000041EB92
:10395C00045170BD06F0004646EA010140EA02003F
:10396C0081EA0301B4EB5C04C2BFD4EB0C0541EA61
:10397C00045170BD41F480114FF0000E013C00F376
:10398C00AB8014F1360FDEBF002001F0004170BD9A
:10399C00C4F10004203C35DA0C341BDC04F11404B3
:1039AC00C4F1200500FA05F320FA04F001FA05F23F
:1039BC0040EA020001F0004221F0004110EBD3700C
:1039CC0021FA04F642EB06015EEA430E08BF20EA38
:1039DC00D37070BDC4F10C04C4F1200500FA04F3DB
:1039EC0020FA05F001FA04F240EA020001F000416D
:1039FC0010EBD37041F100015EEA430E08BF20EAE0
:103A0C00D37070BDC4F1200500FA05F24EEA020E27
:103A1C0020FA04F301FA05F243EA020321FA04F056
:103A2C0001F0004121FA04F220EA020000EBD3700D
:103A3C005EEA430E08BF20EAD37070BD94F0000F0D
:103A4C000FD101F00046400041EB010111F4801F41
:103A5C0008BF013CF7D041EA060195F0000F18BFF2
:103A6C00704703F00046520043EB030313F4801F2E
:103A7C0008BF013DF7D043EA0603704794EA0C0FE8
:103A8C000CEA135518BF95EA0C0F0CD050EA4106FE
:103A9C0018BF52EA4306D1D181EA030101F000417B
:103AAC004FF0000070BD50EA410606BF10461946A3
:103ABC0052EA430619D094EA0C0F02D150EA0136AF
:103ACC0013D195EA0C0F05D152EA03361CBF1046F0
:103ADC0019460AD181EA030101F0004141F0FE418F
:103AEC0041F470014FF0000070BD41F0FE4141F413
:103AFC00780170BD70B54FF0FF0C4CF4E06C1CEA13
:103B0C0011541DBF1CEA135594EA0C0F95EA0C0FC7
:103B1C0000F0A7F8A4EB050481EA030E52EA033582
:103B2C004FEA013100F088804FEA03334FF08055A3
:103B3C0045EA131343EA12634FEA022245EA1115D0
:103B4C0045EA10654FEA00260EF000419D4208BF81
:103B5C00964244F1FD0404F5407402D25B084FEA2E
:103B6C003202B61A65EB03055B084FEA32024FF4DA
:103B7C0080104FF4002CB6EB020E75EB030E22BF37
:103B8C00B61A754640EA0C005B084FEA3202B6EBF7
:103B9C00020E75EB030E22BFB61A754640EA5C00A6
:103BAC005B084FEA3202B6EB020E75EB030E22BF36
:103BBC00B61A754640EA9C005B084FEA3202B6EB37
:103BCC00020E75EB030E22BFB61A754640EADC00F6
:103BDC0055EA060E18D04FEA051545EA16754FEA58
:103BEC0006164FEAC30343EA52734FEAC2025FEA76
:103BFC001C1CC0D111F4801F0BD141EA00014FF005
:103C0C0000004FF0004CB6E711F4801F04BF0143D5
:103C1C000020B4F1FD0C88BFBCF5E06F3FF6AFAEF1
:103C2C00B5EB030C04BFB6EB020C5FEA500C50F181
:103C3C00000041EB045170BD0EF0004E4EEA113104
:103C4C0014EB5C04C2BFD4EB0C0541EA045170BD0B
:103C5C0041F480114FF0000E013C90E645EA060E4F
:103C6C008DE60CEA135594EA0C0F08BF95EA0C0F7D
:103C7C003FF43BAF94EA0C0F0AD150EA01347FF4C5
:103C8C0034AF95EA0C0F7FF425AF104619462CE79C
:103C9C0095EA0C0F06D152EA03353FF4FDAE1046FF
:103CAC00194622E750EA410618BF52EA43067FF450
:103CBC00C5AE50EA41047FF40DAF52EA43057FF4E0
:103CCC00EBAE12E74FF0FF3C06E000BF4FF0010CEB
:103CDC0002E000BF4FF0010C4DF804CD4FEA410C4F
:103CEC007FEA6C5C4FEA430C18BF7FEA6C5C1BD01C
:103CFC0001B050EA410C0CBF52EA430C91EA030F9D
:103D0C0002BF90EA020F0020704710F1000F91EAF9
:103D1C00030F58BF994208BF90422CBFD8176FEAC7
:103D2C00E37040F0010070474FEA410C7FEA6C5C95
:103D3C0002D150EA013C07D14FEA430C7FEA6C5C9C
:103D4C00D6D152EA033CD3D05DF8040B704700BFC8
:103D5C008446104662468C461946634600E000BF16
:103D6C0001B5FFF7B7FF002848BF10F1000F01BDE8
:103D7C004DF808EDFFF7F4FF0CBF012000205DF8B3
:103D8C0008FB00BF4DF808EDFFF7EAFF34BF012038
:103D9C0000205DF808FB00BF4DF808EDFFF7E0FFD1
:103DAC0094BF012000205DF808FB00BF4DF808ED22
:103DBC00FFF7CEFF94BF012000205DF808FB00BF89
:103DCC004DF808EDFFF7C4FF34BF012000205DF86B
:103DDC0008FB00BF4A0011D212F5001211D20DD50A
:103DEC006FF47873B3EB62520ED44FEAC12343F0F5
:103DFC00004343EA505323FA02F070474FF000009F
:103E0C00704750EA013002D14FF0FF3070474FF04D
:103E1C000000704753B94AB9002908BF00281CBFDD
:103E2C004FF0FF314FF0FF3000F0A6B9ADF1080CA8
:103E3C006DE904CE00F02AF8DDF804E0DDE9022398
:103E4C0004B07047D0B500220E4B06460F46FFF764
:103E5C0027FDFFF7BFFF0446FFF7ACFC00220A4B1F
:103E6C00FFF71EFD02460B4630463946FFF764FB52
:103E7C00FFF7B0FF2346002242EA00021046194623
:103E8C00D0BD00BF0000F03D0000F0412DE9F04F27
:103E9C008C460C460546099E002B4FD18A4217468C
:103EAC006BD9B2FA82FEBEF1000F0BD0CEF1200519
:103EBC0020FA05F501FA0EF345EA030C02FA0EF7A7
:103ECC0000FA0EF5390CBCFBF1F0BAB201FB10C3D1
:103EDC0000FB02F84FEA154C4CEA0344A04509D903
:103EEC00E41900F1FF3380F02881A04540F22581D0
:103EFC0002383C44C8EB0404B4FBF1F301FB134C53
:103F0C0003FB02F2ACB244EA0C418A4209D9C9194A
:103F1C0003F1FF3480F00F818A4240F20C81023BA6
:103F2C0039448A1A43EA00400021002E63D022FA59
:103F3C000EF2002386E80C00BDE8F08F8B4207D907
:103F4C00002E56D0002186E811000846BDE8F08FFF
:103F5C00B3FA83F1002940F09380A34202D382424A
:103F6C0000F2FE80851A64EB03039C460120002EB0
:103F7C0041D086E82010BDE8F08F12B90127B7FBBD
:103F8C00F2F7B7FA87FEBEF1000F36D1E41B4FEA09
:103F9C0017481FFA87F90121B4FBF8F308FB134407
:103FAC0009FB03F24FEA154C4CEA0444A24207D930
:103FBC00E41903F1FF3002D2A24200F2D38003468F
:103FCC00A41AB4FBF8F008FB104809FB00F9ACB2DA
:103FDC0044EA0842914507D9D21900F1FF3402D2C4
:103FEC00914500F2BA802046C9EB020240EA034038
:103FFC009BE731463046BDE8F08F07FA0EF7CEF15D
:10400C00200C24FA0CF34FEA1748B3FBF8FA1FFA0A
:10401C0087F908FB1A3520FA0CFC04FA0EF40AFB9B
:10402C0009FB4CEA040C4FEA1C4242EA05439B454F
:10403C0000FA0EF50AD9DB190AF1FF3280F08B80F9
:10404C009B4540F28880AAF1020A3B44CBEB030368
:10405C00B3FBF8F008FB103300FB09F41FFA8CFCDF
:10406C004CEA03439C4207D9DB1900F1FF326ED2B4
:10407C009C426CD902383B441C1B40EA0A418BE73A
:10408C00C1F1200E8B4022FA0EFC4CEA030C24FAF0
:10409C000EF74FEA1C49B7FBF9FA1FFA8CF309FB30
:1040AC001A7720FA0EF88C400AFB03F548EA040450
:1040BC004FEA144848EA0747BD4202FA01F200FAF7
:1040CC0001FB09D917EB0C070AF1FF3041D2BD42B5
:1040DC003FD9AAF1020A67447F1BB7FBF9F509FB2C
:1040EC00157705FB03F3A4B244EA0747BB4208D992
:1040FC0017EB0C0705F1FF3027D2BB4225D9023D47
:10410C00674445EA0A40A0FB0289FF1A4F45454621
:10411C004C4614D329D066B3BBEB050367EB0407FD
:10412C0007FA0EFECB40CF404EEA030386E8880028
:10413C000021BDE8F08F2346F3E61846DAE6B8EB2B
:10414C00020569EB0C040138E5E70546D9E7104692
:10415C0092E78246C0E7924678E702383A4443E752
:10416C00084604E7023B3C442AE7C345E7D33C46F8
:10417C00D1E73146BDE8F08F704700BF10B5054C54
:10418C0013462CB10A4601460220AFF3008010BD45
:10419C00204610BD0000000010B5431E0A44914299
:1041AC0004D011F8014B03F8014FF8E710BD03469A
:1041BC000244934202D003F8011BFAE77047000057
:1041CC0038B5124B05461C68A36BD3B91820FDF704
:1041DC004FFE43F20E33A06303804AF6CD33438087
:1041EC0041F2342383804EF26D63C3804DF6EC6351
:1041FC000381052343810B23838101220023C0E922
:10420C000423A36B00221D615A6138BD8804002071
:10421C00034613F8012B002AFBD1181A01387047FA
:10422C001D000A085D000A0889000A088D000A08AA
:10423C0000000000424D45323830206E6F7420690A
:10424C006E697469616C697A65640077656174681C
:10425C006572636C69656E740068656C6C6F207751
:10426C006F726C64006F75744D51545400000000F3
:10427C000000000000000000D1040A08D3040A0862
:10428C00E90B0A08F5270A0801050A08E5080A08D7
:10429C0059030A08E5010A08A5090A083B0A0A0895
:1042AC00730A0A088F0A0A080000000000000000C8
:1042BC000000000000000000E90B0A08F5270A08BE
:1042CC00AD000A08E5080A08050A0A08210A0A08C6
:1042DC00A5090A083B0A0A08730A0A088F0A0A0881
:1042EC0000000000003E5B4F5B3E3E6B4F6B3E1C84
:1042FC003E7C3E1C183C7E3C181C577D571C1C5E9B
:10430C007F5E1C00183C1800FFE7C3E7FF00182471
:10431C001800FFE7DBE7FF30483A060E262979291B
:10432C0026407F050507407F05253F5A3CE73C5A50
:10433C007F3E1C1C08081C1C3E7F14227F22145F2D
:10434C005F005F5F06097F017F006689956A606088
:10435C0060606094A2FFA29408047E040810207E82
:10436C00201008082A1C08081C2A08081E10101007
:10437C00100C1E0C1E0C30383E3830060E3E0E064D
:10438C00000000000000005F0000000700070014A0
:10439C007F147F14242A7F2A12231308646236495F
:1043AC005620500008070300001C22410000412247
:1043BC001C002A1C7F1C2A08083E0808008070304C
:1043CC0000080808080800006060002010080402BB
:1043DC003E5149453E00427F4000724949494621C1
:1043EC0041494D331814127F1027454545393C4A35
:1043FC00494931412111090736494949364649494C
:10440C00291E000014000000403400000008142293
:10441C004114141414140041221408020159090601
:10442C003E415D594E7C1211127C7F494949363E02
:10443C00414141227F4141413E7F494949417F09E8
:10444C000909013E414151737F0808087F00417FF3
:10445C0041002040413F017F081422417F404040F1
:10446C00407F021C027F7F0408107F3E4141413E89
:10447C007F090909063E4151215E7F09192946260B
:10448C004949493203017F01033F4040403F1F200F
:10449C0040201F3F4038403F6314081463030478E6
:1044AC0004036159494D43007F4141410204081006
:1044BC0020004141417F0402010204404040404041
:1044CC00000307080020545478407F2844443838AF
:1044DC0044444428384444287F3854545418000821
:1044EC007E090218A4A49C787F0804047800447DFB
:1044FC0040002040403D007F1028440000417F4098
:10450C00007C047804787C080404783844444438EB
:10451C00FC1824241818242418FC7C0804040848CB
:10452C005454542404043F44243C4040207C1C201C
:10453C0040201C3C4030403C44281028444C909077
:10454C00907C4464544C44000836410000007700D1
:10455C0000004136080002010204023C2623263CDE
:10456C001EA1A161123A4040207A38545455592169
:10457C005555794121545478412155547840205453
:10458C005579400C1E52721239555555593954549F
:10459C00545939555454580000457C410002457D0E
:1045AC00420001457C40F0292429F0F0282528F010
:1045BC007C545545002054547C547C0A097F493264
:1045CC00494949323248484832324A4848303A41DF
:1045DC0041217A3A42402078009DA0A07D39444484
:1045EC0044393D4040403D3C24FF2424487E49430F
:1045FC00662B2FFC2F2BFF0929F620C0887E090380
:10460C0020545479410000447D413048484A3238A6
:10461C004040227A007A0A0A727D0D19317D2629D2
:10462C00292F28262929292630484D4020380808CA
:10463C00080808080808382F10C8ACBA2F102834FE
:10464C00FA00007B000008142A142222142A1408F1
:10465C00AA005500AAAA55AA55AA000000FF0010EE
:10466C001010FF00141414FF001010FF00FF1010A6
:10467C00F010F0141414FC001414F700FF0000FFE9
:10468C0000FF1414F404FC141417101F10101F1046
:10469C001F1414141F00101010F0000000001F1045
:1046AC001010101F10101010F010000000FF101050
:1046BC0010101010101010FF10000000FF1400005C
:1046CC00FF00FF00001F10170000FC04F414141767
:1046DC0010171414F404F40000FF00F7141414144D
:1046EC00141414F700F7141414171410101F101FBF
:1046FC00141414F4141010F010F000001F101F000C
:10470C0000001F14000000FC140000F010F010104A
:10471C00FF10FF141414FF141010101F00000000E1
:10472C00F010FFFFFFFFFFF0F0F0F0F0FFFFFF00D5
:10473C0000000000FFFF0F0F0F0F0F3844443844E8
:10474C007C2A2A3E147E02020606027E027E026348
:10475C00554941633844443C04407E201E200602E7
:10476C007E020299A5E7A5991C2A492A1C4C7201C4
:10477C00724C304A4D4D303048784830BC625A4605
:10478C003D3E494949007E0101017E2A2A2A2A2AF6
:10479C0044445F444440514A444040444A514000E0
:1047AC0000FF0103E080FF000008086B6B08361265
:1047BC00362436060F090F060000181800000010EA
:1047CC0010003040FF0101001F01011E00191D17D0
:1047DC0012003C3C3C3C000000000000044D5154D5
:1047EC00540400064D51497364700300000000002E
:1047FC0000000000F5110A0864656661756C742090
:10480C00004D5342004C5342003C53504953657485
:10481C0074696E67732064656661756C743E003CE8
:10482C0053504953657474696E6773202573256CF6
:10483C0075202573204D4F444525643E0054656D0D
:10484C00703A00430048756D69646974793A0025C3
:10485C000050726573737572653A0068506100524E
:10486C0061696E3A006D6D20612064617900000011
:10487C000000000000000000BD1E0A08BF1E0A0850
:10488C00000810182028303800000000000000003C
:10489C0087210A088D210A08A7250A089B210A08E6
:1048AC0089210A0800000000000000007D0C0A08A5
:1048BC00B10C0A0843210A085D210A08A5220A083E
:1048CC000F220A08E1210A0885210A0851230A0847
:1048DC00C1250A0843220A081D230A089F240A0836
:1048EC00F1240A086D210A0863240A08C1210A0868
:1048FC00776972696E6700544350436C69656E74D6
:10490C0020736F636B65743D25780062617564007C
:10491C0053657269616C0055534253657269616CE1
:10492C0031007479706500706172616D00636D6443
:10493C0000696400686E64007374726D0066696C63
:10494C0074006C766C0061646448616E646C6572B2
:10495C000072656D6F766548616E646C657200659A
:10496C006E756D48616E646C657273004A534F4E80
:10497C0053747265616D4C6F6748616E646C6572DF
:10498C000061707000253031307520005D200025ED
:10499C0064002C200028293A2000205B00636F64FF
:1049AC0065203D200025690064657461696C732085
:1049BC003D20000D0A0066006C6E00666E00636F91
:1049CC0064650064657461696C006E6F6E6500747B
:1049DC007261636500696E666F007761726E006567
:1049EC0072726F720070616E696300616C6C005A58
:1049FC0000252B3033643A253032750025592D258E
:104A0C006D2D25645425483A254D3A2553257A00B9
:104A1C0061736374696D65000000000000000000A4
:104A2C00ED2A0A08DD2A0A08DF2A0A08000000001D
:104A3C0000000000D52B0A08252C0A08332C0A0884
:104A4C00F5270A08112C0A08D72B0A08ED2B0A089F
:104A5C001F2C0A08032C0A08D12B0A08000000009E
:104A6C0000000000812D0A08D12D0A08DF2D0A084C
:104A7C00F5270A08952D0A08B72D0A08A32D0A0850
:104A8C00CB2D0A08832D0A08872D0A080000000088
:104A9C0000000000852E0A08CF2E0A08A72E0A084F
:104AAC00872E0A08AF2E0A08B72E0A08BF2E0A084E
:104ABC00C72E0A080000000000000000DF2F0A08C3
:104ACC00D52F0A08CB2F0A08492F0A0833290A08C0
:104ADC00BF2F0A08B32F0A08AB2F0A08A12F0A0808
:104AEC00972F0A08532F0A0800000000000000004E
:104AFC00FD2F0A0807300A0811300A081B300A0873
:104B0C0025300A0831300A083D300A0849300A08B5
:104B1C0051300A085B300A0865300A0800000000B2
:104B2C000000000000000000000000000000000079
:104B3C000000000000000000000000000000000069
:104B4C000000000000000000000000000000000059
:104B5C000000000000000000000000000000000049
:104B6C000000000000000000000000000000000039
:104B7C000000000000000000000000007D010A0899
:104B8C00D1010A08E1080A08790C0A08EF110A0891
:104B9C0053170A08A5190A08B9200A0841290A0856
:104BAC0051290A0889290A08E92F0A08CD300A0870
:104BBC00E9310A082D320A08AD320A0831330A08E5
:104BCC00F5330A08B9340A080000000000000000A0
:044BDC0000000000D5
:084BE000B8F2FF7F01000000A4
:044BE80000000000C9
:104BEC00746573742E4D6F7371756974746F2E6F59
:104BFC00726700000103070F1F3F7F0080C0E0F0C9
:104C0C00F8FCFE00000000000000000000000000A6
:104C1C000000000000000000000000000000000088
:104C2C000000000000000000000000000000000078
:104C3C000000000000000000000000000000000068
:104C4C0000008080800000000000000000000000D8
:104C5C00000000008080C0C00000000000000000C8
:104C6C000000000000000000000000000000000038
:104C7C000000000000000000000000000000000028
:104C8C000000000000000000000000000000000018
:104C9C000000000000000080C0E0F0F8FCF8E0002C
:104CAC0000000000000000000000000000000000F8
:104CBC008080808080008080000000008080808068
:104CCC008000FFFFFF0000000080808080000080DB
:104CDC0080000080FFFF80800080800080808080CA
:104CEC000080800000000000808000008C8E84001A
:104CFC000080F8F8F88000000000000000000000C0
:104D0C00000000F0F0F0F0F0F0F0F0F0F0F0F0E077
:104D1C00E0C08000E0FCFEFFFFFF7FFFFFFFFFFF16
:104D2C000000000000000000000000000000FEFF7A
:104D3C00C70101010183FFFF00007CFEC7010101D7
:104D4C000183FFFFFF0038FEC78301010183C7FF0A
:104D5C00FF000001FFFF010100FFFF07010101003F
:104D6C00007FFF80000000FFFF7F0000FFFFFF00BF
:104D7C000001FFFFFF010000000000000000000028
:104D8C00000000030F3F7F7FFFFFFFFFFFFFFFE7E8
:104D9C00C7C78F8F9FBFFFFFC3C0F0FFFFFFFFFF91
:104DAC00FCFCFCFCFCFCFCFCF8F8F0F0E0C00001A6
:104DBC0003030303030103030000000001030303C7
:104DCC0003010103010000000103030303010103BC
:104DDC0003000000030300000003030000000000B8
:104DEC0000000103030303030100000001030100A1
:104DFC0000000303010000000000000000000000A0
:104E0C0000000000000080C0E0F0F9FFFFFFFFFF92
:104E1C003F1F0F87C7F7FFFF1F1F3DFCF8F8F8F87F
:104E2C007C7DFFFFFFFFFFFFFFFF7F3F0F07003081
:104E3C003000000000000000000000000000000036
:104E4C0000000000000000FEFEFC0000000000005E
:104E5C000000000000000000000000000000000046
:104E6C00E0C0000000000000000000000030300036
:104E7C000000000000000000000000000000000026
:104E8C0000000000C0FEFFFFFFFFFFFFFFFFFF7FE2
:104E9C007F3F1F0F071F7FFFFFF8F8FFFFFFFFFF8C
:104EAC00FEF8E0000000010000000000000000FE21
:104EBC00FE000000FCFEFC0C06060EFCF80000F0E8
:104ECC00F81C0E0606060CFFFFFF0000FEFE00009D
:104EDC000000FCFEFC00183C7E66E6CE840000065A
:104EEC00FFFF0606FCFEFC0C0606060000FEFE009C
:104EFC0000C0F8FC4E4646464E7C7840183C76E6A0
:104F0C00CECC80000000000000000000000000007B
:104F1C000000000000000001070F1F1F3F3F3F3F34
:104F2C001F0F030000000000000000000000000F35
:104F3C000F0000000F0F0F000000000F0F00000308
:104F4C00070E0C18180C060F0F0F0000010F0E0C9B
:104F5C00180C0F070100040E0C180C0F07000000B2
:104F6C000F0F00000F0F0F0000000000000F0F00CC
:104F7C00000007070C0C181C0C060600040E0C187D
:104F8C000C0F0700000000000000000000000000F3
:104F9C000000000000000000000000000000000005
:104FAC0000000000000000000000000000000000F5
:104FBC0000000000000000000000000000000000E5
:104FCC0000000000000000000000000000000000D5
:104FDC0000000000000000000000000000000000C5
:104FEC0000000000000000000000000000000000B5
:104FFC0000000000000000000000000000000000A5
:10500C00000000001C4A0A0800000000284B0A0897
:10501C00484B0A08684B0A0800000000000000001A
:10502C0000000000000000004F480A0800000000CB
:10503C000000000000000000000000000000000064
:10504C000000000000000000000000000000000054
:10505C000000000000000000000000000000000044
:0C506C00000000000000000028040020EC
:10507800FFFFFFFF00000102030405060708090AF5
:105088000B0C0D0E0F101112131415161718191AF0
:085098001B1C1D1E1F20280037
:0450A00078563412F8
:04000005080A001CC9
:00000001FF
