:02000004080AE8
:1000000000000A08E83F0A08000006000600050193
:0800100004027D050000000060
:0400180068310A0839
:10001C0009480A4908B5884205D0094A824202D0EB
:10002C00121A03F04DF80748074A0021121A03F080
:10003C0052F8064808BD00BF00000020343B0A08F7
:10004C008C0400208C040020E00A0020E00A002030
:10005C0070B502F0EFFA074B074C1E46E41AA408E1
:10006C000025A54204D056F8253098470135F8E70D
:10007C0070BD00BFE03A0A08243B0A0800F082B8C1
:10008C0008B500F0C3F8BDE8084002F095BA01F0DD
:10009C00EDBD01F0EBBD01F0F1BD01F0EFBD0000D5
:1000AC0008B5034A00210C2001F04CFDFEE700BF0F
:1000BC00ED180A080078B0FA80F040097047012367
:1000CC0003707047F8B506460D46014621481446A4
:1000DC0003F032F8074670B91F4B224629461846E2
:1000EC0002F0EEFF1D4B0444012267701A6002F00F
:1000FC00B7FB1B4928E031461A4803F01DF80746A8
:10010C0070B9194B22462946184602F0D9FF174BF5
:10011C000444012267701A6002F0A2FB144913E038
:10012C003146144803F008F8064688B9124B2246AB
:10013C002946184602F0C4FF104B04440122667095
:10014C001A6002F08DFB0E49BDE8F84002F094B93C
:10015C00F8BD00BF7C310A080C050020FC0400200F
:10016C008D310A089B310A08200500200805002063
:10017C00AD310A08BC310A089004002000050020AB
:10018C00CD310A0808B502F06BFB4FF4165102F0A2
:10019C004DFB02F065FB144902F06EF900F0C2F859
:1001AC0000F0CEF81149124801F026F9104801F080
:1001BC003EF880B102F054FB0E4902F05DF90E4995
:1001CC000B4801F00BFB0D49094801F007FB0C49EA
:1001DC00074801F003FB0B4A0B49054801F08BF96A
:1001EC00BDE8084000F0ACB8DB310A08E1310A0880
:1001FC00A4040020EF310A087C310A089B310A085C
:10020C00BC310A0884380A08F9310A08F0B52A48C2
:10021C0085B001F00CF810B1274801F0B3F9274F65
:10022C003B68012B42D1264E3368012B3ED1254D24
:10023C002C68012C3AD102F013FB234902F01CF973
:10024C002249684602F0A1F8684600F085F8684635
:10025C0002F048F842F2107002F05CF91C49684652
:10026C0002F093F8684600F00DF9684602F03AF88F
:10027C0042F2107002F04EF91649684602F085F809
:10028C00684600F0B9F8684602F02CF842F210709B
:10029C0002F040F900F054F80F4B00221B68214685
:1002AC0068463A6032602A6001F084FD4FF4FA70BF
:1002BC0002F030F905B0F0BDA4040020FC040020CD
:1002CC0008050020000500200C320A080C0500204F
:1002DC0020050020900400200405002010B50A4BD6
:1002EC000A4C00221A6001F093FA40F25B72084942
:1002FC002046084B00F0B4FE2046BDE81040064AEC
:10030C00064902F07FBD00BF04050020A4040020B4
:10031C0000000020D1000A088C040020EF170A0806
:10032C007047000010B5054C3C222046022100F01D
:10033C0035FB2046BDE8104000F076BC34050020AB
:10034C0010B5044C204600F06FFC2046BDE8104070
:10035C0000F0F4BB3405002030B5054685B0224CC6
:10036C0002F07EFA214902F087F802F079FA296846
:10037C0002F06FF8204600F057FC2046012100F0F7
:10038C0017FE10222046322100F00FFE184920469D
:10039C0002F05FF82046022100F00AFE22222046DD
:1003AC00232100F002FE2946684602F010F800995D
:1003BC00204602F04EF8684601F094FF20460121D9
:1003CC0000F0FBFD2046022100F0F2FD3222204617
:1003DC003C2100F0EAFD0749204602F03AF820469D
:1003EC0000F0ACFB05B030BD3405002019320A0812
:1003FC0025320A082B320A0830B505461E4C85B04A
:10040C00204600F011FC2046012100F0D1FD102205
:10041C002046282100F0C9FD1849204602F019F8A1
:10042C002046022100F0C4FD20462222232100F0A8
:10043C00BCFD02222968684601F09BFF009920460A
:10044C0002F007F8684601F04DFF2046012100F04C
:10045C00B4FD2046022100F0ABFD322220463C21A7
:10046C0000F0A3FD0649204601F0F3FF204600F002
:10047C0065FB05B030BD00BF340500202D320A08E5
:10048C0037320A0830B505461E4C85B0204600F0C0
:10049C00CBFB2046012100F08BFD102220462821A9
:1004AC0000F083FD1849204601F0D3FF20460221BD
:1004BC0000F07EFD20462222232100F076FD022250
:1004CC002968684601F055FF0099204601F0C1FFEC
:1004DC00684601F007FF2046012100F06EFD204622
:1004EC00022100F065FD32222046302100F05DFD36
:1004FC000649204601F0ADFF204600F01FFB05B079
:10050C0030BD00BF3405002039320A0843320A08D6
:10051C0010B50446242102F07AFC204610BD0000E0
:10052C0010B5074C01F074F90421204600F0DEF9F7
:10053C002046BDE81040034A034902F063BC00BFEB
:10054C00340500208C0400202D030A08F0B5447EED
:10055C00BDF81450022C08D0032C0FD0012C70D1F4
:10056C000489013CA21A12B20CE04489013CA21A83
:10057C00048912B2E41A611A09B262E04489E41ADD
:10058C00611A09B2002A5BDBB0F90840944240F3CF
:10059C0090800029BEBF5B181BB20021B0F90A0085
:1005AC00CC188442C4BF431A1BB2002B40F3818089
:1005BC00C9B2C8083F4F02EBC01211F00701DBB201
:1005CC0007EB020417D0C1F10801C8B23A498342C3
:1005DC000E5C3FBFC3EB000EFF2141FA0EF10E4043
:1005EC00B95C012D0CBF3143B1438342B95460D384
:1005FC00181AC3B28034072B17D9012D0CBFFF205A
:10060C0000201A4604F18001083AD2B2072A01F8F8
:10061C00800C01F18001F7D8A3F10802C2F3C402E7
:10062C00013204EBC21403F00703002B41D0234A20
:10063C00012DD25C23780CBF134393432370F0BD80
:10064C00F0BD002A35DBB0F90A40944231DD0029B7
:10065C00BCBFC9180BB2B0F90870B8BF0021CE18D6
:10066C00BE42C4BF631A1BB2002B22DDD01001EBBB
:10067C00C011104802F007020144012000FA02F2F6
:10068C008542D2B209D1013B1BB25C1C11D011F8CE
:10069C00010B104301F8010CF5E7D243D2B2013B38
:1006AC001BB2581C05D011F8010B104001F8010CBD
:1006BC00F5E7F0BD230000201B00002013000020F4
:1006CC00F0B5447EBDF81450022C08D0032C0FD08A
:1006DC00012C12D10489E41AA21A12B26DE0048919
:1006EC00013C611A448909B2E41AA21A12B204E05C
:1006FC004489013C611A09B25FE000295CDBB0F966
:10070C0008408C4240F39180002ABCBFD21813B22F
:10071C00B0F90A00B8BF0022D4188442C4BF831AAF
:10072C001BB2002B40F38180D4B2404EDAB2E30806
:10073C0001EBC31114F0070406EB010317D0C4F14D
:10074C000804E0B23A4C8242275C3FBFC2EB000E79
:10075C00FF2444FA0EF42740745C012D0CBF3C437B
:10076C00BC438242745460D3101AC2B28033072A3D
:10077C0017D9012D0CBFFF240024114603F1800072
:10078C000839C9B2072900F8804C00F18000F7D86D
:10079C00A2F10801C1F3C401013103EBC11302F052
:1007AC000702002A41D02349012D895C1A780CBF1D
:1007BC000A438A431A70F0BDF0BD002935DBB0F94D
:1007CC000A408C4231DD002ABCBFD21813B2B0F9FA
:1007DC000870B8BF0022D618BE42C4BFA31A1BB201
:1007EC00002B22DDC81002EBC012104801F00701EB
:1007FC001044012202FA01F19542C9B209D15A1EE4
:10080C0013B25C1C11D010F8012B0A4300F8012C18
:10081C00F5E7C943C9B25A1E13B25A1C05D010F8D9
:10082C00012B0A4000F8012CF5E7F0BD2300002055
:10083C001B0000201300002010B422B119460548FB
:10084C0010BC01F0ADBA0122C9B2C0B210BC02F0AA
:10085C005BBA00BFEC090020F8B50D1E0646144625
:10086C001F463FDB00F0AEFB85423BDA002C39DB48
:10087C00304600F0AAFB844234DA304600F0A0FB8C
:10088C00022827D13189708901390138491B001B95
:10089C000DB204B206E0012804D13389013B1B1BC5
:1008AC002C461DB2082094FBF0F0012F00B20E4B29
:1008BC0004F0070205EBC01104D197405A5C1743B2
:1008CC005F54F8BD585C012707FA02F220EA0202D5
:1008DC005A54F8BD0328DED17389013B5B1B2546B6
:1008EC001CB2DFE7F8BD00BF2300002038B504467A
:1008FC000D464022802100F077FA064B84F82050F8
:10090C002360FF23637784F82130E377A3772046B5
:10091C0038BD00BF60320A0838B590F91D30044666
:10092C0001330D4622D090F92100012180B202F052
:10093C00D2F994F91F00002180B202F0CCF994F99D
:10094C002100002180B202F0C6F994F91E1094F92E
:10095C001D002B4694F82220FFF76EFF94F921001E
:10096C00012180B2BDE8384002F0B5B902F02AFA94
:10097C0094F91B1002F0A0F802F024FA036800218D
:10098C009B68984702F01EFA036829469B689847B3
:10099C0002F018FABDE8384002F095B838B50446B4
:1009AC00217790F91D300D460133C27633D090F982
:1009BC001F00012180B202F07DF994F92100012180
:1009CC0080B202F077F994F822305BB994F91D00EB
:1009DC00012180B202F06EF994F91E00012180B25F
:1009EC0002F068F994F82230CBB194F9210001217E
:1009FC0080B202F070F901214F4801F070F910211A
:100A0C004D4801F0B9F900214B4801F06BF94A4807
:100A1C0001F060F903E002F0D5F902F043F894F923
:100A2C002000012180B202F045F994F92000012147
:100A3C0080B202F050F9012001F06CFD94F9200015
:100A4C00002180B202F047F90A2001F063FD94F90D
:100A5C002000012180B202F03EF92046AE21FFF7C2
:100A6C005BFF2046D521FFF757FF20468021FFF77B
:100A7C0053FF2046A821FFF74FFF20463F21FFF7E9
:100A8C004BFF2046D321FFF747FF20460021FFF7FD
:100A9C0043FF20464021FFF73FFF8D212046FFF703
:100AAC003BFF012D0CBF102114212046FFF734FF12
:100ABC0020462021FFF730FF20460021FFF72CFFB6
:100ACC002046A121FFF728FF2046C821FFF724FF6D
:100ADC002046DA21FFF720FF20461221FFF71CFFEA
:100AEC0081212046FFF718FF012D0CBF9F21CF213C
:100AFC002046FFF711FFD9212046FFF70DFF012DEE
:100B0C000CBF2221F1212046FFF706FF2046DB21F6
:100B1C00FFF702FF20464021FFF7FEFE2046A421EE
:100B2C00FFF7FAFE2046A621FFF7F6FE2046BDE8A9
:100B3C003840AF21FFF7F0BEEC0900202DE9F04161
:100B4C0004462121FFF7E8FE00212046FFF7E4FED2
:100B5C007F212046FFF7E0FE22212046FFF7DCFE36
:100B6C0000212046FFF7D8FE07212046FFF7D4FED0
:100B7C0094F91D30DFF8AC8001332ED094F92100AC
:100B8C00012180B202F0A7F894F91F00012180B274
:100B9C0002F0A1F894F92100002180B202F09BF838
:100BAC00012000F09DFE002518F8053094F8222055
:100BBC0094F91E1094F91D000135FFF73DFEB5F5B3
:100BCC00806FF1D1012000F08BFE94F921000121FE
:100BDC0080B2BDE8F04102F07EB8002502F0F2F8D8
:100BEC0094F91B1001F068FF02F0ECF80368402147
:100BFC009B689847002602F0E5F8AF190368BFB26E
:100C0C009B6818F8071001369847102EF3D1103551
:100C1C0002F0D8F8ADB201F056FFB5F5806FDDD11A
:100C2C00BDE8F081230000204FF4806200210148D0
:100C3C0002F051BA2300002000F0EABD2DE9F04F7C
:100C4C001E4685B0BDF9383015469A1A002AB8BF31
:100C5C0052420092721A002AB8BF524201920C46BC
:100C6C00009A019981468A42BDF83CA005DD3246C6
:100C7C001E46134622462C461546B44205DD2A462E
:100C8C001D4613462246344616465A1B002AC4EB10
:100C9C000608B8BF52421FFA88F803920FFA88F779
:100CAC0002229D42B4BF01234FF0FF3397FBF2F7B2
:100CBC000293B4421FDC019A009B48469342D9F838
:100CCC000030C8BF2246D3F810B0C8BF29465346DF
:100CDC00DCBF2A462146D847039BFF1ABBB21FB282
:100CEC00002F05DA029A08EB030715442DB23FB228
:100CFC00013424B2DDE705B0BDE8F08F2DE9F347F0
:100D0C00044691460D469846BDF82C600768BDF91F
:100D1C0028A00096FF69B84723680AF1FF320096B5
:100D2C004A44DF6929464346204612B2B847236835
:100D3C0000969F694A46534629462046B847236881
:100D4C0008F1FF310A9629449D694A4653462046CC
:100D5C00AC4609B202B0BDE8F047604737B5013B7D
:100D6C00BDF81850134404681BB2009301956469D4
:100D7C000B46A04703B030BD37B5BDF8185004681A
:100D8C008DE82400013B0B4464691BB2A04703B0FF
:100D9C0030BD2DE9F347054617460C46BDF92880B2
:100DAC00BDF82C9001EB030A54450BDA2B68CDF8F7
:100DBC0000909E69214643463A4628460134B04786
:100DCC0024B2F1E702B0BDE8F08713B5B0F90E20FC
:100DDC000468019100920022B0F90C30646A11464B
:100DEC00A04702B010BD7047018181814FF6FF71A1
:100DFC0030B5074D00244281C28101224460056058
:100E0C004476048244820276C1828182827630BD2D
:100E1C0098320A082DE9F04F8FB00691BDF860109A
:100E2C0004460791BDF864109DF868800891B0F9EC
:100E3C000C10069881427DDDB4F90E10914279DDDB
:100E4C00062101FB0800002874DD02EBC800002815
:100E5C0070DD03EB830395B20C9305F108039BB291
:100E6C00099100260D932F46A946052E1FBF334B23
:100E7C000C9A9B1913F802A01FFA88F30493049997
:100E8C00BDF81830B2B201FB0231134409B20A9119
:100E9C001BB20FFA88F108BF4FF0000A05950391B9
:100EAC000B931AF0010F11D0B8F1010F236803D185
:100EBC00D3F810B0079B14E0079A0192039A0092A2
:100ECC00D3F824B013460FFA89F218E0079B089A5E
:100EDC00934217D0B8F1010F236807D1D3F810B0A3
:100EEC0013463AB20B992046D8470BE0089A019268
:100EFC00039A0092D3F824B01346BDF914200A9932
:100F0C002046D847049B049A9944059B0137134407
:100F1C009BB205930D9BBFB29F424FEA5A0A1FFA30
:100F2C0089F9BED1099B0136013B13F0FF0376B260
:100F3C00099398D10FB0BDE8F08F00BFC8320A08F2
:100F4C0030B50A2985B004460B4604D1027E438A8B
:100F5C0003EBC20323E00D2924D0057EB0F9122047
:100F6C00B0F910100295C58A0195858A0095FFF796
:100F7C0051FF227E238A91B201EB410003EB400327
:100F8C00A07E1BB2238268B1B4F90C006FF005058A
:100F9C0005FB0202934205DD638A03EBC103638206
:100FAC0000232382012005B030BD018242827047AC
:100FBC00002908BF012101767047C18281827047E8
:100FCC00407E7047B0F90C007047B0F90E007047C6
:100FDC0000F01EBC38B50B4B8469054603607CB130
:100FEC006368013B63605BB9236820469B68984744
:100FFC00A368013BA3601BB923682046DB689847B4
:10100C00284638BD10380A0810B50446FFF7E2FF31
:10101C0020461C2101F0FBFE204610BD38B51D46B4
:10102C00059B044603630023436302B1826419B138
:10103C0004F1380001F0D6F9049BE0692365069BA6
:10104C00A4F84C50FF2BB8BFFF23A4F8543008B1C0
:10105C00FFF723F8B4F85400FFF71BF8E06138BD34
:10106C002DE9FF410446174698460E46002501F02F
:10107C00E1F8E5610A4904F1380001F086F9FF2333
:10108C0002930F2300932046A564CDF804803B46C1
:10109C002A463146FFF7C2FF204604B0BDE8F08176
:1010AC0019390A0810B50446204600F057FF0028ED
:1010BC00FAD0204600F007FFC0B210BD2DE9F04772
:1010CC000546C4698A46FFF7EDFF4FF00108464616
:1010DC002070EB69002793F8009009F0F00928467E
:1010EC00FFF7E0FFEB69741C985500F07F0303FBDE
:1010FC0008770306A4B2BFB24FEAC81801D526463A
:10110C00EDE7631EB9F1300F8AF8003013D1284691
:10111C00D5F81C80FFF7C6FF08F804002846D5F860
:10112C001C80FFF7BFFFF41C0236B6B2A4B208F85D
:10113C000600022300E000231B1B9EB2A3199BB2E6
:10114C009F420BD92846FFF7ADFFB5F85430A342A8
:10115C0084BFEB6918550134A4B2EFE7B5F854001D
:10116C00A0422CBF20460020BDE8F087F7B507460B
:10117C008E461E461D46002405F07F0302A9ED098C
:10118C00214418BF43F08003013401F8043CE4B25D
:10119C00002DF1D1C4F10403D11802F803E0A542EB
:1011AC0006DA01A82B1B285C134458710135F6E7AD
:1011BC00721C2244384600F02EFE054600F098FBC7
:1011CC00013478623444A8B2231A5842584103B00F
:1011DC00F0BD10B50446C369E0221A70C369002241
:1011EC005A70C169022200F016FE204600F0F2FE91
:1011FC0000F07EFB6062A06210BDF0B50D460233BC
:10120C009BB26C1A15F8016BA4B23EB1B0F85470D5
:10121C009F4203D95C1CD654A3B2F2E7191B0A44B3
:10122C00211202F8021C02F8014C1846F0BD38B528
:10123C00054600F090FF002814BF0124002402D1C1
:10124C00284600F0C7FE204638BD00002DE9F043CB
:10125C0087B00446894617461E46DDF83880FFF7EE
:10126C00E6FF0546002840F0BD80A16C39B9034665
:10127C00B4F84C20A16B204600F0FEFF09E0684654
:10128C0001F074FA2B46B4F84C206946204600F065
:10129C00BBFE002800F0A280012323849DF84C3073
:1012AC00042B15D1524B18689A880090ADF8042085
:1012BC009B79E26900988DF80630C2F80500531D41
:1012CC00BDF804109DF8062099809A710C2312E049
:1012DC006A46484BD4F81CC0186859681B7A03C27C
:1012EC0013706B4603CBCCF80500CCF809101378BF
:1012FC008CF80D300E23B8F1000F0AD09DF8402069
:10130C009DF83C10520142F0060242EAC102D2B2F0
:10131C0000E002229DF8481009B902F0FD022FB13D
:10132C0016B942F0800201E042F0C002E169581C9B
:10133C00CA54226DE16912120A54E169206D9A1C9B
:10134C0088540333E26949462046FFF756FFB8F14B
:10135C00000F0BD00346E26941462046FFF74DFFD4
:10136C00E269034611992046FFF747FF67B1034630
:10137C00E26939462046FFF740FF2EB10346E26989
:10138C0031462046FFF739FF431F9BB2E26910211B
:10139C002046FFF7EBFE00F0ABFA4FF47A76606272
:1013AC00A062204600F0DAFD40B900F0A1FAA36A71
:1013BC00C01A236D73439842F3D90FE06946204657
:1013CC00FFF77CFE042809D1E369DE7836B900F01A
:1013DC008FFA0125A06284F82C6004E0204600F00E
:1013EC00F9FD00E00025284607B0BDE8F08300BFFA
:1013FC00C3370A08CA370A087FB5042305930123AB
:10140C000493002303930293019300931A46FFF76E
:10141C001DFF07B05DF804FB2DE9F14F0D9E04464E
:10142C008B4691469A469DF828809DF82C509DF845
:10143C003070FFF7FCFE00284BD0B4F8542000218C
:10144C00E06901F048FE0523E26959462046FFF7A2
:10145C00D4FE6B1E012B12D8238CE26901339BB294
:10146C0023841B121354411CE369228C89B2023071
:10147C0080B25A541EB1238C5A1C22843380002211
:10148C0091B283188A459BB209D9B4F854600132E1
:10149C009E4204D919F80160E169CE54F0E7B8F125
:1014AC00000F0CBF302131210FB141F00801022D8A
:1014BC0002D141F0040103E0012D08BF41F002010B
:1014CC002046053BE2699BB201B0BDE8F04FFFF747
:1014DC004DBE01B0BDE8F08F1FB5089C03940024ED
:1014EC0002949DF81C4001949DF818400094FFF75D
:1014FC0093FF04B010BD7FB5054610460E4614464A
:10150C0001F024FE0023029301930093224603462C
:10151C0031462846FFF7E0FF04B070BD38B50446ED
:10152C000D46FFF784FE90B1E36962221A70E369FD
:10153C0002225A70E3692A129A70E3690422DD7060
:10154C00E169204600F067FC003018BF012038BD6F
:10155C0038B504460D46FFF76AFE90B1E369722276
:10156C001A70E36902225A70E3692A129A70E369CD
:10157C000422DD70E169204600F04DFC003018BFFC
:10158C00012038BD2DE9F04F83B000AF0446FFF7C2
:10159C004EFE8146002800F0F68000F0A9F9226D7D
:1015AC004FF47A735343A26A0546821A9A4203D8BF
:1015BC00626A821A934217D294F82C302BB12046CF
:1015CC0000F008FD4FF00009DDE0E269C021117068
:1015DC00E26920465370E169022200F01CFC0123F1
:1015EC006562A56284F82C30204600F0B7FC002818
:1015FC0000F0C980F91D2046FFF760FD0246002867
:10160C0000F0C180E369A562187800F0F001302980
:10161C007DD1D4F830B0BBF1000F00F0B48097F856
:10162C0007C0EA4603EB0C00817890F801E001EB6F
:10163C000E2E1FFA8EFE0EF1080121F00701ADEB04
:10164C00010D684600218EB2B64506D90CEB010699
:10165C001E44F67846540131F5E7002100F80E10CF
:10166C001E780CF1030106F00606022ECCEB0202EA
:10167C001ED1714413F8018019444978CEEB020253
:10168C0001EB08280CF105017144053A1944D847BF
:10169C00E36940221A70E3691FFA88F85E70E36907
:1016AC004FEA28229A70E369042283F8038020E031
:1016BC00042E24D1714413F8018019444978CEEBDF
:1016CC00020201EB08280CF105017144053A19449A
:1016DC00D847E36950221A70E36902225A70E36911
:1016EC001FFA88F84FEA28229A703246E36983F889
:1016FC000380E169204600F08EFB656205E0033A49
:10170C007144CEEB02021944D847D5463BE0502930
:10171C0008D19978DB78204603EB012189B2FFF7D9
:10172C00FDFE30E040290CD0602908D19978DB7897
:10173C00204603EB012189B2FFF70AFF23E0702951
:10174C000DD1616BF9B1042A1DD110F0060F1AD11D
:10175C009878DB7803EB002080B2884713E090295F
:10176C0011D0C0290AD1D0221A70E36900225A7014
:10177C00E1690222204600F04EFB04E0D02904BFB0
:10178C00002384F82C3048460C37BD46BDE8F08F5A
:10179C0070B504460E461546FFF749FDE8B1238C9B
:1017AC0001339BB203B901232384238CE2691B12FE
:1017BC005371E369228C31469A71E2690723204602
:1017CC00FFF71BFDE36982211D54031FE2692046CC
:1017DC00BDE870409BB2FFF7C9BC70BD0022FFF79B
:1017EC00D7BF10B50446FFF722FD10B12046FFF716
:1017FC00F0FCE06908B1FEF750FC04F1380000F091
:10180C0071FD2046FFF7E6FB204610BD00F000B846
:10181C0008B5024B1B681B68019308BDB001060894
:10182C0008B5024B1B689B68019308BDB001060804
:10183C0008B5024B1B68DB68019308BDB0010608B4
:10184C0008B5024B1B681B69019308BDB001060863
:10185C0008B5024B1B681B68019308BDB401060850
:10186C0008B5024B1B689B68019308BDB4010608C0
:10187C0008B5024B1B68DB68019308BDB401060870
:10188C0008B5024B1B681B69019308BDB40106081F
:10189C0008B5024B1B685B69019308BDB4010608CF
:1018AC0008B5024B1B68DB69019308BDB40106083F
:1018BC0008B5024B1B681B6A019308BDB4010608EE
:1018CC0008B5024B1B685B6A019308BDB40106089E
:1018DC0008B5024B1B685B68019308BD9C010608A8
:1018EC0008B5024B1B68DB68019308BD9C01060818
:1018FC0008B5024B1B685B69019308BD9C01060887
:10190C0008B5024B1B681B6B019308BDD001060880
:10191C0008B5024B1B689B69019308BDC4010608FE
:10192C0008B5024B1B685B6A019308BDC40106082D
:10193C0008B5024B1B689B6A019308BDC4010608DD
:10194C0008B5024B1B68DB6A019308BDC40106088D
:10195C0008B5024B1B681B6B019308BDC40106083C
:10196C0008B5024B1B685B6B019308BDC4010608EC
:10197C0008B5024B1B689B6B019308BDC40106089C
:10198C0008B5024B1B681B6C019308BDC40106080B
:10199C0008B5024B1B68DB6C019308BDAC01060853
:1019AC0008B5024B1B689B6D019308BDAC01060882
:1019BC0008B5024B1B68DB6D019308BDAC01060832
:1019CC0008B5024B1B681B6E019308BDAC010608E1
:1019DC0008B5024B1B685B6E019308BDAC01060891
:1019EC0008B5024B1B689B6E019308BDAC01060841
:1019FC0008B5024B1B68DB6E019308BDAC010608F1
:101A0C0008B5024B1B681B6F019308BDAC0106089F
:101A1C0008B5024B1B685B6F019308BDAC0106084F
:101A2C0008B5034B1B68D3F88030019308BD000048
:101A3C00AC01060808B5024B1B681B68019308BD76
:101A4C00BC01060808B5024B1B685B68019308BD16
:101A5C00BC01060808B5024B1B689B68019308BDC6
:101A6C00BC01060808B5024B1B68DB68019308BD76
:101A7C00BC01060808B5024B1B681B69019308BD25
:101A8C00BC01060808B5024B1B681B6A019308BD14
:101A9C00BC01060808B5024B1B681B6B019308BD03
:101AAC00BC01060808B5024B1B685B6C019308BDB2
:101ABC00BC01060808B5024B1B681B68019308BDE6
:101ACC00D801060808B5024B1B685B68019308BD7A
:101ADC00D801060808B5024B1B681B69019308BDA9
:101AEC00D801060808B5024B1B685B69019308BD59
:101AFC00D801060808B5024B1B689B69019308BD09
:101B0C00D801060808B5024B1B68DB69019308BDB8
:101B1C00D801060808B5024B1B681B6A019308BD67
:101B2C00D801060808B5024B1B685B6C019308BD15
:101B3C00C001060808B5024B1B689B6C019308BDDD
:101B4C00C001060808B5024B1B685B6B019308BD0E
:101B5C00A801020808B5024B1B681B6D019308BD58
:101B6C00A801020808B5024B1B685B68019308BD0D
:101B7C00A401060808B5024B1B685B69019308BDFC
:101B8C00A401060808B5024B1B689B69019308BDAC
:101B9C00A401060808B5034B1B68D3F890300193D9
:101BAC0008BD0000A401060808B5034B1B68D3F858
:101BBC009C30019308BD0000A401060808B5024B37
:101BCC001B685B68019308BDC801060808B5024B89
:101BDC001B689B68019308BDC801060808B5024B39
:101BEC001B68DB68019308BDC801060808B5024BE9
:101BFC001B681B69019308BDC801060808B5024B98
:101C0C001B685B69019308BDC801060808B5024B47
:101C1C001B689B69019308BDC801060808B5024BF7
:101C2C001B68DB69019308BDC801060808B5024BA7
:101C3C001B681B6A019308BDC801060808B5024B56
:101C4C001B681B6B019308BDC801060808B5024B45
:101C5C001B685B6B019308BDC801060808B5024BF5
:101C6C001B68DB6B019308BDCC01060808B5024B61
:101C7C001B681B68019308BDA001060808B5024B40
:101C8C001B685B68019308BDA001060808B5024BF0
:101C9C001B689B68019308BDA0010608704710B52E
:101CAC000446102101F0B3F8204610BD70B504466F
:101CBC000E46074B0025036040F80C5FFFF720FE33
:101CCC0030462671FFF7ECFDA560204670BD00BFC5
:101CDC00DC370A084FF6FF710079FFF7B9BD0079C0
:101CEC00FFF7BEBD0079FFF7C3BD0000054A002316
:101CFC00995C814202D00133082BF9D1581CC0B237
:101D0C00704700BFE4370A08400830B5186000245B
:101D1C001868E5B2884206D90134082C02D0400874
:101D2C001860F5E70725024B5B5D137030BD00BFF3
:101D3C00E4370A0870B5044602FB01F588B0067951
:101D4C001422002103A801F0C6F90B2303A9304685
:101D5C000022ADF80C30FFF7B3FD02AB0DF107021A
:101D6C0029460498FFF7D0FF20799DF80710FFF75C
:101D7C0087FD029808B070BD38B50446A5680846C2
:101D8C004DB1FFF7B3FF012225FA00F12046BDE863
:101D9C003840FFF7CFBF2079BDE83840FFF770BD62
:101DAC0008B50079FFF774FDC0B208BD0079FFF7E4
:101DBC007FBD000010B50446084611461A460023A4
:101DCC00FFF7E0FE064B00221A704FF6FF725880A8
:101DDC009A801A689B882260A380204610BD00BFA1
:101DEC00580500204FF6FF72034B002018705880E6
:101DFC009A80FFF7B7BE00BF5805002037B502AC7C
:101E0C00036804F8011DDD6B012247F230532146B3
:101E1C00A84703B030BD10B40368DC6B47F23053F5
:101E2C00A44610BC604737B502AC036804F8011D2A
:101E3C00DD6B214613460122A84703B030BD704725
:101E4C0070470020704710B50446142100F0DFFFE6
:101E5C00204610BDFEF71FB910B5044603689B68F9
:101E6C009847A368013BA3602BB923682046BDE8C3
:101E7C001040DB68184710BD70B5044606464D6926
:101E8C00044B8C3544F8043B0FCD0FC42B68304603
:101E9C00237070BD84390A0810B543690446B3F841
:101EAC008620B3F884309A4205D06269B2F8843047
:101EBC001344187910BD03681B6998470028F4D1A6
:101ECC004FF0FF3010BD10B543690446B3F88620BF
:101EDC00B3F884309A4208D06269B2F88430591C45
:101EEC00A2F884101344187910BD03681B69984735
:101EFC000028F1D14FF0FF3010BDF8B543691746FB
:101F0C00B3F88620B3F8843005469A420E4606D1C3
:101F1C0003681B69984710B94FF0FF3414E06969E6
:101F2C003046B1F88430B1F886401944E41ABC420A
:101F3C0028BF3C460431224601F0C2F86A69B2F867
:101F4C0084302344A2F884302046F8BD4269002333
:101F5C00A2F884304269A2F88630704738B54269DD
:101F6C000446B2F886301BB1B2F884209A420CD0E9
:101F7C00206900F065FE0368DB68984718B3636955
:101F8C001868FFF75FFD18B91DE0FFF7DFFFEFE7FB
:101F9C006069B0F886107F2915D8051DC1F1800243
:101FAC00002329440068FFF765FD00280BDD6369F9
:101FBC00B3F886200AB9A3F884206269B2F8863097
:101FCC001844A2F886006269B2F88630B2F8840030
:101FDC00181A38BD38B5436904461868FFF732FD46
:101FEC0018B163691868FFF74DFD6569FFF752FD7D
:101FFC0028606069112200218C3001F06CF82046B9
:10200C00BDE83840FFF7A2BF2DE9F0411F46036839
:10201C008AB0DB6A06460C4615469847384600F0EF
:10202C000FFE0368DB689847002856D000972B46B4
:10203C00062201210220D6F81480FFF70BFD202385
:10204C00C8F8000000270293736903971B680120EE
:10205C000193234B02AA009322493B46FFF77AFDDA
:10206C0073691868FFF7EEFC002836D03046FFF78E
:10207C006DFF0223ADF808302B0A8DF80A30E37996
:10208C004FF4FA508DF80C30A3798DF80B508DF875
:10209C000D3063798DF80E3014F8043F8DF80F3045
:1020AC00FFF740FD73690546102202A91868FFF777
:1020BC00D9FC80462846FFF735FD0FCC75698C3569
:1020CC000FC523682B70B8F1000F05D0336830466C
:1020DC00DB6A9847384600E001200AB0BDE8F08181
:1020EC005B380A0854380A0810B543690446186866
:1020FC00FFF7A8FC08B9002010BD206900F0A0FD76
:10210C000368DB6898470028F5D063691868FFF707
:10211C0091FCB0FA80F0400910BD2DE9F341002587
:10212C00456004460E4617469846FFF7DDFF60B142
:10213C0060690195CDF800802B463A46314600681F
:10214C00FFF7B0FC002803DA01E04FF0FF306060CD
:10215C0002B0BDE8F08138B50446FFF7C5FF00BBFF
:10216C006369B3F88610B3F88420914219D11868CA
:10217C00FFF768FC28B163691868FFF75BFC01285E
:10218C0001D000250EE0236820461B6998470028E3
:10219C0014BF0125002505D123682046DB6A98472A
:1021AC0000E00125284638BD08B5FFF79DFF00303B
:1021BC0018BF012008BD10B5044600230160A0F82B
:1021CC008430A0F88630883000F082FA204610BDAA
:1021DC004FF47A7270B58260144A00234360026037
:1021EC00436183610446A0200E46FDF750FF05466F
:1021FC0010B13146FFF7DFFF1420FDF748FF03460F
:10220C0028B1012242608260094A05610260A0691E
:10221C006561A36128B14368013B43600BB9FFF7CB
:10222C001BFE2046FFF792FE204670BD10380A08B0
:10223C00F4370A0810B50446FFF72CFC014620467B
:10224C00FFF7C6FF204610BD10B504460068FFF727
:10225C00F9FB10B12068FFF715FC204610BD10B536
:10226C0004692046FFF7F0FF24B12046BDE810407A
:10227C00FDF711BF10BD00002DE9F0431F460368A8
:10228C008FB0DB6A06460D4690469847134800F01F
:10229C008AFC00B302A800F01BFA284600F056FF97
:1022AC00002481B200943B4603AA2846FFF742FC67
:1022BC0080B9336809ADD3F82090094B03AC08936F
:1022CC000FCC0FC5236842462B7008A93B463046FD
:1022DC00C84700E020460FB0BDE8F083E4090020B9
:1022EC0084390A0810B504460068FFF7C7FC20467D
:1022FC0010BD10B50446006808B1FFF7BFFC002301
:10230C002360A360636010BD38B504460D460068B9
:10231C000131FFF7BBFC10B184E82100012038BD6E
:10232C0010B50368044613B143688B4207D22046AC
:10233C00FFF7EAFF20B1A3680BB9226813700120E4
:10234C0010BD70B50E46114604461546FFF7E8FF62
:10235C0018B92046FFF7CDFF09E02A463146A560A3
:10236C00206800F0ADFE2268A3680021D1542046FD
:10237C0070BD002310B50446036043608360037393
:10238C0009B1FFF7DEFF204610BD38B50023044627
:10239C0003604360836003730D4639B1084600F057
:1023AC00D5FE294602462046FFF7CBFF204638BD16
:1023BC00884210B50B46044607D0096819B19A68D3
:1023CC00FFF7BFFF01E0FFF794FF204610BD10B5EB
:1023DC00044600230360436083600373FFF7E8FF48
:1023EC00204610BD38B505460C4641B1084600F0F4
:1023FC00ADFE214602462846FFF7A3FF01E0FFF79A
:10240C0078FF284638BDF8B506460D468F180024CF
:10241C00BD420CD0336815F8011B9B6830469847B9
:10242C00002801DB0444F3E7002C08BF04462046D7
:10243C00F8BD70B505460C46084649B100F086FE5D
:10244C002B68024621462846BDE87040DB681847D9
:10245C0070BD08B5FFF7EDFF08BD03689B68184712
:10246C0038B50D210546FFF7F8FF0A21044628462A
:10247C00FFF7F3FF204438BD38B50546FFF7D9FF09
:10248C0004462846FFF7ECFF204438BD012A98BFCC
:10249C000A2230B50B468BB000218DF824100DF1BB
:1024AC002304B3FBF2F505FB1233DBB2092B94BF0B
:1024BC0030333733DBB2214604F801392B46002D7B
:1024CC00EFD1FFF7B6FF0BB030BD10B422B90368E3
:1024DC00C9B29B6810BC1847D2B210BCFFF7D6BF6C
:1024EC00FFF7F3BF00231A4619464068FFF786BB77
:1024FC00014A024B1A607047E5380A086005002053
:10250C00024B1A68024B1A60704700BF240400206B
:10251C00640500200021FFF72DBB10B5836804462D
:10252C0013B1032201469847204610BD10B504464E
:10253C00FFF7F3FF204610BD034800238360034AD6
:10254C00034900F05FBC00BF680500208C0400202C
:10255C0039250A0808B5144B33B100F081F903682A
:10256C001B699847002816DC104B33B100F036FA83
:10257C0003681B699847002810DC0D4B0BB1AFF3B7
:10258C0000800C4B7BB100F0A7F903681B699847DE
:10259C00002806DC08BDAFF30080E5E7AFF3008050
:1025AC00EBE7AFF3008008BD000000000000000066
:1025BC00000000000000000008B5FFF7CBFFFFF79C
:1025CC0097F9014B186008BD0C0A00200248034A19
:1025DC000349121A00F074BD00400240044002404E
:1025EC00303B0A0807B5002300931A466FF07701B9
:1025FC00FFF7DAFA03B05DF804FB000007B5438877
:10260C000A2B08D0502B09D1094B1B683BB103B0E6
:10261C005DF804EB1847FFF7E5FF06E00023009395
:10262C001A466FF07701FFF7BFFA03B05DF804FBB1
:10263C007805002038B5104C104D2368AB42104B78
:10264C000CBF012200221A7002D0FFF7BFFF2560D9
:10265C00FFF73EF9044600F047FD0A4B13B1204644
:10266C00AFF3008000210748FFF7F8FABDE83840C7
:10267C0000210548FFF78EBA004002401E1C279A25
:10268C007C0500200000000009260A08704710B5E0
:10269C000446182100F0BBFB204610BDF8B50F46D0
:1026AC0000F10806051D002416F8011D0A22384603
:1026BC00FFF716FFAE42044407D0002CF4D02E21B5
:1026CC003846FFF7CAFE0444EEE72046F8BD00008A
:1026DC0010B50446044B112240F8043B002100F0D5
:1026EC00FAFC204610BD00BF84390A080346074A8D
:1026FC0010B543F8042B01F1100251F8044B914230
:10270C0043F8044BF9D10A781A7010BD84390A08C1
:10271C00024A4160026004220275704784390A083B
:10272C0010B59DF8084044EA032343EA024242EA0A
:10273C00016104234160037510BD000037B5044DE1
:10274C0005609DF818500095FFF7EAFF03B030BD07
:10275C0084390A0837B50D788B784A78C978009196
:10276C002946FFF7DDFF03B030BD000010B504466D
:10277C00024B0360FFF7EEFF204610BD84390A08B8
:10278C0041747047704708B50021007CFFF7B2F91F
:10279C0030EA200028BF4FF0FF3008BD08B50121FA
:1027AC00007CFFF7A7F930EA200028BF4FF0FF307C
:1027BC0008BD08B5007CFFF795F920EAE07008BD6C
:1027CC0008B5007CFFF786F920EAE07008BD007CB4
:1027DC00FFF7A0B910B50446142100F018FB2046F1
:1027EC0010BD38B50446007C0D46FFF77BF9002878
:1027FC0001DC607C28B12946207CFFF783F920EAB4
:10280C00E07038BD10B50446002363604FF47A7352
:10281C00A360054B084623600123217463741146A1
:10282C00FFF748F9204610BD98390A080022007CB1
:10283C00FFF748B910B504461422002100F04BFCF8
:10284C00054B20466360054BE36040F20113238186
:10285C008123238210BD00BF0506002084050020C3
:10286C0030B50E4D87B001A8FFF7E4FF296811F0D1
:10287C00010410D12846FDF71DFC60B101AA2146C8
:10288C000748FFF7BFFF2846FDF719FC054A064924
:10289C00034800F0B7FA024807B030BD80050020AD
:1028AC00080700208C04002091270A0810B5044664
:1028BC001422002100F00FFC054B20466360054BF1
:1028CC00E36040F2011323818123238210BD00BFFA
:1028DC00B80700202007002010B50E4C86B001A8C8
:1028EC00FFF7E4FF2368DB0710D42046FDF7E2FB7B
:1028FC0060B101AA01210848FFF784FF2046FDF7CB
:10290C00DEFB064A0649044800F07CFA024806B091
:10291C0010BD00BF1C070020A40700208C04002061
:10292C0091270A0870474174704708B5007CFFF77F
:10293C0027F820EAE07008BD08B5007CFEF7F8FF28
:10294C0020EAE07008BD08B5007CFFF701F830EA1A
:10295C00200028BF4FF0FF3008BD08B5007CFEF703
:10296C00EFFF30EA200028BF4FF0FF3008BD007C9D
:10297C00FEF7F6BF10B50446142100F048FA2046C5
:10298C0010BD70B5457C04460E4625B9007CFEF79B
:10299C00F7FF002805DD3146207CBDE87040FEF7CE
:1029AC00BFBF284670BD000010B50446084611464E
:1029BC00002262604FF47A72A260054A2074226091
:1029CC00012262741A46FEF7A3FF204610BD00BF19
:1029DC00C8390A08007CFEF7CBBF000038B50C4D97
:1029EC00296811F0010411D12846FDF763FB68B189
:1029FC00084A2146084B0948FFF7D6FF2846FDF741
:102A0C005EFB074A0749054800F0FCF9034838BD4E
:102A1C005409002058090020D0080020BC080020D0
:102A2C008C04002031290A087047F8B50646154673
:102A3C000C468F18BC4206D0336814F8011B9B68F7
:102A4C0030469847F6E72846F8BD0022007CFEF792
:102A5C00B7BF0021007CFEF7BBBF0021007CFEF756
:102A6C00BFBF0021007CFEF7C3BF0021007CFEF736
:102A7C00C7BF10B50446142100F0C9F9204610BD9B
:102A8C0010B5044608464FF47A73A360044B00213A
:102A9C00207461602360FEF7C3FF204610BD00BFA9
:102AAC00F8390A0800231A461946007CFEF770BF55
:102ABC000022007CFEF774BFC9B2FFF7F9BF0022F9
:102ACC00007CFEF775BF0121FFF7F9BF0021007CE8
:102ADC00FEF79EBF002211464068FFF787B8F0B59D
:102AEC00164689B011220F460446002103A800F0B7
:102AFC00F2FA304600F02AFB0025009581B27B6883
:102B0C0003AA3046FFF716F820B129462046FFF7F6
:102B1C00FFFD03E003A92046FFF7E8FD204609B0BE
:102B2C00F0BD002211464068FFF780B80022114624
:102B3C004068FFF78BB800224068FFF77FB800228F
:102B4C0081F001014068FFF769B800231A46194665
:102B5C004068FFF75BB8002211464068FFF736B8B3
:102B6C00002202214068FFF739B800231A4640685A
:102B7C00FFF724B8024B04225A60024A1A607047CD
:102B8C00DC090020203A0A0800231A464068FFF7A7
:102B9C0015B8002202214068FFF720B80022114628
:102BAC004068FFF713B8002211464068FFF71EB8C3
:102BBC0000231A4619464068FFF720B800231A462E
:102BCC0019464068FFF722B8002281F001014068E5
:102BDC00FFF724B800224068FFF730B800221146F6
:102BEC004068FFF733B8002211464068FFF71EB863
:102BFC0070B516468EB0044608A8FFF769FD112281
:102C0C00002103A800F067FA304600F09FFA002577
:102C1C000A4B009581B25B6803AA3046FEF78AFF27
:102C2C0020B129462046FFF773FD03E003A9204697
:102C3C00FFF75CFD20460EB070BD00BFDC09002024
:102C4C00034B044A04280CBF10461846704700BFBB
:102C5C00E4090020DC090020024B034A1A60002220
:102C6C005A607047E4090020543A0A0810B504462B
:102C7C000F48FFF79BF828B1A4F10D03022B01D8E4
:102C8C00002010BD00F09EF8FFF720FF08B1012CCA
:102C9C00F6D9FFF7A3FEFFF79DFE18B1A4F11203BE
:102CAC00012BEDD9172C8CBF0020012010BD00BFCB
:102CBC00EC090020172838B504460D460AD8FF2920
:102CCC0008D0FFF7D3FF28B129462046BDE838408D
:102CDC00FEF7A6BD38BD38B504460D46FEF7A8FD77
:102CEC00FF2810D0062804D84D2323FA00F0C30780
:102CFC0009D42046FFF7BAFF28B129462046BDE883
:102D0C003840FEF79DBD38BD2DE9F04190461E467A
:102D1C0007460D460724B8F1000F04D1C4F1070192
:102D2C0046FA01F101E046FA04F101F001013846DE
:102D3C00FFF7D1FF01212846FFF7CDFF00212846E0
:102D4C00FFF7C9FF14F1FF34E5D2BDE8F0810000B4
:102D5C0070B50C4C0C4E0D4D00212046FEF7A6FF15
:102D6C0020460B4C3246294600F04CF801212046F7
:102D7C00FEF79CFF324629462046BDE8704000F025
:102D8C0041B800BFEC0900208C040020A91C0A08E3
:102D9C00FC09002013B5084C00231A461946009371
:102DAC002046FFF7CBFC2046044A054902B0BDE89B
:102DBC00104000F027B800BF100A00208C0400203F
:102DCC0099260A0838B50B4D296811F001040FD16A
:102DDC002846FDF76FF958B121460748FFF750FE1A
:102DEC002846FDF76CF9054A0549034800F00AF836
:102DFC00014838BD280A00202C0A00208C04002031
:102E0C00352A0A080B460146184600F04BB9FDF767
:102E1C0042B90000184B1A68D1075CBF01221A6036
:102E2C00164B1A68D2075CBF01221A60144B1A6841
:102E3C00D0075CBF01221A60124B1A68D1075CBF25
:102E4C0001221A60104B1A68D2075CBF01221A606B
:102E5C000E4B1A68D0075CBF01221A600C4B1A6823
:102E6C00D1075CBF01221A600A4B1A68D2075CBFFB
:102E7C0001221A60704700BF5C0A0020580A00202B
:102E8C00540A0020500A00204C0A0020480A002056
:102E9C00440A0020400A0020244B1A68D0075CBF6B
:102EAC0001221A60224B1A68D1075CBF01221A60FA
:102EBC00204B1A68D2075CBF01221A601E4B1A689D
:102ECC00D0075CBF01221A601C4B1A68D1075CBF8B
:102EDC0001221A601A4B1A68D2075CBF01221A60D1
:102EEC00184B1A68D0075CBF01221A60164B1A687F
:102EFC00D1075CBF01221A60144B1A68D2075CBF61
:102F0C0001221A60124B1A68D0075CBF01221A60AA
:102F1C00104B1A68D1075CBF01221A600E4B1A685D
:102F2C00D2075CBF01221A60704700BF8C0A0020D8
:102F3C00880A0020840A0020800A00207C0A0020D5
:102F4C00780A0020740A0020700A00206C0A002005
:102F5C00680A0020640A0020600A0020244B1A68CA
:102F6C00D0075CBF01221A60224B1A68D1075CBFE4
:102F7C0001221A60204B1A68D2075CBF01221A602A
:102F8C001E4B1A68D0075CBF01221A601C4B1A68D2
:102F9C00D1075CBF01221A601A4B1A68D2075CBFBA
:102FAC0001221A60184B1A68D0075CBF01221A6004
:102FBC00164B1A68D1075CBF01221A60144B1A68B1
:102FCC00D2075CBF01221A60124B1A68D0075CBF93
:102FDC0001221A60104B1A68D1075CBF01221A60DB
:102FEC000E4B1A68D2075CBF01221A60704700BFF3
:102FFC00BC0A0020B80A0020B40A0020B00A002045
:10300C00AC0A0020A80A0020A40A0020A00A002074
:10301C009C0A0020980A0020940A0020900A0020A4
:10302C00184B1A68D1075CBF01221A60164B1A683C
:10303C00D2075CBF01221A60144B1A68D0075CBF20
:10304C0001221A60124B1A68D1075CBF01221A6068
:10305C00104B1A68D2075CBF01221A600E4B1A681B
:10306C00D0075CBF01221A600C4B1A68D1075CBFF9
:10307C0001221A600A4B1A68D2075CBF01221A603F
:10308C00704700BFDC0A0020D80A0020D40A0020B8
:10309C00D00A0020CC0A0020C80A0020C40A002054
:1030AC00C00A002010B5054C13462CB10A46014647
:1030BC000220AFF3008010BD204610BD00000000C0
:1030CC0010B5431E0A44914204D011F8014B03F889
:1030DC00014FF8E710BD03460244934202D003F8B7
:1030EC00011BFAE77047000038B5124B05461C6807
:1030FC00A36BD3B91820FEF7B9FD43F20E33A063CE
:10310C0003804AF6CD33438041F2342383804EF260
:10311C006D63C3804DF6EC630381052343810B2360
:10312C00838101220023C0E90423A36B00221D61CB
:10313C005A6138BD8804002010F8012B11F8013BAE
:10314C00012A28BF9A42F7D0D01A7047034613F8C9
:10315C00012B002AFBD1181A013870471D000A08F0
:10316C005D000A0889000A088D000A0800000000AA
:10317C00776561746865722F7265616474656D70D2
:10318C000063616C6C6261636B2054656D700077D9
:10319C006561746865722F726561647072657373B2
:1031AC000063616C6C6261636B20507265737300B9
:1031BC00776561746865722F7265616468756D6995
:1031CC000063616C6C6261636B2048756D690053C0
:1031DC00746172740077656174686572636C69659B
:1031EC006E740073756273637269626500776561F2
:1031FC00746865722F6765747765617468657200B1
:10320C00446973706C617920647261770054656DE8
:10321C0070207072696E743A0054656D703A004398
:10322C000048756D69646974793A002500507265BF
:10323C0073737572653A00685061005261696E3A39
:10324C00006D6D20612064617900000000000000B9
:10325C00000000002D030A081D050A084D0F0A087E
:10326C0013240A0865080A08490C0A08CD060A083E
:10327C0059050A08090D0A089F0D0A08D70D0A08F6
:10328C00F30D0A0800000000000000000000000020
:10329C00000000004D0F0A0813240A08AD000A08AC
:1032AC00490C0A08690D0A08850D0A08090D0A0857
:1032BC009F0D0A08D70D0A08F30D0A08000000003C
:1032CC00003E5B4F5B3E3E6B4F6B3E1C3E7C3E1CA0
:1032DC00183C7E3C181C577D571C1C5E7F5E1C00E6
:1032EC00183C1800FFE7C3E7FF0018241800FFE79D
:1032FC00DBE7FF30483A060E2629792926407F0560
:10330C000507407F05253F5A3CE73C5A7F3E1C1C75
:10331C0008081C1C3E7F14227F22145F5F005F5F35
:10332C0006097F017F006689956A60606060609421
:10333C00A2FFA29408047E040810207E2010080826
:10334C002A1C08081C2A08081E101010100C1E0C31
:10335C001E0C30383E3830060E3E0E0600000000C3
:10336C000000005F00000007000700147F147F14AA
:10337C00242A7F2A122313086462364956205000EF
:10338C0008070300001C2241000041221C002A1CDB
:10339C007F1C2A08083E08080080703000080808C6
:1033AC000808000060600020100804023E514945E6
:1033BC003E00427F400072494949462141494D3304
:1033CC001814127F1027454545393C4A494931416B
:1033DC00211109073649494936464949291E000039
:1033EC00140000004034000000081422411414148E
:1033FC001414004122140802015909063E415D597A
:10340C004E7C1211127C7F494949363E4141412282
:10341C007F4141413E7F494949417F090909013EAC
:10342C00414151737F0808087F00417F41002040D3
:10343C00413F017F081422417F404040407F021CE5
:10344C00027F7F0408107F3E4141413E7F090909FC
:10345C00063E4151215E7F091929462649494932C8
:10346C0003017F01033F4040403F1F2040201F3F8E
:10347C004038403F63140814630304780403615913
:10348C00494D43007F414141020408102000414155
:10349C00417F040201020440404040400003070801
:1034AC000020545478407F284444383844444428FD
:1034BC00384444287F385454541800087E090218A4
:1034CC00A4A49C787F0804047800447D400020402C
:1034DC00403D007F1028440000417F40007C047870
:1034EC0004787C080404783844444438FC182424B8
:1034FC001818242418FC7C08040408485454542438
:10350C0004043F44243C4040207C1C2040201C3CB4
:10351C004030403C44281028444C9090907C4464AB
:10352C00544C44000836410000007700000041363E
:10353C00080002010204023C2623263C1EA1A161C4
:10354C00123A4040207A38545455592155557941F6
:10355C002154547841215554784020545579400CCD
:10356C001E527212395555555939545454593955AE
:10357C005454580000457C410002457D42000145F1
:10358C007C40F0292429F0F0282528F07C5455455E
:10359C00002054547C547C0A097F493249494932F1
:1035AC003248484832324A4848303A4141217A3A06
:1035BC0042402078009DA0A07D39444444393D40D0
:1035CC0040403D3C24FF2424487E4943662B2FFC7D
:1035DC002F2BFF0929F620C0887E0903205454792B
:1035EC00410000447D413048484A32384040227AFC
:1035FC00007A0A0A727D0D19317D2629292F282679
:10360C002929292630484D40203808080808080880
:10361C000808382F10C8ACBA2F102834FA00007BD9
:10362C00000008142A142222142A1408AA00550097
:10363C00AAAA55AA55AA000000FF00101010FF00FE
:10364C00141414FF001010FF00FF1010F010F014F1
:10365C001414FC001414F700FF0000FF00FF1414F6
:10366C00F404FC141417101F10101F101F14141442
:10367C001F00101010F0000000001F101010101F81
:10368C0010101010F010000000FF1010101010108F
:10369C00101010FF10000000FF140000FF00FF00CE
:1036AC00001F10170000FC04F41414171017141446
:1036BC00F404F40000FF00F714141414141414F799
:1036CC0000F7141414171410101F101F141414F4F2
:1036DC00141010F010F000001F101F0000001F1439
:1036EC00000000FC140000F010F01010FF10FF148C
:1036FC001414FF141010101F00000000F010FFFF36
:10370C00FFFFFFF0F0F0F0F0FFFFFF000000000003
:10371C00FFFF0F0F0F0F0F38444438447C2A2A3E0A
:10372C00147E02020606027E027E02635549416344
:10373C003844443C04407E201E2006027E0202993E
:10374C00A5E7A5991C2A492A1C4C7201724C304AD7
:10375C004D4D303048784830BC625A463D3E494960
:10376C0049007E0101017E2A2A2A2A2A44445F4408
:10377C004440514A444040444A51400000FF010338
:10378C00E080FF000008086B6B0836123624360602
:10379C000F090F0600001818000000101000304030
:1037AC00FF0101001F01011E00191D1712003C3CF6
:1037BC003C3C000000000000044D51545404000631
:1037CC004D514973647003000000000000000000BC
:1037DC00A91C0A08AB1C0A0800081018202830384D
:1037EC0000000000000000004D1E0A08531E0A08CD
:1037FC006B220A08611E0A084F1E0A08000000000E
:10380C0000000000E10F0A0815100A08091E0A083A
:10381C00231E0A08691F0A08D31E0A08A51E0A08D7
:10382C004B1E0A0815200A0885220A08071F0A08D9
:10383C00E11F0A0863210A08B5210A08331E0A0889
:10384C0027210A08851E0A08776972696E67005479
:10385C004350436C69656E7420736F636B65743D84
:10386C00257800626175640053657269616C00555E
:10387C00534253657269616C3100747970650070E4
:10388C006172616D00636D6400696400686E640050
:10389C007374726D0066696C74006C766C00616494
:1038AC006448616E646C65720072656D6F76654814
:1038BC00616E646C657200656E756D48616E646CEA
:1038CC00657273004A534F4E53747265616D4C6F41
:1038DC006748616E646C65720061707000253031F0
:1038EC00307520005D20002564002C200028293A2A
:1038FC002000205B00636F6465203D20002569007B
:10390C0064657461696C73203D20000D0A006600CB
:10391C006C6E00666E00636F64650064657461694B
:10392C006C006E6F6E6500747261636500696E6623
:10393C006F007761726E006572726F720070616EEB
:10394C00696300616C6C005A00252B3033643A2596
:10395C003032750025592D256D2D25645425483A96
:10396C00254D3A2553257A0061736374696D6500A2
:10397C000000000000000000A9260A0899260A0889
:10398C009B260A08000000000000000091270A088E
:10399C00E1270A08EF270A0813240A08CD270A088A
:1039AC0093270A08A9270A08DB270A08BF270A0851
:1039BC008D270A08000000000000000031290A08C9
:1039CC0081290A088F290A0813240A0845290A089C
:1039DC0067290A0853290A087B290A0833290A0887
:1039EC0037290A080000000000000000352A0A08E8
:1039FC007F2A0A08572A0A08372A0A085F2A0A085F
:103A0C00672A0A086F2A0A08772A0A0800000000A9
:103A1C0000000000772B0A086D2B0A08632B0A089C
:103A2C00E12A0A08F1240A08572B0A084B2B0A082A
:103A3C00432B0A08392B0A082F2B0A08EB2A0A08F1
:103A4C000000000000000000952B0A089F2B0A08BC
:103A5C00A92B0A08B32B0A08BD2B0A08C92B0A0884
:103A6C00D52B0A08E12B0A08E92B0A08F32B0A08C4
:103A7C00FD2B0A0800000000000000000000000000
:103A8C00000000000000000000000000000000002A
:103A9C00000000000000000000000000000000001A
:103AAC00000000000000000000000000000000000A
:103ABC0000000000000000000000000000000000FA
:103ACC0000000000000000000000000000000000EA
:103ADC0000000000E9020A082D050A08450C0A0836
:103AEC00DD0F0A0819180A08F11D0A08FD240A0836
:103AFC000D250A0845250A08812B0A08652C0A0899
:103B0C005D2D0A08A12D0A08212E0A08A52E0A08E7
:103B1C00692F0A082D300A08000000000000000080
:043B2C000000000095
:043B30000000000091
:103B3400746573742E4D6F7371756974746F2E6F21
:103B4400726700000103070F1F3F7F0080C0E0F091
:103B5400F8FCFE000000000000000000000000006F
:103B64000000000000000000000000000000000051
:103B74000000000000000000000000000000000041
:103B84000000000000000000000000000000000031
:103B940000008080800000000000000000000000A1
:103BA400000000008080C0C0000000000000000091
:103BB4000000000000000000000000000000000001
:103BC40000000000000000000000000000000000F1
:103BD40000000000000000000000000000000000E1
:103BE4000000000000000080C0E0F0F8FCF8E000F5
:103BF40000000000000000000000000000000000C1
:103C04008080808080008080000000008080808030
:103C14008000FFFFFF0000000080808080000080A3
:103C240080000080FFFF8080008080008080808092
:103C34000080800000000000808000008C8E8400E2
:103C44000080F8F8F8800000000000000000000088
:103C5400000000F0F0F0F0F0F0F0F0F0F0F0F0E040
:103C6400E0C08000E0FCFEFFFFFF7FFFFFFFFFFFDF
:103C74000000000000000000000000000000FEFF43
:103C8400C70101010183FFFF00007CFEC7010101A0
:103C94000183FFFFFF0038FEC78301010183C7FFD3
:103CA400FF000001FFFF010100FFFF070101010008
:103CB400007FFF80000000FFFF7F0000FFFFFF0088
:103CC4000001FFFFFF0100000000000000000000F1
:103CD400000000030F3F7F7FFFFFFFFFFFFFFFE7B1
:103CE400C7C78F8F9FBFFFFFC3C0F0FFFFFFFFFF5A
:103CF400FCFCFCFCFCFCFCFCF8F8F0F0E0C000016F
:103D0400030303030301030300000000010303038F
:103D14000301010301000000010303030301010384
:103D24000300000003030000000303000000000080
:103D34000000010303030303010000000103010069
:103D44000000030301000000000000000000000068
:103D540000000000000080C0E0F0F9FFFFFFFFFF5B
:103D64003F1F0F87C7F7FFFF1F1F3DFCF8F8F8F848
:103D74007C7DFFFFFFFFFFFFFFFF7F3F0F0700304A
:103D840030000000000000000000000000000000FF
:103D940000000000000000FEFEFC00000000000027
:103DA400000000000000000000000000000000000F
:103DB400E0C00000000000000000000000303000FF
:103DC40000000000000000000000000000000000EF
:103DD40000000000C0FEFFFFFFFFFFFFFFFFFF7FAB
:103DE4007F3F1F0F071F7FFFFFF8F8FFFFFFFFFF55
:103DF400FEF8E0000000010000000000000000FEEA
:103E0400FE000000FCFEFC0C06060EFCF80000F0B0
:103E1400F81C0E0606060CFFFFFF0000FEFE000065
:103E24000000FCFEFC00183C7E66E6CE8400000622
:103E3400FFFF0606FCFEFC0C0606060000FEFE0064
:103E440000C0F8FC4E4646464E7C7840183C76E668
:103E5400CECC800000000000000000000000000044
:103E64000000000000000001070F1F1F3F3F3F3FFD
:103E74001F0F030000000000000000000000000FFE
:103E84000F0000000F0F0F000000000F0F000003D1
:103E9400070E0C18180C060F0F0F0000010F0E0C64
:103EA400180C0F070100040E0C180C0F070000007B
:103EB4000F0F00000F0F0F0000000000000F0F0095
:103EC400000007070C0C181C0C060600040E0C1846
:103ED4000C0F0700000000000000000000000000BC
:103EE40000000000000000000000000000000000CE
:103EF40000000000000000000000000000000000BE
:103F040000000000000000000000000000000000AD
:103F1400000000000000000000000000000000009D
:103F2400000000000000000000000000000000008D
:103F3400000000000000000000000000000000007D
:103F4400000000000000000000000000000000006D
:103F54000000000074390A0800000000803A0A08D2
:103F6400A03A0A08C03A0A08000000000000000055
:103F740000000000000000002B320A0800000000CE
:103F8400000000000000000000000000000000002D
:103F9400000000000000000000000000000000001D
:103FA400000000000000000000000000000000000D
:0C3FB400000000000000000028040020B5
:103FC000FFFFFFFF00000102030405060708090ABE
:103FD0000B0C0D0E0F101112131415161718191AB9
:083FE0001B1C1D1E1F20280000
:043FE80078563412C1
:04000005080A001CC9
:00000001FF
