:02000004080AE8
:1000000000000A08E8530A0800000600060005017F
:0800100004027E05000000005F
:04001800E4410A08AD
:10001C0009480A4908B5884205D0094A824202D0EB
:10002C00121A03F0D5FC0748074A0021121A03F0F4
:10003C00DAFC064808BD00BF00000020E44E0A08A8
:10004C00DC040020DC040020640B0020640B002086
:10005C0070B502F043FE074B074C1E46E41AA40889
:10006C000025A54204D056F8253098470135F8E70D
:10007C0070BD00BF3C4E0A08844E0A0800F0F6B86A
:10008C0008B500F031F9BDE8084002F0E9BD02F016
:10009C000FB802F00DB802F013B802F011B800005E
:1000AC0008B5034A00210C2001F034FFFEE700BF25
:1000BC008D1C0A080078B0FA80F0400970470123C3
:1000CC0003707047F8B5064614460F4602F01CFF45
:1000DC00574902F02BFC3146564803F0B5FC054657
:1000EC00C8B9554E22463946304603F071FC534B85
:1000FC000122344465701A6002F006FF504902F088
:10010C0015FC2C4602F000FF315D013402F0FFFBC0
:10011C00142CF7D166E031464A4803F095FC0546AD
:10012C00D8B9454E2246394606F1140003F050FC6E
:10013C00454B3444012265751A6002F0E5FE4349D3
:10014C0002F0F4FB2C46143602F0DEFE315D013475
:10015C0002F0DDFB142CF7D144E031463C4803F0AF
:10016C0073FC0546E0B9344E2246394606F12800A8
:10017C0003F02EFC374B3444012284F829501A60CA
:10018C0002F0C2FE344902F0D1FB2C46283602F0B4
:10019C00BBFE315D013402F0BAFB142CF7D121E027
:1001AC0031462E4803F050FC0546F8B9224E224643
:1001BC00394606F13C0003F00BFC294B3444012278
:1001CC0084F83D501A6002F09FFE264902F0AEFB07
:1001DC002C463C3602F098FE315D013402F097FB60
:1001EC00142CF7D102F090FE02F094FB134C236810
:1001FC00012B1BD114480368012B17D115490B682F
:10020C00012B13D1164A1368012B0FD100230B605D
:10021C0023600360136002F077FE134902F086FB43
:10022C00BDE8F8400A213C2000F0C0B9F8BD00BF81
:10023C00F8410A080A420A0800400240E80400207B
:10024C001B420A082B420A08F40400203D420A080B
:10025C004E420A08EC0400205F420A086F420A086A
:10026C00E404002080420A0890420A0808B502F013
:10027C004BFE4FF4165102F02DFE02F045FE1249D2
:10028C0002F054FB00F0DEF91049114801F084FA39
:10029C000F4801F09CF9B0B102F036FE0D4902F0A6
:1002AC0045FB0D490A4801F069FC0C49084801F06E
:1002BC0065FC0B49064801F061FCBDE808400949A2
:1002CC00034801F05BBC08BD9F420A08A5420A081E
:1002DC00F8040020B3420A080A420A082B420A0812
:1002EC004E420A086F420A0830B58DB000F0FAF899
:1002FC00554801F06CF910B1534801F013FB02F0B2
:10030C0049FC02F001FE514902F010FB504B514CDC
:10031C001D7885B901220CA81A7040F8105D2A4688
:10032C00294601F0CDFC089B1E2B04D1032323701E
:10033C0011236580A3802068A388069006A8ADF8D9
:10034C001C3001F0B5FFC8B102F0DEFD424902F0ED
:10035C00EDFA424A42493C4801F09DFA3A4801F014
:10036C0036F938B1384801F0DDFA02F0CDFD3D49DF
:10037C0002F0DCFA022002F021FCEFE706A801F003
:10038C009EFF002843D002F0BFFD374902F0CEFAA1
:10039C00364908A802F06DFA08A800F071F908A80F
:1003AC0002F014FA42F2107002F008FC304908A86E
:1003BC0002F05FFA08A800F0EFF908A802F006FABC
:1003CC0042F2107002F0FAFB2A4908A802F051FA26
:1003DC0008A800F09BF908A802F0F8F942F2107096
:1003EC0002F0ECFB244908A802F043FA08A800F03C
:1003FC0019FA08A802F0EAF942F2107002F0DEFBDA
:10040C0000F032F90A213C2000F0D0F816E002F09E
:10041C007BFD1A4902F08AFA194B01221968022352
:10042C00ADF816300CAB03F81B2D02910521019190
:10043C0000920DF1160108A801F014FF4FF4FA70A8
:10044C0002F0BCFB0DB030BDF8040020BD420A0820
:10045C00E004002084050020C7420A08E8490A0885
:10046C00D8420A08EB420A08F5420A08004002404A
:10047C0014400240284002403C40024002430A081B
:10048C00F004002010B50A4B0A4C00221A6001F04F
:10049C008FFB40F25B7208492046084B00F0B0FF1E
:1004AC002046BDE81040064A064902F0FFBF00BFD7
:1004BC00F0040020F804002000000020D1000A08FD
:1004CC00DC0400208F1B0A0808B5002001F0D8FDC1
:1004DC0028B101F0C5FD80F00100C0B208BD0120BB
:1004EC0008BD0000F0B52D4C002185B020462160E0
:1004FC0001F0CEFD054601F0CBFB294B401B984289
:10050C004AD901F0C5FB064602F0FEFC074601F095
:10051C00BFFB244A431B0121384602F069FA2368C9
:10052C00002B12DD02F0F0FC1F4902F0ECF902F096
:10053C00EBFC05462168684602F0E2FA0099284671
:10054C0002F0F4F9684602F041F901F089FD10B1AE
:10055C00002001F08DFDFFF7B7FF10B901F078FD19
:10056C00F9E7FFF7B1FF04AC002144F8101D204659
:10057C0001F08EFD86420FD802F0C6FC054602F053
:10058C0002FB0146204602F0BBFA0099284602F015
:10059C00CDF9204602F01AF905B0F0BD5005002047
:1005AC00005C26051C430A084C430A08F0B589B0C8
:1005BC0004460E4602F0EEFA90FBF4F2184B02FBE6
:1005CC0014001D46174F186002F0E4FA90FBF4F388
:1005DC0003FB14002B6838609842F5D0241AA41B36
:1005EC0002F092FC104902F08EF902F08DFC2146CB
:1005FC000A2202F0F3F90D4B02221B68ADF816200B
:10060C00012202938DE814000DF115030DF1160172
:10061C0006A88DF8152001F025FE09B0F0BD00BF2D
:10062C00540500205C0500207B430A085805002077
:10063C00024B00221A6001F0BBBA00BF5805002023
:10064C007047000010B5074C3C222046022100F0F8
:10065C0075FB204600F0B8FC2046BDE8104000F0C9
:10066C003DBC00BF6005002010B5044C204600F0D6
:10067C00ABFC2046BDE8104000F030BC600500200B
:10068C0030B505461E4C85B0204600F09DFC20463A
:10069C00012100F062FE2046012100F059FE1022DB
:1006AC002046322100F051FE1649204602F02BF96B
:1006BC002046022100F04CFE20462222232100F08D
:1006CC0044FE02222968684602F0C7F800992046C9
:1006DC0002F019F9684602F079F82046012100F081
:1006EC0037FE362220462A2100F02FFE06492046EE
:1006FC0002F009F9204600F0F1FB05B030BD00BF57
:10070C00600500208B430A0891430A0830B5054662
:10071C001E4C85B0204600F057FC2046012100F00D
:10072C0017FE10222046282100F00FFE1849204603
:10073C0002F0E9F82046022100F00AFE20462222AF
:10074C00232100F002FE02222968684602F085F897
:10075C000099204602F0D7F8684602F037F8204698
:10076C00012100F0FAFD2046022100F0F1FD3222B9
:10077C0020463C2100F0E9FD0649204602F0C3F872
:10078C00204600F0ABFB05B030BD00BF600500207B
:10079C0093430A089D430A0830B505461E4C85B0A4
:1007AC00204600F011FC2046012100F0D1FD102262
:1007BC002046282100F0C9FD1849204602F0A3F874
:1007CC002046022100F0C4FD20462222232100F005
:1007DC00BCFD04222968684602F03FF800992046C7
:1007EC0002F091F8684601F0F1FF2046012100F07B
:1007FC00B4FD2046022100F0ABFD32222046302110
:10080C0000F0A3FD0649204602F07DF8204600F0DA
:10081C0065FB05B030BD00BF600500209F430A0892
:10082C00A9430A0830B505461E4C85B0204600F099
:10083C00CBFB2046012100F08BFD102220463221FB
:10084C0000F083FD1849204602F05DF82046022195
:10085C0000F07EFD20462222232100F076FD0222AC
:10086C002968684601F0F9FF0099204602F04BF820
:10087C00684601F0ABFF2046012100F06EFD2046DA
:10088C00012100F065FD362220462A2100F05DFD95
:10089C000649204602F037F8204600F01FFB05B051
:1008AC0030BD00BF60050020AD430A08B3430A0801
:1008BC0010B50446242102F0FEFD204610BD0000B8
:1008CC0010B5074C01F074F90421204600F0DEF954
:1008DC002046BDE81040034A034902F0E7BD00BFC3
:1008EC0060050020DC0400204D060A08F0B5447EAB
:1008FC00BDF81450022C08D0032C0FD0012C70D151
:10090C000489013CA21A12B20CE04489013CA21ADF
:10091C00048912B2E41A611A09B262E04489E41A39
:10092C00611A09B2002A5BDBB0F90840944240F32B
:10093C0090800029BEBF5B181BB20021B0F90A00E1
:10094C00CC188442C4BF431A1BB2002B40F38180E5
:10095C00C9B2C8083F4F02EBC01211F00701DBB25D
:10096C0007EB020417D0C1F10801C8B23A4983421F
:10097C000E5C3FBFC3EB000EFF2141FA0EF10E409F
:10098C00B95C012D0CBF3143B1438342B95460D3E0
:10099C00181AC3B28034072B17D9012D0CBFFF20B6
:1009AC0000201A4604F18001083AD2B2072A01F855
:1009BC00800C01F18001F7D8A3F10802C2F3C40244
:1009CC00013204EBC21403F00703002B41D0234A7D
:1009DC00012DD25C23780CBF134393432370F0BDDD
:1009EC00F0BD002A35DBB0F90A40944231DD002914
:1009FC00BCBFC9180BB2B0F90870B8BF0021CE1833
:100A0C00BE42C4BF631A1BB2002B22DDD01001EB17
:100A1C00C011104802F007020144012000FA02F252
:100A2C008542D2B209D1013B1BB25C1C11D011F82A
:100A3C00010B104301F8010CF5E7D243D2B2013B94
:100A4C001BB2581C05D011F8010B104001F8010C19
:100A5C00F5E7F0BD230000201B0000201300002050
:100A6C00F0B5447EBDF81450022C08D0032C0FD0E6
:100A7C00012C12D10489E41AA21A12B26DE0048975
:100A8C00013C611A448909B2E41AA21A12B204E0B8
:100A9C004489013C611A09B25FE000295CDBB0F9C2
:100AAC0008408C4240F39180002ABCBFD21813B28C
:100ABC00B0F90A00B8BF0022D4188442C4BF831A0C
:100ACC001BB2002B40F38180D4B2404EDAB2E30863
:100ADC0001EBC31114F0070406EB010317D0C4F1AA
:100AEC000804E0B23A4C8242275C3FBFC2EB000ED6
:100AFC00FF2444FA0EF42740745C012D0CBF3C43D8
:100B0C00BC438242745460D3101AC2B28033072A99
:100B1C0017D9012D0CBFFF240024114603F18000CE
:100B2C000839C9B2072900F8804C00F18000F7D8C9
:100B3C00A2F10801C1F3C401013103EBC11302F0AE
:100B4C000702002A41D02349012D895C1A780CBF79
:100B5C000A438A431A70F0BDF0BD002935DBB0F9A9
:100B6C000A408C4231DD002ABCBFD21813B2B0F956
:100B7C000870B8BF0022D618BE42C4BFA31A1BB25D
:100B8C00002B22DDC81002EBC012104801F0070147
:100B9C001044012202FA01F19542C9B209D15A1E40
:100BAC0013B25C1C11D010F8012B0A4300F8012C75
:100BBC00F5E7C943C9B25A1E13B25A1C05D010F836
:100BCC00012B0A4000F8012CF5E7F0BD23000020B2
:100BDC001B0000201300002010B422B11946054858
:100BEC0010BC01F01FBB0122C9B2C0B210BC02F094
:100BFC00DFBB00BF480A0020F8B50D1E06461446A0
:100C0C001F463FDB00F0AEFB85423BDA002C39DBA4
:100C1C00304600F0AAFB844234DA304600F0A0FBE8
:100C2C00022827D13189708901390138491B001BF1
:100C3C000DB204B206E0012804D13389013B1B1B21
:100C4C002C461DB2082094FBF0F0012F00B20E4B85
:100C5C0004F0070205EBC01104D197405A5C17430E
:100C6C005F54F8BD585C012707FA02F220EA020231
:100C7C005A54F8BD0328DED17389013B5B1B254612
:100C8C001CB2DFE7F8BD00BF2300002038B50446D6
:100C9C000D464022802100F077FA064B84F8205054
:100CAC002360FF23637784F82130E377A377204612
:100CBC0038BD00BFC4430A0838B590F91D3004464E
:100CCC0001330D4622D090F92100012180B202F0AF
:100CDC0056FB94F91F00002180B202F050FB94F9EE
:100CEC002100002180B202F04AFB94F91E1094F905
:100CFC001D002B4694F82220FFF76EFF94F921007B
:100D0C00012180B2BDE8384002F039BB02F0AEFBE5
:100D1C0094F91B1002F024FA02F0A8FB03680021DE
:100D2C009B68984702F0A2FB036829469B6898478A
:100D3C0002F09CFBBDE8384002F019BA38B5044605
:100D4C00217790F91D300D460133C27633D090F9DE
:100D5C001F00012180B202F001FB94F92100012156
:100D6C0080B202F0FBFA94F822305BB994F91D00C2
:100D7C00012180B202F0F2FA94F91E00012180B236
:100D8C0002F0ECFA94F82230CBB194F92100012155
:100D9C0080B202F0F4FA01214F4801F0E2F910217F
:100DAC004D4801F02BFA00214B4801F0DDF94A487F
:100DBC0001F0D2F903E002F059FB02F0C7F994F903
:100DCC002000012180B202F0C9FA94F9200001211F
:100DDC0080B202F0D4FA012001F0F0FE94F9200068
:100DEC00002180B202F0CBFA0A2001F0E7FE94F960
:100DFC002000012180B202F0C2FA2046AE21FFF79A
:100E0C005BFF2046D521FFF757FF20468021FFF7D7
:100E1C0053FF2046A821FFF74FFF20463F21FFF745
:100E2C004BFF2046D321FFF747FF20460021FFF759
:100E3C0043FF20464021FFF73FFF8D212046FFF75F
:100E4C003BFF012D0CBF102114212046FFF734FF6E
:100E5C0020462021FFF730FF20460021FFF72CFF12
:100E6C002046A121FFF728FF2046C821FFF724FFC9
:100E7C002046DA21FFF720FF20461221FFF71CFF46
:100E8C0081212046FFF718FF012D0CBF9F21CF2198
:100E9C002046FFF711FFD9212046FFF70DFF012D4A
:100EAC000CBF2221F1212046FFF706FF2046DB2153
:100EBC00FFF702FF20464021FFF7FEFE2046A4214B
:100ECC00FFF7FAFE2046A621FFF7F6FE2046BDE806
:100EDC003840AF21FFF7F0BE480A00202DE9F04161
:100EEC0004462121FFF7E8FE00212046FFF7E4FE2F
:100EFC007F212046FFF7E0FE22212046FFF7DCFE93
:100F0C0000212046FFF7D8FE07212046FFF7D4FE2C
:100F1C0094F91D30DFF8AC8001332ED094F9210008
:100F2C00012180B202F02BFA94F91F00012180B24A
:100F3C0002F025FA94F92100002180B202F01FFA88
:100F4C00012000F09DFE002518F8053094F82220B1
:100F5C0094F91E1094F91D000135FFF73DFEB5F50F
:100F6C00806FF1D1012000F08BFE94F9210001215A
:100F7C0080B2BDE8F04102F002BA002502F076FA28
:100F8C0094F91B1002F0ECF802F070FA036840219F
:100F9C009B689847002602F069FAAF190368BFB244
:100FAC009B6818F8071001369847102EF3D11035AE
:100FBC0002F05CFAADB202F0DAF8B5F5806FDDD173
:100FCC00BDE8F081230000204FF48062002101482D
:100FDC0002F009BD2300002000F0EABD2DE9F04F1E
:100FEC001E4685B0BDF9383015469A1A002AB8BF8E
:100FFC0052420092721A002AB8BF524201920C4619
:10100C00009A019981468A42BDF83CA005DD324622
:10101C001E46134622462C461546B44205DD2A468A
:10102C001D4613462246344616465A1B002AC4EB6C
:10103C000608B8BF52421FFA88F803920FFA88F7D5
:10104C0002229D42B4BF01234FF0FF3397FBF2F70E
:10105C000293B4421FDC019A009B48469342D9F894
:10106C000030C8BF2246D3F810B0C8BF294653463B
:10107C00DCBF2A462146D847039BFF1ABBB21FB2DE
:10108C00002F05DA029A08EB030715442DB23FB284
:10109C00013424B2DDE705B0BDE8F08F2DE9F3474C
:1010AC00044691460D469846BDF82C600768BDF97C
:1010BC0028A00096FF69B84723680AF1FF32009612
:1010CC004A44DF6929464346204612B2B847236892
:1010DC0000969F694A46534629462046B8472368DE
:1010EC0008F1FF310A9629449D694A465346204629
:1010FC00AC4609B202B0BDE8F047604737B5013BDA
:10110C00BDF81850134404681BB200930195646930
:10111C000B46A04703B030BD37B5BDF81850046876
:10112C008DE82400013B0B4464691BB2A04703B05B
:10113C0030BD2DE9F347054617460C46BDF928800E
:10114C00BDF82C9001EB030A54450BDA2B68CDF853
:10115C0000909E69214643463A4628460134B047E2
:10116C0024B2F1E702B0BDE8F08713B5B0F90E2058
:10117C000468019100920022B0F90C30646A1146A7
:10118C00A04702B010BD7047018181814FF6FF71FD
:10119C0030B5074D00244281C281012244600560B4
:1011AC004476048244820276C1828182827630BD8A
:1011BC00FC430A082DE9F04F8FB00691BDF8601082
:1011CC0004460791BDF864109DF868800891B0F949
:1011DC000C10069881427DDDB4F90E10914279DD38
:1011EC00062101FB0800002874DD02EBC800002872
:1011FC0070DD03EB830395B20C9305F108039BB2EE
:10120C00099100260D932F46A946052E1FBF334B7F
:10121C000C9A9B1913F802A01FFA88F304930499F3
:10122C00BDF81830B2B201FB0231134409B20A9175
:10123C001BB20FFA88F108BF4FF0000A0595039115
:10124C000B931AF0010F11D0B8F1010F236803D1E1
:10125C00D3F810B0079B14E0079A0192039A0092FE
:10126C00D3F824B013460FFA89F218E0079B089ABA
:10127C00934217D0B8F1010F236807D1D3F810B0FF
:10128C0013463AB20B992046D8470BE0089A0192C4
:10129C00039A0092D3F824B01346BDF914200A998E
:1012AC002046D847049B049A9944059B0137134464
:1012BC009BB205930D9BBFB29F424FEA5A0A1FFA8D
:1012CC0089F9BED1099B0136013B13F0FF0376B2BD
:1012DC00099398D10FB0BDE8F08F00BF2C440A08D9
:1012EC0030B50A2985B004460B4604D1027E438AE8
:1012FC0003EBC20323E00D2924D0057EB0F91220A4
:10130C00B0F910100295C58A0195858A0095FFF7F2
:10131C0051FF227E238A91B201EB410003EB400383
:10132C00A07E1BB2238268B1B4F90C006FF00505E6
:10133C0005FB0202934205DD638A03EBC103638262
:10134C0000232382012005B030BD01824282704708
:10135C00002908BF012101767047C1828182704744
:10136C00407E7047B0F90C007047B0F90E00704722
:10137C0000F01EBC38B50B4B8469054603607CB18C
:10138C006368013B63605BB9236820469B689847A0
:10139C00A368013BA3601BB923682046DB68984710
:1013AC00284638BD74490A0810B50446FFF7E2FF19
:1013BC0020461C2102F07FF8204610BD38B51D4692
:1013CC00059B044603630023436302B1826419B195
:1013DC0004F1380001F060FA049BE0692365069B78
:1013EC00A4F84C50FF2BB8BFFF23A4F8543008B11D
:1013FC00FEF753FEB4F85400FEF74BFEE06138BD27
:10140C002DE9FF410446174698460E46002501F08B
:10141C0085F9E5610A4904F1380001F02AFAFF2345
:10142C0002930F2300932046A564CDF804803B461D
:10143C002A463146FFF7C2FF204604B0BDE8F081D2
:10144C007D4A0A0810B50446204600F0FBFF002830
:10145C00FAD0204600F0ABFFC0B210BD2DE9F0472A
:10146C000546C4698A46FFF7EDFF4FF00108464672
:10147C002070EB69002793F8009009F0F0092846DA
:10148C00FFF7E0FFEB69741C985500F07F0303FB3A
:10149C0008770306A4B2BFB24FEAC81801D5264696
:1014AC00EDE7631EB9F1300F8AF8003013D12846EE
:1014BC00D5F81C80FFF7C6FF08F804002846D5F8BD
:1014CC001C80FFF7BFFFF41C0236B6B2A4B208F8BA
:1014DC000600022300E000231B1B9EB2A3199BB243
:1014EC009F420BD92846FFF7ADFFB5F85430A34205
:1014FC0084BFEB6918550134A4B2EFE7B5F854007A
:10150C00A0422CBF20460020BDE8F087F7B5074667
:10151C008E461E461D46002405F07F0302A9ED09E8
:10152C00214418BF43F08003013401F8043CE4B2B9
:10153C00002DF1D1C4F10403D11802F803E0A54247
:10154C0006DA01A82B1B285C134458710135F6E709
:10155C00721C2244384600F0D2FE054600F098FB7F
:10156C00013478623444A8B2231A5842584103B06B
:10157C00F0BD10B50446C369E0221A70C36900229D
:10158C005A70C169022200F0BAFE204600F096FFA4
:10159C0000F07EFB6062A06210BDF0B50D46023318
:1015AC009BB26C1A15F8016BA4B23EB1B0F8547032
:1015BC009F4203D95C1CD654A3B2F2E7191B0A4410
:1015CC00211202F8021C02F8014C1846F0BD38B585
:1015DC00054601F034F8002814BF0124002402D180
:1015EC00284600F06BFF204638BD00002DE9F04383
:1015FC0087B00446894617461E46DDF83880FFF74B
:10160C00E6FF0546002840F0BD80A16C39B90346C1
:10161C00B4F84C20A16B204601F0A2F809E0684612
:10162C0001F0F8FB2B46B4F84C206946204600F03C
:10163C005FFF002800F0A280012323849DF84C302A
:10164C00042B15D1524B18689A880090ADF80420E1
:10165C009B79E26900988DF80630C2F80500531D9D
:10166C00BDF804109DF8062099809A710C2312E0A5
:10167C006A46484BD4F81CC0186859681B7A03C2D8
:10168C0013706B4603CBCCF80500CCF8091013781B
:10169C008CF80D300E23B8F1000F0AD09DF84020C5
:1016AC009DF83C10520142F0060242EAC102D2B24D
:1016BC0000E002229DF8481009B902F0FD022FB19A
:1016CC0016B942F0800201E042F0C002E169581CF8
:1016DC00CA54226DE16912120A54E169206D9A1CF8
:1016EC0088540333E26949462046FFF756FFB8F1A8
:1016FC00000F0BD00346E26941462046FFF74DFF31
:10170C00E269034611992046FFF747FF67B103468C
:10171C00E26939462046FFF740FF2EB10346E269E5
:10172C0031462046FFF739FF431F9BB2E269102177
:10173C002046FFF7EBFE00F0ABFA4FF47A766062CE
:10174C00A062204600F07EFE40B900F0A1FAA36A28
:10175C00C01A236D73439842F3D90FE069462046B3
:10176C00FFF77CFE042809D1E369DE7836B900F076
:10177C008FFA0125A06284F82C6004E0204600F06A
:10178C009DFE00E00025284607B0BDE8F08300BFB1
:10179C0027490A082E490A087FB50423059301231B
:1017AC000493002303930293019300931A46FFF7CB
:1017BC001DFF07B05DF804FB2DE9F14F0D9E0446AB
:1017CC008B4691469A469DF828809DF82C509DF8A2
:1017DC003070FFF7FCFE00284BD0B4F854200021E9
:1017EC00E06902F000F90523E26959462046FFF74B
:1017FC00D4FE6B1E012B12D8238CE26901339BB2F1
:10180C0023841B121354411CE369228C89B20230CD
:10181C0080B25A541EB1238C5A1C2284338000226D
:10182C0091B283188A459BB209D9B4F8546001323D
:10183C009E4204D919F80160E169CE54F0E7B8F181
:10184C00000F0CBF302131210FB141F00801022DE6
:10185C0002D141F0040103E0012D08BF41F0020167
:10186C002046053BE2699BB201B0BDE8F04FFFF7A3
:10187C004DBE01B0BDE8F08F1FB5089C0394002449
:10188C0002949DF81C4001949DF818400094FFF7B9
:10189C0093FF04B010BD7FB5054610460E461446A6
:1018AC0002F0E4F8002302930193009322460346CE
:1018BC0031462846FFF7E0FF04B070BD38B504464A
:1018CC000D46FFF784FE90B1E36962221A70E3695A
:1018DC0002225A70E3692A129A70E3690422DD70BD
:1018EC00E169204600F00BFD003018BF012038BD27
:1018FC0038B504460D46FFF76AFE90B1E3697222D3
:10190C001A70E36902225A70E3692A129A70E36929
:10191C000422DD70E169204600F0F1FC003018BFB4
:10192C00012038BD2DE9F04F83B000AF0446FFF71E
:10193C004EFE8146002800F0F68000F0A9F9226DD9
:10194C004FF47A735343A26A0546821A9A4203D81B
:10195C00626A821A934217D294F82C302BB120462B
:10196C0000F0ACFD4FF00009DDE0E269C021117020
:10197C00E26920465370E169022200F0C0FC0123A9
:10198C006562A56284F82C30204600F05BFD0028CF
:10199C0000F0C980F91D2046FFF760FD02460028C3
:1019AC0000F0C180E369A562187800F0F0013029DD
:1019BC007DD1D4F830B0BBF1000F00F0B48097F8B3
:1019CC0007C0EA4603EB0C00817890F801E001EBCC
:1019DC000E2E1FFA8EFE0EF1080121F00701ADEB61
:1019EC00010D684600218EB2B64506D90CEB0106F6
:1019FC001E44F67846540131F5E7002100F80E102C
:101A0C001E780CF1030106F00606022ECCEB020246
:101A1C001ED1714413F8018019444978CEEB0202AF
:101A2C0001EB08280CF105017144053A1944D8471B
:101A3C00E36940221A70E3691FFA88F85E70E36963
:101A4C004FEA28229A70E369042283F8038020E08D
:101A5C00042E24D1714413F8018019444978CEEB3B
:101A6C00020201EB08280CF105017144053A1944F6
:101A7C00D847E36950221A70E36902225A70E3696D
:101A8C001FFA88F84FEA28229A703246E36983F8E5
:101A9C000380E169204600F032FC656205E0033A00
:101AAC007144CEEB02021944D847D5463BE050298D
:101ABC0008D19978DB78204603EB012189B2FFF736
:101ACC00FDFE30E040290CD0602908D19978DB78F4
:101ADC00204603EB012189B2FFF70AFF23E07029AE
:101AEC000DD1616BF9B1042A1DD110F0060F1AD17A
:101AFC009878DB7803EB002080B2884713E09029BC
:101B0C0011D0C0290AD1D0221A70E36900225A7070
:101B1C00E1690222204600F0F2FB04E0D02904BF68
:101B2C00002384F82C3048460C37BD46BDE8F08FB6
:101B3C0070B504460E461546FFF749FDE8B1238CF7
:101B4C0001339BB203B901232384238CE2691B125A
:101B5C005371E369228C31469A71E269072320465E
:101B6C00FFF71BFDE36982211D54031FE269204628
:101B7C00BDE870409BB2FFF7C9BC70BD0022FFF7F7
:101B8C00D7BF10B50446FFF722FD10B12046FFF772
:101B9C00F0FCE06908B1FEF780FA04F1380000F0BF
:101BAC0015FE2046FFF7E6FB204610BD00F000B8FE
:101BBC0008B5024B1B681B68019308BDB0010608F1
:101BCC0008B5024B1B689B68019308BDB001060861
:101BDC0008B5024B1B68DB68019308BDB001060811
:101BEC0008B5024B1B681B69019308BDB0010608C0
:101BFC0008B5024B1B681B68019308BDB4010608AD
:101C0C0008B5024B1B689B68019308BDB40106081C
:101C1C0008B5024B1B68DB68019308BDB4010608CC
:101C2C0008B5024B1B681B69019308BDB40106087B
:101C3C0008B5024B1B685B69019308BDB40106082B
:101C4C0008B5024B1B68DB69019308BDB40106089B
:101C5C0008B5024B1B681B6A019308BDB40106084A
:101C6C0008B5024B1B685B6A019308BDB4010608FA
:101C7C0008B5024B1B685B68019308BD9C01060804
:101C8C0008B5024B1B68DB68019308BD9C01060874
:101C9C0008B5024B1B685B69019308BD9C010608E3
:101CAC0008B5024B1B68DB69019308BD9C01060853
:101CBC0008B5024B1B689B6D019308BD9C0106087F
:101CCC0008B5024B1B68DB6E019308BDB801060812
:101CDC0008B5024B1B681B6B019308BDD0010608AD
:101CEC0008B5024B1B689B69019308BDC40106082B
:101CFC0008B5024B1B685B6A019308BDC40106085A
:101D0C0008B5024B1B689B6A019308BDC401060809
:101D1C0008B5024B1B68DB6A019308BDC4010608B9
:101D2C0008B5024B1B681B6B019308BDC401060868
:101D3C0008B5024B1B685B6B019308BDC401060818
:101D4C0008B5024B1B689B6B019308BDC4010608C8
:101D5C0008B5024B1B681B6C019308BDC401060837
:101D6C0008B5024B1B68DB6C019308BDAC0106087F
:101D7C0008B5024B1B689B6D019308BDAC010608AE
:101D8C0008B5024B1B68DB6D019308BDAC0106085E
:101D9C0008B5024B1B681B6E019308BDAC0106080D
:101DAC0008B5024B1B685B6E019308BDAC010608BD
:101DBC0008B5024B1B689B6E019308BDAC0106086D
:101DCC0008B5024B1B68DB6E019308BDAC0106081D
:101DDC0008B5024B1B681B6F019308BDAC010608CC
:101DEC0008B5024B1B685B6F019308BDAC0106087C
:101DFC0008B5034B1B68D3F88030019308BD000075
:101E0C00AC01060808B5024B1B681B68019308BDA2
:101E1C00BC01060808B5024B1B685B68019308BD42
:101E2C00BC01060808B5024B1B689B68019308BDF2
:101E3C00BC01060808B5024B1B68DB68019308BDA2
:101E4C00BC01060808B5024B1B681B69019308BD51
:101E5C00BC01060808B5024B1B681B6A019308BD40
:101E6C00BC01060808B5024B1B681B6B019308BD2F
:101E7C00BC01060808B5024B1B685B6C019308BDDE
:101E8C00BC01060808B5024B1B681B68019308BD12
:101E9C00D801060808B5024B1B685B68019308BDA6
:101EAC00D801060808B5024B1B681B69019308BDD5
:101EBC00D801060808B5024B1B685B69019308BD85
:101ECC00D801060808B5024B1B689B69019308BD35
:101EDC00D801060808B5024B1B68DB69019308BDE5
:101EEC00D801060808B5024B1B681B6A019308BD94
:101EFC00D801060808B5024B1B685B6C019308BD42
:101F0C00C001060808B5024B1B689B6C019308BD09
:101F1C00C001060808B5024B1B685B6B019308BD3A
:101F2C00A801020808B5024B1B681B6D019308BD84
:101F3C00A801020808B5024B1B681B68019308BD79
:101F4C00A401060808B5024B1B685B68019308BD29
:101F5C00A401060808B5024B1B685B69019308BD18
:101F6C00A401060808B5024B1B689B6D019308BDC4
:101F7C00A401060808B5034B1B68D3F890300193F5
:101F8C0008BD0000A401060808B5034B1B68D3F874
:101F9C009C30019308BD0000A401060808B5034B52
:101FAC001B68D3F8A830019308BD0000A4010608F3
:101FBC0008B5024B1B685B68019308BDC801060895
:101FCC0008B5024B1B689B68019308BDC801060845
:101FDC0008B5024B1B68DB68019308BDC8010608F5
:101FEC0008B5024B1B681B69019308BDC8010608A4
:101FFC0008B5024B1B685B69019308BDC801060854
:10200C0008B5024B1B689B69019308BDC801060803
:10201C0008B5024B1B68DB69019308BDC8010608B3
:10202C0008B5024B1B681B6A019308BDC801060862
:10203C0008B5024B1B681B6B019308BDC801060851
:10204C0008B5024B1B685B6B019308BDC801060801
:10205C0008B5024B1B689B68019308BDCC010608B0
:10206C0008B5024B1B685B69019308BDCC010608DF
:10207C0008B5024B1B68DB6A019308BDCC0106084E
:10208C0008B5024B1B681B6B019308BDCC010608FD
:10209C0008B5024B1B685B6B019308BDCC010608AD
:1020AC0008B5024B1B68DB6B019308BDCC0106081D
:1020BC0008B5024B1B681B68019308BDA0010608FC
:1020CC0008B5024B1B685B68019308BDA0010608AC
:1020DC0008B5024B1B689B68019308BDA00106085C
:1020EC0008B5024B1B681B69019308BDA0010608CB
:1020FC0008B5024B1B689B69019308BDA00106083B
:10210C0008B5024B1B685B6A019308BDA001060869
:10211C0008B5024B1B681B6B019308BDA001060898
:10212C00704710B50446102101F0C5F9204610BDCA
:10213C0070B504460E46074B0025036040F80C5F53
:10214C00FFF7C6FD30462671FFF77AFDA5602046E5
:10215C0070BD00BF40490A084FF6FF710079FFF7C8
:10216C0047BD0079FFF74CBD0079FFF751BD00006A
:10217C00054A0023995C814202D00133082BF9D126
:10218C00581CC0B2704700BF48490A08400830B517
:10219C00186000241868E5B2884206D90134082C6E
:1021AC0002D040081860F5E70725024B5B5D137001
:1021BC0030BD00BF48490A0870B5044602FB01F562
:1021CC0088B006791422002103A801F00CFC0B2323
:1021DC0003A930460022ADF80C30FFF741FD02ABED
:1021EC000DF1070229460498FFF7D0FF20799DF8DE
:1021FC000710FFF715FD029808B070BD38B50446FE
:10220C00A56808464DB1FFF7B3FF012225FA00F18E
:10221C002046BDE83840FFF7CFBF2079BDE83840F5
:10222C00FFF7FEBC08B50079FFF702FDC0B208BD90
:10223C000079FFF70DBD10B50024047044804FF6F3
:10224C00FF740029848007DD0139994209D232F8E4
:10225C0011308380012301E002D10223037010BDF1
:10226C00418010BD70B50D46164686B01A46002347
:10227C0002930C9B044601930B9B3146009328461A
:10228C000A9BFFF78BFE33462A46014604A8FFF74C
:10229C00D2FF064B0498BDF81420186020469A8093
:1022AC001A689B882260A38006B070BD840500204C
:1022BC000078023801288CBF00200120704700787C
:1022CC00012802D0C31E5842584170474FF6FF7286
:1022DC00034B0020187058809A80FFF733BE00BF64
:1022EC008405002037B502AC036804F8011DDD6BD2
:1022FC00012247F230532146A84703B030BD10B439
:10230C000368DC6B47F23053A44610BC604737B50A
:10231C0002AC036804F8011DDD6B21461346012253
:10232C00A84703B030BD704770470020704710B508
:10233C000446142101F0BFF8204610BDFDF7ABBEDA
:10234C0010B5044603689B689847A368013BA360DB
:10235C002BB923682046BDE81040DB68184710BD38
:10236C0070B5044606464D69044B8C3544F8043B65
:10237C000FCD0FC42B683046237070BDE84A0A0895
:10238C0010B543690446B3F88620B3F884309A42FA
:10239C0005D06269B2F884301344187910BD036813
:1023AC001B6998470028F4D14FF0FF3010BD10B5D1
:1023BC0043690446B3F88620B3F884309A4208D0B7
:1023CC006269B2F88430591CA2F88410134418794D
:1023DC0010BD03681B6998470028F1D14FF0FF30FE
:1023EC0010BDF8B543691746B3F88620B3F88430AE
:1023FC0005469A420E4606D103681B69984710B9E8
:10240C004FF0FF3414E069693046B1F88430B1F80C
:10241C0086401944E41ABC4228BF3C46043122468B
:10242C0001F0D6FA6A69B2F884302344A2F88430F9
:10243C002046F8BD42690023A2F884304269A2F814
:10244C008630704738B542690446B2F886301BB105
:10245C00B2F884209A420CD0206900F045FF036842
:10246C00DB68984718B363691868FFF7D3FC18B991
:10247C001DE0FFF7DFFFEFE76069B0F886107F29FA
:10248C0015D8051DC1F18002002329440068FFF70F
:10249C00D9FC00280BDD6369B3F886200AB9A3F8D0
:1024AC0084206269B2F886301844A2F8860062690A
:1024BC00B2F88630B2F88400181A38BD38B54369C2
:1024CC0004461868FFF7A6FC18B163691868FFF793
:1024DC00C1FC6569FFF7C6FC286060691122002108
:1024EC008C3001F080FA2046BDE83840FFF7A2BFDF
:1024FC002DE9F0411F4603688AB0DB6A06460C469C
:10250C0015469847384600F0EFFE0368DB6898479D
:10251C00002856D000972B46062201210220D6F81F
:10252C001480FFF77FFC2023C8F8000000270293DB
:10253C00736903971B6801200193234B02AA009334
:10254C0022493B46FFF7EEFC73691868FFF762FC03
:10255C00002836D03046FFF76DFF0223ADF8083067
:10256C002B0A8DF80A30E3794FF4FA508DF80C30C1
:10257C00A3798DF80B508DF80D3063798DF80E30F2
:10258C0014F8043F8DF80F30FFF7B4FC736905465F
:10259C00102202A91868FFF74DFC80462846FFF769
:1025AC00A9FC0FCC75698C350FC523682B70B8F15D
:1025BC00000F05D033683046DB6A9847384600E098
:1025CC0001200AB0BDE8F081BF490A08B8490A08E1
:1025DC0010B5436904461868FFF71CFC08B90020C5
:1025EC0010BD206900F080FE0368DB689847002866
:1025FC00F5D063691868FFF705FCB0FA80F0400964
:10260C0010BD2DE9F3410025456004460E461746E2
:10261C009846FFF7DDFF60B160690195CDF8008049
:10262C002B463A4631460068FFF724FC002803DAB3
:10263C0001E04FF0FF30606002B0BDE8F08138B5CA
:10264C000446FFF7C5FF00BB6369B3F88610B3F807
:10265C008420914219D11868FFF7DCFB28B163691B
:10266C001868FFF7CFFB012801D000250EE0236886
:10267C0020461B699847002814BF0125002505D169
:10268C0023682046DB6A984700E00125284638BDC0
:10269C0008B5FFF79DFF003018BF012008BD10B52D
:1026AC00044600230160A0F88430A0F886308830FE
:1026BC0000F062FB204610BD4FF47A7270B5826058
:1026CC00144A002343600260436183610446A020E6
:1026DC000E46FDF7DCFC054610B13146FFF7DFFF77
:1026EC001420FDF7D4FC034628B10122426082601D
:1026FC00094A05610260A0696561A36128B143685C
:10270C00013B43600BB9FFF71BFE2046FFF792FE1F
:10271C00204670BD74490A0858490A0810B5044689
:10272C00FFF7A0FB01462046FFF7C6FF204610BD71
:10273C0010B504460068FFF76DFB10B12068FFF779
:10274C0089FB204610BD10B504692046FFF7F0FF49
:10275C0024B12046BDE81040FDF79DBC10BD000023
:10276C002DE9F0431F4603688FB0DB6A06460D4621
:10277C0090469847134800F06AFD00B302A800F099
:10278C00FBFA284601F072F9002481B200943B4612
:10279C0003AA2846FFF7B6FB80B9336809ADD3F816
:1027AC002090094B03AC08930FCC0FC5236842460D
:1027BC002B7008A93B463046C84700E020460FB0B6
:1027CC00BDE8F083400A0020E84A0A0810B5044628
:1027DC000068FFF775FC204610BD10B50446006874
:1027EC0008B1FFF76DFC00232360A360636010BD8C
:1027FC0038B504460D4600680131FFF769FC10B18D
:10280C0084E82100012038BD10B50368044613B1DB
:10281C0043688B4207D22046FFF7EAFF20B1A3683A
:10282C000BB922681370012010BD70B50E4611460D
:10283C0004461546FFF7E8FF18B92046FFF7CDFF11
:10284C0009E02A463146A560206801F0C1F82268EB
:10285C00A3680021D154204670BD002310B5044656
:10286C00036043608360037309B1FFF7DEFF20460A
:10287C0010BD38B5002304460360436083600373C6
:10288C000D4639B1084601F0F1F8294602462046BA
:10289C00FFF7CBFF204638BD38B505460C4641B195
:1028AC00084601F0E3F8214602462846FFF7BDFF33
:1028BC0001E0FFF792FF284638BDF8B506460D46F5
:1028CC008F180024BD420CD0336815F8011B9B688F
:1028DC0030469847002801DB0444F3E7002C08BF7E
:1028EC0004462046F8BD70B505460C46084649B16D
:1028FC0001F0BCF82B68024621462846BDE8704022
:10290C00DB68184770BD08B5FFF7EDFF08BD03681D
:10291C009B68184738B50D210546FFF7F8FF0A21CB
:10292C0004462846FFF7F3FF204438BD38B505466A
:10293C00FFF7D9FF04462846FFF7ECFF204438BDCB
:10294C00012A98BF0A2230B50B468BB000218DF8B6
:10295C0024100DF12304B3FBF2F505FB1233DBB2AB
:10296C00092B94BF30333733DBB2214604F80139DD
:10297C002B46002DEFD1FFF7B6FF0BB030BD10B4D6
:10298C0022B90368C9B29B6810BC1847D2B210BCFC
:10299C00FFF7D6BFFFF7F3BF2DE9F04107460E4610
:1029AC0015462AB9BDE8F0410368C9B29B681847BF
:1029BC000A2A02D1002901DA04E0D2B2BDE8F041C2
:1029CC00FFF7BEBF2D21FFF7A2FF2A460446714236
:1029DC003846FFF7B5FF2044BDE8F08138B5054611
:1029EC00FFF7DAFF04462846FFF794FF204438BD72
:1029FC000CB42DE9F04387B000AF07F1380454F85C
:102A0C00049B05460E4623464A461421381D3C605D
:102A1C00FFF776FB132805D8391D2846FFF763FF0F
:102A2C00044613E000F1080323F00703E846ADEB7E
:102A3C00030D411C23464A4668463C60FFF760FB89
:102A4C0069462846FFF74FFF0446C5461EB1284687
:102A5C00FFF760FF044420461C37BD46BDE8F04339
:102A6C0002B0704700231A4619464068FFF7C0BAF7
:102A7C00014A024B1A607047494A0A088C0500202B
:102A8C00F0B5144B144F1E68144B064418683B6881
:102A9C0006449E428BB01BD00AA840F8286D00F06B
:102AAC009FFE0446436901AD03F26C7343610FCC86
:102ABC000FC50FCC0FC5D4F800E0094CC5F800E0E9
:102ACC0001AD0FCD0FC40FCD0FC43E60C4F800E0B4
:102ADC000BB0F0BDC0050020BC050020B8050020DF
:102AEC009005002008B50020FFF7CAFA28B1FFF7BF
:102AFC00B7FA80F00100C0B208BD012008BD00008B
:102B0C0037B50E4B04461B6802A819440C4B1B68C6
:102B1C00194440F8041D00F063FE00F017FE054652
:102B2C0000F0A4FF0023284400F8013C294620466D
:102B3C00FFF79FFE204603B030BD00BFC00500204C
:102B4C00B805002010B50020FFF7B2F8044668B9AC
:102B5C00FFF7F0F901280BD12046FFF703FA38B93B
:102B6C00FFF7C0FF30B9FFF773FAF9E7012010BD8A
:102B7C00002010BDFFF7B6FF0020FFF799F80030DA
:102B8C0018BF012010BD08B5FFF7DCFFBDE80840F9
:102B9C00FFF786B808B5FFF7F6FFFFF771FF014B9B
:102BAC00186808BD90050020024B1A68024B1A6089
:102BBC00704700BF24040020B40500200021FFF75B
:102BCC00C9B910B58368044613B10322014698476E
:102BDC00204610BD10B50446FFF7F3FF204610BD8C
:102BEC00034800238360034A034900F05FBC00BF25
:102BFC00C4050020DC040020E12B0A0808B5144BA6
:102C0C0033B100F081F903681B699847002816DC82
:102C1C00104B33B100F036FA03681B699847002853
:102C2C0010DC0D4B0BB1AFF300800C4B7BB100F003
:102C3C00A7F903681B699847002806DC08BDAFF3A9
:102C4C000080E5E7AFF30080EBE7AFF3008008BD51
:102C5C000000000000000000000000000000000068
:102C6C0008B5FFF7CBFFFFF713F8014B186008BD51
:102C7C00680A00200248034A0349121A00F0A8BE51
:102C8C000040024054400240904E0A0807B5002311
:102C9C0000931A466FF07701FFF776F903B05DF8F1
:102CAC0004FB000007B543880A2B08D0502B09D130
:102CBC00094B1B683BB103B05DF804EB1847FFF7F9
:102CCC00E5FF06E0002300931A466FF07701FFF74B
:102CDC005BF903B05DF804FBD405002038B5104C4B
:102CEC00104D2368AB42104B0CBF012200221A700E
:102CFC0002D0FFF7BFFF2560FEF7BAFF044600F0D5
:102D0C007BFE0A4B13B12046AFF30080002107482D
:102D1C00FFF7C6F9BDE8384000210548FFF72AB98E
:102D2C00504002401E1C279AD805002000000000CD
:102D3C00B12C0A08704710B50446182100F0BBFBF3
:102D4C00204610BDF8B50F4600F10806051D0024FD
:102D5C0016F8011D0A223846FFF71CFEAE42044449
:102D6C0007D0002CF4D02E213846FFF7D0FD0444B8
:102D7C00EEE72046F8BD000010B50446044B1122C6
:102D8C0040F8043B002100F02EFE204610BD00BF91
:102D9C00E84A0A080346074A10B543F8042B01F128
:102DAC00100251F8044B914243F8044BF9D10A78C4
:102DBC001A7010BDE84A0A08024A416002600422F7
:102DCC0002757047E84A0A0810B59DF8084044EAB5
:102DDC00032343EA024242EA016104234160037582
:102DEC0010BD000037B5044D05609DF818500095D6
:102DFC00FFF7EAFF03B030BDE84A0A0837B50D7893
:102E0C008B784A78C97800912946FFF7DDFF03B02B
:102E1C0030BD000010B50446024B0360FFF7EEFF17
:102E2C00204610BDE84A0A0841747047704708B53F
:102E3C000021007CFFF746F830EA200028BF4FF055
:102E4C00FF3008BD08B50121007CFFF73BF830EAE4
:102E5C00200028BF4FF0FF3008BD08B5007CFFF7FD
:102E6C0029F820EAE07008BD08B5007CFFF71AF8D5
:102E7C0020EAE07008BD007CFFF734B810B50446BA
:102E8C00142100F018FB204610BD38B50446007C18
:102E9C000D46FFF70FF8002801DC607C28B12946AD
:102EAC00207CFFF717F820EAE07038BD10B5044617
:102EBC00002363604FF47A73A360054B08462360CC
:102ECC000123217463741146FEF7DCFF204610BD0C
:102EDC00FC4A0A080022007CFEF7DCBF10B5044651
:102EEC001422002100F07FFD054B20466360054B4A
:102EFC00E36040F2011323818123238210BD00BFC4
:102F0C0061060020E005002030B50E4D87B001A809
:102F1C00FFF7E4FF296811F0010410D12846FDF7F2
:102F2C00C9F860B101AA21460748FFF7BFFF284640
:102F3C00FDF7C5F8054A0649034800F0B7FA024800
:102F4C0007B030BDDC05002064070020DC04002045
:102F5C00392E0A0810B504461422002100F043FD56
:102F6C00054B20466360054BE36040F2011323815F
:102F7C008123238210BD00BF140800207C07002091
:102F8C0010B50E4C86B001A8FFF7E4FF2368DB07F1
:102F9C0010D42046FDF78EF860B101AA0121084833
:102FAC00FFF784FF2046FDF78AF8064A06490448D5
:102FBC0000F07CFA024806B010BD00BF7807002074
:102FCC0000080020DC040020392E0A0870474174E8
:102FDC00704708B5007CFEF7BBFE20EAE07008BD28
:102FEC0008B5007CFEF78CFE20EAE07008BD08B541
:102FFC00007CFEF795FE30EA200028BF4FF0FF3032
:10300C0008BD08B5007CFEF783FE30EA200028BF1F
:10301C004FF0FF3008BD007CFEF78ABE10B50446A9
:10302C00142100F048FA204610BD70B5457C0446CA
:10303C000E4625B9007CFEF78BFE002805DD3146D7
:10304C00207CBDE87040FEF753BE284670BD0000E2
:10305C0010B5044608461146002262604FF47A729D
:10306C00A260054A20742260012262741A46FEF79F
:10307C0037FE204610BD00BF2C4B0A08007CFEF723
:10308C005FBE000038B50C4D296811F0010411D158
:10309C002846FDF70FF868B1084A2146084B094845
:1030AC00FFF7D6FF2846FDF70AF8074A07490548F7
:1030BC0000F0FCF9034838BDB0090020B409002029
:1030CC002C09002018090020DC040020D92F0A0844
:1030DC007047F8B5064615460C468F18BC4206D00C
:1030EC00336814F8011B9B6830469847F6E728466E
:1030FC00F8BD0022007CFEF74BBE0021007CFEF7E1
:10310C004FBE0021007CFEF753BE0021007CFEF771
:10311C0057BE0021007CFEF75BBE10B5044614219F
:10312C0000F0C9F9204610BD10B5044608464FF40E
:10313C007A73A360044B0021207461602360FEF756
:10314C0057FE204610BD00BF5C4B0A0800231A46F0
:10315C001946007CFEF704BE0022007CFEF708BE78
:10316C00C9B2FFF7F9BF0022007CFEF709BE0121AE
:10317C00FFF7F9BF0021007CFEF732BE002211469A
:10318C004068FEF72DBFF0B5164689B011220F46E8
:10319C000446002103A800F026FC304600F066FC33
:1031AC000025009581B27B6803AA3046FEF7AAFE83
:1031BC0020B129462046FFF7FFFD03E003A9204676
:1031CC00FFF7E8FD204609B0F0BD0022114640682B
:1031DC00FEF726BF002211464068FEF731BF0022E1
:1031EC004068FEF725BF002281F001014068FEF720
:1031FC000FBF00231A4619464068FEF701BF002294
:10320C0011464068FEF7DCBE002202214068FEF742
:10321C00DFBE00231A464068FEF7CABE024B0422EA
:10322C005A60024A1A607047380A0020844B0A0818
:10323C0000231A464068FEF7BBBE002202214068FC
:10324C00FEF7C6BE002211464068FEF7B9BE00224A
:10325C0011464068FEF7C4BE00231A461946406862
:10326C00FEF7C6BE00231A4619464068FEF7C8BED4
:10327C00002281F001014068FEF7CABE00224068BE
:10328C00FEF7D6BE002211464068FEF7D9BE0022DA
:10329C0011464068FEF7C4BE70B516468EB00446A3
:1032AC0008A8FFF769FD1122002103A800F09BFB81
:1032BC00304600F0DBFB00250A4B009581B25B68C1
:1032CC0003AA3046FEF71EFE20B129462046FFF722
:1032DC0073FD03E003A92046FFF75CFD20460EB00A
:1032EC0070BD00BF380A0020034B044A04280CBFF1
:1032FC0010461846704700BF400A0020380A0020CC
:10330C00024B034A1A6000225A607047400A0020A0
:10331C00B84B0A0810B504460F48FEF789FF28B1D0
:10332C00A4F10D03022B01D8002010BD00F09EF873
:10333C00FFF720FF08B1012CF6D9FFF7A3FEFFF72A
:10334C009DFE18B1A4F11203012BEDD9172C8CBFE3
:10335C000020012010BD00BF480A0020172838B5F6
:10336C0004460D460AD8FF2908D0FFF7D3FF28B131
:10337C0029462046BDE83840FEF722BC38BD38B59A
:10338C0004460D46FEF724FCFF2810D0062804D86E
:10339C004D2323FA00F0C30709D42046FFF7BAFFE8
:1033AC0028B129462046BDE83840FEF719BC38BD87
:1033BC002DE9F04190461E4607460D460724B8F10C
:1033CC00000F04D1C4F1070146FA01F101E046FAFD
:1033DC0004F101F001013846FFF7D1FF0121284625
:1033EC00FFF7CDFF00212846FFF7C9FF14F1FF348A
:1033FC00E5D2BDE8F081000070B50C4C0C4E0D4DC3
:10340C0000212046FEF794FE20460B4C32462946FE
:10341C0000F04CF801212046FEF78AFE3246294680
:10342C002046BDE8704000F041B800BF480A0020BB
:10343C00DC0400202D210A08580A002013B5084C82
:10344C0000231A46194600932046FFF7CBFC204672
:10345C00044A054902B0BDE8104000F027B800BF8F
:10346C006C0A0020DC040020412D0A0838B50B4DF5
:10347C00296811F001040FD12846FCF71BFE58B146
:10348C0021460748FFF750FE2846FCF718FE054A70
:10349C000549034800F00AF8014838BD840A0020A9
:1034AC00880A0020DC040020DD300A080B460146A7
:1034BC00184600F087B9FCF7EEBD0000184B1A68EF
:1034CC00D1075CBF01221A60164B1A68D2075CBF89
:1034DC0001221A60144B1A68D0075CBF01221A60D3
:1034EC00124B1A68D1075CBF01221A60104B1A6884
:1034FC00D2075CBF01221A600E4B1A68D0075CBF62
:10350C0001221A600C4B1A68D1075CBF01221A60A9
:10351C000A4B1A68D2075CBF01221A60704700BFC1
:10352C00B80A0020B40A0020B00A0020AC0A00201F
:10353C00A80A0020A40A0020A00A00209C0A00204F
:10354C00244B1A68D0075CBF01221A60224B1A6800
:10355C00D1075CBF01221A60204B1A68D2075CBFEE
:10356C0001221A601E4B1A68D0075CBF01221A6038
:10357C001C4B1A68D1075CBF01221A601A4B1A68DF
:10358C00D2075CBF01221A60184B1A68D0075CBFC7
:10359C0001221A60164B1A68D1075CBF01221A600F
:1035AC00144B1A68D2075CBF01221A60124B1A68BE
:1035BC00D0075CBF01221A60104B1A68D1075CBFA0
:1035CC0001221A600E4B1A68D2075CBF01221A60E6
:1035DC00704700BFE80A0020E40A0020E00A00203F
:1035EC00DC0A0020D80A0020D40A0020D00A0020CF
:1035FC00CC0A0020C80A0020C40A0020C00A0020FF
:10360C00BC0A0020244B1A68D0075CBF01221A6048
:10361C00224B1A68D1075CBF01221A60204B1A6832
:10362C00D2075CBF01221A601E4B1A68D0075CBF20
:10363C0001221A601C4B1A68D1075CBF01221A6068
:10364C001A4B1A68D2075CBF01221A60184B1A6811
:10365C00D0075CBF01221A60164B1A68D1075CBFF9
:10366C0001221A60144B1A68D2075CBF01221A603F
:10367C00124B1A68D0075CBF01221A60104B1A68F3
:10368C00D1075CBF01221A600E4B1A68D2075CBFCF
:10369C0001221A60704700BF180B0020140B002089
:1036AC00100B00200C0B0020080B0020040B00203A
:1036BC00000B0020FC0A0020F80A0020F40A00206D
:1036CC00F00A0020EC0A0020184B1A68D1075CBFE6
:1036DC0001221A60164B1A68D2075CBF01221A60CD
:1036EC00144B1A68D0075CBF01221A60124B1A687F
:1036FC00D1075CBF01221A60104B1A68D2075CBF5D
:10370C0001221A600E4B1A68D0075CBF01221A60A6
:10371C000C4B1A68D1075CBF01221A600A4B1A685D
:10372C00D2075CBF01221A60704700BF380B002023
:10373C00340B0020300B00202C0B0020280B002019
:10374C00240B0020200B00201C0B0020094B70B513
:10375C001C680646256C3DB91A20FEF7A9FC1A22F6
:10376C002064294600F03FF9216C3046BDE87040DA
:10377C0000F002B88C04002010B50C46416986B0EC
:10378C0001F26C71036982690491016803EB4303D4
:10379C000391416802EB4202029181680191C16878
:1037AC002046009104490B4404490A440449FEF79D
:1037BC0097FC204606B010BDF94B0A08E44B0A08EA
:1037CC001D4C0A0810B5054C13462CB10A4601468F
:1037DC000220AFF3008010BD204610BD0000000099
:1037EC0038B5074B05461C68E36B1BB92420FEF764
:1037FC005FFCE063E16B2846BDE8384000F002B89E
:10380C008C0400202DE9F0410C46804600F048FC69
:10381C0021460746404600F047FC4669044606F23E
:10382C006C76B30705D1642296FBF2F302FB1363AB
:10383C004BB94FF4C87596FBF5F305FB1365B5FA58
:10384C0085F35B0900E001235F4A302505FB032566
:10385C0000F05AFA00F05AFA5C4B1B68F3B17B6823
:10386C009E4205D13968D8F80030FA6941B90AE0AE
:10387C00304600F0A1F90028F4D14FF0FF330DE0F1
:10388C00934208DB01E0934207DABA6B9342ACBF78
:10389C000023012302E0002300E001232362236ABA
:1038AC003C20012B0CBFF96B396A4FF4616391FB1F
:1038BC00F3F603FB161393FBF0F200FB1230616876
:1038CC002368891AA2681B1A921B3B2B2360616028
:1038DC00A26003DD013161603C3B04E0002B03DAA4
:1038EC00013961603C33236063683B2B03DD01329B
:1038FC00A2603C3B04E0002B03DA013AA2603C33AB
:10390C006360A368172B22DDE269183B0132E26188
:10391C00A269A3600132062AC8BF0022A261E26834
:10392C0023690132E26055F823108A4246DD0133E7
:10393C000C2B08BF6369A2EB0102E26005BF0133E7
:10394C0000222361226104BF6361E26136E0002B37
:10395C0034DAE2691833013AE261A269A360013AF0
:10396C0048BF0622A261E268013AE26032BB2369D9
:10397C00013B01D423611DE00B23236163695A1EB3
:10398C0012F0030F626103F26B7305D1642193FB98
:10399C00F1F201FB12324AB94FF4C87193FBF1F208
:1039AC0001FB1233B3FA83F35B0900E0012303F547
:1039BC00B673E361236955F82330E36000F0A5F991
:1039CC002046BDE8F08100BFA04D0A08580B00202E
:1039DC0010B5431E0A44914204D011F8014B03F870
:1039EC00014FF8E710BD03460244934202D003F89E
:1039FC00011BFAE77047000038B5124B05461C68EE
:103A0C00A36BD3B91820FEF753FB43F20E33A0631C
:103A1C0003804AF6CD33438041F2342383804EF247
:103A2C006D63C3804DF6EC630381052343810B2347
:103A3C00838101220023C0E90423A36B00221D61B2
:103A4C005A6138BD8C04002010F8012B11F8013B91
:103A5C00012A28BF9A42F7D0D01A7047034611F8B2
:103A6C00012B03F8012B002AF9D17047034613F8F8
:103A7C00012B002AFBD1181A0138704730B582B1DE
:103A8C00451E013915F8013F11F8014FA34206D12B
:103A9C00EC431444E04201D0002BF3D11C46181B1C
:103AAC0030BD104630BD00002DE9F0470E46804673
:103ABC003B48D0F80090354615F8014B09EB040053
:103ACC00407800F0080000F0FF0708B12E46F2E73E
:103ADC002D2C03D1B51C7478012703E02B2C04BFCB
:103AEC007478B51C13B1102B0AD153E0302C4FD184
:103AFC00287800F0DF00582845D16C781023023567
:103B0C004FF0FF3CBCFBF3FC03FB0CFA00266FEA06
:103B1C000A0A304609EB040E9EF801E01EF0040F71
:103B2C0001D0303C0BE01EF0030E1AD0BEF1010F99
:103B3C000CBF4FF0370E4FF0570ECEEB0404A342E0
:103B4C000FDD002E08DB604506D801D1544503DC9F
:103B5C0003FB0040012601E04FF0FF3615F8014B46
:103B6C00D8E7002E07DA2223C8F800304FF0FF30D8
:103B7C002AB9BDE8F08707B1404272B106B1691E9F
:103B8C001160BDE8F0873024002BB9D10823B7E7CA
:103B9C000A23B5E7302CABD0B2E7BDE8F08700BF05
:103BAC002804002013460A46014602480068FFF725
:103BBC007BBF00BF8C0400202DE9F74F044600F0BA
:103BCC006FFA40F2B1739C4240F3968040F26D154F
:103BDC006FF4F663E318A4F2B2729B1005FB023586
:103BEC00A4F26D726FF0630392FBF3F36FF4C8628F
:103BFC002B44A5184FF4C87294FBF2F795FBF2F521
:103C0C0002FB17471D44642394FBF3F6B7FA87FEB7
:103C1C00014603FB164600F13803019304F003033D
:103C2C0044604FEA5E1E00934FF0070C0B7A4A2B50
:103C3C000ED14B69009AEC1802B906B927B93B2B87
:103C4C00D4BF0023012300E000232344013B3FE0C9
:103C5C00442B02D14B692B443AE0009B2BB9002E2C
:103C6C000CBFF0464FF0010800E0F046A946244B8B
:103C7C00302202FB0838CC68A8F1040A0123A342C5
:103C8C0004DA5AF804BF0133D944F8E709F1040304
:103C9C0093FBFCFBCBEBCB0ACAEB030A4B69012C65
:103CAC00B8BF0124B3EB0A0A0B6904F1804403F199
:103CBC00FF3304F1FF3448BF0AF1070AC3EBC30317
:103CCC0058F824405344A34201DB073BFBE74B4429
:103CDC008C690C4A02FB03430C6A234441F81C3FD9
:103CEC00019B9942A2D1C369826B9342ACBF002362
:103CFC0001230360012000E0002003B0BDE8F08F39
:103D0C00A04D0A088051010070477047014B18689C
:103D1C0000F002B88C0400202DE9F04F8DB007465E
:103D2C0000F0BEF9B0490446384600F0B1F9AF4E88
:103D3C00054660B9AE4BAF4A1860AF4B1860AF4B3D
:103D4C0030681A605A60FEF7BBF9356048E131689B
:103D5C0079B93068FEF7B4F92846FFF787FE411CA5
:103D6C003846FEF7D5F9306048B12946FFF776FEA4
:103D7C0005E0FFF769FE002800F03281E9E72B78B7
:103D8C000AAE3A2B08BF013533469D4A9D49284659
:103D9C00FEF7AEF9002840F323810A9BEF18EB5C89
:103DAC002D2B03D101374FF0FF3503E02B2B08BF30
:103DBC00013701250DF1200A0DF11E0B4FF0000803
:103DCC000396CDF808A00196CDF800B0334607AAAB
:103DDC008D493846ADF81E80ADF82080FEF788F985
:103DEC00404540F3FD80BDF81E20BDF820303C213D
:103DFC0001FB0233BDF81C204FF4616101FB02335F
:103E0C005D437F4B25627D4DDFF808922B600A9B4A
:103E1C004A461F447B4933463846FEF769F940450C
:103E2C0008DC2B68226A6B60714B1A60724BC3F80A
:103E3C000080D5E00A9BC5F80490FD18FB5C2D2B87
:103E4C0003D101354FF0FF3703E02B2B08BF0135B1
:103E5C0001270023ADF81C30ADF81E30ADF8203032
:103E6C000A930396CDF808A00196CDF800B033461E
:103E7C0007AA65492846FEF73BF9002804DC236AAB
:103E8C00A3F56163E3630EE0BDF81E20BDF820309E
:103E9C003C2101FB0233BDF81C204FF4616101FB96
:103EAC0002335F43E76327460A9B4FF000091D442A
:103EBC002B782C2B08BF013595F80080B8F14D0FED
:103ECC0026D10DF12603029309AB009303960196BC
:103EDC0033460DF122024D492846FEF709F9032815
:103EEC007ED1BDF822104B1E0B2B79D8BDF82420A7
:103EFC00531E042B74D8BDF82630062B70D887F8C7
:103F0C000880F9603A617B610A9B05EB03082AE0A3
:103F1C00B8F14A0F06BF4346013544230A220BA9C8
:103F2C0028460593FFF73EFEDDF82C80ADF8260001
:103F3C004545059B14D14D23B9F1000F07D12372D0
:103F4C000323E36002232361C4F814900BE084F88C
:103F5C0024300B23A3620123E3620023236302E0DA
:103F6C0080B23B7278610223ADF81C300023ADF8AF
:103F7C001E30ADF820300A9398F800302F2B0BD15F
:103F8C000396CDF808A00196CDF800B0334607AAE9
:103F9C001F494046FEF7ACF8BDF81E20BDF8203096
:103FAC003C2101FB0233BDF81C204FF4616101FB85
:103FBC000233BB610A9D09F10109B9F1020F4544B5
:103FCC0007F11C077FF474AF6068FFF7F5FD226AF8
:103FDC00074B1A60E36B9B1A074A18BF0123136047
:103FEC000DB0BDE8F08F00BF004E0A08540B002046
:103FFC005C0B0020034E0A08580B00209004002094
:10400C00470B0020074E0A082A4E0A08164E0A08CB
:10401C00294E0A083C0B00202DE9F84F07468B4629
:10402C00904600F0D7F8194B1D689A463DB15C4696
:10403C00234613F8012B42B13D2A1C46F8D13846D1
:10404C0000F0C9F80020BDE8F88FCBEB0404A946BA
:10405C0059F8040B0028F2D022465946FFF70EFD02
:10406C0088B959F8043C1E191B5D3D2B0BD1DAF8AD
:10407C0000303846ED1AAD10C8F8005000F0ABF81F
:10408C00701CBDE8F88F4D46E1E700BFD804002056
:10409C0007B501AAFFF7C0FF03B05DF804FB0000F1
:1040AC0000487047980400200268464BF0B592FB1C
:1040BC00F3F403FB1422002ABCBF02F5A83202F56C
:1040CC00C0724FF4616092FBF0F300FB13224FF0CF
:1040DC003C008B6092FBF0F300FB132204F52F24C1
:1040EC00ACBF04F66C2404F66B244B600A60072307
:1040FC00E21C92FBF3F3344DC3EBC30394FBF5F5D5
:10410C00D31A48F6AC6240F2B4578B612F4B30484F
:10411C0003FB0544B4FBF2F2B4FBF7F3B4FBF0F091
:10412C002244D21A48F69466131A40F26D12B3FB6D
:10413C00F6F6B3FBF2F0B3FBF7F33444E31A02FBED
:10414C00103303EB830299240232B2FBF4F2544392
:10415C00A61C0524B6FBF4F40A2A34BF02266FF021
:10416C00090616444FF4C87202FB05055F1C012EAC
:10417C0098BF0135B3F5997FA7EB040702D3A3F5DC
:10418C00997214E0820705D16424B0FBF4F204FBAD
:10419C0012024AB94FF4C872B0FBF2F402FB1400DD
:1041AC00B0FA80F2520900E001223B331A44A5F226
:1041BC006C750023CA614D610E61CF600B620846BD
:1041CC00F0BD00BF80510100B13A02004FC5FDFFA8
:1041DC00B03A0200704770471D000A085D000A08DB
:1041EC0089000A088D000A080000000063616C6CED
:1041FC006261636B2066756E6B74696F6E007765B8
:10420C0061746865722F7265616474656D700063AA
:10421C00616C6C6261636B2054656D703A20007741
:10422C006561746865722F72656164707265737311
:10423C000063616C6C6261636B2050726573733ADE
:10424C002000776561746865722F726561646875AA
:10425C006D690063616C6C6261636B2048756D699C
:10426C003A2000776561746865722F7265616472BB
:10427C0061696E0063616C6C6261636B2052616991
:10428C006E3A20004D51545420676F546F536C6537
:10429C00657000537461727400776561746865723F
:1042AC00636C69656E7400737562736372696265C1
:1042BC00004D61696E206C6F6F70004765742077DC
:1042CC0065617468657220646174610077656174FE
:1042DC006865722F67657477656174686572004DE7
:1042EC00515454206C6F6F7000446973706C617919
:1042FC002064726177004E6F20525443206F7220FD
:10430C0050494E202D20676F546F536C65657000BB
:10431C0054696D6520776173206C617374207379B7
:10432C006E6368726F6E697A656420256C75206D9A
:10433C00696C6C697365636F6E64732061676F0081
:10434C0054696D6520726563656976656420667273
:10435C006F6D205061727469636C65204465766979
:10436C00636520436C6F7564207761733A2000534A
:10437C006C656570696E672074696D653A200054D0
:10438C00656D703A00430048756D69646974793ADB
:10439C0000250050726573737572653A0068506140
:1043AC00005261696E3A006D6D2061206461790084
:1043BC0000000000000000004D060A08BD080A08B5
:1043CC00ED120A08C7280A08050C0A08E90F0A08A2
:1043DC006D0A0A08F9080A08A9100A083F110A0808
:1043EC0077110A0893110A08000000000000000071
:1043FC000000000000000000ED120A08C7280A089F
:10440C00AD000A08E90F0A0809110A0825110A0863
:10441C00A9100A083F110A0877110A0893110A0813
:10442C0000000000003E5B4F5B3E3E6B4F6B3E1C42
:10443C003E7C3E1C183C7E3C181C577D571C1C5E59
:10444C007F5E1C00183C1800FFE7C3E7FF00182430
:10445C001800FFE7DBE7FF30483A060E26297929DA
:10446C0026407F050507407F05253F5A3CE73C5A0F
:10447C007F3E1C1C08081C1C3E7F14227F22145FEC
:10448C005F005F5F06097F017F006689956A606047
:10449C0060606094A2FFA29408047E040810207E41
:1044AC00201008082A1C08081C2A08081E101010C6
:1044BC00100C1E0C1E0C30383E3830060E3E0E060C
:1044CC00000000000000005F00000007000700145F
:1044DC007F147F14242A7F2A12231308646236491E
:1044EC005620500008070300001C22410000412206
:1044FC001C002A1C7F1C2A08083E0808008070300B
:10450C000008080808080000606000201008040279
:10451C003E5149453E00427F40007249494946217F
:10452C0041494D331814127F1027454545393C4AF3
:10453C00494931412111090736494949364649490A
:10454C00291E000014000000403400000008142252
:10455C0041141414141400412214080201590906C0
:10456C003E415D594E7C1211127C7F494949363EC1
:10457C00414141227F4141413E7F494949417F09A7
:10458C000909013E414151737F0808087F00417FB2
:10459C0041002040413F017F081422417F404040B0
:1045AC00407F021C027F7F0408107F3E4141413E48
:1045BC007F090909063E4151215E7F0919294626CA
:1045CC004949493203017F01033F4040403F1F20CE
:1045DC0040201F3F4038403F6314081463030478A5
:1045EC0004036159494D43007F41414102040810C5
:1045FC0020004141417F0402010204404040404000
:10460C00000307080020545478407F28444438386D
:10461C0044444428384444287F38545454180008DF
:10462C007E090218A4A49C787F0804047800447DB9
:10463C0040002040403D007F1028440000417F4056
:10464C00007C047804787C080404783844444438AA
:10465C00FC1824241818242418FC7C08040408488A
:10466C005454542404043F44243C4040207C1C20DB
:10467C0040201C3C4030403C44281028444C909036
:10468C00907C4464544C4400083641000000770090
:10469C0000004136080002010204023C2623263C9D
:1046AC001EA1A161123A4040207A38545455592128
:1046BC005555794121545478412155547840205412
:1046CC005579400C1E52721239555555593954545E
:1046DC00545939555454580000457C410002457DCD
:1046EC00420001457C40F0292429F0F0282528F0CF
:1046FC007C545545002054547C547C0A097F493223
:10470C00494949323248484832324A4848303A419D
:10471C0041217A3A42402078009DA0A07D39444442
:10472C0044393D4040403D3C24FF2424487E4943CD
:10473C00662B2FFC2F2BFF0929F620C0887E09033E
:10474C0020545479410000447D413048484A323865
:10475C004040227A007A0A0A727D0D19317D262991
:10476C00292F28262929292630484D402038080889
:10477C00080808080808382F10C8ACBA2F102834BD
:10478C00FA00007B000008142A142222142A1408B0
:10479C00AA005500AAAA55AA55AA000000FF0010AD
:1047AC001010FF00141414FF001010FF00FF101065
:1047BC00F010F0141414FC001414F700FF0000FFA8
:1047CC0000FF1414F404FC141417101F10101F1005
:1047DC001F1414141F00101010F0000000001F1004
:1047EC001010101F10101010F010000000FF10100F
:1047FC0010101010101010FF10000000FF1400001B
:10480C00FF00FF00001F10170000FC04F414141725
:10481C0010171414F404F40000FF00F7141414140B
:10482C00141414F700F7141414171410101F101F7D
:10483C00141414F4141010F010F000001F101F00CA
:10484C0000001F14000000FC140000F010F0101009
:10485C00FF10FF141414FF141010101F00000000A0
:10486C00F010FFFFFFFFFFF0F0F0F0F0FFFFFF0094
:10487C0000000000FFFF0F0F0F0F0F3844443844A7
:10488C007C2A2A3E147E02020606027E027E026307
:10489C00554941633844443C04407E201E200602A6
:1048AC007E020299A5E7A5991C2A492A1C4C720183
:1048BC00724C304A4D4D303048784830BC625A46C4
:1048CC003D3E494949007E0101017E2A2A2A2A2AB5
:1048DC0044445F444440514A444040444A5140009F
:1048EC0000FF0103E080FF000008086B6B08361224
:1048FC00362436060F090F060000181800000010A9
:10490C0010003040FF0101001F01011E00191D178E
:10491C0012003C3C3C3C000000000000044D515493
:10492C00540400064D5149736470030000000000EC
:10493C00000000002D210A082F210A080008101879
:10494C0020283038000000000000000035230A0841
:10495C003B230A0853270A0849230A0837230A0865
:10496C00000000000000000081130A08B5130A08BB
:10497C00F1220A080B230A0851240A08BB230A084F
:10498C008D230A0833230A08FD240A086D270A0818
:10499C00EF230A08C9240A084B260A089D260A0890
:1049AC001B230A080F260A086D230A087769726907
:1049BC006E6700544350436C69656E7420736F636B
:1049CC006B65743D2578006261756400536572698E
:1049DC00616C0055534253657269616C3100747996
:1049EC00706500706172616D00636D6400696400D4
:1049FC00686E64007374726D0066696C74006C761A
:104A0C006C0061646448616E646C65720072656D03
:104A1C006F766548616E646C657200656E756D4885
:104A2C00616E646C657273004A534F4E53747265B9
:104A3C00616D4C6F6748616E646C6572006170707B
:104A4C0000253031307520005D20002564002C20BD
:104A5C000028293A2000205B00636F6465203D200C
:104A6C000025690064657461696C73203D20000D3C
:104A7C000A0066006C6E00666E00636F646500640D
:104A8C00657461696C006E6F6E650074726163654C
:104A9C0000696E666F007761726E006572726F727C
:104AAC000070616E696300616C6C00252B3033649F
:104ABC003A253032750025592D256D2D2564542548
:104ACC00483A254D3A2553257A0061736374696D14
:104ADC00650000000000000000000000512D0A08D5
:104AEC00412D0A08432D0A080000000000000000B8
:104AFC00392E0A08892E0A08972E0A08C7280A0890
:104B0C00752E0A083B2E0A08512E0A08832E0A0815
:104B1C00672E0A08352E0A0800000000000000006D
:104B2C00D92F0A0829300A0837300A08C7280A087A
:104B3C00ED2F0A080F300A08FB2F0A0823300A0849
:104B4C00DB2F0A08DF2F0A0800000000000000001D
:104B5C00DD300A0827310A08FF300A08DF300A085E
:104B6C0007310A080F310A0817310A081F310A08E1
:104B7C0000000000000000001F320A0815320A086D
:104B8C000B320A0889310A08712A0A08FF310A080F
:104B9C00F3310A08EB310A08E1310A08D7310A0867
:104BAC0093310A0800000000000000003D320A08A2
:104BBC0047320A0851320A085B320A0865320A0881
:104BCC0071320A087D320A0889320A0891320A08C1
:104BDC009B320A08A5320A0853756E4D6F6E5475D8
:104BEC00655765645468754672695361744A616EA1
:104BFC004665624D61724170724D61794A756E4ABB
:104C0C00756C4175675365704F63744E6F76446570
:104C1C0063252E337320252E337325336420252EE4
:104C2C0032643A252E32643A252E32642025640AE9
:104C3C000000202020202020202020282828282880
:104C4C002020202020202020202020202020202058
:104C5C0020208810101010101010101010101010B0
:104C6C0010100404040404040404040410101010B0
:104C7C00101010414141414141010101010101016B
:104C8C0001010101010101010101010101101010DB
:104C9C00101010424242424242020202020202023E
:104CAC0002020202020202020202020202101010AE
:104CBC0010200000000000000000000000000000B8
:104CCC0000000000000000000000000000000000D8
:104CDC0000000000000000000000000000000000C8
:104CEC0000000000000000000000000000000000B8
:104CFC0000000000000000000000000000000000A8
:104D0C000000000000000000000000000000000097
:104D1C000000000000000000000000000000000087
:104D2C000000000000000000000000000000000077
:104D3C000000000000000000000000000000000067
:104D4C000000000000000000000000000000000057
:104D5C000000000000000000000000000000000047
:104D6C000000000000000000000000000000000037
:104D7C000000000000000000000000000000000027
:104D8C000000000000000000000000000000000017
:104D9C00000000001F0000001C0000001F000000AD
:104DAC001E0000001F0000001E0000001F0000007D
:104DBC001F0000001E0000001F0000001E0000006D
:104DCC001F0000001F0000001D0000001F0000005D
:104DDC001E0000001F0000001E0000001F0000004D
:104DEC001F0000001E0000001F0000001E0000003D
:104DFC001F000000545A00474D54002531305B5EB3
:104E0C00302D392C2B2D5D256E004D256875256EAA
:104E1C002E256875256E2E256875256E002F256844
:104E2C0075256E3A256875256E3A256875256E00D0
:104E3C0091040A083D060A08CD080A08E50F0A087D
:104E4C007D130A08B91B0A08D9220A087D2A0A0808
:104E5C00B52B0A08ED2B0A0829320A080D330A086B
:104E6C0005340A0849340A08C9340A084D350A08B9
:104E7C0011360A08D5360A080000000000000000B0
:044E8C000000000022
:104E90000000000000000000000000000000000012
:104EA0000000000000000000000000000000000002
:104EB00000000000000000000000000000000000F2
:104EC00000000000000000000000000000000000E2
:104ED00000000000000000000000000000000000D2
:044EE00000000000CE
:104EE400746573742E4D6F7371756974746F2E6F5E
:104EF400726700000103070F1F3F7F0080C0E0F0CE
:104F0400F8FCFE00000000000000000000000000AB
:104F1400000000000000000000000000000000008D
:104F2400000000000000000000000000000000007D
:104F3400000000000000000000000000000000006D
:104F440000008080800000000000000000000000DD
:104F5400000000008080C0C00000000000000000CD
:104F6400000000000000000000000000000000003D
:104F7400000000000000000000000000000000002D
:104F8400000000000000000000000000000000001D
:104F94000000000000000080C0E0F0F8FCF8E00031
:104FA40000000000000000000000000000000000FD
:104FB400808080808000808000000000808080806D
:104FC4008000FFFFFF0000000080808080000080E0
:104FD40080000080FFFF80800080800080808080CF
:104FE4000080800000000000808000008C8E84001F
:104FF4000080F8F8F88000000000000000000000C5
:10500400000000F0F0F0F0F0F0F0F0F0F0F0F0E07C
:10501400E0C08000E0FCFEFFFFFF7FFFFFFFFFFF1B
:105024000000000000000000000000000000FEFF7F
:10503400C70101010183FFFF00007CFEC7010101DC
:105044000183FFFFFF0038FEC78301010183C7FF0F
:10505400FF000001FFFF010100FFFF070101010044
:10506400007FFF80000000FFFF7F0000FFFFFF00C4
:105074000001FFFFFF01000000000000000000002D
:10508400000000030F3F7F7FFFFFFFFFFFFFFFE7ED
:10509400C7C78F8F9FBFFFFFC3C0F0FFFFFFFFFF96
:1050A400FCFCFCFCFCFCFCFCF8F8F0F0E0C00001AB
:1050B40003030303030103030000000001030303CC
:1050C40003010103010000000103030303010103C1
:1050D40003000000030300000003030000000000BD
:1050E40000000103030303030100000001030100A6
:1050F40000000303010000000000000000000000A5
:1051040000000000000080C0E0F0F9FFFFFFFFFF97
:105114003F1F0F87C7F7FFFF1F1F3DFCF8F8F8F884
:105124007C7DFFFFFFFFFFFFFFFF7F3F0F07003086
:10513400300000000000000000000000000000003B
:1051440000000000000000FEFEFC00000000000063
:10515400000000000000000000000000000000004B
:10516400E0C000000000000000000000003030003B
:10517400000000000000000000000000000000002B
:1051840000000000C0FEFFFFFFFFFFFFFFFFFF7FE7
:105194007F3F1F0F071F7FFFFFF8F8FFFFFFFFFF91
:1051A400FEF8E0000000010000000000000000FE26
:1051B400FE000000FCFEFC0C06060EFCF80000F0ED
:1051C400F81C0E0606060CFFFFFF0000FEFE0000A2
:1051D4000000FCFEFC00183C7E66E6CE840000065F
:1051E400FFFF0606FCFEFC0C0606060000FEFE00A1
:1051F40000C0F8FC4E4646464E7C7840183C76E6A5
:10520400CECC800000000000000000000000000080
:105214000000000000000001070F1F1F3F3F3F3F39
:105224001F0F030000000000000000000000000F3A
:105234000F0000000F0F0F000000000F0F0000030D
:10524400070E0C18180C060F0F0F0000010F0E0CA0
:10525400180C0F070100040E0C180C0F07000000B7
:105264000F0F00000F0F0F0000000000000F0F00D1
:10527400000007070C0C181C0C060600040E0C1882
:105284000C0F0700000000000000000000000000F8
:10529400000000000000000000000000000000000A
:1052A40000000000000000000000000000000000FA
:1052B40000000000000000000000000000000000EA
:1052C40000000000000000000000000000000000DA
:1052D40000000000000000000000000000000000CA
:1052E40000000000000000000000000000000000BA
:1052F40000000000000000000000000000000000AA
:1053040000000000D64A0A083D4C0A0800000000CC
:10531400404D0A08604D0A08804D0A08000000004C
:1053240000000000000000000000000091430A0893
:105334000000000000000000000000000000000069
:105344000000000000000000000000000000000059
:105354000000000000000000000000000000000049
:105364000000000000000000000000002C040020E9
:10537400034E0A08034E0A08010000000000000062
:105384004A000000000000000000000000000000CF
:105394000000000000000000000000004A000000BF
:1053A40000000000000000000000000000000000F9
:0C53B4000000000000000000600B002062
:1053C000FFFFFFFF00000102030405060708090AAA
:1053D0000B0C0D0E0F101112131415161718191AA5
:0853E0001B1C1D1E1F202800EC
:0453E80078563412AD
:04000005080A001CC9
:00000001FF
