:02000004080AE8
:1000000000000A0800570A08000006000600050163
:0800100004027E05000000005F
:0400180060480A082A
:10001C0009480A4908B5884205D0094A824202D0EB
:10002C00121A04F0D3FB0748074A0021121A04F0F5
:10003C00D8FB064808BD00BF000000204C520A083F
:10004C008C0400208C040020D80A0020D80A002040
:10005C0070B502F09FFD074B074C1E46E41AA4082E
:10006C000025A54204D056F8253098470135F8E70D
:10007C0070BD00BFEC510A0838520A0800F024B8D1
:10008C0008B500F05BF8BDE8084002F045BD01F092
:10009C0095BF01F093BF01F099BF01F097BF00002D
:1000AC0008B5034A00210C2001F0FCFEFEE700BF5E
:1000BC000D1C0A080078B0FA80F040097047012343
:1000CC00037070477047000013B502F07FFE4FF4C9
:1000DC00165102F05BFE00F0EFF820B902F076FE4C
:1000EC00114902F058FB02F071FE044600F0F2F8E0
:1000FC0003F0ECFB02230246009320460B4602F071
:10010C0059FC0A490A4800F0CBFE094800F0E3FD0F
:10011C0038B1084A0849064802B0BDE8104000F062
:10012C003EBF02B010BD00BF74480A088B480A08D5
:10013C009004002099480A08AB480A082DE9F047BA
:10014C0046488AB000F0C7FD10B1444800F06EFF7D
:10015C00002401AF04AD07AE01947C603C81049493
:10016C006C602C8107947460348100F0B3F8824683
:10017C0000F0BCF8814600F0B3F88046504603F01E
:10018C00A5FB02460B463846354901F02FFF484681
:10019C0003F09CFB02460B463046314901F026FF2A
:1001AC003049404604F0A0F803F090FB0B460246A1
:1001BC002B49284601F01AFF3A462B49274800F0F4
:1001CC00EEFE052002F056FC2A462849234800F092
:1001DC00E6FE052002F04EFC254932461F4800F091
:1001EC00DEFE02F0F3FD234902F0D5FA02F0EEFD3B
:1001FC00395D013402F0D3FA0A2CF7D102F0E6FD96
:10020C0002F0D0FA02F0E2FD1B4902F0C4FA00241D
:10021C0002F0DCFD315D013402F0C1FA0A2CF7D199
:10022C0002F0D4FD02F0BEFA02F0D0FD134902F048
:10023C00B2FA002402F0CAFD295D013402F0AFFAD3
:10024C000A2CF7D102F0C2FD02F0ACFA42F21070A7
:10025C0002F010FC0AB0BDE8F08700BF900400204B
:10026C00B3480A080000C842B8480A08CB480A0834
:10027C00D8480A08EA480A08F1480A08F8480A085F
:10028C0010B5084C01F05CFC40F25B72064920464C
:10029C00064B00F039FC2046BDE81040044A0549E5
:1002AC0003F060B89004002000000020D1000A0880
:1002BC008C04002045120A0808B502F087FD02F0F4
:1002CC006CFD20B1BDE80840014801F0D9BA08BD69
:1002DC00E8040020014801F0E7BA00BFE804002060
:1002EC00014801F00BBB00BFE8040020014801F0FD
:1002FC00DBBB00BFE804002008B501F021FCBDE821
:10030C000840014800F0DCBFE8040020704710B53D
:10031C000446242103F02BF8204610BD10B5074CE1
:10032C0001F00EFC0421204600F0CEF92046BDE879
:10033C001040034A034903F015B800BF2C050020F8
:10034C008C04002019030A08F0B5447EBDF8145043
:10035C00022C08D0032C0FD0012C70D10489013C45
:10036C00A21A12B20CE04489013CA21A048912B2FE
:10037C00E41A611A09B262E04489E41A611A09B2FA
:10038C00002A5BDBB0F90840944240F390800029CE
:10039C00BEBF5B181BB20021B0F90A00CC18844216
:1003AC00C4BF431A1BB2002B40F38180C9B2C808EA
:1003BC003F4F02EBC01211F00701DBB207EB020456
:1003CC0017D0C1F10801C8B23A4983420E5C3FBF55
:1003DC00C3EB000EFF2141FA0EF10E40B95C012D6A
:1003EC000CBF3143B1438342B95460D3181AC3B222
:1003FC008034072B17D9012D0CBFFF2000201A4683
:10040C0004F18001083AD2B2072A01F8800C01F1FC
:10041C008001F7D8A3F10802C2F3C402013204EB45
:10042C00C21403F00703002B41D0234A012DD25CE8
:10043C0023780CBF134393432370F0BDF0BD002A07
:10044C0035DBB0F90A40944231DD0029BCBFC91834
:10045C000BB2B0F90870B8BF0021CE18BE42C4BFB1
:10046C00631A1BB2002B22DDD01001EBC011104817
:10047C0002F007020144012000FA02F28542D2B2D6
:10048C0009D1013B1BB25C1C11D011F8010B1043BC
:10049C0001F8010CF5E7D243D2B2013B1BB2581C58
:1004AC0005D011F8010B104001F8010CF5E7F0BD77
:1004BC00230000201B00002013000020F0B5447E18
:1004CC00BDF81450022C08D0032C0FD0012C12D1E3
:1004DC000489E41AA21A12B26DE00489013C611A73
:1004EC00448909B2E41AA21A12B204E04489013C0C
:1004FC00611A09B25FE000295CDBB0F908408C425C
:10050C0040F39180002ABCBFD21813B2B0F90A0094
:10051C00B8BF0022D4188442C4BF831A1BB2002B6C
:10052C0040F38180D4B2404EDAB2E30801EBC31140
:10053C0014F0070406EB010317D0C4F10804E0B271
:10054C003A4C8242275C3FBFC2EB000EFF2444FAB8
:10055C000EF42740745C012D0CBF3C43BC4382421B
:10056C00745460D3101AC2B28033072A17D9012DE4
:10057C000CBFFF240024114603F180000839C9B2D6
:10058C00072900F8804C00F18000F7D8A2F108018F
:10059C00C1F3C401013103EBC11302F00702002ABD
:1005AC0041D02349012D895C1A780CBF0A438A4338
:1005BC001A70F0BDF0BD002935DBB0F90A408C4251
:1005CC0031DD002ABCBFD21813B2B0F90870B8BF25
:1005DC000022D618BE42C4BFA31A1BB2002B22DDC8
:1005EC00C81002EBC012104801F0070110440122A0
:1005FC0002FA01F19542C9B209D15A1E13B25C1C20
:10060C0011D010F8012B0A4300F8012CF5E7C9436F
:10061C00C9B25A1E13B25A1C05D010F8012B0A404D
:10062C0000F8012CF5E7F0BD230000201B00002092
:10063C0013000020F8B50D1E064614461F463FDB7E
:10064C0000F013FA85423BDA002C39DB304600F01F
:10065C000FFA844234DA304600F005FA022827D12A
:10066C003189708901390138491B001B0DB204B264
:10067C0006E0012804D13389013B1B1B2C461DB21B
:10068C00082094FBF0F0012F00B20E4B04F007028F
:10069C0005EBC01104D197405A5C17435F54F8BD69
:1006AC00585C012707FA02F220EA02025A54F8BDFC
:1006BC000328DED17389013B5B1B25461CB2DFE7A7
:1006CC00F8BD00BF2300002038B504460D4640227B
:1006DC00802100F0E7F8064B84F820502360FF23BC
:1006EC00637784F82130E377A377204638BD00BFC9
:1006FC0008490A0801F024BA2DE9F04F1E4685B0CE
:10070C00BDF9383015469A1A002AB8BF52420092E9
:10071C00721A002AB8BF524201920C46009A0199F3
:10072C0081468A42BDF83CA005DD32461E46134682
:10073C0022462C461546B44205DD2A461D46134674
:10074C002246344616465A1B002AC4EB0608B8BF8C
:10075C0052421FFA88F803920FFA88F702229D4240
:10076C00B4BF01234FF0FF3397FBF2F70293B4426F
:10077C001FDC019A009B48469342D9F80030C8BF51
:10078C002246D3F810B0C8BF29465346DCBF2A46D0
:10079C002146D847039BFF1ABBB21FB2002F05DAC4
:1007AC00029A08EB030715442DB23FB2013424B270
:1007BC00DDE705B0BDE8F08F2DE9F347044691461F
:1007CC000D469846BDF82C600768BDF928A0009628
:1007DC00FF69B84723680AF1FF3200964A44DF6983
:1007EC0029464346204612B2B847236800969F69B3
:1007FC004A46534629462046B847236808F1FF313C
:10080C000A9629449D694A4653462046AC4609B28D
:10081C0002B0BDE8F047604737B5013BBDF8185052
:10082C00134404681BB20093019564690B46A047FE
:10083C0003B030BD37B5BDF8185004688DE82400FE
:10084C00013B0B4464691BB2A04703B030BD2DE9DA
:10085C00F347054617460C46BDF92880BDF82C9089
:10086C0001EB030A54450BDA2B68CDF800909E6916
:10087C00214643463A4628460134B04724B2F1E7B4
:10088C0002B0BDE8F08713B5B0F90E2004680191F1
:10089C0000920022B0F90C30646A1146A04702B0F5
:1008AC0010BD7047018181814FF6FF7130B5074D46
:1008BC0000244281C2810122446005604476048296
:1008CC0044820276C1828182827630BD40490A0818
:1008DC002DE9F04F8FB00691BDF8601004460791DA
:1008EC00BDF864109DF868800891B0F90C1006985A
:1008FC0081427DDDB4F90E10914279DD062101FBB8
:10090C000800002874DD02EBC800002870DD03EB42
:10091C00830395B20C9305F108039BB20991002651
:10092C000D932F46A946052E1FBF334B0C9A9B19CE
:10093C0013F802A01FFA88F304930499BDF8183039
:10094C00B2B201FB0231134409B20A911BB20FFA85
:10095C0088F108BF4FF0000A059503910B931AF02C
:10096C00010F11D0B8F1010F236803D1D3F810B0E7
:10097C00079B14E0079A0192039A0092D3F824B0D3
:10098C0013460FFA89F218E0079B089A934217D086
:10099C00B8F1010F236807D1D3F810B013463AB25F
:1009AC000B992046D8470BE0089A0192039A0092C3
:1009BC00D3F824B01346BDF914200A992046D84721
:1009CC00049B049A9944059B013713449BB20593ED
:1009DC000D9BBFB29F424FEA5A0A1FFA89F9BED14A
:1009EC00099B0136013B13F0FF0376B2099398D1B2
:1009FC000FB0BDE8F08F00BF70490A0830B50A2966
:100A0C0085B004460B4604D1027E438A03EBC20335
:100A1C0023E00D2924D0057EB0F91220B0F9101076
:100A2C000295C58A0195858A0095FFF751FF227EB4
:100A3C00238A91B201EB410003EB4003A07E1BB271
:100A4C00238268B1B4F90C006FF0050505FB0202B6
:100A5C00934205DD638A03EBC10363820023238287
:100A6C00012005B030BD407E7047B0F90C007047D6
:100A7C00B0F90E00704701F063B8000038B50B4BAD
:100A8C008469054603607CB16368013B63605BB9B4
:100A9C00236820469B689847A368013BA3601BB959
:100AAC0023682046DB689847284638BD0C4F0A0857
:100ABC0010B50446FFF7E2FF20461C2102F057FC5C
:100ACC00204610BD38B51D46059B04460363002324
:100ADC00436302B1826419B104F1380001F024FEC1
:100AEC00049BE0692365069BA4F84C50FF2BB8BF10
:100AFC00FF23A4F8543008B1FFF7CFFAB4F8540030
:100B0C00FFF7C7FAE06138BD2DE9FF4104461746EF
:100B1C0098460E46002501F055FDE5610A4904F1A1
:100B2C00380001F0EEFDFF2302930F2300932046C3
:100B3C00A564CDF804803B462A463146FFF7C2FF38
:100B4C00204604B0BDE8F08123500A0810B50446D5
:100B5C00204601F0CBFB0028FAD0204601F07BFBAD
:100B6C00C0B210BD2DE9F0470546C4698A46FFF7AF
:100B7C00EDFF4FF0010846462070EB69002793F813
:100B8C00009009F0F0092846FFF7E0FFEB69741CB0
:100B9C00985500F07F0303FB08770306A4B2BFB29D
:100BAC004FEAC81801D52646EDE7631EB9F1300FA0
:100BBC008AF8003013D12846D5F81C80FFF7C6FF01
:100BCC0008F804002846D5F81C80FFF7BFFFF41C7A
:100BDC000236B6B2A4B208F80600022300E00023E5
:100BEC001B1B9EB2A3199BB29F420BD92846FFF741
:100BFC00ADFFB5F85430A34284BFEB6918550134EE
:100C0C00A4B2EFE7B5F85400A0422CBF2046002058
:100C1C00BDE8F087F7B507468E461E461D460024F4
:100C2C0005F07F0302A9ED09214418BF43F08003AE
:100C3C00013401F8043CE4B2002DF1D1C4F10403F9
:100C4C00D11802F803E0A54206DA01A82B1B285C98
:100C5C00134458710135F6E7721C2244384601F0F2
:100C6C00A2FA054600F0D4FF013478623444A8B2ED
:100C7C00231A5842584103B0F0BD10B50446C3695D
:100C8C00E0221A70C36900225A70C169022201F075
:100C9C008AFA204601F066FB00F0BAFF6062A0629F
:100CAC0010BDF0B50D4602339BB26C1A15F8016BF2
:100CBC00A4B23EB1B0F854709F4203D95C1CD65418
:100CCC00A3B2F2E7191B0A44211202F8021C02F823
:100CDC00014C1846F0BD38B5054601F004FC00285F
:100CEC0014BF0124002402D1284601F03BFB20460E
:100CFC0038BD00002DE9F04387B0044689461746FD
:100D0C001E46DDF83880FFF7E6FF0546002840F068
:100D1C00BD80A16C39B90346B4F84C20A16B2046B8
:100D2C0001F072FC09E0684601F0D0FF2B46B4F8E4
:100D3C004C206946204601F02FFB002800F0A280D1
:100D4C00012323849DF84C30042B15D1524B186889
:100D5C009A880090ADF804209B79E26900988DF890
:100D6C000630C2F80500531DBDF804109DF806208E
:100D7C0099809A710C2312E06A46484BD4F81CC037
:100D8C00186859681B7A03C213706B4603CBCCF8F6
:100D9C000500CCF8091013788CF80D300E23B8F13F
:100DAC00000F0AD09DF840209DF83C10520142F0F3
:100DBC00060242EAC102D2B200E002229DF84810BB
:100DCC0009B902F0FD022FB116B942F0800201E020
:100DDC0042F0C002E169581CCA54226DE16912123A
:100DEC000A54E169206D9A1C88540333E269494620
:100DFC002046FFF756FFB8F1000F0BD00346E2690F
:100E0C0041462046FFF74DFFE26903461199204603
:100E1C00FFF747FF67B10346E26939462046FFF703
:100E2C0040FF2EB10346E26931462046FFF739FFF9
:100E3C00431F9BB2E26910212046FFF7EBFE00F046
:100E4C00E7FE4FF47A766062A062204601F04EFA1B
:100E5C0040B900F0DDFEA36AC01A236D73439842BB
:100E6C00F3D90FE069462046FFF77CFE042809D130
:100E7C00E369DE7836B900F0CBFE0125A06284F878
:100E8C002C6004E0204601F06DFA00E000252846B5
:100E9C0007B0BDE8F08300BF6B4E0A08724E0A081B
:100EAC007FB504230593012304930023039302933A
:100EBC00019300931A46FFF71DFF07B05DF804FB82
:100ECC002DE9F14F0D9E04468B4691469A469DF8AE
:100EDC0028809DF82C509DF83070FFF7FCFE002800
:100EEC004BD0B4F854200021E06903F07AFC0523C0
:100EFC00E26959462046FFF7D4FE6B1E012B12D82F
:100F0C00238CE26901339BB223841B121354411CC2
:100F1C00E369228C89B2023080B25A541EB1238C00
:100F2C005A1C22843380002291B283188A459BB2CA
:100F3C0009D9B4F8546001329E4204D919F8016001
:100F4C00E169CE54F0E7B8F1000F0CBF302131212C
:100F5C000FB141F00801022D02D141F0040103E070
:100F6C00012D08BF41F002012046053BE2699BB20E
:100F7C0001B0BDE8F04FFFF74DBE01B0BDE8F08FFA
:100F8C001FB5089C0394002402949DF81C40019406
:100F9C009DF818400094FFF793FF04B010BD7FB587
:100FAC00054610460E46144603F04CFC00230293F3
:100FBC00019300932246034631462846FFF7E0FF93
:100FCC0004B070BD38B504460D46FFF784FE90B1F1
:100FDC00E36962221A70E36902225A70E3692A12E9
:100FEC009A70E3690422DD70E169204601F0DBF8B8
:100FFC00003018BF012038BD38B504460D46FFF748
:10100C006AFE90B1E36972221A70E36902225A7087
:10101C00E3692A129A70E3690422DD70E1692046C3
:10102C0001F0C1F8003018BF012038BD2DE9F04F98
:10103C0083B000AF0446FFF74EFE8146002800F057
:10104C00F68000F0E5FD226D4FF47A735343A26AEB
:10105C000546821A9A4203D8626A821A934217D2C0
:10106C0094F82C302BB1204601F07CF94FF000099C
:10107C00DDE0E269C0211170E26920465370E1693C
:10108C00022201F090F801236562A56284F82C30ED
:10109C00204601F02BF9002800F0C980F91D2046EC
:1010AC00FFF760FD0246002800F0C180E369A562ED
:1010BC00187800F0F00130297DD1D4F830B0BBF1B4
:1010CC00000F00F0B48097F807C0EA4603EB0C0061
:1010DC00817890F801E001EB0E2E1FFA8EFE0EF1D6
:1010EC00080121F00701ADEB010D684600218EB21D
:1010FC00B64506D90CEB01061E44F6784654013170
:10110C00F5E7002100F80E101E780CF1030106F033
:10111C000606022ECCEB02021ED1714413F801809C
:10112C0019444978CEEB020201EB08280CF10501B9
:10113C007144053A1944D847E36940221A70E369AF
:10114C001FFA88F85E70E3694FEA28229A70E36907
:10115C00042283F8038020E0042E24D1714413F878
:10116C00018019444978CEEB020201EB08280CF1FE
:10117C0005017144053A1944D847E36950221A70A5
:10118C00E36902225A70E3691FFA88F84FEA2822B1
:10119C009A703246E36983F80380E169204601F0D6
:1011AC0002F8656205E0033A7144CEEB0202194481
:1011BC00D847D5463BE0502908D19978DB782046B2
:1011CC0003EB012189B2FFF7FDFE30E040290CD082
:1011DC00602908D19978DB78204603EB012189B28C
:1011EC00FFF70AFF23E070290DD1616BF9B1042AD6
:1011FC001DD110F0060F1AD19878DB7803EB002084
:10120C0080B2884713E0902911D0C0290AD1D0228E
:10121C001A70E36900225A70E1690222204600F03C
:10122C00C2FF04E0D02904BF002384F82C304846C8
:10123C000C37BD46BDE8F08F10B50446FFF74BFDEB
:10124C0010B12046FFF719FDE06908B1FEF725FF44
:10125C0004F1380001F00EFA2046FFF70FFC20468F
:10126C0010BD00F06DBC00007FB502461379084636
:10127C00956833B13DB90C4904B0BDE8704001F03C
:10128C008ABA0A4B00E00A4B167B0A4C0A49527B7D
:10129C00012E08BF2146029201910095074A0021B8
:1012AC0001F096FB04B070BD994E0A0823500A0851
:1012BC00884E0A08914E0A08954E0A08AF4E0A0845
:1012CC00FF22027442748274C27470472DE9F0419B
:1012DC0090F91330054601330F4604D11648BDE88A
:1012EC00F04100F03DBF072600244FF0010895F9AE
:1012FC001300002180B201F0AEFF95F9110008FA3D
:10130C0006F1394080B201F0A6FF95F913000121D6
:10131C0080B201F0A0FF95F91200640080B2E4B233
:10132C0001F0B2FF08B144F0010416F1FF36DED231
:10133C002046BDE8F08100BFE40900207FB590F99C
:10134C001030044601330E46154611D10179006860
:10135C0001F070FE2068314603689B68984720684E
:10136C00294603689B689847206801F06BFE2FE0C4
:10137C0090F9133001330FD1164B174A0093029298
:10138C0000230122694615488DF804308DF80C2095
:10139C008DF80D3000F074FE94F91000002180B22D
:1013AC0001F059FF06F07F012046FFF78FFF294619
:1013BC002046FFF78BFF94F91000012180B201F059
:1013CC004AFF94F91330013302D1044800F03FFE78
:1013DC0004B070BD844E0A0820A10700E409002067
:1013EC00F8B5044690F83C509DF8186061F38715E9
:1013FC0062F3020563F3C50590F840309DF81CE0DC
:10140C0066F3471380F8403090F838309DF8207020
:10141C006EF3C50367F3020380F83C5080F8383054
:10142C0006F00702F221FFF789FF94F838202046D6
:10143C00C2F3C20302F007019B0043EA411343EAE3
:10144C00D212F521FFF77AFF94F83C202046C2F324
:10145C00C20302F007019B0043EA411343EA9212D4
:10146C00F421BDE8F840FFF769BF000030B590F9F2
:10147C00103085B0013304460D4616D10179006851
:10148C0001F0D8FD2068294603689B6898472068BE
:10149C0001F0D8FD01222179206801F0C8FD2068F7
:1014AC0003685B699847C5B230E090F9133001339B
:1014BC000FD1184B184A009302920023012269465F
:1014CC0016488DF804308DF80C208DF80D3000F096
:1014DC00D7FD94F91000002180B201F0BCFE45F05C
:1014EC0080012046FFF7F2FE00212046FFF7EEFEBA
:1014FC00054694F91000012180B201F0ACFE94F97C
:10150C001330013302D1054800F0A1FD284605B087
:10151C0030BD00BF844E0A0820A10700E40900205A
:10152C0030B590F9103085B0013304460D461DD10D
:10153C000179006801F07EFD2068294603689B68EC
:10154C009847206801F07EFD02222179206801F085
:10155C006EFD206803685B69984705462068036840
:10156C005B69984740EA052085B237E090F9133063
:10157C0001330FD11B4B1C4A009302920023012212
:10158C0069461A488DF804308DF80C208DF80D3012
:10159C0000F076FD94F91000002180B201F05BFEA2
:1015AC0045F080012046FFF791FE00212046FFF711
:1015BC008DFE002105462046FFF788FE40EA0520F7
:1015CC0085B294F91000012180B201F044FE94F927
:1015DC001330013302D1054800F039FD284605B01F
:1015EC0030BD00BF844E0A0820A10700E40900208A
:1015FC0008B5FFF795FF40BA80B208BD30B590F939
:10160C00103085B0013304460D4621D101790068B4
:10161C0001F010FD2068294603689B6898472068F4
:10162C0001F010FD03222179206801F000FD2068F3
:10163C0003685B6998470502206803685B699847F3
:10164C0028430502206803685B69984705433BE023
:10165C0090F9133001330FD11D4B1E4A00930292A7
:10166C000023012269461C488DF804308DF80C20AB
:10167C008DF80D3000F004FD94F91000002180B2BB
:10168C0001F0E9FD45F080012046FFF71FFE002127
:10169C002046FFF71BFE002105022046FFF716FE31
:1016AC002843050200212046FFF710FE054394F95C
:1016BC001000012180B201F0CEFD94F913300133FA
:1016CC0002D1054800F0C3FC284605B030BD00BF70
:1016DC00844E0A0820A10700E409002038B58821AF
:1016EC000446FFF785FF8A21A0822046FFF780FF82
:1016FC008C21E0822046FFF77BFF8E212083204641
:10170C00FFF776FF902160832046FFF771FF92214F
:10171C00A0832046FFF76CFF9421E0832046FFF75F
:10172C0067FF962120842046FFF762FF9821608492
:10173C002046FFF75DFF9A21A0842046FFF758FF53
:10174C009C21E0842046FFF753FF9E2120852046F4
:10175C00FFF74EFFA12160852046FFF787FEE121B0
:10176C0084F82C002046FFF743FFE321E085204658
:10177C00FFF77CFEE42184F830002046FFF776FE6C
:10178C00E52105462046FFF771FE00F00F0040EA08
:10179C0005106086E6212046FFF768FEE521054628
:1017AC002046FFF763FE001140EA0510A086E721F2
:1017BC002046FFF75BFE84F8360038BD08B5F321F0
:1017CC00FFF754FE00F0010008BD000030B50446E0
:1017DC0090F9100085B0421C03D1206801F018FC70
:1017EC0021E0012180B201F036FD94F910000121B5
:1017FC0080B201F01FFD94F91300431C03D11F4864
:10180C0000F020FC0FE0012180B201F013FD94F9EF
:10181C001100012180B201F00DFD94F9120000219C
:10182C0080B201F007FDD0212046FFF71FFE602893
:10183C00A06020D12046B622E021FFF77FFD4FF4B7
:10184C00967001F017F92046FFF7B8FF054608B16E
:10185C006420F6E72046FFF741FF052300931A4664
:10186C000321204602950195FFF7BAFD642001F093
:10187C0001F9012000E0002005B030BDE409002092
:10188C00772310B50371044601F04CFD206020460F
:10189C00FFF79CFF30B9762323712046BDE810403A
:1018AC00FFF794BF10BD000010B5FA210446FFF7F6
:1018BC00A5FEB0F5000F1BD0A28AC2EB20235B4320
:1018CC005200C2EBE010B4F916201B135043B4F9CC
:1018DC00182053439B1303EBE020E06000EB8000E7
:1018EC008030001202F0F8FB024902F0FDFC10BD42
:1018FC00014810BD0000C8420000C07F2DE9F84F20
:10190C000646FFF7D1FFF7213046FFF777FEB0F51B
:10191C00000F074600F0BF80F468B6F91C20E517ED
:10192C00B4F5FA3445F1FF35A4FB048904FB05F347
:10193C0002FB05F109EB4309D31704FB0311A2FBCE
:10194C0004230B44190341EA12511003B6F91E206B
:10195C0002FB09FED31708FB03EEA2FB082373441A
:10196C004FEA122A4AEA036A1AEB000A728B4FEA10
:10197C00232B4BEB010B1AF100004BF50041A0FBA4
:10198C0002AB02FB01BB4FEA6B024FEAEB7352EA6C
:10199C00030100F08380381140F63547B6F924A0D6
:1019AC00C0F580100AFB09F14FEAEA7B08FB0B112A
:1019BC00AAFB0889B6F922A089440AFB05F14FEA73
:1019CC00EA7B04FB0B11AAFB04450D444FEA454B83
:1019DC004FEA444A1AEB080A4BEAD43B4BEB090B8F
:1019EC004FEAE0794FEAC97545EA5005C407B6F9E4
:1019FC0020004FF0000818EB0A084FEAC00949EB29
:101A0C000B09B4EB0804A4FB070165EB090507FB04
:101A1C00051102F005FDB6F92A204C1302FB04F760
:101A2C00450B45EAC145D31705FB0377A2FB0523FC
:101A3C0054433B4405FB0344A2FB05232344540EAF
:101A4C0044EAC314B6F9282024184FEA63654D41C3
:101A5C005143D31700FB0313A2FB00011944C20C22
:101A6C0042EA41321219B6F926404FEAE1436B4182
:101A7C00100AE517220140EA036019122B0143EA10
:101A8C0014738018594102F03DFB4FF06E5102F077
:101A9C0077FBBDE8F88F0348BDE8F88F0020BDE860
:101AAC00F88F00BF0000C07F10B50446FFF7FCFEA6
:101ABC00FD212046FFF734FDB0F5004F3AD0B4F9C4
:101ACC003230E268B4F934101B05A2F59632C3EB40
:101ADC00803302FB113303F58043D81394F8303074
:101AEC0094F9361053434A43DB12921203F5004328
:101AFC005343B4F92E209B1203F50013534303F503
:101B0C0000539B134343D813404394F82C20C0112B
:101B1C005043A3EB201020EAE070B0F1C85FA8BFDF
:101B2C004FF0C850001302F0D7FA4FF06A5102F090
:101B3C0027FB10BD004810BD0000C07F00F000B8AE
:101B4C0008B5024B1B681B68019308BDB001060861
:101B5C0008B5024B1B689B68019308BDB0010608D1
:101B6C0008B5024B1B68DB68019308BDB001060881
:101B7C0008B5024B1B681B69019308BDB001060830
:101B8C0008B5024B1B685B69019308BDB0010608E0
:101B9C0008B5024B1B681B68019308BDB40106080D
:101BAC0008B5024B1B685B69019308BDB4010608BC
:101BBC0008B5024B1B68DB69019308BDB40106082C
:101BCC0008B5024B1B681B6A019308BDB4010608DB
:101BDC0008B5024B1B685B6A019308BDB40106088B
:101BEC0008B5024B1B68DB6B019308BDB4010608FA
:101BFC0008B5024B1B685B68019308BD9C01060885
:101C0C0008B5024B1B68DB68019308BD9C010608F4
:101C1C0008B5024B1B685B69019308BD9C01060863
:101C2C0008B5024B1B681B6B019308BDD00106085D
:101C3C0008B5024B1B689B6B019308BDD0010608CD
:101C4C0008B5024B1B681B6C019308BDD00106083C
:101C5C0008B5024B1B689B69019308BDC4010608BB
:101C6C0008B5024B1B685B6A019308BDC4010608EA
:101C7C0008B5024B1B689B6A019308BDC40106089A
:101C8C0008B5024B1B68DB6A019308BDC40106084A
:101C9C0008B5024B1B681B6B019308BDC4010608F9
:101CAC0008B5024B1B685B6B019308BDC4010608A9
:101CBC0008B5024B1B689B6B019308BDC401060859
:101CCC0008B5024B1B681B6C019308BDC4010608C8
:101CDC0008B5024B1B68DB6C019308BDAC01060810
:101CEC0008B5024B1B685B6D019308BDAC0106087F
:101CFC0008B5024B1B689B6D019308BDAC0106082F
:101D0C0008B5024B1B68DB6D019308BDAC010608DE
:101D1C0008B5024B1B681B6E019308BDAC0106088D
:101D2C0008B5024B1B685B6E019308BDAC0106083D
:101D3C0008B5024B1B689B6E019308BDAC010608ED
:101D4C0008B5024B1B68DB6E019308BDAC0106089D
:101D5C0008B5024B1B681B6F019308BDAC0106084C
:101D6C0008B5024B1B685B6F019308BDAC010608FC
:101D7C0008B5034B1B68D3F88030019308BD0000F5
:101D8C00AC01060808B5024B1B681B68019308BD23
:101D9C00BC01060808B5024B1B685B68019308BDC3
:101DAC00BC01060808B5024B1B689B68019308BD73
:101DBC00BC01060808B5024B1B68DB68019308BD23
:101DCC00BC01060808B5024B1B681B69019308BDD2
:101DDC00BC01060808B5024B1B681B6A019308BDC1
:101DEC00BC01060808B5024B1B681B6B019308BDB0
:101DFC00BC01060808B5024B1B685B6C019308BD5F
:101E0C00BC01060808B5024B1B681B68019308BD92
:101E1C00D801060808B5024B1B685B68019308BD26
:101E2C00D801060808B5024B1B681B69019308BD55
:101E3C00D801060808B5024B1B685B69019308BD05
:101E4C00D801060808B5024B1B689B69019308BDB5
:101E5C00D801060808B5024B1B68DB69019308BD65
:101E6C00D801060808B5024B1B681B6A019308BD14
:101E7C00D801060808B5024B1B685B6A019308BDC4
:101E8C00D801060808B5024B1B685B6C019308BDB2
:101E9C00C001060808B5024B1B689B6C019308BD7A
:101EAC00C001060808B5024B1B685B6B019308BDAB
:101EBC00A801020808B5024B1B681B6D019308BDF5
:101ECC00A801020808B5024B1B685B68019308BDAA
:101EDC00A401060808B5024B1B685B69019308BD99
:101EEC00A401060808B5034B1B68D3F89030019386
:101EFC0008BD0000A401060808B5034B1B68D3F805
:101F0C009C30019308BD0000A401060808B5024BE3
:101F1C001B685B68019308BDC801060808B5024B35
:101F2C001B689B68019308BDC801060808B5024BE5
:101F3C001B68DB68019308BDC801060808B5024B95
:101F4C001B681B69019308BDC801060808B5024B44
:101F5C001B685B69019308BDC801060808B5024BF4
:101F6C001B689B69019308BDC801060808B5024BA4
:101F7C001B68DB69019308BDC801060808B5024B54
:101F8C001B681B6A019308BDC801060808B5024B03
:101F9C001B681B6B019308BDC801060808B5024BF2
:101FAC001B685B6B019308BDC801060808B5024BA2
:101FBC001B68DB6B019308BDCC01060808B5024B0E
:101FCC001B681B68019308BDA001060808B5024BED
:101FDC001B685B68019308BDA001060808B5024B9D
:101FEC001B689B68019308BDA001060808B5024B4D
:101FFC001B68DB68019308BDA001060808B5024BFD
:10200C001B685B6A019308BDA0010608704710B5F8
:10201C000446102101F0ABF9204610BD70B5044602
:10202C000E46074B0025036040F80C5FFFF7F8FDE8
:10203C0030462671FFF7BCFDA560204670BD00BF81
:10204C00D84E0A084FF6FF710079FFF7A1BDC068A2
:10205C00FFF7F6BD400830B5186000241868E5B2EB
:10206C00884206D90134082C02D040081860F5E7E4
:10207C000725024B5B5D137030BD00BFE04E0A08B4
:10208C002DE9F04380468FB0C0680F46FFF7D0FDB6
:10209C0098F804401422002109A802F0A2FB0B239B
:1020AC002046002209A9ADF82430FFF791FD9DF8D8
:1020BC002D404CB19DF82C502DB90C9E9DF83490B0
:1020CC009DF8354003E00024A146264601253B79C6
:1020DC000DB1002B40D19D420BD1BA68B24208D150
:1020EC008DF820908DF82140BDF82010BA899142CE
:1020FC0032D023BB8DF80F300DF10F0204ABB96851
:10210C000A98FFF7A7FF3B7905B113BBAB4209D087
:10211C0000213B7B01917C7B9DF80F2098F80400FB
:10212C00009413E0BB68B342F2D38DF820908DF885
:10213C002140BDF82020BB899A42E9D109E0002357
:10214C001A4698F80400019300930121FFF748FD0B
:10215C0002E0049BB342DBD100200FB0BDE8F0835A
:10216C0008B50079FFF71CFDC0B208BD0079FFF778
:10217C0027BD00004FF6FF72034B002018705880EB
:10218C009A80FFF79FBE00BF5005002037B502AC08
:10219C00036804F8011DDD6B012247F23053214620
:1021AC00A84703B030BD10B40368DC6B47F2305362
:1021BC00A44610BC604737B502AC036804F8011D97
:1021CC00DD6B214613460122A84703B030BD704792
:1021DC0070470020704710B50446142101F0C7F871
:1021EC00204610BDFDF757BF10B5044603689B6829
:1021FC009847A368013BA3602BB923682046BDE830
:10220C001040DB68184710BD70B5044606464D6992
:10221C00044B8C3544F8043B0FCD0FC42B6830466F
:10222C00237070BD8C500A0810B543690446B3F88E
:10223C008620B3F884309A4205D06269B2F88430B3
:10224C001344187910BD03681B6998470028F4D112
:10225C004FF0FF3010BD10B543690446B3F886202B
:10226C00B3F884309A4208D06269B2F88430591CB1
:10227C00A2F884101344187910BD03681B699847A1
:10228C000028F1D14FF0FF3010BDF8B54369174667
:10229C00B3F88620B3F8843005469A420E4606D130
:1022AC0003681B69984710B94FF0FF3414E0696953
:1022BC003046B1F88430B1F886401944E41ABC4277
:1022CC0028BF3C460431224602F080FA6A69B2F813
:1022DC0084302344A2F884302046F8BD42690023A0
:1022EC00A2F884304269A2F88630704738B542694A
:1022FC000446B2F886301BB1B2F884209A420CD056
:10230C00206900F05DFF0368DB68984718B36369C8
:10231C001868FFF73FFD18B91DE0FFF7DFFFEFE787
:10232C006069B0F886107F2915D8051DC1F18002AF
:10233C00002329440068FFF745FD00280BDD636985
:10234C00B3F886200AB9A3F884206269B2F8863003
:10235C001844A2F886006269B2F88630B2F884009C
:10236C00181A38BD38B5436904461868FFF712FDD2
:10237C0018B163691868FFF72DFD6569FFF732FD29
:10238C0028606069112200218C3002F02AFA204664
:10239C00BDE83840FFF7A2BF2DE9F0411F460368A6
:1023AC008AB0DB6A06460C4615469847384600F05C
:1023BC0007FF0368DB689847002856D000972B4628
:1023CC00062201210220D6F81480FFF7EBFC202313
:1023DC00C8F8000000270293736903971B6801205B
:1023EC000193234B02AA009322493B46FFF762FD5F
:1023FC0073691868FFF7CEFC002836D03046FFF71B
:10240C006DFF0223ADF808302B0A8DF80A30E37902
:10241C004FF4FA508DF80C30A3798DF80B508DF8E1
:10242C000D3063798DF80E3014F8043F8DF80F30B1
:10243C00FFF728FD73690546102202A91868FFF7FB
:10244C00B9FC80462846FFF71DFD0FCC75698C350D
:10245C000FC523682B70B8F1000F05D033683046D8
:10246C00DB6A9847384600E001200AB0BDE8F081ED
:10247C00574F0A08504F0A0810B5436904461868AC
:10248C00FFF788FC08B9002010BD206900F098FE09
:10249C000368DB6898470028F5D063691868FFF774
:1024AC0071FCB0FA80F0400910BD2DE9F341002514
:1024BC00456004460E4617469846FFF7DDFF60B1AF
:1024CC0060690195CDF800802B463A46314600688C
:1024DC00FFF790FC002803DA01E04FF0FF3060605A
:1024EC0002B0BDE8F08138B50446FFF7C5FF00BB6C
:1024FC006369B3F88610B3F88420914219D1186837
:10250C00FFF748FC28B163691868FFF73BFC01280A
:10251C0001D000250EE0236820461B69984700284F
:10252C0014BF0125002505D123682046DB6A984796
:10253C0000E00125284638BD08B5FFF79DFF0030A7
:10254C0018BF012008BD10B5044600230160A0F897
:10255C008430A0F88630883000F06AFB204610BD2D
:10256C004FF47A7270B58260144A002343600260A3
:10257C00436183610446A0200E46FDF788FD0546A5
:10258C0010B13146FFF7DFFF1420FDF780FD034645
:10259C0028B1012242608260094A05610260A0698B
:1025AC006561A36128B14368013B43600BB9FFF738
:1025BC001BFE2046FFF792FE204670BD0C4F0A080A
:1025CC00F04E0A0810B50446FFF70CFC01462046F5
:1025DC00FFF7C6FF204610BD10B504460068FFF794
:1025EC00D9FB10B12068FFF7F5FB204610BD10B5E4
:1025FC0004692046FFF7F0FF24B12046BDE81040E7
:10260C00FDF749BD10BD00002DE9F0431F460368DE
:10261C008FB0DB6A06460D4690469847134800F08B
:10262C0082FD00B302A800F003FB284602F00AF971
:10263C00002481B200943B4603AA2846FFF72AFCEB
:10264C0080B9336809ADD3F82090094B03AC0893DB
:10265C000FCC0FC5236842462B7008A93B46304669
:10266C00C84700E020460FB0BDE8F083DC0900202D
:10267C008C500A0810B504460068FFF7A7FC2046EA
:10268C0010BD10B50446006808B1FFF79FFC00238D
:10269C002360A360636010BD38B504460D46006826
:1026AC000131FFF79BFC10B184E82100012038BDFB
:1026BC0010B50368044613B143688B4207D2204619
:1026CC00FFF7EAFF20B1A3680BB922681370012051
:1026DC0010BD70B50E46114604461546FFF7E8FFCF
:1026EC0018B92046FFF7CDFF09E02A463146A56010
:1026FC00206802F06BF82268A3680021D1542046B0
:10270C0070BD38B5002304460360436083600373D7
:10271C000D4639B1084602F095F829460246204686
:10272C00FFF7D7FF204638BD38B505460C4641B1FA
:10273C00084602F087F8214602462846FFF7C9FFF3
:10274C0001E0FFF79EFF284638BDF8B506460D465A
:10275C008F180024BD420CD0336815F8011B9B6800
:10276C0030469847002801DB0444F3E7002C08BFEF
:10277C0004462046F8BD70B505460C46084649B1DE
:10278C0002F060F82B68024621462846BDE87040EE
:10279C00DB68184770BD08B5FFF7EDFF08BD03688F
:1027AC009B68184738B50D210546FFF7F8FF0A213D
:1027BC0004462846FFF7F3FF204438BD012A98BF92
:1027CC000A2230B50B468BB000218DF824100DF188
:1027DC002304B3FBF2F505FB1233DBB2092B94BFD8
:1027EC0030333733DBB2214604F801392B46002D48
:1027FC00EFD1FFF7C0FF0BB030BD10B422B90368A6
:10280C00C9B29B6810BC1847D2B210BCFFF7D6BF38
:10281C00FFF7F3BF2DE9F04107460E4615462AB9DE
:10282C00BDE8F0410368C9B29B6818470A2A02D177
:10283C00002901DA04E0D2B2BDE8F041FFF7BEBFD7
:10284C002D21FFF7ACFF2A46044671423846FFF7AC
:10285C00B5FF2044BDE8F0812DE9F84319468046C8
:10286C00104617461E469DF8205001F01DFB08B17E
:10287C00474912E026F000444FF0FF32454B3846F2
:10288C00214601F011FB68B94FF0FF32414B38463D
:10289C00214601F0EBFA28B93F494046FFF76BFFA0
:1028AC00BDE8F8834FF060423C4B3846314601F0AE
:1028BC00F1FA08B13A49F0E74FF06042394B38462B
:1028CC00314601F0C9FA0028F4D100220023384621
:1028DC00314601F0C1FA38B12D214046FFF75FFFB8
:1028EC0006F10046044600E004462F494FF000096B
:1028FC0000205FFA89F39D4206D900222B4B01F090
:10290C0063F909F10109F4E73A46334600F080FE19
:10291C000F46064601F006FB0A2201468146404658
:10292C00FFF74CFF04447DB3484600F0ADFF024670
:10293C000B463046394600F069FE06460F464046C7
:10294C001B49FFF718FF0444184B00223046394648
:10295C0001F010F80F46064601F0BCFA0A220146B7
:10296C0081464046FFF756FF0444484600F09CFF62
:10297C0002460B463046394600F048FE013D15F044
:10298C00FF0506460F46DFD12046BDE8F88300BFA1
:10299C006B4F0A08FFFFEF7F754F0A08FFFFEF41EF
:1029AC006F4F0A08FFFFEFC10000E03F000024401A
:1029BC00734F0A0837B59DF8181005460091FFF7BC
:1029CC004BFF04462846FFF7EDFE204403B030BD14
:1029DC000CB42DE9F04387B000AF07F1380454F87C
:1029EC00049B05460E4623464A461421381D3C607E
:1029FC00FFF704FB132805D8391D2846FFF7BBFE4B
:102A0C00044613E000F1080323F00703E846ADEB9E
:102A1C00030D411C23464A4668463C60FFF7EEFA1C
:102A2C0069462846FFF7A7FE0446C5461EB1284650
:102A3C00FFF7B8FE044420461C37BD46BDE8F04302
:102A4C0002B0704700231A4619464068FFF77EBA59
:102A5C00014A024B1A607047EF4F0A0858050020D4
:102A6C00024B1A68024B1A60704700BF2404002006
:102A7C005C0500200021FFF72DBA10B583680446D1
:102A8C0013B1032201469847204610BD10B50446E9
:102A9C00FFF7F3FF204610BD034800238360034A71
:102AAC00034900F05FBC00BF600500208C040020CF
:102ABC00992A0A0808B5144B33B100F087F903685A
:102ACC001B699847002816DC104B33B100F03CFA18
:102ADC0003681B699847002810DC0D4B0BB1AFF352
:102AEC0000800C4B7BB100F0ADF903681B69984773
:102AFC00002806DC08BDAFF30080E5E7AFF30080EB
:102B0C00EBE7AFF3008008BD000000000000000000
:102B1C00000000000000000008B5FFF7CBFFFFF736
:102B2C0077F8014B186008BD040A00200248034ADC
:102B3C000349121A01F04ABE004002400440024010
:102B4C0048520A0807B5002300931A466FF0770124
:102B5C00FFF7D2F903B05DF804FB000007B543881A
:102B6C000A2B08D0502B09D1094B1B683BB103B081
:102B7C005DF804EB1847FFF7E5FF06E00023009330
:102B8C001A466FF07701FFF7B7F903B05DF804FB55
:102B9C007005002038B5104C104D2368AB42104B1B
:102BAC000CBF012200221A7002D0FFF7BFFF256074
:102BBC00FFF71EF8044601F01DFE0A4B13B1204628
:102BCC00AFF3008000210748FFF7F0F9BDE838406B
:102BDC0000210548FFF786B9004002401E1C279AC9
:102BEC007405002000000000692B0A08704710B51E
:102BFC000446182100F0BBFB204610BDF8B50F466B
:102C0C0000F10806051D002416F8011D0A2238469D
:102C1C00FFF7FEFDAE42044407D0002CF4D02E2169
:102C2C003846FFF7BCFD0444EEE72046F8BD000033
:102C3C0010B50446044B112240F8043B002101F06E
:102C4C00D0FD204610BD00BF8C500A080346074A31
:102C5C0010B543F8042B01F1100251F8044B9142CA
:102C6C0043F8044BF9D10A781A7010BD8C500A083D
:102C7C00024A416002600422027570478C500A08B7
:102C8C0010B59DF8084044EA032343EA024242EAA5
:102C9C00016104234160037510BD000037B5044D7C
:102CAC0005609DF818500095FFF7EAFF03B030BDA2
:102CBC008C500A0837B50D788B784A78C978009112
:102CCC002946FFF7DDFF03B030BD000010B5044608
:102CDC00024B0360FFF7EEFF204610BD8C500A0834
:102CEC0041747047704708B50021007CFFF7AAF8C3
:102CFC0030EA200028BF4FF0FF3008BD08B5012195
:102D0C00007CFFF79FF830EA200028BF4FF0FF301F
:102D1C0008BD08B5007CFFF78DF820EAE07008BD0F
:102D2C0008B5007CFFF77EF820EAE07008BD007C57
:102D3C00FFF798B810B50446142100F018FB204694
:102D4C0010BD38B50446007C0D46FFF773F800281B
:102D5C0001DC607C28B12946207CFFF77BF820EA57
:102D6C00E07038BD10B50446002363604FF47A73ED
:102D7C00A360054B0846236001232174637411463C
:102D8C00FFF740F8204610BDA0500A080022007C36
:102D9C00FFF740B8007CFFF76DB8FFF7FBBF0000F2
:102DAC0010B504461422002101F01BFD054B2046F2
:102DBC006360054BE36040F201132381812323827E
:102DCC0010BD00BFFD0500207C05002030B50E4D68
:102DDC0087B001A8FFF7E4FF296811F0010410D1B6
:102DEC002846FDF767F960B101AA21460748FFF7AD
:102DFC00B9FF2846FDF763F9054A0649034800F078
:102E0C00B1FA024807B030BD780500200007002059
:102E1C008C040020F12C0A0810B504461422002161
:102E2C0001F0DFFC054B20466360054BE36040F28C
:102E3C00011323818123238210BD00BFB007002022
:102E4C001807002010B50E4C86B001A8FFF7E4FF60
:102E5C002368DB0710D42046FDF72CF960B101AADA
:102E6C0001210848FFF77EFF2046FDF728F9064AA6
:102E7C000649044800F076FA024806B010BD00BFBF
:102E8C00140700209C0700208C040020F12C0A0859
:102E9C0070474174704708B5007CFEF711FF20EABB
:102EAC00E07008BD08B5007CFEF7E2FE20EAE07099
:102EBC0008BD08B5007CFEF7EBFE30EA200028BF09
:102ECC004FF0FF3008BD08B5007CFEF7D9FE30EAA4
:102EDC00200028BF4FF0FF3008BD007CFEF7E0BE9D
:102EEC0010B50446142100F042FA204610BD70B50E
:102EFC00457C04460E4625B9007CFEF7E1FE002811
:102F0C0005DD3146207CBDE87040FEF7A9BE2846A1
:102F1C0070BD000010B504460846114600226260E0
:102F2C004FF47A72A260054A207422600122627406
:102F3C001A46FEF78DFE204610BD00BFD0500A0881
:102F4C00007CFEF7B5BE000038B50C4D296811F0B9
:102F5C00010411D12846FDF7ADF868B1084A2146A5
:102F6C00084B0948FFF7D6FF2846FDF7A8F8074A93
:102F7C000749054800F0F6F9034838BD4C09002014
:102F8C0050090020C8080020B40800208C04002040
:102F9C009D2E0A087047F8B5064615460C468F1844
:102FAC00BC4206D0336814F8011B9B683046984726
:102FBC00F6E72846F8BD0022007CFEF7A9BE0021EA
:102FCC00007CFEF7ADBE0021007CFEF7B1BE0021F7
:102FDC00007CFEF7B5BE0021007CFEF7B9BE10B533
:102FEC000446142100F0C3F9204610BD10B5044668
:102FFC0008464FF47A73A360044B0021207461607F
:10300C002360FEF7B5FE204610BD00BF00510A0834
:10301C0000231A461946007CFEF75ABE13B500244D
:10302C00007C0094FEF75CFEC0B202B010BD012320
:10303C00FFF7F4BF0022007CFEF75ABE0022007C92
:10304C00FEF75EBE0121FFF7F9BF0021007CFEF701
:10305C0087BE002211464068FEF770BFF0B51646D9
:10306C0089B011220F460446002103A801F0B9FBD8
:10307C00304601F0E7FB0025009581B27B6803AA7E
:10308C003046FEF707FF20B129462046FFF7F0FD3A
:10309C0003E003A92046FFF7D9FD204609B0F0BD97
:1030AC00002211464068FEF769BF002211464068B5
:1030BC00FEF774BF00224068FEF768BF002281F063
:1030CC0001014068FEF752BF00231A4619464068BA
:1030DC00FEF744BF002211464068FEF71FBF0022D6
:1030EC0002214068FEF722BF00231A464068FEF713
:1030FC000DBF0000024B04225A60024A1A6070474E
:10310C00D409002028510A0800231A464068FEF70B
:10311C00FDBE002202214068FEF708BF00221146C6
:10312C004068FEF7FBBE002211464068FEF706BF62
:10313C0000231A4619464068FEF708BF00231A46BA
:10314C0019464068FEF70ABF002281F00101406871
:10315C00FEF70CBF00224068FEF718BF0022114694
:10316C004068FEF71BBF002211464068FEF706BF01
:10317C0070B516468EB0044608A8FFF759FD11220B
:10318C00002103A801F02DFB304601F05BFB00256C
:10319C000A4B009581B25B6803AA3046FEF77AFEB3
:1031AC0020B129462046FFF763FD03E003A9204622
:1031BC00FFF74CFD20460EB070BD00BFD4090020B7
:1031CC00034B044A04280CBF10461846704700BF36
:1031DC00DC090020D4090020024B034A1A600022AB
:1031EC005A607047DC0900205C510A0810B504468F
:1031FC000F48FEF7BBFF28B1A4F10D03022B01D839
:10320C00002010BD00F08EF8FFF71FFF08B1012C55
:10321C00F6D9FFF799FEFFF793FE18B1A4F112034C
:10322C00012BEDD9172C8CBF0020012010BD00BF45
:10323C00E4090020172838B504460D460AD8FF29A2
:10324C0008D0FFF7D3FF28B129462046BDE8384007
:10325C00FEF77EBC38BD38B504460D46FEF780FC43
:10326C00FF2810D0062804D84D2323FA00F0C307FA
:10327C0009D42046FFF7BAFF28B129462046BDE8FD
:10328C003840FEF775BC38BD10B50446FEF768FC37
:10329C000438C0B2012808D92046FFF7A7FF20B197
:1032AC002046BDE81040FEF76BBC002010BD0000AE
:1032BC0070B50C4C0C4E0D4D00212046FEF7AEFEA9
:1032CC0020460B4C3246294600F04CF80121204692
:1032DC00FEF7A4FE324629462046BDE8704000F0B9
:1032EC0041B800BFE40900208C04002019200A0812
:1032FC00F409002013B5084C00231A461946009314
:10330C002046FFF7CBFC2046044A054902B0BDE835
:10331C00104000F027B800BF080A00208C040020E1
:10332C00F92B0A0838B50B4D296811F001040FD19F
:10333C002846FCF7BFFE58B121460748FFF756FE5A
:10334C002846FCF7BCFE054A0549034800F00AF87C
:10335C00014838BD200A0020240A00208C040020DB
:10336C00A12F0A080B460146184601F021BAFCF7BA
:10337C0092BE0000184B1A68D1075CBF01221A607C
:10338C00164B1A68D2075CBF01221A60144B1A68DC
:10339C00D0075CBF01221A60124B1A68D1075CBFC0
:1033AC0001221A60104B1A68D2075CBF01221A6006
:1033BC000E4B1A68D0075CBF01221A600C4B1A68BE
:1033CC00D1075CBF01221A600A4B1A68D2075CBF96
:1033DC0001221A60704700BF540A0020500A0020D6
:1033EC004C0A0020480A0020440A0020400A002011
:1033FC003C0A0020380A0020244B1A68D0075CBF16
:10340C0001221A60224B1A68D1075CBF01221A6094
:10341C00204B1A68D2075CBF01221A601E4B1A6837
:10342C00D0075CBF01221A601C4B1A68D1075CBF25
:10343C0001221A601A4B1A68D2075CBF01221A606B
:10344C00184B1A68D0075CBF01221A60164B1A6819
:10345C00D1075CBF01221A60144B1A68D2075CBFFB
:10346C0001221A60124B1A68D0075CBF01221A6045
:10347C00104B1A68D1075CBF01221A600E4B1A68F8
:10348C00D2075CBF01221A60704700BF840A00207B
:10349C00800A00207C0A0020780A0020740A002090
:1034AC00700A00206C0A0020680A0020640A0020C0
:1034BC00600A00205C0A0020580A0020244B1A687D
:1034CC00D0075CBF01221A60224B1A68D1075CBF7F
:1034DC0001221A60204B1A68D2075CBF01221A60C5
:1034EC001E4B1A68D0075CBF01221A601C4B1A686D
:1034FC00D1075CBF01221A601A4B1A68D2075CBF55
:10350C0001221A60184B1A68D0075CBF01221A609E
:10351C00164B1A68D1075CBF01221A60144B1A684B
:10352C00D2075CBF01221A60124B1A68D0075CBF2D
:10353C0001221A60104B1A68D1075CBF01221A6075
:10354C000E4B1A68D2075CBF01221A60704700BF8D
:10355C00B40A0020B00A0020AC0A0020A80A0020FF
:10356C00A40A0020A00A00209C0A0020980A00202F
:10357C00940A0020900A00208C0A0020880A00205F
:10358C00184B1A68D1075CBF01221A60164B1A68D7
:10359C00D2075CBF01221A60144B1A68D0075CBFBB
:1035AC0001221A60124B1A68D1075CBF01221A6003
:1035BC00104B1A68D2075CBF01221A600E4B1A68B6
:1035CC00D0075CBF01221A600C4B1A68D1075CBF94
:1035DC0001221A600A4B1A68D2075CBF01221A60DA
:1035EC00704700BFD40A0020D00A0020CC0A00206B
:1035FC00C80A0020C40A0020C00A0020BC0A00200F
:10360C00B80A002081F0004102E000BF83F00043C3
:10361C0030B54FEA41044FEA430594EA050F08BF61
:10362C0090EA020F1FBF54EA000C55EA020C7FEA25
:10363C00645C7FEA655C00F0E2804FEA5454D4EBA2
:10364C005555B8BF6D420CDD2C4480EA020281EA6C
:10365C00030382EA000083EA010180EA020281EAA4
:10366C000303362D88BF30BD11F0004F4FEA0131F6
:10367C004FF4801C4CEA113102D0404261EB410105
:10368C0013F0004F4FEA03334CEA133302D052428B
:10369C0063EB430394EA050F00F0A780A4F1010447
:1036AC00D5F1200E0DDB02FA0EFC22FA05F2801881
:1036BC0041F1000103FA0EF2801843FA05F3594167
:1036CC000EE0A5F120050EF1200E012A03FA0EFCE6
:1036DC0028BF4CF0020C43FA05F3C01851EBE37110
:1036EC0001F0004507D54FF0000EDCF1000C7EEB2D
:1036FC0000006EEB0101B1F5801F1BD3B1F5001F6B
:10370C000CD349085FEA30004FEA3C0C04F1010489
:10371C004FEA445212F5800F80F09A80BCF1004FB2
:10372C0008BF5FEA500C50F1000041EB045141EA34
:10373C00050130BD5FEA4C0C404141EB010111F435
:10374C00801FA4F10104E9D191F0000F04BF0146E0
:10375C000020B1FA81F308BF2033A3F10B03B3F1BE
:10376C0020020CDA0C3208DD02F1140CC2F10C024E
:10377C0001FA0CF021FA02F10CE002F11402D8BFAC
:10378C00C2F1200C01FA02F120FA0CFCDCBF41EA78
:10379C000C019040E41AA2BF01EB0451294330BD47
:1037AC006FEA04041F3C1CDA0C340EDC04F1140424
:1037BC00C4F1200220FA04F001FA02F340EA0300FB
:1037CC0021FA04F345EA030130BDC4F10C04C4F141
:1037DC00200220FA02F001FA04F340EA0300294621
:1037EC0030BD21FA04F0294630BD94F0000F83F46B
:1037FC00801306BF81F480110134013D4EE77FEA4E
:10380C00645C18BF7FEA655C29D094EA050F08BF99
:10381C0090EA020F05D054EA000C04BF194610467A
:10382C0030BD91EA030F1EBF0021002030BD5FEABE
:10383C00545C05D14000494128BF41F0004130BDE6
:10384C0014F580043CBF01F5801130BD01F000453A
:10385C0045F0FE4141F470014FF0000030BD7FEAAD
:10386C00645C1ABF194610467FEA655C1CBF0B46A8
:10387C00024650EA013406BF52EA033591EA030FBF
:10388C0041F4002130BD00BF90F0000F04BF0021B7
:10389C00704730B54FF4806404F132044FF00005EA
:1038AC004FF0000150E700BF90F0000F04BF002163
:1038BC00704730B54FF4806404F1320410F00045C9
:1038CC0048BF40424FF000013EE700BF42004FEAC4
:1038DC00E2014FEA31014FEA02701FBF12F07F4341
:1038EC0093F07F4F81F06051704792F0000F14BF3E
:1038FC0093F07F4F704730B54FF4607401F0004582
:10390C0021F0004120E700BF50EA010208BF7047D8
:10391C0030B54FF000050AE050EA010208BF7047CD
:10392C0030B511F0004502D5404261EB41014FF436
:10393C00806404F132045FEA915C3FF4DCAE4FF03A
:10394C0003025FEADC0C18BF03325FEADC0C18BF21
:10395C00033202EBDC02C2F1200300FA03FC20FA72
:10396C0002F001FA03FE40EA0E0021FA02F11444BF
:10397C00C1E600BF70B54FF0FF0C4CF4E06C1CEAD4
:10398C0011541DBF1CEA135594EA0C0F95EA0C0F49
:10399C0000F0DEF82C4481EA030621EA4C5123EABC
:1039AC004C5350EA013518BF52EA033541F48011EB
:1039BC0043F4801338D0A0FB02CE4FF00005E1FB9E
:1039CC0002E506F00042E0FB03E54FF00006E1FBE8
:1039DC0003569CF0000F18BF4EF0010EA4F1FF042B
:1039EC00B6F5007F64F5407404D25FEA4E0E6D416B
:1039FC0046EB060642EAC62141EA55514FEAC5207C
:103A0C0040EA5E504FEACE2EB4F1FD0C88BFBCF5F7
:103A1C00E06F1ED8BEF1004F08BF5FEA500E50F1A8
:103A2C00000041EB045170BD06F0004646EA01016E
:103A3C0040EA020081EA0301B4EB5C04C2BFD4EBA0
:103A4C000C0541EA045170BD41F480114FF0000E99
:103A5C00013C00F3AB8014F1360FDEBF002001F007
:103A6C00004170BDC4F10004203C35DA0C341BDC81
:103A7C0004F11404C4F1200500FA05F320FA04F053
:103A8C0001FA05F240EA020001F0004221F0004187
:103A9C0010EBD37021FA04F642EB06015EEA430EFA
:103AAC0008BF20EAD37070BDC4F10C04C4F120052A
:103ABC0000FA04F320FA05F001FA04F240EA0200DD
:103ACC0001F0004110EBD37041F100015EEA430EAE
:103ADC0008BF20EAD37070BDC4F1200500FA05F2CE
:103AEC004EEA020E20FA04F301FA05F243EA02034D
:103AFC0021FA04F001F0004121FA04F220EA02005C
:103B0C0000EBD3705EEA430E08BF20EAD37070BDA1
:103B1C0094F0000F0FD101F00046400041EB010181
:103B2C0011F4801F08BF013CF7D041EA060195F063
:103B3C00000F18BF704703F00046520043EB03031D
:103B4C0013F4801F08BF013DF7D043EA060370470A
:103B5C0094EA0C0F0CEA135518BF95EA0C0F0CD015
:103B6C0050EA410618BF52EA4306D1D181EA03015B
:103B7C0001F000414FF0000070BD50EA410606BF55
:103B8C001046194652EA430619D094EA0C0F02D19A
:103B9C0050EA013613D195EA0C0F05D152EA0336DF
:103BAC001CBF104619460AD181EA030101F00041FD
:103BBC0041F0FE4141F470014FF0000070BD41F046
:103BCC00FE4141F4780170BD70B54FF0FF0C4CF420
:103BDC00E06C1CEA11541DBF1CEA135594EA0C0F3F
:103BEC0095EA0C0F00F0A7F8A4EB050481EA030E8C
:103BFC0052EA03354FEA013100F088804FEA033373
:103C0C004FF0805545EA131343EA12634FEA022240
:103C1C0045EA111545EA10654FEA00260EF0004101
:103C2C009D4208BF964244F1FD0404F5407402D253
:103C3C005B084FEA3202B61A65EB03055B084FEAE4
:103C4C0032024FF480104FF4002CB6EB020E75EBE1
:103C5C00030E22BFB61A754640EA0C005B084FEA09
:103C6C003202B6EB020E75EB030E22BFB61A754686
:103C7C0040EA5C005B084FEA3202B6EB020E75EBD1
:103C8C00030E22BFB61A754640EA9C005B084FEA49
:103C9C003202B6EB020E75EB030E22BFB61A754656
:103CAC0040EADC0055EA060E18D04FEA051545EA45
:103CBC0016754FEA06164FEAC30343EA52734FEAEE
:103CCC00C2025FEA1C1CC0D111F4801F0BD141EA67
:103CDC0000014FF000004FF0004CB6E711F4801FCC
:103CEC0004BF01430020B4F1FD0C88BFBCF5E06FAC
:103CFC003FF6AFAEB5EB030C04BFB6EB020C5FEABC
:103D0C00500C50F1000041EB045170BD0EF0004E10
:103D1C004EEA113114EB5C04C2BFD4EB0C0541EA42
:103D2C00045170BD41F480114FF0000E013C90E63F
:103D3C0045EA060E8DE60CEA135594EA0C0F08BF03
:103D4C0095EA0C0F3FF43BAF94EA0C0F0AD150EA02
:103D5C0001347FF434AF95EA0C0F7FF425AF104695
:103D6C0019462CE795EA0C0F06D152EA03353FF4BD
:103D7C00FDAE1046194622E750EA410618BF52EA3A
:103D8C0043067FF4C5AE50EA41047FF40DAF52EA0E
:103D9C0043057FF4EBAE12E74FF0FF3C06E000BFAB
:103DAC004FF0010C02E000BF4FF0010C4DF804CDB8
:103DBC004FEA410C7FEA6C5C4FEA430C18BF7FEA78
:103DCC006C5C1BD001B050EA410C0CBF52EA430CA6
:103DDC0091EA030F02BF90EA020F0020704710F126
:103DEC00000F91EA030F58BF994208BF90422CBFB5
:103DFC00D8176FEAE37040F0010070474FEA410CAE
:103E0C007FEA6C5C02D150EA013C07D14FEA430CCB
:103E1C007FEA6C5CD6D152EA033CD3D05DF8040B3C
:103E2C00704700BF8446104662468C46194663466E
:103E3C0000E000BF01B5FFF7B7FF002848BF10F145
:103E4C00000F01BD4DF808EDFFF7F4FF0CBF01208A
:103E5C0000205DF808FB00BF4DF808EDFFF7EAFF06
:103E6C0034BF012000205DF808FB00BF4DF808EDC1
:103E7C00FFF7E0FF94BF012000205DF808FB00BFB6
:103E8C004DF808EDFFF7CEFF94BF012000205DF840
:103E9C0008FB00BF4DF808EDFFF7C4FF34BF01204D
:103EAC0000205DF808FB00BF4FEA410C7FEA6C5C18
:103EBC0002D150EA013C0AD14FEA430C7FEA6C5C18
:103ECC0002D152EA033C02D14FF0000070474FF090
:103EDC00010070474FEA410212F5001215D211D5BC
:103EEC006FF47873B3EB625212D94FEAC12343F0EB
:103EFC00004343EA505311F0004F23FA02F018BF6D
:103F0C00404270474FF00000704750EA013005D135
:103F1C0011F0004008BF6FF0004070474FF00000F8
:103F2C00704700BF4A0011D212F5001211D20DD504
:103F3C006FF47873B3EB62520ED44FEAC12343F0A3
:103F4C00004343EA505323FA02F070474FF000004D
:103F5C00704750EA013002D14FF0FF3070474FF0FC
:103F6C000000704780F0004002E000BF81F000418B
:103F7C0042001FBF5FEA410392EA030F7FEA226C03
:103F8C007FEA236C6AD04FEA1262D2EB1363C1BF93
:103F9C00D218414048404140B8BF5B42192B88BF02
:103FAC00704710F0004F40F4000020F07F4018BF25
:103FBC00404211F0004F41F4000121F07F4118BF45
:103FCC00494292EA030F3FD0A2F1010241FA03FCED
:103FDC0010EB0C00C3F1200301FA03F100F00043D5
:103FEC0002D5494260EB4000B0F5000F13D3B0F19D
:103FFC00807F06D340084FEA310102F10102FE2A0C
:10400C0051D2B1F1004F40EBC25008BF20F001007B
:10401C0040EA03007047490040EB000010F4000F29
:10402C00A2F10102EDD1B0FA80FCACF1080CB2EBBC
:10403C000C0200FA0CF0AABF00EBC250524218431B
:10404C00BCBFD0401843704792F0000F81F40001C0
:10405C0006BF80F400000132013BB5E74FEA410393
:10406C007FEA226C18BF7FEA236C21D092EA030FFF
:10407C0004D092F0000F08BF0846704790EA010F79
:10408C001CBF0020704712F07F4F04D1400028BFA6
:10409C0040F00040704712F100723CBF00F5000088
:1040AC00704700F0004343F0FE4040F400007047BE
:1040BC007FEA226216BF08467FEA2363014642026A
:1040CC0006BF5FEA412390EA010F40F4800070477D
:1040DC004FF0000304E000BF10F0004348BF404223
:1040EC005FEA000C08BF704743F0964301464FF05F
:1040FC0000001CE050EA010208BF70474FF00003BB
:10410C000AE000BF50EA010208BF704711F00043FB
:10411C0002D5404261EB41015FEA010C02BF8446CB
:10412C000146002043F0B64308BFA3F18053A3F52A
:10413C000003BCFA8CF2083AA3EBC25310DB01FA71
:10414C0002FC634400FA02FCC2F12002BCF1004FF5
:10415C0020FA02F243EB020008BF20F00100704786
:10416C0002F1200201FA02FCC2F1200250EA4C00DA
:10417C0021FA02F243EB020008BF20EADC70704720
:10418C004FF0FF0C1CEAD0521EBF1CEAD15392EA2E
:10419C000C0F93EA0C0F6FD01A4480EA010C40020A
:1041AC0018BF5FEA41211ED04FF0006343EA501064
:1041BC0043EA5111A0FB01310CF00040B1F5000FA6
:1041CC003EBF490041EAD3715B0040EA010062F155
:1041DC007F02FD2A1DD8B3F1004F40EBC25008BF3F
:1041EC0020F00100704790F0000F0CF0004C08BF5D
:1041FC0049024CEA502040EA51207F3AC2BFD2F12A
:10420C00FF0340EAC250704740F400004FF0000337
:10421C00013A5DDC12F1190FDCBF00F00040704771
:10422C00C2F10002410021FA02F1C2F1200200FAAF
:10423C0002FC5FEA310040F1000053EA4C0308BF76
:10424C0020EADC70704792F0000F00F0004C02BFC7
:10425C00400010F4000F013AF9D040EA0C0093F042
:10426C00000F01F0004C02BF490011F4000F013B9C
:10427C00F9D041EA0C018FE70CEAD15392EA0C0F0A
:10428C0018BF93EA0C0F0AD030F0004C18BF31F075
:10429C00004CD8D180EA010000F00040704790F04B
:1042AC00000F17BF90F0004F084691F0000F91F0EF
:1042BC00004F14D092EA0C0F01D142020FD193EAB5
:1042CC000C0F03D14B0218BF084608D180EA01003D
:1042DC0000F0004040F0FE4040F40000704740F019
:1042EC00FE4040F4400070474FF0FF0C1CEAD052E7
:1042FC001EBF1CEAD15392EA0C0F93EA0C0F69D043
:10430C00A2EB030280EA010C49024FEA402037D0AD
:10431C004FF0805343EA111143EA10130CF00040A4
:10432C008B4238BF5B0042F17D024FF4000C8B4294
:10433C0024BF5B1A40EA0C00B3EB510F24BFA3EB74
:10434C00510340EA5C00B3EB910F24BFA3EB910344
:10435C0040EA9C00B3EBD10F24BFA3EBD10340EA9E
:10436C00DC001B0118BF5FEA1C1CE0D1FD2A3FF6E4
:10437C0050AF8B4240EBC25008BF20F00100704799
:10438C000CF0004C4CEA50207F32C2BFD2F1FF033C
:10439C0040EAC250704740F400004FF00003013A6D
:1043AC0037E792F0000F00F0004C02BF400010F411
:1043BC00000F013AF9D040EA0C0093F0000F01F025
:1043CC00004C02BF490011F4000F013BF9D041EA47
:1043DC000C0195E70CEAD15392EA0C0F08D142027A
:1043EC007FF47DAF93EA0C0F7FF470AF084676E74D
:1043FC0093EA0C0F04D14B023FF44CAF08466EE726
:10440C0030F0004C18BF31F0004CCAD130F00042F3
:10441C007FF45CAF31F000437FF43CAF5FE700BF4B
:10442C007BB972B90029BEBF00204FF0004106E0F5
:10443C0008BF00281CBF6FF000414FF0FF3000F0A8
:10444C00B5B9ADF1080C6DE904CE002909DB002BE0
:10445C001ADB00F035F8DDF804E0DDE9022304B0E6
:10446C007047404261EB4101002B1BDB00F028F848
:10447C00DDF804E0DDE9022304B0404261EB4101C8
:10448C00524263EB43037047524263EB430300F029
:10449C0017F8DDF804E0DDE9022304B0404261EBDB
:1044AC0041017047524263EB430300F009F8DDF819
:1044BC0004E0DDE9022304B0524263EB430370478E
:1044CC002DE9F04F8C460C460546099E002B4FD12A
:1044DC008A4217466BD9B2FA82FEBEF1000F0BD09E
:1044EC00CEF1200520FA05F501FA0EF345EA030C8E
:1044FC0002FA0EF700FA0EF5390CBCFBF1F0BAB269
:10450C0001FB10C300FB02F84FEA154C4CEA0344C4
:10451C00A04509D9E41900F1FF3380F02881A045AA
:10452C0040F2258102383C44C8EB0404B4FBF1F39F
:10453C0001FB134C03FB02F2ACB244EA0C418A427D
:10454C0009D9C91903F1FF3480F00F818A4240F276
:10455C000C81023B39448A1A43EA00400021002EA8
:10456C0063D022FA0EF2002386E80C00BDE8F08F2F
:10457C008B4207D9002E56D0002186E81100084640
:10458C00BDE8F08FB3FA83F1002940F09380A34289
:10459C0002D3824200F2FE80851A64EB03039C4630
:1045AC000120002E41D086E82010BDE8F08F12B912
:1045BC000127B7FBF2F7B7FA87FEBEF1000F36D131
:1045CC00E41B4FEA17481FFA87F90121B4FBF8F3F3
:1045DC0008FB134409FB03F24FEA154C4CEA044464
:1045EC00A24207D9E41903F1FF3002D2A24200F231
:1045FC00D3800346A41AB4FBF8F008FB104809FB5F
:10460C0000F9ACB244EA0842914507D9D21900F13D
:10461C00FF3402D2914500F2BA802046C9EB020267
:10462C0040EA03409BE731463046BDE8F08F07FA7D
:10463C000EF7CEF1200C24FA0CF34FEA1748B3FB1B
:10464C00F8FA1FFA87F908FB1A3520FA0CFC04FA61
:10465C000EF40AFB09FB4CEA040C4FEA1C4242EA3A
:10466C0005439B4500FA0EF50AD9DB190AF1FF3216
:10467C0080F08B809B4540F28880AAF1020A3B4473
:10468C00CBEB0303B3FBF8F008FB103300FB09F48E
:10469C001FFA8CFC4CEA03439C4207D9DB1900F14E
:1046AC00FF326ED29C426CD902383B441C1B40EA50
:1046BC000A418BE7C1F1200E8B4022FA0EFC4CEA2A
:1046CC00030C24FA0EF74FEA1C49B7FBF9FA1FFA50
:1046DC008CF309FB1A7720FA0EF88C400AFB03F5D1
:1046EC0048EA04044FEA144848EA0747BD4202FA74
:1046FC0001F200FA01FB09D917EB0C070AF1FF30A4
:10470C0041D2BD423FD9AAF1020A67447F1BB7FBD5
:10471C00F9F509FB157705FB03F3A4B244EA074747
:10472C00BB4208D917EB0C0705F1FF3027D2BB426F
:10473C0025D9023D674445EA0A40A0FB0289FF1ACD
:10474C004F4545464C4614D329D066B3BBEB050305
:10475C0067EB040707FA0EFECB40CF404EEA03038B
:10476C0086E888000021BDE8F08F2346F3E6184662
:10477C00DAE6B8EB020569EB0C040138E5E705460F
:10478C00D9E7104692E78246C0E7924678E70238AE
:10479C003A4443E7084604E7023B3C442AE7C34556
:1047AC00E7D33C46D1E73146BDE8F08F704700BFF8
:1047BC0010B5054C13462CB10A4601460220AFF346
:1047CC00008010BD204610BD0000000010B5431E37
:1047DC000A44914204D011F8014B03F8014FF8E759
:1047EC0010BD03460244934202D003F8011BFAE7C2
:1047FC007047000038B5124B05461C68A36BD3B943
:10480C001820FDF7DBFB43F20E33A06303804AF65E
:10481C00CD33438041F2342383804EF26D63C380E9
:10482C004DF6EC630381052343810B238381012225
:10483C000023C0E90423A36B00221D615A6138BD1B
:10484C0088040020034613F8012B002AFBD1181A08
:10485C00013870471D000A085D000A0889000A0823
:10486C008D000A0800000000424D45323830206EA1
:10487C006F7420696E697469616C697A656400771C
:10488C00656174686572636C69656E740048656C0B
:10489C006C6F2066726F6D2073656E736F7200772C
:1048AC0065617468657200252E32660077656174E7
:1048BC006865722F54656D706572617475720077DE
:1048CC006561746865722F5472796B0077656174D9
:1048DC006865722F4675677469676865640054650E
:1048EC006D703A200048756D693A200050726573FE
:1048FC00733A2000000000000000000019030A08B1
:10490C001B030A08090A0A0857270A0841060A085D
:10491C0005070A08C9040A0855030A08C5070A0846
:10492C005B080A0893080A08AF080A080000000090
:10493C00000000000000000000000000090A0A0846
:10494C0057270A08AD000A0805070A0825080A08AF
:10495C0041080A08C5070A085B080A0893080A08F0
:10496C00AF080A0800000000003E5B4F5B3E3E6B48
:10497C004F6B3E1C3E7C3E1C183C7E3C181C577DED
:10498C00571C1C5E7F5E1C00183C1800FFE7C3E739
:10499C00FF0018241800FFE7DBE7FF30483A060E4B
:1049AC002629792926407F050507407F05253F5A92
:1049BC003CE73C5A7F3E1C1C08081C1C3E7F142202
:1049CC007F22145F5F005F5F06097F017F006689AD
:1049DC00956A606060606094A2FFA29408047E04F3
:1049EC000810207E201008082A1C08081C2A080819
:1049FC001E101010100C1E0C1E0C30383E383006D9
:104A0C000E3E0E06000000000000005F00000007D4
:104A1C00000700147F147F14242A7F2A1223130802
:104A2C00646236495620500008070300001C2241DE
:104A3C00000041221C002A1C7F1C2A08083E080882
:104A4C000080703000080808080800006060002032
:104A5C00100804023E5149453E00427F4000724915
:104A6C004949462141494D331814127F10274545B9
:104A7C0045393C4A494931412111090736494949CF
:104A8C0036464949291E000014000000403400003D
:104A9C0000081422411414141414004122140802A6
:104AAC00015909063E415D594E7C1211127C7F4919
:104ABC004949363E414141227F4141413E7F49496E
:104ACC0049417F090909013E414151737F0808089A
:104ADC007F00417F41002040413F017F081422416B
:104AEC007F404040407F021C027F7F0408107F3EC5
:104AFC004141413E7F090909063E4151215E7F0932
:104B0C00192946264949493203017F01033F404098
:104B1C00403F1F2040201F3F4038403F6314081483
:104B2C006303047804036159494D43007F414141BB
:104B3C000204081020004141417F0402010204409C
:104B4C0040404040000307080020545478407F2820
:104B5C004444383844444428384444287F38545416
:104B6C00541800087E090218A4A49C787F08040439
:104B7C007800447D40002040403D007F10284400D8
:104B8C0000417F40007C047804787C080404783869
:104B9C0044444438FC1824241818242418FC7C0899
:104BAC00040408485454542404043F44243C404016
:104BBC00207C1C2040201C3C4030403C44281028C9
:104BCC00444C9090907C4464544C44000836410012
:104BDC000000770000004136080002010204023C8C
:104BEC002623263C1EA1A161123A4040207A38545B
:104BFC0054555921555579412154547841215554D6
:104C0C00784020545579400C1E5272123955555526
:104C1C0059395454545939555454580000457C4111
:104C2C000002457D420001457C40F0292429F0F02A
:104C3C00282528F07C545545002054547C547C0A7B
:104C4C00097F4932494949323248484832324A4848
:104C5C0048303A4141217A3A42402078009DA0A048
:104C6C007D39444444393D4040403D3C24FF24249C
:104C7C00487E4943662B2FFC2F2BFF0929F620C0B9
:104C8C00887E090320545479410000447D4130480A
:104C9C00484A32384040227A007A0A0A727D0D194D
:104CAC00317D2629292F28262929292630484D40AF
:104CBC0020380808080808080808382F10C8ACBAAB
:104CCC002F102834FA00007B000008142A1422222A
:104CDC00142A1408AA005500AAAA55AA55AA00001D
:104CEC0000FF00101010FF00141414FF001010FF30
:104CFC0000FF1010F010F0141414FC001414F70042
:104D0C00FF0000FF00FF1414F404FC141417101F10
:104D1C0010101F101F1414141F00101010F000009E
:104D2C0000001F101010101F10101010F0100000B9
:104D3C0000FF101010101010101010FF10000000C9
:104D4C00FF140000FF00FF00001F10170000FC0400
:104D5C00F414141710171414F404F40000FF00F7E3
:104D6C0014141414141414F700F714141417141046
:104D7C00101F101F141414F4141010F010F0000075
:104D8C001F101F0000001F14000000FC140000F096
:104D9C0010F01010FF10FF141414FF141010101F3B
:104DAC0000000000F010FFFFFFFFFFF0F0F0F0F04C
:104DBC00FFFFFF0000000000FFFF0F0F0F0F0F3869
:104DCC00444438447C2A2A3E147E02020606027EA3
:104DDC00027E0263554941633844443C04407E20C2
:104DEC001E2006027E020299A5E7A5991C2A492AD3
:104DFC001C4C7201724C304A4D4D30304878483062
:104E0C00BC625A463D3E494949007E0101017E2A59
:104E1C002A2A2A2A44445F444440514A444040448C
:104E2C004A51400000FF0103E080FF000008086BBE
:104E3C006B083612362436060F090F0600001818B8
:104E4C000000001010003040FF0101001F01011E86
:104E5C0000191D1712003C3C3C3C000000000000F7
:104E6C00044D5154540400064D51497364700300B1
:104E7C00000000000000000075120A0864656661FD
:104E8C00756C7420004D5342004C5342003C5350FF
:104E9C004953657474696E67732064656661756CDB
:104EAC00743E003C53504953657474696E677320AB
:104EBC002573256C75202573204D4F444525643E84
:104ECC0000000000000000000000000019200A088B
:104EDC001B200A0800081018202830380000000099
:104EEC0000000000DD210A08E3210A08FB250A085E
:104EFC00F1210A08DF210A08000000000000000070
:104F0C00890A0A08BD0A0A0899210A08B3210A0865
:104F1C00F9220A0863220A0835220A08DB210A084A
:104F2C00A5230A0815260A0897220A0871230A08DD
:104F3C00F3240A0845250A08C3210A08B7240A08DD
:104F4C0015220A08776972696E6700544350436CE6
:104F5C0069656E7420736F636B65743D2578006EA4
:104F6C00616E006F7666002E00696E660062617578
:104F7C00640053657269616C0055534253657269E4
:104F8C00616C31007479706500706172616D0063E1
:104F9C006D6400696400686E64007374726D006601
:104FAC00696C74006C766C0061646448616E646C4E
:104FBC0065720072656D6F766548616E646C6572C2
:104FCC0000656E756D48616E646C657273004A5352
:104FDC004F4E53747265616D4C6F6748616E646CB3
:104FEC0065720061707000253031307520005D20D5
:104FFC00002564002C200028293A2000205B006347
:10500C006F6465203D200025690064657461696CDE
:10501C0073203D20000D0A006C6E00666E00636FFD
:10502C0064650064657461696C006E6F6E65007414
:10503C007261636500696E666F007761726E006500
:10504C0072726F720070616E696300616C6C005AF1
:10505C0000252B3033643A253032750025592D2527
:10506C006D2D25645425483A254D3A2553257A0053
:10507C0061736374696D650000000000000000003E
:10508C00092C0A08F92B0A08FB2B0A08000000005F
:10509C0000000000F12C0A08412D0A084F2D0A08C7
:1050AC0057270A082D2D0A08F32C0A08092D0A087F
:1050BC003B2D0A081F2D0A08ED2C0A0800000000E1
:1050CC00000000009D2E0A08ED2E0A08FB2E0A088F
:1050DC0057270A08B12E0A08D32E0A08BF2E0A0831
:1050EC00E72E0A089F2E0A08A32E0A0800000000CB
:1050FC0000000000A12F0A08EB2F0A08C32F0A0892
:10510C00A32F0A08CB2F0A08D32F0A08DB2F0A0873
:10511C00E32F0A080000000000000000F5300A0828
:10512C00EB300A08E1300A085F300A08512A0A08F5
:10513C00D5300A08C9300A08C1300A08B7300A0845
:10514C00AD300A0869300A080000000000000000B9
:10515C0015310A081F310A0829310A0833310A08A7
:10516C003D310A0849310A0855310A0861310A08EB
:10517C0069310A0873310A087D310A080000000001
:10518C000000000000000000000000000000000013
:10519C000000000000000000000000000000000003
:1051AC0000000000000000000000000000000000F3
:1051BC0000000000000000000000000000000000E3
:1051CC0000000000000000000000000000000000D3
:1051DC000000000000000000000000004300000080
:1051EC008D020A0805030A0829030A0801070A08A0
:1051FC00830A0A086F120A08491B0A0881210A0847
:10520C005D2A0A086D2A0A08A52A0A0801310A082B
:10521C00E5310A08BD320A0801330A0881330A084D
:10522C0005340A08C9340A088D350A080000000044
:04523C00000000006E
:085240008CF2FF7F0100000069
:045248000000000062
:10524C00746573742E4D6F7371756974746F2E6FF2
:10525C00726700000103070F1F3F7F0080C0E0F062
:10526C00F8FCFE0000000000000000000000000040
:10527C000000000000000000000000000000000022
:10528C000000000000000000000000000000000012
:10529C000000000000000000000000000000000002
:1052AC000000808080000000000000000000000072
:1052BC00000000008080C0C0000000000000000062
:1052CC0000000000000000000000000000000000D2
:1052DC0000000000000000000000000000000000C2
:1052EC0000000000000000000000000000000000B2
:1052FC000000000000000080C0E0F0F8FCF8E000C6
:10530C000000000000000000000000000000000091
:10531C008080808080008080000000008080808001
:10532C008000FFFFFF000000008080808000008074
:10533C0080000080FFFF8080008080008080808063
:10534C000080800000000000808000008C8E8400B3
:10535C000080F8F8F8800000000000000000000059
:10536C00000000F0F0F0F0F0F0F0F0F0F0F0F0E011
:10537C00E0C08000E0FCFEFFFFFF7FFFFFFFFFFFB0
:10538C000000000000000000000000000000FEFF14
:10539C00C70101010183FFFF00007CFEC701010171
:1053AC000183FFFFFF0038FEC78301010183C7FFA4
:1053BC00FF000001FFFF010100FFFF0701010100D9
:1053CC00007FFF80000000FFFF7F0000FFFFFF0059
:1053DC000001FFFFFF0100000000000000000000C2
:1053EC00000000030F3F7F7FFFFFFFFFFFFFFFE782
:1053FC00C7C78F8F9FBFFFFFC3C0F0FFFFFFFFFF2B
:10540C00FCFCFCFCFCFCFCFCF8F8F0F0E0C000013F
:10541C000303030303010303000000000103030360
:10542C000301010301000000010303030301010355
:10543C000300000003030000000303000000000051
:10544C00000001030303030301000000010301003A
:10545C000000030301000000000000000000000039
:10546C0000000000000080C0E0F0F9FFFFFFFFFF2C
:10547C003F1F0F87C7F7FFFF1F1F3DFCF8F8F8F819
:10548C007C7DFFFFFFFFFFFFFFFF7F3F0F0700301B
:10549C0030000000000000000000000000000000D0
:1054AC0000000000000000FEFEFC000000000000F8
:1054BC0000000000000000000000000000000000E0
:1054CC00E0C00000000000000000000000303000D0
:1054DC0000000000000000000000000000000000C0
:1054EC0000000000C0FEFFFFFFFFFFFFFFFFFF7F7C
:1054FC007F3F1F0F071F7FFFFFF8F8FFFFFFFFFF26
:10550C00FEF8E0000000010000000000000000FEBA
:10551C00FE000000FCFEFC0C06060EFCF80000F081
:10552C00F81C0E0606060CFFFFFF0000FEFE000036
:10553C000000FCFEFC00183C7E66E6CE84000006F3
:10554C00FFFF0606FCFEFC0C0606060000FEFE0035
:10555C0000C0F8FC4E4646464E7C7840183C76E639
:10556C00CECC800000000000000000000000000015
:10557C000000000000000001070F1F1F3F3F3F3FCE
:10558C001F0F030000000000000000000000000FCF
:10559C000F0000000F0F0F000000000F0F000003A2
:1055AC00070E0C18180C060F0F0F0000010F0E0C35
:1055BC00180C0F070100040E0C180C0F070000004C
:1055CC000F0F00000F0F0F0000000000000F0F0066
:1055DC00000007070C0C181C0C060600040E0C1817
:1055EC000C0F07000000000000000000000000008D
:1055FC00000000000000000000000000000000009F
:10560C00000000000000000000000000000000008E
:10561C00000000000000000000000000000000007E
:10562C00000000000000000000000000000000006E
:10563C00000000000000000000000000000000005E
:10564C00000000000000000000000000000000004E
:10565C00000000000000000000000000000000003E
:10566C00000000007C500A080000000088510A0865
:10567C00A8510A08C8510A080000000000000000E8
:10568C000000000000000000E8510A0800000000C3
:10569C0000000000000000000000000000000000FE
:1056AC0000000000000000000000000000000000EE
:1056BC0000000000000000000000000000000000DE
:0C56CC0000000000000000002804002086
:1056D800FFFFFFFF00000102030405060708090A8F
:1056E8000B0C0D0E0F101112131415161718191A8A
:0856F8001B1C1D1E1F202800D1
:045700007856341291
:04000005080A001CC9
:00000001FF
