:02000004080AE8
:1000000000000A081C630A0800000600060005013B
:0800100004027D050000000060
:04001800BC510A08C5
:10001C0009480A4908B5884205D0094A824202D0EB
:10002C00121A04F0C1FC0748074A0021121A04F006
:10003C00C6FC064808BD00BF00000020F05D0A08A1
:10004C000405002004050020BC0B0020BC0B002084
:10005C0070B502F0C9FF074B074C1E46E41AA40802
:10006C000025A54204D056F8253098470135F8E70D
:10007C0070BD00BF8C5D0A08E05D0A0800F024B872
:10008C0008B500F051F8BDE8084002F06FBF02F06F
:10009C00CFB902F0CDB902F0D3B902F0D1B900005A
:1000AC0008B5034A00210C2002F0F6F8FEE700BF69
:1000BC00D11F0A080078B0FA80F04009704701237C
:1000CC00037070477047000010B5124C0121208856
:1000DC0003F0DAFA0121208803F0E7FA01F0D4FDED
:1000EC000D4B0021188803F0CFFA03F099F84FF468
:1000FC00165103F075F80949094800F057FF00F054
:10010C0049F930B903F08CF8BDE81040054902F00C
:10011C00ACBD10BD1800002000000020D0510A0812
:10012C0008050020DE510A082DE9F0477A4890B006
:10013C0000F057FE10B1784800F0FEFF002303AE2C
:10014C0006AF00930193ADF80830039373603381CD
:10015C0006937B603B8109930A93ADF82C3000F039
:10016C004BF9142002F0B0FE00F02EF9824600F09C
:10017C003DF9814600F02EF9804601F02DFE674CCA
:10018C00208803F0ABFA012804D14FF47A7002F006
:10019C009BFEF5E702F084FE1E2490FBF4F505FBB4
:1001AC001405002D40F09D8001F0AAFD5C4C2368E5
:1001BC0018442060504603F0B3FD02460B466846D7
:1001CC00584902F04DF9484603F0AAFD02460B4689
:1001DC003846544902F044F9404603F0A1FD0B4661
:1001EC0002465049304602F03BF922684E4909A8B4
:1001FC0002F036F96A464D49474800F056FF052093
:10020C0002F062FE32464A49434800F04EFF052098
:10021C0002F05AFE3A4647493F4800F046FF052097
:10022C0002F052FE09AA44493B4800F03EFF02F09E
:10023C00F7FF2368414A012102F060FD02F0F0FF54
:10024C00804602F026FE01460CA802F0DFFD0121DB
:10025C000C9A404602F052FD0CA802F075FC02F01C
:10026C00DFFF374902F001FD02F0DAFF1DF805103F
:10027C00013502F0FEFC0A2DF6D102F0D1FF02F09E
:10028C00FBFC02F0CDFF2F4902F0EFFC002502F041
:10029C00C7FF795D013502F0ECFC0A2DF7D102F0B5
:1002AC00BFFF02F0E9FC02F0BBFF274902F0DDFCC6
:1002BC00002502F0B5FF715D013502F0DAFC0A2D64
:1002CC00F7D102F0ADFF02F0D7FC642002F0FCFD88
:1002DC001E4B00211888216003F0E7F929461E20E7
:1002EC0014E0284603F00AFD0022194B03F0D6FD5A
:1002FC0070B101F005FD0A4A002113681844134B34
:10030C001060188803F0D1F920460A2101F0C8FDCD
:10031C0010B0BDE8F08700BF0805002000000020E9
:10032C0000400240F5510A0845520A08FA510A08E1
:10033C000D520A081A520A082C520A083D520A0891
:10034C0048520A084F520A0856520A081800002050
:10035C000000144010B501F0D5FD094C01210846F0
:10036C0001F050FE40F25B7206492046064B00F04D
:10037C0051FC2046BDE81040044A054903F01CBA64
:10038C000805002004000020D1000A080405002004
:10039C0051130A081FB502F043FF02F028FF70B199
:1003AC00084801F011FB044600230293019301233A
:1003BC00044800931A46194601F098F8204604B0F8
:1003CC0010BD00BF60050020014801F011BB00BF4B
:1003DC006005002008B5034801F034FB024903F026
:1003EC003DFF08BD600500200000C842014801F037
:1003FC00FFBB00BF60050020014801F0F5B900BF4C
:10040C006005002008B501F07DFDBDE808400148FD
:10041C0000F0DCBF60050020704710B504462421B5
:10042C0003F0CFF9204610BD10B5074C01F06AFD62
:10043C000421204600F0CEF92046BDE81040034AC6
:10044C00034903F0B9B900BFA4050020040500203E
:10045C0025040A08F0B5447EBDF81450022C08D0CF
:10046C00032C0FD0012C70D10489013CA21A12B2BA
:10047C000CE04489013CA21A048912B2E41A611AF4
:10048C0009B262E04489E41A611A09B2002A5BDB02
:10049C00B0F90840944240F390800029BEBF5B182D
:1004AC001BB20021B0F90A00CC188442C4BF431A15
:1004BC001BB2002B40F38180C9B2C8083F4F02EB3E
:1004CC00C01211F00701DBB207EB020417D0C1F127
:1004DC000801C8B23A4983420E5C3FBFC3EB000E21
:1004EC00FF2141FA0EF10E40B95C012D0CBF3143D6
:1004FC00B1438342B95460D3181AC3B28034072B6A
:10050C0017D9012D0CBFFF2000201A4604F18001E1
:10051C00083AD2B2072A01F8800C01F18001F7D811
:10052C00A3F10802C2F3C402013204EBC21403F0BB
:10053C000703002B41D0234A012DD25C23780CBF3A
:10054C00134393432370F0BDF0BD002A35DBB0F9A3
:10055C000A40944231DD0029BCBFC9180BB2B0F976
:10056C000870B8BF0021CE18BE42C4BF631A1BB2BC
:10057C00002B22DDD01001EBC011104802F0070255
:10058C000144012000FA02F28542D2B209D1013BAA
:10059C001BB25C1C11D011F8010B104301F8010CBB
:1005AC00F5E7D243D2B2013B1BB2581C05D011F86F
:1005BC00010B104001F8010CF5E7F0BD2C000020F8
:1005CC00240000201C000020F0B5447EBDF814501F
:1005DC00022C08D0032C0FD0012C12D10489E41A60
:1005EC00A21A12B26DE00489013C611A448909B265
:1005FC00E41AA21A12B204E04489013C611A09B24D
:10060C005FE000295CDBB0F908408C4240F391803C
:10061C00002ABCBFD21813B2B0F90A00B8BF00222E
:10062C00D4188442C4BF831A1BB2002B40F38180C0
:10063C00D4B2404EDAB2E30801EBC31114F0070454
:10064C0006EB010317D0C4F10804E0B23A4C824225
:10065C00275C3FBFC2EB000EFF2444FA0EF4274088
:10066C00745C012D0CBF3C43BC438242745460D378
:10067C00101AC2B28033072A17D9012D0CBFFF24E0
:10068C000024114603F180000839C9B2072900F88B
:10069C00804C00F18000F7D8A2F10801C1F3C4012D
:1006AC00013103EBC11302F00702002A41D02349A8
:1006BC00012D895C1A780CBF0A438A431A70F0BD6D
:1006CC00F0BD002935DBB0F90A408C4231DD002A3F
:1006DC00BCBFD21813B2B0F90870B8BF0022D6183C
:1006EC00BE42C4BFA31A1BB2002B22DDC81002EB02
:1006FC00C012104801F007011044012202FA01F166
:10070C009542C9B209D15A1E13B25C1C11D010F813
:10071C00012B0A4300F8012CF5E7C943C9B25A1E54
:10072C0013B25A1C05D010F8012B0A4000F8012C0A
:10073C00F5E7F0BD2C000020240000201C00002058
:10074C00F8B50D1E064614461F463FDB00F013FAA3
:10075C0085423BDA002C39DB304600F00FFA84423C
:10076C0034DA304600F005FA022827D13189708935
:10077C0001390138491B001B0DB204B206E00128F7
:10078C0004D13389013B1B1B2C461DB2082094FB62
:10079C00F0F0012F00B20E4B04F0070205EBC01174
:1007AC0004D197405A5C17435F54F8BD585C01273D
:1007BC0007FA02F220EA02025A54F8BD0328DED1ED
:1007CC007389013B5B1B25461CB2DFE7F8BD00BFFC
:1007DC002C00002038B504460D464022802100F044
:1007EC00E7F8064B84F820502360FF23637784F8E6
:1007FC002130E377A377204638BD00BF68520A0842
:10080C0001F080BB2DE9F04F1E4685B0BDF93830A4
:10081C0015469A1A002AB8BF52420092721A002A40
:10082C00B8BF524201920C46009A019981468A4205
:10083C00BDF83CA005DD32461E46134622462C462A
:10084C001546B44205DD2A461D461346224634465B
:10085C0016465A1B002AC4EB0608B8BF52421FFAB0
:10086C0088F803920FFA88F702229D42B4BF012345
:10087C004FF0FF3397FBF2F70293B4421FDC019A5F
:10088C00009B48469342D9F80030C8BF2246D3F8A3
:10089C0010B0C8BF29465346DCBF2A462146D8476C
:1008AC00039BFF1ABBB21FB2002F05DA029A08EBAA
:1008BC00030715442DB23FB2013424B2DDE705B075
:1008CC00BDE8F08F2DE9F347044691460D46984656
:1008DC00BDF82C600768BDF928A00096FF69B847E1
:1008EC0023680AF1FF3200964A44DF6929464346E1
:1008FC00204612B2B847236800969F694A46534671
:10090C0029462046B847236808F1FF310A96294446
:10091C009D694A4653462046AC4609B202B0BDE832
:10092C00F047604737B5013BBDF8185013440468D5
:10093C001BB20093019564690B46A04703B030BD10
:10094C0037B5BDF8185004688DE82400013B0B4402
:10095C0064691BB2A04703B030BD2DE9F3470546CF
:10096C0017460C46BDF92880BDF82C9001EB030A04
:10097C0054450BDA2B68CDF800909E69214643460E
:10098C003A4628460134B04724B2F1E702B0BDE83C
:10099C00F08713B5B0F90E20046801910092002283
:1009AC00B0F90C30646A1146A04702B010BD704714
:1009BC00018181814FF6FF7130B5074D00244281D2
:1009CC00C28101224460056044760482448202762E
:1009DC00C1828182827630BDA0520A082DE9F04F87
:1009EC008FB00691BDF8601004460791BDF86410F5
:1009FC009DF868800891B0F90C10069881427DDD55
:100A0C00B4F90E10914279DD062101FB0800002893
:100A1C0074DD02EBC800002870DD03EB830395B294
:100A2C000C9305F108039BB2099100260D932F46F8
:100A3C00A946052E1FBF334B0C9A9B1913F802A025
:100A4C001FFA88F304930499BDF81830B2B201FB75
:100A5C000231134409B20A911BB20FFA88F108BF94
:100A6C004FF0000A059503910B931AF0010F11D06A
:100A7C00B8F1010F236803D1D3F810B0079B14E031
:100A8C00079A0192039A0092D3F824B013460FFAF6
:100A9C0089F218E0079B089A934217D0B8F1010F1E
:100AAC00236807D1D3F810B013463AB20B992046FD
:100ABC00D8470BE0089A0192039A0092D3F824B01D
:100ACC001346BDF914200A992046D847049B049A72
:100ADC009944059B013713449BB205930D9BBFB200
:100AEC009F424FEA5A0A1FFA89F9BED1099B013677
:100AFC00013B13F0FF0376B2099398D10FB0BDE818
:100B0C00F08F00BFD0520A0830B50A2985B00446D0
:100B1C000B4604D1027E438A03EBC20323E00D296A
:100B2C0024D0057EB0F91220B0F910100295C58AB8
:100B3C000195858A0095FFF751FF227E238A91B299
:100B4C0001EB410003EB4003A07E1BB2238268B192
:100B5C00B4F90C006FF0050505FB0202934205DDAC
:100B6C00638A03EBC103638200232382012005B057
:100B7C0030BD407E7047B0F90C007047B0F90E00E4
:100B8C00704701F0BFB9000038B50B4B84690546BE
:100B9C0003607CB16368013B63605BB923682046EA
:100BAC009B689847A368013BA3601BB92368204648
:100BBC00DB689847284638BDC8580A0810B5044663
:100BCC00FFF7E2FF20461C2102F0FBFD204610BD82
:100BDC0038B51D46059B044603630023436302B1ED
:100BEC00826419B104F1380002F008F8049BE06942
:100BFC002365069BA4F84C50FF2BB8BFFF23A4F829
:100C0C00543008B1FFF749FAB4F85400FFF741FA31
:100C1C00E06138BD2DE9FF410446174698460E4663
:100C2C00002501F039FFE5610A4904F1380001F0B3
:100C3C00D2FFFF2302930F2300932046A564CDF827
:100C4C0004803B462A463146FFF7C2FF204604B0DB
:100C5C00BDE8F081CE590A0810B50446204601F0D3
:100C6C00AFFD0028FAD0204601F05FFDC0B210BDE8
:100C7C002DE9F0470546C4698A46FFF7EDFF4FF0B2
:100C8C00010846462070EB69002793F8009009F0A4
:100C9C00F0092846FFF7E0FFEB69741C985500F04B
:100CAC007F0303FB08770306A4B2BFB24FEAC81850
:100CBC0001D52646EDE7631EB9F1300F8AF80030F6
:100CCC0013D12846D5F81C80FFF7C6FF08F804009E
:100CDC002846D5F81C80FFF7BFFFF41C0236B6B2CD
:100CEC00A4B208F80600022300E000231B1B9EB2EE
:100CFC00A3199BB29F420BD92846FFF7ADFFB5F85D
:100D0C005430A34284BFEB6918550134A4B2EFE709
:100D1C00B5F85400A0422CBF20460020BDE8F08757
:100D2C00F7B507468E461E461D46002405F07F0388
:100D3C0002A9ED09214418BF43F08003013401F8E6
:100D4C00043CE4B2002DF1D1C4F10403D11802F833
:100D5C0003E0A54206DA01A82B1B285C134458714A
:100D6C000135F6E7721C2244384601F086FC054634
:100D7C0001F030F9013478623444A8B2231A584295
:100D8C00584103B0F0BD10B50446C369E0221A7097
:100D9C00C36900225A70C169022201F06EFC204620
:100DAC0001F04AFD01F016F96062A06210BDF0B5C9
:100DBC000D4602339BB26C1A15F8016BA4B23EB10E
:100DCC00B0F854709F4203D95C1CD654A3B2F2E71E
:100DDC00191B0A44211202F8021C02F8014C184695
:100DEC00F0BD38B5054601F0E8FD002814BF01241C
:100DFC00002402D1284601F01FFD204638BD00001A
:100E0C002DE9F04387B00446894617461E46DDF8A7
:100E1C003880FFF7E6FF0546002840F0BD80A16C46
:100E2C0039B90346B4F84C20A16B204601F056FEAC
:100E3C0009E0684602F074F92B46B4F84C20694678
:100E4C00204601F013FD002800F0A280012323842A
:100E5C009DF84C30042B15D1524B18689A88009091
:100E6C00ADF804209B79E26900988DF80630C2F841
:100E7C000500531DBDF804109DF8062099809A7149
:100E8C000C2312E06A46484BD4F81CC01868596809
:100E9C001B7A03C213706B4603CBCCF80500CCF85D
:100EAC00091013788CF80D300E23B8F1000F0AD00E
:100EBC009DF840209DF83C10520142F0060242EA97
:100ECC00C102D2B200E002229DF8481009B902F02A
:100EDC00FD022FB116B942F0800201E042F0C002CF
:100EEC00E169581CCA54226DE16912120A54E16975
:100EFC00206D9A1C88540333E26949462046FFF75B
:100F0C0056FFB8F1000F0BD00346E269414620466C
:100F1C00FFF74DFFE269034611992046FFF747FFA3
:100F2C0067B10346E26939462046FFF740FF2EB110
:100F3C000346E26931462046FFF739FF431F9BB257
:100F4C00E26910212046FFF7EBFE01F043F84FF465
:100F5C007A766062A062204601F032FC40B901F062
:100F6C0039F8A36AC01A236D73439842F3D90FE082
:100F7C0069462046FFF77CFE042809D1E369DE7838
:100F8C0036B901F027F80125A06284F82C6004E042
:100F9C00204601F051FC00E00025284607B0BDE8D2
:100FAC00F08300BFCB570A08D2570A087FB5042339
:100FBC00059301230493002303930293019300935D
:100FCC001A46FFF71DFF07B05DF804FB2DE9F14F42
:100FDC000D9E04468B4691469A469DF828809DF8B6
:100FEC002C509DF83070FFF7FCFE00284BD0B4F865
:100FFC0054200021E06903F0E2FC0523E269594624
:10100C002046FFF7D4FE6B1E012B12D8238CE2690D
:10101C0001339BB223841B121354411CE369228CB1
:10102C0089B2023080B25A541EB1238C5A1C2284CD
:10103C003380002291B283188A459BB209D9B4F847
:10104C00546001329E4204D919F80160E169CE5412
:10105C00F0E7B8F1000F0CBF302131210FB141F096
:10106C000801022D02D141F0040103E0012D08BF5B
:10107C0041F002012046053BE2699BB201B0BDE89C
:10108C00F04FFFF74DBE01B0BDE8F08F1FB5089CC7
:10109C000394002402949DF81C4001949DF8184080
:1010AC000094FFF793FF04B010BD7FB505461046C2
:1010BC000E46144603F0C6FC0023029301930093E2
:1010CC002246034631462846FFF7E0FF04B070BDC8
:1010DC0038B504460D46FFF784FE90B1E3696222F1
:1010EC001A70E36902225A70E3692A129A70E36952
:1010FC000422DD70E169204601F0BFFA003018BF10
:10110C00012038BD38B504460D46FFF76AFE90B194
:10111C00E36972221A70E36902225A70E3692A1297
:10112C009A70E3690422DD70E169204601F0A5FAAA
:10113C00003018BF012038BD2DE9F04F83B000AF4F
:10114C000446FFF74EFE8146002800F0F68000F0C2
:10115C0041FF226D4FF47A735343A26A0546821AFB
:10116C009A4203D8626A821A934217D294F82C30AE
:10117C002BB1204601F060FB4FF00009DDE0E26985
:10118C00C0211170E26920465370E169022201F01E
:10119C0074FA01236562A56284F82C30204601F0B4
:1011AC000FFB002800F0C980F91D2046FFF760FDF9
:1011BC000246002800F0C180E369A562187800F0AF
:1011CC00F00130297DD1D4F830B0BBF1000F00F024
:1011DC00B48097F807C0EA4603EB0C00817890F8CE
:1011EC0001E001EB0E2E1FFA8EFE0EF1080121F02C
:1011FC000701ADEB010D684600218EB2B64506D94C
:10120C000CEB01061E44F67846540131F5E700213B
:10121C0000F80E101E780CF1030106F00606022EE3
:10122C00CCEB02021ED1714413F8018019444978A9
:10123C00CEEB020201EB08280CF105017144053AD2
:10124C001944D847E36940221A70E3691FFA88F8F9
:10125C005E70E3694FEA28229A70E369042283F8EE
:10126C00038020E0042E24D1714413F8018019442A
:10127C004978CEEB020201EB08280CF10501714410
:10128C00053A1944D847E36950221A70E3690222DF
:10129C005A70E3691FFA88F84FEA28229A7032468E
:1012AC00E36983F80380E169204601F0E6F96562A1
:1012BC0005E0033A7144CEEB02021944D847D546F7
:1012CC003BE0502908D19978DB78204603EB0121CB
:1012DC0089B2FFF7FDFE30E040290CD0602908D11F
:1012EC009978DB78204603EB012189B2FFF70AFFDE
:1012FC0023E070290DD1616BF9B1042A1DD110F0D6
:10130C00060F1AD19878DB7803EB002080B288475F
:10131C0013E0902911D0C0290AD1D0221A70E369A8
:10132C0000225A70E1690222204601F0A6F904E07D
:10133C00D02904BF002384F82C3048460C37BD4616
:10134C00BDE8F08F10B50446FFF74BFD10B12046F9
:10135C00FFF719FDE06908B1FEF79FFE04F13800B4
:10136C0001F0F2FB2046FFF70FFC204610BD00F009
:10137C00C9BD00007FB5024613790846956833B1A4
:10138C003DB90C4904B0BDE8704001F06EBC0A4B8D
:10139C0000E00A4B167B0A4C0A49527B012E08BF0F
:1013AC002146029201910095074A002101F0A6FC0A
:1013BC0004B070BDF9570A08CE590A08E8570A0854
:1013CC00F1570A08F5570A080F580A08FF22027449
:1013DC0042748274C27470472DE9F04190F9133055
:1013EC00054601330F4604D11648BDE8F04101F023
:1013FC0009B9072600244FF0010895F913000021C4
:10140C0080B202F052F995F9110008FA06F1394050
:10141C0080B202F04AF995F91300012180B202F072
:10142C0044F995F91200640080B2E4B202F056F966
:10143C0008B144F0010416F1FF36DED22046BDE8B7
:10144C00F08100BFA00A00207FB590F9103004464F
:10145C0001330E46154611D10179006802F014F8DB
:10146C002068314603689B689847206829460368C2
:10147C009B689847206802F00FF82FE090F9133022
:10148C0001330FD1164B174A00930292002301220D
:10149C00694615488DF804308DF80C208DF80D3008
:1014AC0001F040F894F91000002180B202F0FDF830
:1014BC0006F07F012046FFF78FFF29462046FFF7F5
:1014CC008BFF94F91000012180B202F0EEF894F930
:1014DC001330013302D1044801F00BF804B070BD95
:1014EC00E4570A0820A10700A00A0020F8B504461A
:1014FC0090F83C509DF8186061F3871562F3020573
:10150C0063F3C50590F840309DF81CE066F3471373
:10151C0080F8403090F838309DF820706EF3C50399
:10152C0067F3020380F83C5080F8383006F007026D
:10153C00F221FFF789FF94F838202046C2F3C2034A
:10154C0002F007019B0043EA411343EAD212F52152
:10155C00FFF77AFF94F83C202046C2F3C20302F056
:10156C0007019B0043EA411343EA9212F421BDE8C0
:10157C00F840FFF769BF000030B590F9103085B026
:10158C00013304460D4616D10179006801F07CFF49
:10159C002068294603689B689847206801F07CFF07
:1015AC0001222179206801F06CFF206803685B69D7
:1015BC009847C5B230E090F9133001330FD1184B76
:1015CC00184A0093029200230122694616488DF8AE
:1015DC0004308DF80C208DF80D3000F0A3FF94F939
:1015EC001000002180B202F060F845F08001204626
:1015FC00FFF7F2FE00212046FFF7EEFE054694F9B8
:10160C001000012180B202F050F894F9133001332C
:10161C0002D1054800F06DFF284605B030BD00BF73
:10162C00E4570A0820A10700A00A002030B590F961
:10163C00103085B0013304460D461DD10179006888
:10164C0001F022FF2068294603689B6898472068B0
:10165C0001F022FF02222179206801F012FF20689C
:10166C0003685B6998470546206803685B6998477F
:10167C0040EA052085B237E090F9133001330FD1E1
:10168C001B4B1C4A009302920023012269461A4804
:10169C008DF804308DF80C208DF80D3000F042FFE1
:1016AC0094F91000002180B201F0FFFF45F0800199
:1016BC002046FFF791FE00212046FFF78DFE00210A
:1016CC0005462046FFF788FE40EA052085B294F9CE
:1016DC001000012180B201F0E8FF94F913300133BE
:1016EC0002D1054800F005FF284605B030BD00BF0B
:1016FC00E4570A0820A10700A00A002008B5FFF74C
:10170C0095FF40BA80B208BD30B590F9103085B065
:10171C00013304460D4621D10179006801F0B4FE75
:10172C002068294603689B689847206801F0B4FE3E
:10173C0003222179206801F0A4FE206803685B690C
:10174C0098470502206803685B699847284305029F
:10175C00206803685B69984705433BE090F91330B8
:10176C0001330FD11D4B1E4A00930292002301221C
:10177C0069461C488DF804308DF80C208DF80D301E
:10178C0000F0D0FE94F91000002180B201F08DFF22
:10179C0045F080012046FFF71FFE00212046FFF791
:1017AC001BFE002105022046FFF716FE284305020A
:1017BC0000212046FFF710FE054394F9100001218B
:1017CC0080B201F072FF94F91330013302D1054855
:1017DC0000F08FFE284605B030BD00BFE4570A0864
:1017EC0020A10700A00A002010B590F83C20044668
:1017FC0002F0C003402B15D1C2F3C20302F0070163
:10180C009B0043EA411343EA9212F421FFF71CFEBA
:10181C00F3212046FFF7B0FE030703D5012001F0AA
:10182C0053FBF5E710BD38B588210446FFF766FF7A
:10183C008A21A0822046FFF761FF8C21E08220469E
:10184C00FFF75CFF8E2120832046FFF757FF902186
:10185C0060832046FFF752FF9221A0832046FFF7BA
:10186C004DFF9421E0832046FFF748FF962120840A
:10187C002046FFF743FF982160842046FFF73EFF88
:10188C009A21A0842046FFF739FF9C21E084204652
:10189C00FFF734FF9E2120852046FFF72FFFA12163
:1018AC0060852046FFF768FEE12184F82C00204675
:1018BC00FFF724FFE321E0852046FFF75DFEE421DE
:1018CC0084F830002046FFF757FEE52105462046F8
:1018DC00FFF752FE00F00F0040EA05106086E6218B
:1018EC002046FFF749FEE52105462046FFF744FE5A
:1018FC00001140EA0510A086E7212046FFF73CFEC8
:10190C0084F8360038BD08B5F321FFF735FE00F03A
:10191C00010008BD30B5044690F9100085B0421C9A
:10192C0003D1206801F09EFD21E0012180B201F07D
:10193C00BCFE94F91000012180B201F0A5FE94F9CF
:10194C001300431C03D11F4800F0CEFD0FE0012112
:10195C0080B201F099FE94F91100012180B201F0DE
:10196C0093FE94F91200002180B201F08DFED0217B
:10197C002046FFF701FE6028A06020D12046B62249
:10198C00E021FFF761FD4FF4967001F09DFA2046BF
:10199C00FFF7B9FF054608B16420F6E72046FFF7CC
:1019AC0042FF052300931A46032120460295019518
:1019BC00FFF79CFD642001F087FA012000E0002075
:1019CC0005B030BDA00A0020772310B50371044682
:1019DC0001F0D2FE20602046FFF79CFF30B9762341
:1019EC0023712046BDE81040FFF794BF10BD0000E6
:1019FC0010B5FA210446FFF787FEB0F5000F1BD097
:101A0C00A28AC2EB20235B435200C2EBE010B4F974
:101A1C0016201B135043B4F9182053439B1303EBAC
:101A2C00E020E06000EB80008030001202F00EFB42
:101A3C00024902F013FC10BD014810BD0000C84261
:101A4C000000C07F2DE9F84F0646FFF7D1FFF721C4
:101A5C003046FFF759FEB0F5000F074600F0BF8087
:101A6C00F468B6F91C20E517B4F5FA3445F1FF35E6
:101A7C00A4FB048904FB05F302FB05F109EB430904
:101A8C00D31704FB0311A2FB04230B44190341EAF3
:101A9C0012511003B6F91E2002FB09FED31708FBE6
:101AAC0003EEA2FB082373444FEA122A4AEA036AA4
:101ABC001AEB000A728B4FEA232B4BEB010B1AF13A
:101ACC0000004BF50041A0FB02AB02FB01BB4FEA4F
:101ADC006B024FEAEB7352EA030100F0838038117A
:101AEC0040F63547B6F924A0C0F580100AFB09F181
:101AFC004FEAEA7B08FB0B11AAFB0889B6F922A076
:101B0C0089440AFB05F14FEAEA7B04FB0B11AAFBA3
:101B1C0004450D444FEA454B4FEA444A1AEB080A78
:101B2C004BEAD43B4BEB090B4FEAE0794FEAC97512
:101B3C0045EA5005C407B6F920004FF0000818EB31
:101B4C000A084FEAC00949EB0B09B4EB0804A4FBE3
:101B5C00070165EB090507FB051102F01BFCB6F943
:101B6C002A204C1302FB04F7450B45EAC145D31759
:101B7C0005FB0377A2FB052354433B4405FB0344BD
:101B8C00A2FB05232344540E44EAC314B6F92820BF
:101B9C0024184FEA63654D415143D31700FB0313DF
:101BAC00A2FB00011944C20C42EA41321219B6F9E7
:101BBC0026404FEAE1436B41100AE517220140EA47
:101BCC00036019122B0143EA14738018594102F077
:101BDC0053FA4FF06E5102F08DFABDE8F88F0348BE
:101BEC00BDE8F88F0020BDE8F88F00BF0000C07F73
:101BFC0010B50446FFF7FCFEFD212046FFF716FD4D
:101C0C00B0F5004F3AD0B4F93230E268B4F9341080
:101C1C001B05A2F59632C3EB803302FB113303F59F
:101C2C008043D81394F8303094F9361053434A4318
:101C3C00DB12921203F500435343B4F92E209B128E
:101C4C0003F50013534303F500539B134343D8137D
:101C5C00404394F82C20C0115043A3EB201020EAF1
:101C6C00E070B0F1C85FA8BF4FF0C850001302F08D
:101C7C00EDF94FF06A5102F03DFA10BD004810BD6D
:101C8C000000C07F00F03EB908B5154B0021188844
:101C9C0001F0FAFC134B0021188801F0F5FC124BF3
:101CAC000021188801F0F0FC104B0021188801F07D
:101CBC00EBFC0F4B0021188801F0E6FC0D4B0021CA
:101CCC00188801F0E1FC0C4B0021188801F0DCFCB9
:101CDC000A4B01211888BDE8084001F0D5BC00BFB3
:101CEC004004002044040020480400202C04002060
:101CFC003004002034040020380400203C04002070
:101D0C0070B5244B244C00251888256001F0E6FCA6
:101D1C002368224E1844224B2060188801F0DEFC08
:101D2C00236803EB40001F4B2060188801F0D6FCA1
:101D3C00236803EB80001C4B2060188801F0CEFC5C
:101D4C00236803EBC000194B2060188801F0C6FC17
:101D5C00236803EB0010164B2060188801F0BEFCC2
:101D6C00236803EB4010134B2060188801F0B6FC7D
:101D7C002368012103EB80102060308801F095FC72
:101D8C00142001F0A1F83088294601F08EFC20685F
:101D9C0070BD00BF40040020C80500203C0400209A
:101DAC0044040020480400202C04002030040020AF
:101DBC00340400203804002000F0A4B808B500203A
:101DCC0000F01EFB28B100F00BFB80F00100C0B24C
:101DDC0008BD012008BD0000F0B52D4C002185B0D8
:101DEC002046216000F014FB054600F0F3F8294B67
:101DFC00401B98424AD900F0EDF8064601F010FA63
:101E0C00074600F0E7F8244A431B0121384600F04E
:101E1C0075FF2368002B12DD01F002FA1F4900F058
:101E2C0024FF01F0FDF905462168684600F0EEFF3D
:101E3C000099284600F02CFF684600F085FE00F063
:101E4C00CFFA10B1002000F0D3FAFFF7B7FF10B9AA
:101E5C0000F0BEFAF9E7FFF7B1FF04AC002144F83B
:101E6C00101D204600F0D4FA86420FD801F0D8F9A4
:101E7C00054601F00EF80146204600F0C7FF009918
:101E8C00284600F005FF204600F05EFE05B0F0BDD0
:101E9C00CC050020005C26052D580A085D580A0860
:101EAC002DE9F34104460D4600F0FAFF90FBF4F3E4
:101EBC000D4A03FB14001646DFF834800B4F1060FC
:101ECC0000F0EEFF90FBF4F202FB14003368C8F84C
:101EDC0000009842F4D0221A3B68521B012168463C
:101EEC0000F09AFBECE700BFD0050020D4050020E1
:101EFC00D8050020024B00221A6000F003B800BF86
:101F0C00D405002008B5024B1B681B68019308BD63
:101F1C00B001060808B5024B1B689B68019308BD0D
:101F2C00B001060808B5024B1B68DB68019308BDBD
:101F3C00B001060808B5024B1B681B69019308BD6C
:101F4C00B001060808B5024B1B685B69019308BD1C
:101F5C00B001060808B5024B1B681B68019308BD4D
:101F6C00B401060808B5024B1B685B69019308BDF8
:101F7C00B401060808B5024B1B68DB69019308BD68
:101F8C00B401060808B5024B1B681B6A019308BD17
:101F9C00B401060808B5024B1B685B6A019308BDC7
:101FAC00B401060808B5024B1B68DB6B019308BD36
:101FBC00B401060808B5024B1B685B68019308BDA9
:101FCC009C01060808B5024B1B68DB68019308BD31
:101FDC009C01060808B5024B1B685B69019308BDA0
:101FEC009C01060808B5024B1B68DB69019308BD10
:101FFC009C01060808B5024B1B689B6D019308BD3C
:10200C009C01060808B5024B1B685B6E019308BD6A
:10201C00B801060808B5024B1B681B6B019308BD81
:10202C00D001060808B5024B1B689B6B019308BDD9
:10203C00D001060808B5024B1B681B6C019308BD48
:10204C00D001060808B5024B1B689B69019308BDBB
:10205C00C401060808B5024B1B685B6A019308BDF6
:10206C00C401060808B5024B1B689B6A019308BDA6
:10207C00C401060808B5024B1B68DB6A019308BD56
:10208C00C401060808B5024B1B681B6B019308BD05
:10209C00C401060808B5024B1B685B6B019308BDB5
:1020AC00C401060808B5024B1B689B6B019308BD65
:1020BC00C401060808B5024B1B681B6C019308BDD4
:1020CC00C401060808B5024B1B68DB6C019308BD04
:1020DC00AC01060808B5024B1B685B6D019308BD8B
:1020EC00AC01060808B5024B1B689B6D019308BD3B
:1020FC00AC01060808B5024B1B68DB6D019308BDEB
:10210C00AC01060808B5024B1B681B6E019308BD99
:10211C00AC01060808B5024B1B685B6E019308BD49
:10212C00AC01060808B5024B1B689B6E019308BDF9
:10213C00AC01060808B5024B1B68DB6E019308BDA9
:10214C00AC01060808B5024B1B681B6F019308BD58
:10215C00AC01060808B5024B1B685B6F019308BD08
:10216C00AC01060808B5034B1B68D3F8803001930B
:10217C0008BD0000AC01060808B5024B1B681B68C3
:10218C00019308BDBC01060808B5024B1B685B68CF
:10219C00019308BDBC01060808B5024B1B689B687F
:1021AC00019308BDBC01060808B5024B1B68DB682F
:1021BC00019308BDBC01060808B5024B1B681B69DE
:1021CC00019308BDBC01060808B5024B1B681B6ACD
:1021DC00019308BDBC01060808B5024B1B681B6BBC
:1021EC00019308BDBC01060808B5024B1B685B6C6B
:1021FC00019308BDBC01060808B5024B1B681B689F
:10220C00019308BDD801060808B5024B1B685B6832
:10221C00019308BDD801060808B5024B1B681B6961
:10222C00019308BDD801060808B5024B1B685B6911
:10223C00019308BDD801060808B5024B1B689B69C1
:10224C00019308BDD801060808B5024B1B68DB6971
:10225C00019308BDD801060808B5024B1B681B6A20
:10226C00019308BDD801060808B5024B1B685B6AD0
:10227C00019308BDD801060808B5024B1B685B6CBE
:10228C00019308BDC001060808B5024B1B689B6C86
:10229C00019308BDC001060808B5024B1B685B6BB7
:1022AC00019308BDA801020808B5024B1B681B6D01
:1022BC00019308BDA801020808B5024B1B681B68F6
:1022CC00019308BDA401060808B5024B1B685B68A6
:1022DC00019308BDA401060808B5024B1B685B6995
:1022EC00019308BDA401060808B5024B1B689B6945
:1022FC00019308BDA401060808B5024B1B689B6D31
:10230C00019308BDA401060808B5034B1B68D3F85C
:10231C009030019308BD0000A401060808B5034BDA
:10232C001B68D3F89C30019308BD0000A40106087B
:10233C0008B5024B1B685B68019308BDC801060811
:10234C0008B5024B1B689B68019308BDC8010608C1
:10235C0008B5024B1B68DB68019308BDC801060871
:10236C0008B5024B1B681B69019308BDC801060820
:10237C0008B5024B1B685B69019308BDC8010608D0
:10238C0008B5024B1B689B69019308BDC801060880
:10239C0008B5024B1B68DB69019308BDC801060830
:1023AC0008B5024B1B681B6A019308BDC8010608DF
:1023BC0008B5024B1B681B6B019308BDC8010608CE
:1023CC0008B5024B1B685B6B019308BDC80106087E
:1023DC0008B5024B1B689B68019308BDCC0106082D
:1023EC0008B5024B1B685B69019308BDCC0106085C
:1023FC0008B5024B1B68DB6A019308BDCC010608CB
:10240C0008B5024B1B681B6B019308BDCC01060879
:10241C0008B5024B1B685B6B019308BDCC01060829
:10242C0008B5024B1B68DB6B019308BDCC01060899
:10243C0008B5024B1B681B68019308BDA001060878
:10244C0008B5024B1B685B68019308BDA001060828
:10245C0008B5024B1B689B68019308BDA0010608D8
:10246C0008B5024B1B68DB68019308BDA001060888
:10247C0008B5024B1B681B69019308BDA001060837
:10248C0008B5024B1B689B69019308BDA0010608A7
:10249C0008B5024B1B685B6A019308BDA0010608D6
:1024AC0008B5024B1B681B6B019308BDA001060805
:1024BC00704710B50446102101F083F9204610BD79
:1024CC0070B504460E46074B0025036040F80C5FC0
:1024DC00FFF7A0FD30462671FFF74CFDA5602046A6
:1024EC0070BD00BF94580A084FF6FF710079FFF7D2
:1024FC0031BDC068FFF79EBD400830B518600024A0
:10250C001868E5B2884206D90134082C02D040087C
:10251C001860F5E70725024B5B5D137030BD00BFFB
:10252C009C580A082DE9F04380468FB0C0680F46CE
:10253C00FFF778FD98F804401422002109A802F056
:10254C003EFA0B232046002209A9ADF82430FFF7F0
:10255C0021FD9DF82D404CB19DF82C502DB90C9EB1
:10256C009DF834909DF8354003E00024A1462646A2
:10257C0001253B790DB1002B40D19D420BD1BA689E
:10258C00B24208D18DF820908DF82140BDF8201072
:10259C00BA89914232D023BB8DF80F300DF10F0266
:1025AC0004ABB9680A98FFF7A7FF3B7905B113BBD9
:1025BC00AB4209D000213B7B01917C7B9DF80F2025
:1025CC0098F80400009413E0BB68B342F2D38DF882
:1025DC0020908DF82140BDF82020BB899A42E9D18A
:1025EC0009E000231A4698F8040001930093012196
:1025FC00FFF7D8FC02E0049BB342DBD100200FB004
:10260C00BDE8F08308B50079FFF7ACFCC0B208BD9B
:10261C000079FFF7B7BC000010B504460846114618
:10262C001A460023FFF760FE064B00221A704FF685
:10263C00FF7258809A801A689B882260A38020467B
:10264C0010BD00BFDC0500204FF6FF72034B0020CD
:10265C00187058809A80FFF737BE00BFDC05002049
:10266C0037B502AC036804F8011DDD6B012247F29B
:10267C0030532146A84703B030BD10B40368DC6B5F
:10268C0047F23053A44610BC604737B502AC036820
:10269C0004F8011DDD6B214613460122A84703B047
:1026AC0030BD704770470020704710B504461421A8
:1026BC0001F087F8204610BDFDF7EDBC10B50446BF
:1026CC0003689B689847A368013BA3602BB92368F8
:1026DC002046BDE81040DB68184710BD70B50446B5
:1026EC0006464D69044B8C3544F8043B0FCD0FC4A2
:1026FC002B683046237070BD345A0A0810B54369F4
:10270C000446B3F88620B3F884309A4205D0626947
:10271C00B2F884301344187910BD03681B699847CC
:10272C000028F4D14FF0FF3010BD10B543690446BA
:10273C00B3F88620B3F884309A4208D06269B2F8B4
:10274C008430591CA2F884101344187910BD036806
:10275C001B6998470028F1D14FF0FF3010BDF8B538
:10276C0043691746B3F88620B3F8843005469A427D
:10277C000E4606D103681B69984710B94FF0FF3419
:10278C0014E069693046B1F88430B1F886401944D8
:10279C00E41ABC4228BF3C460431224602F004F93C
:1027AC006A69B2F884302344A2F884302046F8BD1C
:1027BC0042690023A2F884304269A2F8863070473F
:1027CC0038B542690446B2F886301BB1B2F88420A1
:1027DC009A420CD0206900F01DFF0368DB68984713
:1027EC0018B363691868FFF7CFFC18B91DE0FFF741
:1027FC00DFFFEFE76069B0F886107F2915D8051D5B
:10280C00C1F18002002329440068FFF7D5FC0028A1
:10281C000BDD6369B3F886200AB9A3F884206269DA
:10282C00B2F886301844A2F886006269B2F8863095
:10283C00B2F88400181A38BD38B5436904461868D4
:10284C00FFF7A2FC18B163691868FFF7BDFC656956
:10285C00FFF7C2FC28606069112200218C3002F065
:10286C00AEF82046BDE83840FFF7A2BF2DE9F04195
:10287C001F4603688AB0DB6A06460C461546984725
:10288C00384600F0C7FE0368DB689847002856D02E
:10289C0000972B46062201210220D6F81480FFF760
:1028AC007BFC2023C8F80000002702937369039770
:1028BC001B6801200193234B02AA009322493B463B
:1028CC00FFF7F2FC73691868FFF75EFC002836D03E
:1028DC003046FFF76DFF0223ADF808302B0A8DF858
:1028EC000A30E3794FF4FA508DF80C30A3798DF857
:1028FC000B508DF80D3063798DF80E3014F8043FC1
:10290C008DF80F30FFF7B8FC73690546102202A949
:10291C001868FFF749FC80462846FFF7ADFC0FCC42
:10292C0075698C350FC523682B70B8F1000F05D075
:10293C0033683046DB6A9847384600E001200AB01D
:10294C00BDE8F08113590A080C590A0810B54369FF
:10295C0004461868FFF718FC08B9002010BD206960
:10296C0000F058FE0368DB6898470028F5D06369CF
:10297C001868FFF701FCB0FA80F0400910BD2DE992
:10298C00F3410025456004460E4617469846FFF76E
:10299C00DDFF60B160690195CDF800802B463A46A9
:1029AC0031460068FFF720FC002803DA01E04FF005
:1029BC00FF30606002B0BDE8F08138B50446FFF727
:1029CC00C5FF00BB6369B3F88610B3F8842091424D
:1029DC0019D11868FFF7D8FB28B163691868FFF79D
:1029EC00CBFB012801D000250EE0236820461B6993
:1029FC009847002814BF0125002505D123682046DF
:102A0C00DB6A984700E00125284638BD08B5FFF77A
:102A1C009DFF003018BF012008BD10B504460023EF
:102A2C000160A0F88430A0F88630883000F02AFBD2
:102A3C00204610BD4FF47A7270B58260144A0023A0
:102A4C0043600260436183610446A0200E46FDF79B
:102A5C001EFB054610B13146FFF7DFFF1420FDF7D2
:102A6C0016FB034628B1012242608260094A0561C7
:102A7C000260A0696561A36128B14368013B4360B2
:102A8C000BB9FFF71BFE2046FFF792FE204670BDE8
:102A9C00C8580A08AC580A0810B50446FFF79CFB46
:102AAC0001462046FFF7C6FF204610BD10B5044670
:102ABC000068FFF769FB10B12068FFF785FB204623
:102ACC0010BD10B504692046FFF7F0FF24B1204675
:102ADC00BDE81040FDF7DFBA10BD00002DE9F04352
:102AEC001F4603688FB0DB6A06460D469046984732
:102AFC00134800F042FD00B302A800F0C3FA2846C8
:102B0C0001F0A0FF002481B200943B4603AA2846A2
:102B1C00FFF7BAFB80B9336809ADD3F82090094BA5
:102B2C0003AC08930FCC0FC5236842462B7008A941
:102B3C003B463046C84700E020460FB0BDE8F08366
:102B4C00980A0020345A0A0810B504460068FFF7AA
:102B5C0077FC204610BD10B50446006808B1FFF79D
:102B6C006FFC00232360A360636010BD38B504467E
:102B7C000D4600680131FFF76BFC10B184E82100B1
:102B8C00012038BD10B50368044613B143688B426D
:102B9C0007D22046FFF7EAFF20B1A3680BB92268E1
:102BAC001370012010BD70B50E4611460446154633
:102BBC00FFF7E8FF18B92046FFF7CDFF09E02A46DA
:102BCC003146A560206801F0EFFE2268A368002161
:102BDC00D154204670BD38B50023044603604360D1
:102BEC00836003730D4639B1084601F02BFF29466B
:102BFC0002462046FFF7D7FF204638BD38B50546BC
:102C0C000C4641B1084601F01DFF214602462846FC
:102C1C00FFF7C9FF01E0FFF79EFF284638BDF8B566
:102C2C0006460D468F180024BD420CD0336815F8AB
:102C3C00011B9B6830469847002801DB0444F3E7EE
:102C4C00002C08BF04462046F8BD70B505460C465E
:102C5C00084649B101F0F6FE2B680246214628468B
:102C6C00BDE87040DB68184770BD08B5FFF7EDFF95
:102C7C0008BD03689B68184738B50D210546FFF75A
:102C8C00F8FF0A2104462846FFF7F3FF204438BD1D
:102C9C0038B50546FFF7D9FF04462846FFF7ECFF89
:102CAC00204438BD012A98BF0A2230B50B468BB0A0
:102CBC0000218DF824100DF12304B3FBF2F505FB74
:102CCC001233DBB2092B94BF30333733DBB22146DE
:102CDC0004F801392B46002DEFD1FFF7B6FF0BB0EE
:102CEC0030BD10B422B90368C9B29B6810BC184738
:102CFC00D2B210BCFFF7D6BFFFF7F3BF0CB42DE96F
:102D0C00F04387B000AF07F1380454F8049B054634
:102D1C000E4623464A461421381D3C60FFF7B8FB8B
:102D2C00132805D8391D2846FFF78FFF044613E0FA
:102D3C0000F1080323F00703E846ADEB030D411C3B
:102D4C0023464A4668463C60FFF7A2FB6946284684
:102D5C00FFF77BFF0446C5461EB12846FFF78CFFE4
:102D6C00044420461C37BD46BDE8F04302B0704712
:102D7C0000231A4619464068FFF7FABA014A024B7B
:102D8C001A6070479D590A08E4050020F0B5144BF1
:102D9C00144F1E68144B064418683B6806449E4248
:102DAC008BB01BD00AA840F8286D01F005FD044635
:102DBC00436901AD03F26C7343610FCC0FC50FCCAB
:102DCC000FC5D4F800E0094CC5F800E001AD0FCDFB
:102DDC000FC40FCD0FC43E60C4F800E00BB0F0BDC3
:102DEC00180600201406002010060020E80500201C
:102DFC0008B50020FFF704FB28B1FFF7F1FA80F0CB
:102E0C000100C0B208BD012008BD000037B50E4B53
:102E1C0004461B6802A819440C4B1B68194440F863
:102E2C00041D01F0C9FC01F07DFC054601F00AFE11
:102E3C000023284400F8013C29462046FFF7CBFE2E
:102E4C00204603B030BD00BF18060020100600203D
:102E5C0010B50020FFF7CEF8044668B9FFF72CFA3E
:102E6C0001280BD12046FFF747FA38B9FFF7C0FF0E
:102E7C0030B9FFF7ADFAF9E7012010BD002010BD05
:102E8C00FFF7B6FF0020FFF7B5F8003018BF0120A0
:102E9C0010BD08B5FFF7DCFFBDE80840FFF7A2B88E
:102EAC0008B5FFF7F6FFFFF771FF014B186808BD77
:102EBC00E8050020024B1A68024B1A60704700BFED
:102ECC004C0400200C0600200021FFF705BA10B5B9
:102EDC008368044613B1032201469847204610BD6F
:102EEC0010B50446FFF7F3FF204610BD034800233E
:102EFC008360034A034900F05FBC00BF1C0600203E
:102F0C0004050020ED2E0A0808B5144B33B100F06F
:102F1C0087F903681B699847002816DC104B33B1FE
:102F2C0000F03CFA03681B699847002810DC0D4B35
:102F3C000BB1AFF300800C4B7BB100F0ADF9036823
:102F4C001B699847002806DC08BDAFF30080E5E755
:102F5C00AFF30080EBE7AFF3008008BD000000008A
:102F6C0000000000000000000000000008B5FFF7A2
:102F7C00CBFFFFF72FF8014B186008BDC00A0020EB
:102F8C000248034A0349121A01F00EBD00400240E8
:102F9C0008400240E85D0A0807B5002300931A4672
:102FAC006FF07701FFF7BAF903B05DF804FB00008E
:102FBC0007B543880A2B08D0502B09D1094B1B6845
:102FCC003BB103B05DF804EB1847FFF7E5FF06E0F3
:102FDC00002300931A466FF07701FFF79FF903B0B7
:102FEC005DF804FB2C06002038B5104C104D2368FE
:102FFC00AB42104B0CBF012200221A7002D0FFF71B
:10300C00BFFF2560FEF7D6FF044601F0E1FC0A4B3A
:10301C0013B12046AFF3008000210748FFF700FAF8
:10302C00BDE8384000210548FFF76EB90440024066
:10303C001E1C279A3006002000000000BD2F0A0835
:10304C00704710B50446182100F0BBFB204610BD9C
:10305C00F8B50F4600F10806051D002416F8011DF1
:10306C000A223846FFF748FEAE42044407D0002C33
:10307C00F4D02E213846FFF7FCFD0444EEE7204641
:10308C00F8BD000010B50446044B112240F8043B77
:10309C00002101F094FC204610BD00BF345A0A08F0
:1030AC000346074A10B543F8042B01F1100251F8FE
:1030BC00044B914243F8044BF9D10A781A7010BDB5
:1030CC00345A0A08024A41600260042202757047B1
:1030DC00345A0A0810B59DF8084044EA032343EA21
:1030EC00024242EA016104234160037510BD0000F5
:1030FC0037B5044D05609DF818500095FFF7EAFFB1
:10310C0003B030BD345A0A0837B50D788B784A783D
:10311C00C97800912946FFF7DDFF03B030BD0000F0
:10312C0010B50446024B0360FFF7EEFF204610BDBE
:10313C00345A0A0841747047704708B50021007C66
:10314C00FFF77AF830EA200028BF4FF0FF3008BDB7
:10315C0008B50121007CFFF76FF830EA200028BF8A
:10316C004FF0FF3008BD08B5007CFFF75DF820EA92
:10317C00E07008BD08B5007CFFF74EF820EAE0705F
:10318C0008BD007CFFF768B810B50446142100F0A8
:10319C0018FB204610BD38B50446007C0D46FFF7E1
:1031AC0043F8002801DC607C28B12946207CFFF71D
:1031BC004BF820EAE07038BD10B50446002363607C
:1031CC004FF47A73A360054B0846236001232174E6
:1031DC0063741146FFF710F8204610BD485A0A08D0
:1031EC000022007CFFF710B8007CFFF73DB8FFF71A
:1031FC00FBBF000010B504461422002101F0DFFBD8
:10320C00054B20466360054BE36040F201132381BC
:10321C008123238210BD00BFB90600203806002090
:10322C0030B50E4D87B001A8FFF7E4FF296811F007
:10323C00010410D12846FCF73DFF60B101AA2146DC
:10324C000748FFF7B9FF2846FCF739FF054A06493E
:10325C00034800F0B1FA024807B030BD3406002034
:10326C00BC0700200405002045310A0810B50446AF
:10327C001422002101F0A3FB054B20466360054B93
:10328C00E36040F2011323818123238210BD00BF30
:10329C006C080020D407002010B50E4C86B001A895
:1032AC00FFF7E4FF2368DB0710D42046FCF702FF8E
:1032BC0060B101AA01210848FFF77EFF2046FCF708
:1032CC00FEFE064A0649044800F076FA024806B0AB
:1032DC0010BD00BFD00700205808002004050020B6
:1032EC0045310A0870474174704708B5007CFEF7F9
:1032FC00E1FE20EAE07008BD08B5007CFEF7B2FEE6
:10330C0020EAE07008BD08B5007CFEF7BBFE30EA91
:10331C00200028BF4FF0FF3008BD08B5007CFEF739
:10332C00A9FE30EA200028BF4FF0FF3008BD007C1A
:10333C00FEF7B0BE10B50446142100F042FA204648
:10334C0010BD70B5457C04460E4625B9007CFEF7D1
:10335C00B1FE002805DD3146207CBDE87040FEF74B
:10336C0079BE284670BD000010B5044608461146CB
:10337C00002262604FF47A72A260054A20742260C7
:10338C00012262741A46FEF75DFE204610BD00BF96
:10339C00785A0A08007CFEF785BE000038B50C4D43
:1033AC00296811F0010411D12846FCF783FE68B19D
:1033BC00084A2146084B0948FFF7D6FF2846FCF778
:1033CC007EFE074A0749054800F0F6F9034838BD68
:1033DC00080A00200C0A0020840900207009002033
:1033EC0004050020F1320A087047F8B50646154668
:1033FC000C468F18BC4206D0336814F8011B9B682E
:10340C0030469847F6E72846F8BD0022007CFEF7C8
:10341C0079BE0021007CFEF77DBE0021007CFEF70A
:10342C0081BE0021007CFEF785BE0021007CFEF7EA
:10343C0089BE10B50446142100F0C3F9204610BD16
:10344C0010B5044608464FF47A73A360044B002170
:10345C00207461602360FEF785FE204610BD00BF1E
:10346C00A85A0A0800231A461946007CFEF72ABE01
:10347C0013B50024007C0094FEF72CFEC0B202B001
:10348C0010BD0123FFF7F4BF0022007CFEF72ABE1B
:10349C000022007CFEF72EBE0121FFF7F9BF0021B0
:1034AC00007CFEF757BE002211464068FEF758BF5D
:1034BC00F0B5164689B011220F460446002103A828
:1034CC0001F07DFA304601F0BDFA0025009581B27D
:1034DC007B6803AA3046FEF7D7FE20B1294620466A
:1034EC00FFF7F0FD03E003A92046FFF7D9FD2046C6
:1034FC0009B0F0BD002211464068FEF751BF002212
:10350C0011464068FEF75CBF00224068FEF750BFD2
:10351C00002281F001014068FEF73ABF00231A46F1
:10352C0019464068FEF72CBF002211464068FEF792
:10353C0007BF002202214068FEF70ABF00231A468B
:10354C004068FEF7F5BE0000024B04225A60024AA6
:10355C001A607047900A0020D05A0A0800231A46B5
:10356C004068FEF7E5BE002202214068FEF7F0BE7F
:10357C00002211464068FEF7E3BE00221146406867
:10358C00FEF7EEBE00231A4619464068FEF7F0BE61
:10359C0000231A4619464068FEF7F2BE002281F05D
:1035AC0001014068FEF7F4BE00224068FEF700BF40
:1035BC00002211464068FEF703BF00221146406806
:1035CC00FEF7EEBE70B516468EB0044608A8FFF79F
:1035DC0059FD1122002103A801F0F1F9304601F048
:1035EC0031FA00250A4B009581B25B6803AA30467C
:1035FC00FEF74AFE20B129462046FFF763FD03E0A3
:10360C0003A92046FFF74CFD20460EB070BD00BF4D
:10361C00900A0020034B044A04280CBF104618469D
:10362C00704700BF980A0020900A0020024B034A02
:10363C001A6000225A607047980A0020045B0A083E
:10364C0010B504460F48FEF7E3FF28B1A4F10D03B3
:10365C00022B01D8002010BD00F08EF8FFF71FFFE1
:10366C0008B1012CF6D9FFF799FEFFF793FE18B1BC
:10367C00A4F11203012BEDD9172C8CBF00200120D3
:10368C0010BD00BFA00A0020172838B504460D460F
:10369C000AD8FF2908D0FFF7D3FF28B129462046C6
:1036AC00BDE83840FEF736BC38BD38B504460D468B
:1036BC00FEF738FCFF2810D0062804D84D2323FA37
:1036CC0000F0C30709D42046FFF7BAFF28B12946FA
:1036DC002046BDE83840FEF72DBC38BD10B5044679
:1036EC00FEF720FC0438C0B2012808D92046FFF7A9
:1036FC00A7FF20B12046BDE81040FEF723BC0020F8
:10370C0010BD000070B50C4C0C4E0D4D0021204628
:10371C00FEF7D6FE20460B4C3246294600F04CF8FC
:10372C0001212046FEF7CCFE324629462046BDE854
:10373C00704000F041B800BFA00A00200405002032
:10374C00BD240A08B00A002013B5084C00231A4601
:10375C00194600932046FFF7CBFC2046044A054946
:10376C0002B0BDE8104000F027B800BFC40A00202A
:10377C00040500204D300A0838B50B4D296811F0AE
:10378C0001040FD12846FCF795FC58B12146074897
:10379C00FFF756FE2846FCF792FC054A05490348FC
:1037AC0000F00AF8014838BDDC0A0020E00A0020CD
:1037BC0004050020F5330A080B460146184600F0B4
:1037CC00EDBFFCF768BC0000184B1A68D1075CBF52
:1037DC0001221A60164B1A68D2075CBF01221A60CC
:1037EC00144B1A68D0075CBF01221A60124B1A687E
:1037FC00D1075CBF01221A60104B1A68D2075CBF5C
:10380C0001221A600E4B1A68D0075CBF01221A60A5
:10381C000C4B1A68D1075CBF01221A600A4B1A685C
:10382C00D2075CBF01221A60704700BF100B00204A
:10383C000C0B0020080B0020040B0020000B0020B8
:10384C00FC0A0020F80A0020F40A0020244B1A6815
:10385C00D0075CBF01221A60224B1A68D1075CBFEB
:10386C0001221A60204B1A68D2075CBF01221A6031
:10387C001E4B1A68D0075CBF01221A601C4B1A68D9
:10388C00D1075CBF01221A601A4B1A68D2075CBFC1
:10389C0001221A60184B1A68D0075CBF01221A600B
:1038AC00164B1A68D1075CBF01221A60144B1A68B8
:1038BC00D2075CBF01221A60124B1A68D0075CBF9A
:1038CC0001221A60104B1A68D1075CBF01221A60E2
:1038DC000E4B1A68D2075CBF01221A60704700BFFA
:1038EC00400B00203C0B0020380B0020340B002038
:1038FC00300B00202C0B0020280B0020240B002068
:10390C00200B00201C0B0020180B0020140B002097
:10391C00244B1A68D0075CBF01221A60224B1A682C
:10392C00D1075CBF01221A60204B1A68D2075CBF1A
:10393C0001221A601E4B1A68D0075CBF01221A6064
:10394C001C4B1A68D1075CBF01221A601A4B1A680B
:10395C00D2075CBF01221A60184B1A68D0075CBFF3
:10396C0001221A60164B1A68D1075CBF01221A603B
:10397C00144B1A68D2075CBF01221A60124B1A68EA
:10398C00D0075CBF01221A60104B1A68D1075CBFCC
:10399C0001221A600E4B1A68D2075CBF01221A6012
:1039AC00704700BF700B00206C0B0020680B0020D0
:1039BC00640B0020600B00205C0B0020580B0020D7
:1039CC00540B0020500B00204C0B0020480B002007
:1039DC00440B0020184B1A68D1075CBF01221A60F7
:1039EC00164B1A68D2075CBF01221A60144B1A6876
:1039FC00D0075CBF01221A60124B1A68D1075CBF5A
:103A0C0001221A60104B1A68D2075CBF01221A609F
:103A1C000E4B1A68D0075CBF01221A600C4B1A6857
:103A2C00D1075CBF01221A600A4B1A68D2075CBF2F
:103A3C0001221A60704700BF900B00208C0B0020F5
:103A4C00880B0020840B0020800B00207C0B0020B6
:103A5C00780B0020740B002081F0004102E000BFC5
:103A6C0083F0004330B54FEA41044FEA430594EA32
:103A7C00050F08BF90EA020F1FBF54EA000C55EA6D
:103A8C00020C7FEA645C7FEA655C00F0E2804FEA3E
:103A9C005454D4EB5555B8BF6D420CDD2C4480EA20
:103AAC00020281EA030382EA000083EA010180EA50
:103ABC00020281EA0303362D88BF30BD11F0004F9E
:103ACC004FEA01314FF4801C4CEA113102D04042D4
:103ADC0061EB410113F0004F4FEA03334CEA13330F
:103AEC0002D0524263EB430394EA050F00F0A78027
:103AFC00A4F10104D5F1200E0DDB02FA0EFC22FA22
:103B0C0005F2801841F1000103FA0EF2801843FA15
:103B1C0005F359410EE0A5F120050EF1200E012A06
:103B2C0003FA0EFC28BF4CF0020C43FA05F3C01844
:103B3C0051EBE37101F0004507D54FF0000EDCF1BD
:103B4C00000C7EEB00006EEB0101B1F5801F1BD366
:103B5C00B1F5001F0CD349085FEA30004FEA3C0C6A
:103B6C0004F101044FEA445212F5800F80F09A8060
:103B7C00BCF1004F08BF5FEA500C50F1000041EB64
:103B8C00045141EA050130BD5FEA4C0C404141EB68
:103B9C00010111F4801FA4F10104E9D191F0000F8F
:103BAC0004BF01460020B1FA81F308BF2033A3F112
:103BBC000B03B3F120020CDA0C3208DD02F1140C09
:103BCC00C2F10C0201FA0CF021FA02F10CE002F144
:103BDC001402D8BFC2F1200C01FA02F120FA0CFC3D
:103BEC00DCBF41EA0C019040E41AA2BF01EB045186
:103BFC00294330BD6FEA04041F3C1CDA0C340EDC84
:103C0C0004F11404C4F1200220FA04F001FA02F3C6
:103C1C0040EA030021FA04F345EA030130BDC4F184
:103C2C000C04C4F1200220FA02F001FA04F340EA79
:103C3C000300294630BD21FA04F0294630BD94F02A
:103C4C00000F83F4801306BF81F480110134013D11
:103C5C004EE77FEA645C18BF7FEA655C29D094EA82
:103C6C00050F08BF90EA020F05D054EA000C04BF00
:103C7C001946104630BD91EA030F1EBF00210020EB
:103C8C0030BD5FEA545C05D14000494128BF41F08A
:103C9C00004130BD14F580043CBF01F5801130BDEE
:103CAC0001F0004545F0FE4141F470014FF0000079
:103CBC0030BD7FEA645C1ABF194610467FEA655C2A
:103CCC001CBF0B46024650EA013406BF52EA0335CC
:103CDC0091EA030F41F4002130BD00BF90F0000FBA
:103CEC0004BF0021704730B54FF4806404F13204F6
:103CFC004FF000054FF0000150E700BF90F0000FAF
:103D0C0004BF0021704730B54FF4806404F13204D5
:103D1C0010F0004548BF40424FF000013EE700BFA5
:103D2C0042004FEAE2014FEA31014FEA02701FBF35
:103D3C0012F07F4393F07F4F81F06051704792F007
:103D4C00000F14BF93F07F4F704730B54FF4607481
:103D5C0001F0004521F0004120E700BF50EA0102CC
:103D6C0008BF704730B54FF000050AE050EA010279
:103D7C0008BF704730B511F0004502D5404261EBE9
:103D8C0041014FF4806404F132045FEA915C3FF42A
:103D9C00DCAE4FF003025FEADC0C18BF03325FEAC3
:103DAC00DC0C18BF033202EBDC02C2F1200300FA78
:103DBC0003FC20FA02F001FA03FE40EA0E0021FA9D
:103DCC0002F11444C1E600BF4FF0FF3C06E000BF17
:103DDC004FF0010C02E000BF4FF0010C4DF804CD88
:103DEC004FEA410C7FEA6C5C4FEA430C18BF7FEA48
:103DFC006C5C1BD001B050EA410C0CBF52EA430C76
:103E0C0091EA030F02BF90EA020F0020704710F1F5
:103E1C00000F91EA030F58BF994208BF90422CBF84
:103E2C00D8176FEAE37040F0010070474FEA410C7D
:103E3C007FEA6C5C02D150EA013C07D14FEA430C9B
:103E4C007FEA6C5CD6D152EA033CD3D05DF8040B0C
:103E5C00704700BF8446104662468C46194663463E
:103E6C0000E000BF01B5FFF7B7FF002848BF10F115
:103E7C00000F01BD4DF808EDFFF7F4FF0CBF01205A
:103E8C0000205DF808FB00BF4DF808EDFFF7EAFFD6
:103E9C0034BF012000205DF808FB00BF4DF808ED91
:103EAC00FFF7E0FF94BF012000205DF808FB00BF86
:103EBC004DF808EDFFF7CEFF94BF012000205DF810
:103ECC0008FB00BF4DF808EDFFF7C4FF34BF01201D
:103EDC0000205DF808FB00BF80F0004002E000BF4E
:103EEC0081F0004142001FBF5FEA410392EA030FD9
:103EFC007FEA226C7FEA236C6AD04FEA1262D2EB23
:103F0C001363C1BFD218414048404140B8BF5B4227
:103F1C00192B88BF704710F0004F40F4000020F0C0
:103F2C007F4018BF404211F0004F41F4000121F0D6
:103F3C007F4118BF494292EA030F3FD0A2F1010220
:103F4C0041FA03FC10EB0C00C3F1200301FA03F15E
:103F5C0000F0004302D5494260EB4000B0F5000F81
:103F6C0013D3B0F1807F06D340084FEA310102F140
:103F7C000102FE2A51D2B1F1004F40EBC25008BFF2
:103F8C0020F0010040EA03007047490040EB0000BC
:103F9C0010F4000FA2F10102EDD1B0FA80FCACF1EB
:103FAC00080CB2EB0C0200FA0CF0AABF00EBC250EA
:103FBC0052421843BCBFD0401843704792F0000FD8
:103FCC0081F4000106BF80F400000132013BB5E72B
:103FDC004FEA41037FEA226C18BF7FEA236C21D0A1
:103FEC0092EA030F04D092F0000F08BF0846704706
:103FFC0090EA010F1CBF0020704712F07F4F04D1D4
:10400C00400028BF40F00040704712F100723CBFE6
:10401C0000F50000704700F0004343F0FE4040F410
:10402C00000070477FEA226216BF08467FEA2363CE
:10403C000146420206BF5FEA412390EA010F40F4B9
:10404C00800070474FF0000304E000BF10F0004305
:10405C0048BF40425FEA000C08BF704743F09643EC
:10406C0001464FF000001CE050EA010208BF704707
:10407C004FF000030AE000BF50EA010208BF70478E
:10408C0011F0004302D5404261EB41015FEA010CA3
:10409C0002BF84460146002043F0B64308BFA3F19B
:1040AC008053A3F50003BCFA8CF2083AA3EBC2537D
:1040BC0010DB01FA02FC634400FA02FCC2F120029C
:1040CC00BCF1004F20FA02F243EB020008BF20F0D3
:1040DC000100704702F1200201FA02FCC2F1200239
:1040EC0050EA4C0021FA02F243EB020008BF20EA2E
:1040FC00DC7070474FF0FF0C1CEAD0521EBF1CEA5C
:10410C00D15392EA0C0F93EA0C0F6FD01A4480EA49
:10411C00010C400218BF5FEA41211ED04FF0006332
:10412C0043EA501043EA5111A0FB01310CF000405E
:10413C00B1F5000F3EBF490041EAD3715B0040EA84
:10414C00010062F17F02FD2A1DD8B3F1004F40EB54
:10415C00C25008BF20F00100704790F0000F0CF027
:10416C00004C08BF49024CEA502040EA51207F3AEB
:10417C00C2BFD2F1FF0340EAC250704740F40000C6
:10418C004FF00003013A5DDC12F1190FDCBF00F0B7
:10419C0000407047C2F10002410021FA02F1C2F165
:1041AC00200200FA02FC5FEA310040F1000053EA01
:1041BC004C0308BF20EADC70704792F0000F00F04F
:1041CC00004C02BF400010F4000F013AF9D040EA55
:1041DC000C0093F0000F01F0004C02BF490011F4E9
:1041EC00000F013BF9D041EA0C018FE70CEAD153E7
:1041FC0092EA0C0F18BF93EA0C0F0AD030F0004C67
:10420C0018BF31F0004CD8D180EA010000F000401A
:10421C00704790F0000F17BF90F0004F084691F0D8
:10422C00000F91F0004F14D092EA0C0F01D1420212
:10423C000FD193EA0C0F03D14B0218BF084608D1DB
:10424C0080EA010000F0004040F0FE4040F4000025
:10425C00704740F0FE4040F4400070474FF0FF0CB8
:10426C001CEAD0521EBF1CEAD15392EA0C0F93EAFF
:10427C000C0F69D0A2EB030280EA010C49024FEA51
:10428C00402037D04FF0805343EA111143EA10130A
:10429C000CF000408B4238BF5B0042F17D024FF4C2
:1042AC00000C8B4224BF5B1A40EA0C00B3EB510F9D
:1042BC0024BFA3EB510340EA5C00B3EB910F24BF86
:1042CC00A3EB910340EA9C00B3EBD10F24BFA3EB0B
:1042DC00D10340EADC001B0118BF5FEA1C1CE0D1D3
:1042EC00FD2A3FF650AF8B4240EBC25008BF20F086
:1042FC00010070470CF0004C4CEA50207F32C2BFDA
:10430C00D2F1FF0340EAC250704740F400004FF076
:10431C000003013A37E792F0000F00F0004C02BFA7
:10432C00400010F4000F013AF9D040EA0C0093F071
:10433C00000F01F0004C02BF490011F4000F013BCB
:10434C00F9D041EA0C0195E70CEAD15392EA0C0F33
:10435C0008D142027FF47DAF93EA0C0F7FF470AF6B
:10436C00084676E793EA0C0F04D14B023FF44CAFAE
:10437C0008466EE730F0004C18BF31F0004CCAD143
:10438C0030F000427FF45CAF31F000437FF43CAF7F
:10439C005FE700BF7BB972B90029BEBF00204FF0A8
:1043AC00004106E008BF00281CBF6FF000414FF031
:1043BC00FF3000F0B5B9ADF1080C6DE904CE002961
:1043CC0009DB002B1ADB00F035F8DDF804E0DDE941
:1043DC00022304B07047404261EB4101002B1BDB10
:1043EC0000F028F8DDF804E0DDE9022304B04042D7
:1043FC0061EB4101524263EB43037047524263EB62
:10440C00430300F017F8DDF804E0DDE9022304B003
:10441C00404261EB41017047524263EB430300F0B1
:10442C0009F8DDF804E0DDE9022304B0524263EB45
:10443C00430370472DE9F04F8C460C460546099E08
:10444C00002B4FD18A4217466BD9B2FA82FEBEF1CD
:10445C00000F0BD0CEF1200520FA05F501FA0EF372
:10446C0045EA030C02FA0EF700FA0EF5390CBCFB08
:10447C00F1F0BAB201FB10C300FB02F84FEA154C85
:10448C004CEA0344A04509D9E41900F1FF3380F04C
:10449C002881A04540F2258102383C44C8EB040435
:1044AC00B4FBF1F301FB134C03FB02F2ACB244EA94
:1044BC000C418A4209D9C91903F1FF3480F00F81EC
:1044CC008A4240F20C81023B39448A1A43EA00408A
:1044DC000021002E63D022FA0EF2002386E80C0095
:1044EC00BDE8F08F8B4207D9002E56D0002186E80C
:1044FC0011000846BDE8F08FB3FA83F1002940F0B3
:10450C009380A34202D3824200F2FE80851A64EBB0
:10451C0003039C460120002E41D086E82010BDE804
:10452C00F08F12B90127B7FBF2F7B7FA87FEBEF18D
:10453C00000F36D1E41B4FEA17481FFA87F9012107
:10454C00B4FBF8F308FB134409FB03F24FEA154CD8
:10455C004CEA0444A24207D9E41903F1FF3002D219
:10456C00A24200F2D3800346A41AB4FBF8F008FB75
:10457C00104809FB00F9ACB244EA0842914507D94E
:10458C00D21900F1FF3402D2914500F2BA802046D4
:10459C00C9EB020240EA03409BE731463046BDE8D6
:1045AC00F08F07FA0EF7CEF1200C24FA0CF34FEA39
:1045BC001748B3FBF8FA1FFA87F908FB1A3520FAEB
:1045CC000CFC04FA0EF40AFB09FB4CEA040C4FEA4F
:1045DC001C4242EA05439B4500FA0EF50AD9DB1949
:1045EC000AF1FF3280F08B809B4540F28880AAF163
:1045FC00020A3B44CBEB0303B3FBF8F008FB10338C
:10460C0000FB09F41FFA8CFC4CEA03439C4207D9CB
:10461C00DB1900F1FF326ED29C426CD902383B445C
:10462C001C1B40EA0A418BE7C1F1200E8B4022FA99
:10463C000EFC4CEA030C24FA0EF74FEA1C49B7FBAC
:10464C00F9FA1FFA8CF309FB1A7720FA0EF88C4052
:10465C000AFB03F548EA04044FEA144848EA074702
:10466C00BD4202FA01F200FA01FB09D917EB0C0763
:10467C000AF1FF3041D2BD423FD9AAF1020A674488
:10468C007F1BB7FBF9F509FB157705FB03F3A4B208
:10469C0044EA0747BB4208D917EB0C0705F1FF307A
:1046AC0027D2BB4225D9023D674445EA0A40A0FB0C
:1046BC000289FF1A4F4545464C4614D329D066B3A0
:1046CC00BBEB050367EB040707FA0EFECB40CF40AC
:1046DC004EEA030386E888000021BDE8F08F2346EC
:1046EC00F3E61846DAE6B8EB020569EB0C04013880
:1046FC00E5E70546D9E7104692E78246C0E79246C1
:10470C0078E702383A4443E7084604E7023B3C4466
:10471C002AE7C345E7D33C46D1E73146BDE8F08FE5
:10472C00704700BF094B70B51C680646256C3DB937
:10473C001A20FDF77DFE1A222064294600F03FF96D
:10474C00216C3046BDE8704000F002B8B404002083
:10475C0010B50C46416986B001F26C71036982692F
:10476C000491016803EB43030391416802EB42029D
:10477C00029181680191C1682046009104490B4463
:10478C0004490A440449FDF773FE204606B010BDE7
:10479C00455B0A08305B0A08695B0A0810B5054CD2
:1047AC0013462CB10A4601460220AFF3008010BD1F
:1047BC00204610BD0000000038B5074B05461C68AC
:1047CC00E36B1BB92420FDF733FEE063E16B284655
:1047DC00BDE8384000F002B8B40400202DE9F041E7
:1047EC000C46804600F048FC21460746404600F047
:1047FC0047FC4669044606F26C76B30705D1642281
:10480C0096FBF2F302FB13634BB94FF4C87596FB9E
:10481C00F5F305FB1365B5FA85F35B0900E001239D
:10482C005F4A302505FB032500F05AFA00F05AFACE
:10483C005C4B1B68F3B17B689E4205D13968D8F894
:10484C000030FA6941B90AE0304600F0A1F90028BD
:10485C00F4D14FF0FF330DE0934208DB01E09342BB
:10486C0007DABA6B9342ACBF0023012302E00023AA
:10487C0000E001232362236A3C20012B0CBFF96B5F
:10488C00396A4FF4616391FBF3F603FB161393FB48
:10489C00F0F200FB123061682368891AA2681B1AB7
:1048AC00921B3B2B23606160A26003DD01316160D0
:1048BC003C3B04E0002B03DA013961603C3323609C
:1048CC0063683B2B03DD0132A2603C3B04E0002B10
:1048DC0003DA013AA2603C336360A368172B22DD34
:1048EC00E269183B0132E261A269A3600132062A37
:1048FC00C8BF0022A261E26823690132E26055F868
:10490C0023108A4246DD01330C2B08BF6369A2EBEE
:10491C000102E26005BF013300222361226104BF62
:10492C006361E26136E0002B34DAE2691833013A54
:10493C00E261A269A360013A48BF0622A261E26863
:10494C00013AE26032BB2369013B01D423611DE0D3
:10495C000B23236163695A1E12F0030F626103F289
:10496C006B7305D1642193FBF1F201FB12324AB94E
:10497C004FF4C87193FBF1F201FB1233B3FA83F3DA
:10498C005B0900E0012303F5B673E361236955F875
:10499C002330E36000F0A5F92046BDE8F08100BFAC
:1049AC00F05C0A08B00B002010B5431E0A4491427B
:1049BC0004D011F8014B03F8014FF8E710BD034682
:1049CC000244934202D003F8011BFAE7704700003F
:1049DC0038B5124B05461C68A36BD3B91820FDF7EC
:1049EC0027FD43F20E33A06303804AF6CD33438098
:1049FC0041F2342383804EF26D63C3804DF6EC6339
:104A0C000381052343810B23838101220023C0E909
:104A1C000423A36B00221D615A6138BDB40400202D
:104A2C0010F8012B11F8013B012A28BF9A42F7D04C
:104A3C00D01A7047034611F8012B03F8012B002AFA
:104A4C00F9D17047034613F8012B002AFBD1181A31
:104A5C000138704730B582B1451E013915F8013F58
:104A6C0011F8014FA34206D1EC431444E04201D0AB
:104A7C00002BF3D11C46181B30BD104630BD000076
:104A8C002DE9F0470E4680463B48D0F8009035465D
:104A9C0015F8014B09EB0400407800F0080000F019
:104AAC00FF0708B12E46F2E72D2C03D1B51C747804
:104ABC00012703E02B2C04BF7478B51C13B1102B09
:104ACC000AD153E0302C4FD1287800F0DF00582861
:104ADC0045D16C78102302354FF0FF3CBCFBF3FC46
:104AEC0003FB0CFA00266FEA0A0A304609EB040EA7
:104AFC009EF801E01EF0040F01D0303C0BE01EF0DC
:104B0C00030E1AD0BEF1010F0CBF4FF0370E4FF051
:104B1C00570ECEEB0404A3420FDD002E08DB6045DC
:104B2C0006D801D1544503DC03FB0040012601E00B
:104B3C004FF0FF3615F8014BD8E7002E07DA222389
:104B4C00C8F800304FF0FF302AB9BDE8F08707B144
:104B5C00404272B106B1691E1160BDE8F087302485
:104B6C00002BB9D10823B7E70A23B5E7302CABD01B
:104B7C00B2E7BDE8F08700BF5004002013460A4698
:104B8C00014602480068FFF77BBF00BFB404002059
:104B9C002DE9F74F044600F06FFA40F2B1739C42D6
:104BAC0040F3968040F26D156FF4F663E318A4F2AF
:104BBC00B2729B1005FB0235A4F26D726FF06303A9
:104BCC0092FBF3F36FF4C8622B44A5184FF4C87230
:104BDC0094FBF2F795FBF2F502FB17471D44642397
:104BEC0094FBF3F6B7FA87FE014603FB164600F179
:104BFC003803019304F0030344604FEA5E1E0093F4
:104C0C004FF0070C0B7A4A2B0ED14B69009AEC181B
:104C1C0002B906B927B93B2BD4BF0023012300E00E
:104C2C0000232344013B3FE0442B02D14B692B442E
:104C3C003AE0009B2BB9002E0CBFF0464FF0010858
:104C4C0000E0F046A946244B302202FB0838CC6821
:104C5C00A8F1040A0123A34204DA5AF804BF013371
:104C6C00D944F8E709F1040393FBFCFBCBEBCB0A2B
:104C7C00CAEB030A4B69012CB8BF0124B3EB0A0A37
:104C8C000B6904F1804403F1FF3304F1FF3448BF96
:104C9C000AF1070AC3EBC30358F824405344A34258
:104CAC0001DB073BFBE74B448C690C4A02FB0343DB
:104CBC000C6A234441F81C3F019B9942A2D1C36961
:104CCC00826B9342ACBF002301230360012000E000
:104CDC00002003B0BDE8F08FF05C0A0880510100A1
:104CEC0070477047014B186800F002B8B4040020FC
:104CFC002DE9F04F8DB0074600F0BEF9B0490446DF
:104D0C00384600F0B1F9AF4E054660B9AE4BAF4A2C
:104D1C001860AF4B1860AF4B30681A605A60FDF7E3
:104D2C008FFB356048E1316879B93068FDF788FB55
:104D3C002846FFF787FE411C3846FDF7B1FB306073
:104D4C0048B12946FFF776FE05E0FFF769FE00281B
:104D5C0000F03281E9E72B780AAE3A2B08BF013517
:104D6C0033469D4A9D492846FDF78AFB002840F3AF
:104D7C0023810A9BEF18EB5C2D2B03D101374FF0ED
:104D8C00FF3503E02B2B08BF013701250DF1200A5D
:104D9C000DF11E0B4FF000080396CDF808A00196FC
:104DAC00CDF800B0334607AA8D493846ADF81E80C1
:104DBC00ADF82080FDF764FB404540F3FD80BDF865
:104DCC001E20BDF820303C2101FB0233BDF81C2015
:104DDC004FF4616101FB02335D437F4B25627D4DD6
:104DEC00DFF808922B600A9B4A461F447B493346E6
:104DFC003846FDF745FB404508DC2B68226A6B60A2
:104E0C00714B1A60724BC3F80080D5E00A9BC5F851
:104E1C000490FD18FB5C2D2B03D101354FF0FF37AF
:104E2C0003E02B2B08BF013501270023ADF81C3004
:104E3C00ADF81E30ADF820300A930396CDF808A0DB
:104E4C000196CDF800B0334607AA65492846FDF710
:104E5C0017FB002804DC236AA3F56163E3630EE00F
:104E6C00BDF81E20BDF820303C2101FB0233BDF8FB
:104E7C001C204FF4616101FB02335F43E76327465B
:104E8C000A9B4FF000091D442B782C2B08BF0135D1
:104E9C0095F80080B8F14D0F26D10DF12603029341
:104EAC0009AB00930396019633460DF122024D494E
:104EBC002846FDF7E5FA03287ED1BDF822104B1EDB
:104ECC000B2B79D8BDF82420531E042B74D8BDF8B5
:104EDC002630062B70D887F80880F9603A617B6120
:104EEC000A9B05EB03082AE0B8F14A0F06BF4346BC
:104EFC00013544230A220BA928460593FFF73EFEF1
:104F0C00DDF82C80ADF826004545059B14D14D23CA
:104F1C00B9F1000F07D123720323E360022323614D
:104F2C00C4F814900BE084F824300B23A362012303
:104F3C00E3620023236302E080B23B7278610223B8
:104F4C00ADF81C300023ADF81E30ADF820300A93BC
:104F5C0098F800302F2B0BD10396CDF808A00196B2
:104F6C00CDF800B0334607AA1F494046FDF788FA32
:104F7C00BDF81E20BDF820303C2101FB0233BDF8EA
:104F8C001C204FF4616101FB0233BB610A9D09F1E6
:104F9C000109B9F1020F454407F11C077FF474AF06
:104FAC006068FFF7F5FD226A074B1A60E36B9B1AEA
:104FBC00074A18BF012313600DB0BDE8F08F00BF86
:104FCC00505D0A08AC0B0020B40B0020535D0A089E
:104FDC00B00B0020B80400209F0B0020575D0A087E
:104FEC007A5D0A08665D0A08795D0A08940B002050
:104FFC002DE9F84F07468B46904600F0D7F8194B31
:10500C001D689A463DB15C46234613F8012B42B10C
:10501C003D2A1C46F8D1384600F0C9F80020BDE8FE
:10502C00F88FCBEB0404A94659F8040B0028F2D0F6
:10503C0022465946FFF70EFD88B959F8043C1E1953
:10504C001B5D3D2B0BD1DAF800303846ED1AAD1054
:10505C00C8F8005000F0ABF8701CBDE8F88F4D4656
:10506C00E1E700BF0005002007B501AAFFF7C0FF6C
:10507C0003B05DF804FB000000487047C00400203A
:10508C000268464BF0B592FBF3F403FB1422002AA2
:10509C00BCBF02F5A83202F5C0724FF4616092FBFE
:1050AC00F0F300FB13224FF03C008B6092FBF0F30B
:1050BC0000FB132204F52F24ACBF04F66C2404F679
:1050CC006B244B600A600723E21C92FBF3F3344D14
:1050DC00C3EBC30394FBF5F5D31A48F6AC6240F26C
:1050EC00B4578B612F4B304803FB0544B4FBF2F2F1
:1050FC00B4FBF7F3B4FBF0F02244D21A48F69466F2
:10510C00131A40F26D12B3FBF6F6B3FBF2F0B3FBDD
:10511C00F7F33444E31A02FB103303EB83029924B4
:10512C000232B2FBF4F25443A61C0524B6FBF4F491
:10513C000A2A34BF02266FF0090616444FF4C872CF
:10514C0002FB05055F1C012E98BF0135B3F5997F55
:10515C00A7EB040702D3A3F5997214E0820705D1DB
:10516C006424B0FBF4F204FB12024AB94FF4C87287
:10517C00B0FBF2F402FB1400B0FA80F2520900E02A
:10518C0001223B331A44A5F26C750023CA614D61B0
:10519C000E61CF600B620846F0BD00BF805101006C
:1051AC00B13A02004FC5FDFFB03A0200704770479C
:1051BC001D000A085D000A0889000A088D000A080B
:1051CC000000000077656174686572636C69656ED8
:1051DC007400424D45323830206E6F7420696E6910
:1051EC007469616C697A656400252E326600776596
:1051FC0061746865722F54656D7065726174757237
:10520C0000776561746865722F5472796B007765ED
:10521C0061746865722F46756774696768656400A8
:10522C00776561746865722F5261696E66616C6C2A
:10523C0000637572656E743A2025640054656D7058
:10524C003A200048756D693A200050726573733AC4
:10525C0020000000000000000000000025040A08E7
:10526C0027040A08150B0A082B2C0A084D070A08F4
:10527C0011080A08D5050A0861040A08D1080A08A9
:10528C0067090A089F090A08BB090A080000000000
:10529C00000000000000000000000000150B0A08D0
:1052AC002B2C0A08AD000A0811080A0831090A0853
:1052BC004D090A08D1080A0867090A089F090A0853
:1052CC00BB090A0800000000003E5B4F5B3E3E6BD2
:1052DC004F6B3E1C3E7C3E1C183C7E3C181C577D84
:1052EC00571C1C5E7F5E1C00183C1800FFE7C3E7D0
:1052FC00FF0018241800FFE7DBE7FF30483A060EE2
:10530C002629792926407F050507407F05253F5A28
:10531C003CE73C5A7F3E1C1C08081C1C3E7F142298
:10532C007F22145F5F005F5F06097F017F00668943
:10533C00956A606060606094A2FFA29408047E0489
:10534C000810207E201008082A1C08081C2A0808AF
:10535C001E101010100C1E0C1E0C30383E3830066F
:10536C000E3E0E06000000000000005F000000076B
:10537C00000700147F147F14242A7F2A1223130899
:10538C00646236495620500008070300001C224175
:10539C00000041221C002A1C7F1C2A08083E080819
:1053AC0000807030000808080808000060600020C9
:1053BC00100804023E5149453E00427F40007249AC
:1053CC004949462141494D331814127F1027454550
:1053DC0045393C4A49493141211109073649494966
:1053EC0036464949291E00001400000040340000D4
:1053FC00000814224114141414140041221408023D
:10540C00015909063E415D594E7C1211127C7F49AF
:10541C004949363E414141227F4141413E7F494904
:10542C0049417F090909013E414151737F08080830
:10543C007F00417F41002040413F017F0814224101
:10544C007F404040407F021C027F7F0408107F3E5B
:10545C004141413E7F090909063E4151215E7F09C8
:10546C00192946264949493203017F01033F40402F
:10547C00403F1F2040201F3F4038403F631408141A
:10548C006303047804036159494D43007F41414152
:10549C000204081020004141417F04020102044033
:1054AC0040404040000307080020545478407F28B7
:1054BC004444383844444428384444287F385454AD
:1054CC00541800087E090218A4A49C787F080404D0
:1054DC007800447D40002040403D007F102844006F
:1054EC0000417F40007C047804787C080404783800
:1054FC0044444438FC1824241818242418FC7C0830
:10550C00040408485454542404043F44243C4040AC
:10551C00207C1C2040201C3C4030403C442810285F
:10552C00444C9090907C4464544C440008364100A8
:10553C000000770000004136080002010204023C22
:10554C002623263C1EA1A161123A4040207A3854F1
:10555C00545559215555794121545478412155546C
:10556C00784020545579400C1E52721239555555BD
:10557C0059395454545939555454580000457C41A8
:10558C000002457D420001457C40F0292429F0F0C1
:10559C00282528F07C545545002054547C547C0A12
:1055AC00097F4932494949323248484832324A48DF
:1055BC0048303A4141217A3A42402078009DA0A0DF
:1055CC007D39444444393D4040403D3C24FF242433
:1055DC00487E4943662B2FFC2F2BFF0929F620C050
:1055EC00887E090320545479410000447D413048A1
:1055FC00484A32384040227A007A0A0A727D0D19E4
:10560C00317D2629292F28262929292630484D4045
:10561C0020380808080808080808382F10C8ACBA41
:10562C002F102834FA00007B000008142A142222C0
:10563C00142A1408AA005500AAAA55AA55AA0000B3
:10564C0000FF00101010FF00141414FF001010FFC6
:10565C0000FF1010F010F0141414FC001414F700D8
:10566C00FF0000FF00FF1414F404FC141417101FA7
:10567C0010101F101F1414141F00101010F0000035
:10568C0000001F101010101F10101010F010000050
:10569C0000FF101010101010101010FF1000000060
:1056AC00FF140000FF00FF00001F10170000FC0497
:1056BC00F414141710171414F404F40000FF00F77A
:1056CC0014141414141414F700F7141414171410DD
:1056DC00101F101F141414F4141010F010F000000C
:1056EC001F101F0000001F14000000FC140000F02D
:1056FC0010F01010FF10FF141414FF141010101FD2
:10570C0000000000F010FFFFFFFFFFF0F0F0F0F0E2
:10571C00FFFFFF0000000000FFFF0F0F0F0F0F38FF
:10572C00444438447C2A2A3E147E02020606027E39
:10573C00027E0263554941633844443C04407E2058
:10574C001E2006027E020299A5E7A5991C2A492A69
:10575C001C4C7201724C304A4D4D303048784830F8
:10576C00BC625A463D3E494949007E0101017E2AF0
:10577C002A2A2A2A44445F444440514A4440404423
:10578C004A51400000FF0103E080FF000008086B55
:10579C006B083612362436060F090F06000018184F
:1057AC000000001010003040FF0101001F01011E1D
:1057BC0000191D1712003C3C3C3C0000000000008E
:1057CC00044D5154540400064D5149736470030048
:1057DC00000000000000000081130A086465666187
:1057EC00756C7420004D5342004C5342003C535096
:1057FC004953657474696E67732064656661756C72
:10580C00743E003C53504953657474696E67732041
:10581C002573256C75202573204D4F444525643E1A
:10582C000054696D6520776173206C61737420730B
:10583C00796E6368726F6E697A656420256C752069
:10584C006D696C6C697365636F6E64732061676FEF
:10585C000054696D652072656365697665642066C0
:10586C00726F6D205061727469636C65204465764B
:10587C0069636520436C6F7564207761733A20000F
:10588C000000000000000000BD240A08BF240A0824
:10589C00000810182028303800000000000000001C
:1058AC00B1260A08B7260A08CF2A0A08C5260A080C
:1058BC00B3260A080000000000000000950B0A083F
:1058CC00C90B0A086D260A0887260A08CD270A087C
:1058DC0037270A0809270A08AF260A0879280A0870
:1058EC00E92A0A086B270A0845280A08C7290A0862
:1058FC00192A0A0897260A088B290A08E9260A0891
:10590C00776972696E6700544350436C69656E74B5
:10591C0020736F636B65743D25780062617564005C
:10592C0053657269616C0055534253657269616CC1
:10593C0031007479706500706172616D00636D6423
:10594C0000696400686E64007374726D0066696C43
:10595C0074006C766C0061646448616E646C657292
:10596C000072656D6F766548616E646C657200657A
:10597C006E756D48616E646C657273004A534F4E60
:10598C0053747265616D4C6F6748616E646C6572BF
:10599C000061707000253031307520005D20002CC6
:1059AC00200028293A2000205B00636F6465203DAD
:1059BC00200025690064657461696C73203D2000CA
:1059CC000D0A006C6E00666E00636F6465006465A2
:1059DC007461696C006E6F6E650074726163650052
:1059EC00696E666F007761726E006572726F72001D
:1059FC0070616E696300252B3033643A2530327543
:105A0C000025592D256D2D25645425483A254D3AF0
:105A1C002553257A0061736374696D65000000007D
:105A2C0000000000000000005D300A084D300A083C
:105A3C004F300A08000000000000000045310A0841
:105A4C0095310A08A3310A082B2C0A0881310A085F
:105A5C0047310A085D310A088F310A0873310A0888
:105A6C0041310A080000000000000000F1320A0871
:105A7C0041330A084F330A082B2C0A0805330A084D
:105A8C0027330A0813330A083B330A08F3320A088F
:105A9C00F7320A080000000000000000F5330A0885
:105AAC003F340A0817340A08F7330A081F340A0867
:105ABC0027340A082F340A0837340A08000000007B
:105ACC000000000049350A083F350A0835350A0838
